:020000040000FA
:0400000061EF00F0BC
:060008005F8234EFD4F02A
:100018005F80D8CF58F1E8CF59F1E0CF5AF1FACF45
:100028005BF1FBCF5CF1D9CF5DF1DACF5EF1F3CFB5
:100038005FF1F4CF60F10E01C6B3CEA303D08DEC0F
:10004800E2F027D0C5B7CDA703D04DECE5F021D01D
:10005800C5B5CDA503D094ECC7F01BD0C6B5CEA5C9
:1000680003D01DECE1F015D0C5BDCDAD0DD001D844
:1000780010D00500FA6E01017D51FD6E7E51FE6EB5
:100088007F51FF6EFA501200C8B3D0A302D021EC02
:10009800E4F060C1F4FF5FC1F3FF5EC1DAFF5DC148
:1000A800D9FF5CC1FBFF5BC1FAFF5AC1E0FF59C130
:0E00B800E8FF58C1D8FF5F90100073EFD6F03C
:10E5C200000000803F000020410000C84200007AA5
:10E5D2004400401C460050C34700247449809618EA
:10E5E2004B20BCBE4C286B6E4EF9021550EC78AD38
:10E5F20060CAF249710000803FCDCCCC3D0AD723DE
:10E602003C6F12833A17B7D138ACC52737BD37866E
:10E612003595BFD63377CC2B325F708930FFE6DB7E
:10E622002E08E53C1E6042A20D0100000010000011
:10E6320000000100000010000000000100000010B6
:10E6420000000000010000001000000000000000B7
:10E652000000005F0000000000000007000700004B
:10E662000000147F147F14000000242A7F2A120065
:10E67200000023130864620000003649552250004E
:10E68200000000050300000000001C224100000001
:10E69200000041221C0000000000082A1C2A080079
:10E6A200000008083E0808000000A060000000000A
:10E6B2000000080808080800000060600000000070
:10E6C200000020100804020000003E5149453E00AF
:10E6D200000000427F4000000000625149494600AC
:10E6E200000022414949360000001814127F100030
:10E6F200000027454545390000003C4A49493000A1
:10E70200000001710905030000003649494936003D
:10E712000000064949291E000000003636000000AC
:10E72200000000AC6C000000000008142241000050
:10E7320000001414141414000000412214080000F4
:10E7420000000201510906000000324979413E00F1
:10E7520000007E0909097E0000007F494949360010
:10E7620000003E414141220000007F4141221C0045
:10E7720000007F494949410000007F090909010061
:10E7820000003E414151720000007F0808087F00EE
:10E792000000417F4100000000002040413F010095
:10E7A20000007F081422410000007F4040404000EA
:10E7B20000007F020C027F0000007F0408107F002F
:10E7C20000003E4141413E0000007F090909060068
:10E7D20000003E4151215E0000007F0919294600D8
:10E7E2000000264949493200000001017F01010071
:10E7F20000003F4040403F0000001F2040201F001B
:10E8020000003F4038403F000000631408146300DA
:10E8120000000304780403000000615149454300ED
:10E8220000007F41410000000000020408102000A7
:10E83200000041417F0000000000040201020400C8
:10E84200000080808080800000000102040000003F
:10E85200000020545454780000007F48444438009B
:10E8620000003844442800000000384444487F0037
:10E8720000003854545418000000087E09020000B9
:10E88200000018A4A4A47C0000007F0804047800FF
:10E892000000007D00000000000080847D00000078
:10E8A20000007F10284400000000417F400000006B
:10E8B20000007C041804780000007C08047C00003E
:10E8C20000003844443800000000FC2424180000F2
:10E8D2000000182424FC00000000007C0804000052
:10E8E20000004854542400000000047F440000004B
:10E8F20000003C40407C000000001C2040201C0026
:10E9020000003C4030403C000000442810284400F5
:10E9120000001CA0A07C000000004464544C440091
:10E9220000000836410000000000007F00000000E7
:10E93200000041360800000000000201010201004F
:10E94200000002050502000000010000000A0000AC
:10E952000064000000E803000010270000A0860108
:10E962000040420F008096980000E1F50500CA9A27
:10E972003BB80EBC43202020202A49444E3F3A2077
:10E982005072696E7473206964656E746966696336
:10E992006174696F6E20737472696E670A0D20204C
:10E9A200202052657365743A2045786563757465F5
:10E9B2007320736F66747761726520726573657414
:10E9C20020696E737472756374696F6E0A0D20200C
:10E9D2002020436C6561723A20436C65617273203A
:10E9E200746865207669727475616C20434F4D209E
:10E9F200706F7274207465726D696E616C0A0D209D
:10EA020020202043757272656E74204D65617375A6
:10EA120072656D656E74733F3A205072696E7473DD
:10EA220020696E7374616E74616E656F75732073A5
:10EA3200797374656D206C6576656C20656C6563B1
:10EA420074726963616C206D6561737572656D6561
:10EA52006E74730A0D202020204465766963652058
:10EA62005374617475733F3A205072696E747320E7
:10EA72006469676974616C206D6F6E69746F726925
:10EA82006E67206D6963726F636F6E74726F6C6C08
:10EA92006572206465766963652073746174757349
:10EAA2000A0D202020204572726F72205374617407
:10EAB20075733F205072696E747320696620616EAF
:10EAC200792073797374656D206661756C74732037
:10EAD20068617665206265656E206465746563743D
:10EAE20065640A0D20202020436C65617220554127
:10EAF2005254204572726F72733A20436C65617290
:10EB0200732055415254206572726F7220666C6197
:10EB120067730A0D20202020436C65617220493200
:10EB220043204572726F72733A20436C656172734F
:10EB320020493243206572726F7220666C6167737E
:10EB42000A0D20202020436C65617220414443203D
:10EB52004572726F72733A20436C65617273204121
:10EB62004443206572726F7220666C6167730A0D8E
:10EB72002020202048656C703A204C697374732001
:10EB8200617661696C61626C6520636F6D6D616E47
:10EB9200647320287468697320636F6D6D616E649D
:10EBA200290A0D0020202020202020204669786597
:10EBB2006420566F6C746167652052656665726584
:10EBC2006E6365204275666665722031206D6561EF
:10EBD200737572656420617320252B2E336620566F
:10EBE2006F6C74732C2063616C696272617465640A
:10EBF20020666F72202B342E30393620566F6C749B
:10EC0200730A0D00436F6D6D616E647320617265EE
:10EC120020636173652073656E7369746976652C10
:10EC2200206261636B737061636520697320737521
:10EC320070706F727465642C20636F6D6D616E64A9
:10EC420020686973746F7279206973206E6F742003
:10EC5200737570706F727465640A0D002020202035
:10EC620043616C6C2027436C65617220554152549C
:10EC7200204572726F72732720746F20636C656116
:10EC82007220636F6D6D756E69636174696F6E7307
:10EC9200206572726F722873290A0D0020202020CD
:10ECA20043616C6C2027436C6561722049324320BA
:10ECB2004572726F72732720746F20636C65617284
:10ECC20020636F6D6D756E69636174696F6E732019
:10ECD2006572726F722873290A0D0020202020208D
:10ECE20020202043757272656E74202B3556205396
:10ECF2007769746368696E67204672657175656EBF
:10ED02006379206D65617375726564206173202576
:10ED12002E3166204D487A0A0D0020202020202026
:10ED220020204D6963726F636F6E74726F6C6C65D5
:10ED320072204469652054656D70657261747572E4
:10ED420065206D6561737572656420617320252B82
:10ED52002E336620430A0D00202020204465766968
:10ED620063652073696C69636F6E2072657669737F
:10ED7200696F6E20494420726574726965766564B4
:10ED82002066726F6D20666C6173683A2025632578
:10ED92003033640A0D0053797374656D20706172AB
:10EDA200616D657465727320616E64206166666967
:10EDB200726D617469766520726573706F6E7365CA
:10EDC200732061707065617220696E20677265657B
:10EDD2006E0A0D002020202054686520666F6C6C3E
:10EDE2006F77696E67205573657220494473206896
:10EDF200617665206265656E2072657472696576FA
:10EE020065642066726F6D20666C6173683A0A0DE4
:10EE1200002020202043686172676520636F6E7353
:10EE2200756D656420627920746865206C6F616419
:10EE3200207768696C65206368617267696E673AFA
:10EE4200202573436F756C6F6D62730A0D004669FE
:10EE52006E69736865642074657374206D6573737D
:10EE62006167652C2074797065202748656C70276E
:10EE720020666F72206C697374206F6620636F6DF9
:10EE82006D616E64730A0D0A0D002020202020207F
:10EE920020205573657220494420576F72642025E3
:10EEA200642028466C6173682061646472657373C0
:10EEB20020307832303030302558293A20307825C9
:10EEC2003034580A0D0020202020456E6572677983
:10EED20020636F6E73756D65642062792074686556
:10EEE200206C6F6164207768696C65206368617269
:10EEF20067696E673A2025734A6F756C65730A0DF0
:10EF0200002020202020202020456C656374726937
:10EF120063616C20496E70757420506F7765722042
:10EF220063616C63756C6174656420617320252B69
:10EF32002E33662057617474730A0D00202020203E
:10EF4200514920776972656C65737320706F7765BC
:10EF52007220636F6E7665727465722068617320C9
:10EF620066756C6C7920636861726765642070688D
:10EF72006F6E650A0D002020202020202020576976
:10EF820072656C657373204F757470757420506F61
:10EF92007765722063616C63756C6174656420616E
:10EFA2007320252B2E33662057617474730A0D006B
:10EFB200202020202020202043757272656E74204C
:10EFC200514920537769746368696E672046726598
:10EFD2007175656E6379206D656173757265642004
:10EFE2006173202573487A0A0D000A0D48656C701A
:10EFF200206D6573736167657320616E64206E6551
:10F00200757472616C20726573706F6E73657320B4
:10F0120061707065617220696E2079656C6C6F77C2
:10F022000A0D0020202020202020202B35562043AE
:10F032006F6E7665727465722054656D706572616B
:10F0420074757265206D6561737572656420617394
:10F0520020252B2E336620430A0D00202020205429
:10F062006865206361757365206F6620746865202A
:10F072006D6F737420726563656E74206465766962
:10F082006365207265736574207761733A20257316
:10F092000A0D002020202020202020514920436FEB
:10F0A2006E7665727465722054656D7065726174F6
:10F0B200757265206D656173757265642061732078
:10F0C200252B2E336620430A0D00514920436861E7
:10F0D2007267657220776974682044696769746130
:10F0E2006C204D6F6E69746F72696E672C20627945
:10F0F2002044726577204D6161746D616E0A0D0066
:10F1020020202020446576696365206F6E20746933
:10F112006D652073696E6365206C6173742072651E
:10F1220073657420636F6E646974696F6E206973AE
:10F132002025730A0D002020202020202020514964
:10F1420020636F6E76657274657220637572726584
:10F152006E74206D6561737572656420617320251C
:10F162002B2E336620416D70730A0D002020202063
:10F1720043616C6C2027436C6561722041444320DB
:10F182004572726F72732720746F20636C656172AF
:10F1920020414443206572726F722873290A0D0060
:10F1A20020202020202020202B31325620696E7012
:10F1B20075742063757272656E74206D6561737506
:10F1C20072656420617320252B2E336620416D7099
:10F1D200730A0D0051492043686172676572207796
:10F1E200697468204469676974616C204D6F6E6947
:10F1F200746F72696E670A0D426F6F7420436F6D90
:10F20200706C6574650A0D002020202044657669C3
:10F21200636520494420726574726965766564206D
:10F2220066726F6D20666C6173683A2025732028C0
:10F23200307825303458290A0D00202020205468C7
:10F242006520666F6C6C6F77696E67206368616EAC
:10F252006E656C732063617573656420616E204115
:10F262004443206572726F723A0A0D0020202020FA
:10F2720020202020416D6269656E742054656D7096
:10F2820065726174757265206D656173757265640E
:10F2920020617320252B2E336620430A0D00202087
:10F2A2002020514920776972656C65737320706FF5
:10F2B20077657220636F6E7665727465722069730A
:10F2C2002063757272656E746C792025730A0D0065
:10F2D2002020202053797374656D20686173206249
:10F2E20065656E206368617267696E672061207070
:10F2F200686F6E6520666F722025730A0D0A0D0015
:10F3020053797374656D204D6561737572656D65B2
:10F312006E74732061742074696D65206F6620635A
:10F322006F6D6D616E642063616C6C3A0A0D000A48
:10F332000D43616C6C202748656C702720666F72E4
:10F34200206C697374206F6620737570706F7274AD
:10F35200656420636F6D6D616E64730A0D00202019
:10F36200202054686520666F6C6C6F77696E672029
:10F37200493243204572726F72732077657265203D
:10F3820064657465637465643A0A0D004572726F50
:10F39200727320616E64206E6567617469766520A0
:10F3A200726573706F6E73657320617070656172E0
:10F3B20020696E207265640A0D0020202020537996
:10F3C2007374656D20456666696369656E6379204D
:10F3D20063616C63756C6174656420617320252EB2
:10F3E200336625250A0D004469676974616C204DF6
:10F3F2006F6E69746F72696E67204D6963726F63B5
:10F402006F6E74726F6C6C65722053746174757375
:10F412003A0A0D0020202020202020202B313256B5
:10F42200207261696C206D6561737572656420611B
:10F432007320252B2E336620566F6C74730A0D00D1
:10F442004361757365206F66206D6F7374207265FA
:10F4520063656E74206465766963652072657365A1
:10F4620074207761733A2025730A0D002020202032
:10F47200202020202B3556207261696C206D656139
:10F48200737572656420617320252B2E33662056B6
:10F492006F6C74730A0D0020202020202020205041
:10F4A2004F533520436F6E766572746572206973AF
:10F4B20020696E204275727374204D6F64650A0D67
:10F4C2000057696E646F77656420576174636820C2
:10F4D200446F672054696D65722056696F6C617460
:10F4E200696F6E20526573657400202020202020F1
:10F4F2002020514920436F6E7665727465722069CF
:10F502007320696E204275727374204D6F64650AB0
:10F512000D00202020202020202049324320416D50
:10F522006269656E742054656D702053656E736FE9
:10F5320072204572726F720A0D0020202020202056
:10F54200202041565353206D6561737572656420A6
:10F55200617320252B2E336620566F6C74730A0D4F
:10F5620000514920576972656C65737320506F773B
:10F57200657220436F6E76657273696F6E20456E99
:10F5820061626C65640A0D004D6561737572656D2B
:10F59200656E7420726573706F6E7365732061702F
:10F5A2007065617220696E206379616E0A0D005484
:10F5B2006869732074657874206861732061206DB6
:10F5C2006167656E7461206261636B67726F756EED
:10F5D200640A0D00556E737570706F7274656420E5
:10F5E2006F72206D69732D656E7465726564206338
:10F5F2006F6D6D616E640A0D002020202020202096
:10F602002049324320504F53352054656D702053AA
:10F61200656E736F72204572726F720A0D005468C4
:10F62200697320746578742068617320612079653C
:10F632006C6C6F77206261636B67726F756E640AC0
:10F642000D002020202053797374656D2053776953
:10F65200746368696E67204672657175656E636969
:10F6620065733A0A0D0054686973207465787420D2
:10F672006861732061207768697465206261636BD9
:10F6820067726F756E640A0D005468697320746541
:10F69200787420686173206120626C61636B206200
:10F6A20061636B67726F756E640A0D0054686973EB
:10F6B20020746578742068617320612067726565C3
:10F6C2006E206261636B67726F756E640A0D002053
:10F6D2002020205149204368617267657220697356
:10F6E20020696E204572726F722053746174650ACC
:10F6F2000D00202020202020202049324320514983
:10F702002054656D702053656E736F72204572725E
:10F712006F720A0D005468697320746578742068EA
:10F722006173206120626C7565206261636B677230
:10F732006F756E640A0D005468697320746578747D
:10F74200206861732061206379616E206261636B5E
:10F7520067726F756E640A0D00202020204D696368
:10F76200726F636F6E74726F6C6C6572205061722F
:10F77200616D65746572733A0A0D0054686973208D
:10F7820074657874206861732061207265642062F8
:10F7920061636B67726F756E640A0D002020202012
:10F7A20020202020493243204F4C45442044697395
:10F7B200706C6179204572726F720A0D00202020F0
:10F7C200204E6F2055415254206572726F72287319
:10F7D200292064657465637465640A0D0020202025
:10F7E200204E6F20493243206572726F722873294E
:10F7F2002064657465637465640A0D00202020200E
:10F802004E6F20414443206572726F722873292023
:10F8120064657465637465640A0D002020202055B8
:10F8220053422055415254204572726F72204465F2
:10F832007465637465640A0D005573657220696EA0
:10F84200707574206170706561727320696E2077C3
:10F85200686974650A0D0020202020414443206518
:10F8620072726F72287329206465746563746564AB
:10F87200210A0D0020202020202020204932432070
:10F8820047656E6572616C204572726F720A0D0077
:10F89200202020202020202047656E6572616C2088
:10F8A200414443206572726F720A0D00546573748D
:10F8B200696E672074657874206174747269627508
:10F8C2007465733A0A0D005468697320746578741C
:10F8D20020697320756E64657273636F7265640A62
:10F8E2000D002020202053797374656D2054656DBE
:10F8F2007065726174757265733A0A0D00524553F0
:10F90200455420496E737472756374696F6E204535
:10F9120078656375746564005468697320746578EA
:10F9220074206973206E6F726D616C0A0D0A0D008E
:10F9320054686973207465787420697320726576DF
:10F9420065727365640A0D00546869732074657882
:10F952007420697320626C696E6B696E670A0D00B0
:10F9620055415254206572726F7228732920636C5C
:10F9720065617265640A0D00546869732074657864
:10F9820074206973206D6167656E74610A0D0020D1
:10F9920020202053797374656D20566F6C746167F3
:10F9A20065733A0A0D002020202053797374656D27
:10F9B2002043757272656E74733A0A0D00414443B6
:10F9C200204572726F7228732920636C65617265BB
:10F9D200640A0D00493243206572726F72287329DE
:10F9E20020636C65617265640A0D00546869732056
:10F9F200746578742069732079656C6C6F770A0D71
:10FA020000417661696C61626C6520436F6D6D6166
:10FA12006E64733A0A0D0043757272656E74204DFE
:10FA22006561737572656D656E74733F00537461C1
:10FA3200636B20556E646572666C6F7720526573D6
:10FA42006574005468697320746578742069732042
:10FA5200626C61636B0A0D00546869732074657887
:10FA62007420697320677265656E0A0D00537461B4
:10FA7200636B204F766572666C6F77205265736593
:10FA82007400546869732074657874206973206205
:10FA92006F6C640A0D005468697320746578742071
:10FAA200697320626C75650A0D005468697320746D
:10FAB200657874206973206379616E0A0D002020D5
:10FAC200202053797374656D20506F7765723A0AFE
:10FAD2000D0054686973207465787420697320720C
:10FAE20065640A0D004D617374657220436C656133
:10FAF2007220526573657400555342205541525429
:10FB020020546573740A0D0A0D00436C65617220FE
:10FB120055415254204572726F7273003031323344
:10FB220034353637383941424344454600436C65E3
:10FB3200617220493243204572726F727300436CC6
:10FB420065617220414443204572726F7273007680
:10FB52006961205553422C202748656C7027004369
:10FB62004F4D20506F72742053657475703A004384
:10FB720061757365206F662052657365743A00443F
:10FB820069676974616C204D6F6E69746F720038B9
:10FB92006269742C206E6F207061726974790055ED
:10FBA2006E646566696E65642052657365740042B1
:10FBB200726F776E204F75742052657365740044BE
:10FBC2006576696365205374617475733F004F7580
:10FBD20074707574204368617267653A00436861A6
:10FBE200726765205374617475733A004F7574704F
:10FBF200757420456E657267793A003120737470AE
:10FC02002C206E6F20666C6F77005245534554204E
:10FC1200457865637574656400506F776572204F2F
:10FC22006E20526573657400202020202020202041
:10FC32004656520A0D004572726F722053746174F7
:10FC420075733F005149204368617267657220777E
:10FC52002F002B31325620566F6C746167653A0063
:10FC62004465762E204F6E2054696D653A00416DD1
:10FC72006269656E742054656D703A002B355620AA
:10FC820053772E20467265713A004F757470757401
:10FC920020506F7765723A002B31325620437572CD
:10FCA20072656E743A00426F6F7420436F6D706CB0
:10FCB200657465004D6F72652053657474696E6773
:10FCC200730046756C6C79204368617267656400E5
:10FCD20066756C6C79206368617267656400526551
:10FCE200766973696F6E2049443A002B3556205667
:10FCF2006F6C746167653A0043686172676520548E
:10FD0200696D653A0051492053772E20467265711C
:10FD12003A00496E70757420506F7765723A004EE2
:10FD22006F74204368617267696E67004472657719
:10FD3200204D6161746D616E002564206D696E7580
:10FD42007465732C200050494331384C4632374B8E
:10FD520034300050494331384C4634374B3430004C
:10FD620050494331384C4636374B34300053707269
:10FD7200696E672032303139004D6963726F2054E9
:10FD8200656D703A0051492043757272656E743A1E
:10FD920000456666696369656E63793A0025642089
:10FDA2006D696E7574652C200050494331384632B6
:10FDB200374B34300050494331384634374B3430B6
:10FDC2000050494331384636374B343000256C7584
:10FDD2002E25362E366C75001B5B303B33373B3499
:10FDE200306D004465766963652049443A005149A3
:10FDF20020456E61626C6564004275727374204DB9
:10FE02006F6465002575207365636F6E64730025EA
:10FE120075206D696E75746573002564207965615E
:10FE220072732C2000256420686F7572732C200079
:10FE32002564207365636F6E64730053544F4620CC
:10FE42005265736574005354554620526573657448
:10FE5200004D434C52205265736574005757445409
:10FE6200205265736574002B35562054656D703AC7
:10FE7200003131352E32206B6273002564207965A2
:10FE820061722C2000256420686F75722C20002579
:10FE92006420646179732C20002564207365636F8C
:10FEA2006E6400424F5220526573657400504F5287
:10FEB20020526573657400556E646566696E65648B
:10FEC20000756E646566696E6564002B25302E339D
:10FED20066204D002B25302E3366206B002B2530FB
:10FEE2002E3366206D002B25302E3366206E002BBC
:10FEF20025302E3366207500252B2E3366202525CE
:10FF02000051492054656D703A002575207965616C
:10FF1200727300257520686F757273002B322E354F
:10FF2200204D487A002564206461792C20006368A2
:10FF3200617267696E67002B25302E3366200025BB
:10FF42002B2E3366204100252B2E336620430025BD
:10FF52002B2E3366205600252B2E33662057002584
:10FF620075206461797300286E756C6C29002563B5
:10FF720025303364002A49444E3F00436C65617268
:10FF8200004572726F72006572726F7200302E30AD
:10FF920020001B5B324A0048656C7000307825589F
:10FFA200002573487A0049646C650069646C6500D9
:10FFB2001B5B73001B5B75001B5B480025734300D2
:10FFC20025734A001B5B4B00333000333100343160
:10FFD2000033320034320033330034330033340020
:10FFE20034340033350034350033360034360033D0
:0DFFF20037003437001B5B0038003B000077
:020000040001F9
:100000006FEF8BF0250E8F19D8B436D020EE02F0AA
:100010005851D9265951DA22DE50DE10DE10D8B4FC
:1000200014D020EE02F05851D9265951DA2202D8C4
:100030006FEF8BF00500FA6EDE50FD6EDE50FE6E47
:10004000DE50FF6EFA508F51120058C2D9FF59C2CC
:10005000DAFFDECF5EF2DDCF5FF25EC2D9FF5FC2B4
:10006000DAFF8FC2DFFF58C2D9FF59C2DAFFDE2A9A
:10007000000EDD226FEF8BF0000E8A6F000E896F8D
:10008000000E8E6F000E8D6F0AD002018D8105D09B
:1000900002018D8302D002018D855A4B5B2B5AC21F
:1000A000F6FF5BC2F7FF000EF86E0E0EF76403D08A
:1000B0000800F55005D0F6CFE9FFF7CFEAFFEF5083
:1000C000200AD8B4E2D70B0AD8B4E2D71B0AD8B4B6
:1000D000E2D702018DB38D915AC2F6FF5BC2F7FFE2
:1000E000000EF86E0E0EF76403D00800F55005D030
:1000F000F6CFE9FFF7CFEAFFEF5024ECE3F0D8A00A
:100100004CD0000E02018A6F000E896F89C200F286
:100110008AC201F2000E0201036F0A0E026F79EC2F
:10012000E2F000C289F201C28AF2D00E02015E6FD3
:10013000FF0E5F6F5AC2F6FF5BC2F7FF000EF86E4C
:100140000E0EF76403D00800F55005D0F6CFE9FF96
:10015000F7CFEAFFEF500201606F616B5E516027DD
:100160005F5161236051892761518A235A4B5B2B70
:100170005AC2F6FF5BC2F7FF000EF86E0E0EF76470
:1001800003D00800F55005D0F6CFE9FFF7CFEAFF1E
:10019000EF5024ECE3F0D8B0B9D75AC2F6FF5BC2F7
:1001A000F7FF000EF86E0E0EF76403D00800F5504E
:1001B00005D0F6CFE9FFF7CFEAFFEF502E0AD8A41B
:1001C00049D002018E8D5A4B5B2B000E8C6F000EB6
:1001D0008B6F2AD08BC200F28CC201F2000E02019A
:1001E000036F0A0E026F79ECE2F05AC2F6FF5BC2AF
:1001F000F7FF000EF86E0E0EF76403D00800F550FE
:1002000005D0F6CFE9FFF7CFEAFFEF5002015E6FAE
:100210005E510027000E0123D00E00258B6FFF0ECC
:1002200001218C6F5A4B5B2B5AC2F6FF5BC2F7FF62
:10023000000EF86E0E0EF76403D00800F55005D0DE
:10024000F6CFE9FFF7CFEAFFEF5024ECE3F0D8A0B8
:100250002AD1C0D7000E02018C6F000E8B6F8E89E1
:1002600022D18D8920D18E8559D18D8F57D15CC2F5
:10027000D9FF5DC2DAFFDFCF5EF2020EDE26DFCFEE
:100280005FF2000EDD225EC2D9FF5FC2DAFFDECF71
:1002900077F2DDCF78F277517811D8A404D0690EC7
:1002A000776FFF0E786F000E7A6F000E796F03D0B4
:1002B0000201794B7A2B795177255E6F7A5178213B
:1002C0005F6F5EC2F6FF5FC2F7FF000EF86E0E0EA4
:1002D000F76403D00800F55005D0F6CFE9FFF7CF5B
:1002E000EAFFEF500009D8A4E3D702018B518C112B
:1002F000D8B40AD079518B5D7A518C59D8B004D0DA
:100300008BC279F28CC27AF28951795D8A517A591D
:10031000D8B005D07951895F7A518A5B38D0000E08
:100320008A6F000E896F33D020EE02F05851D92623
:100330005951DA22DE50DE10DE10D8B413D020EE90
:1003400002F05851D9265951DA2201D820D005009F
:10035000FA6EDE50FD6EDE50FE6EDE50FF6EFA501D
:10036000200E120058C2D9FF59C2DAFFDECF5EF26A
:10037000DDCF5FF25EC2D9FF5FC2DAFF200EDF6E13
:1003800058C2D9FF59C2DAFFDE2A000EDD2202016F
:100390008907D8A08A078929C7E18A29D8B45BD000
:1003A000C3D720EE02F05851D9265951DA22DE5037
:1003B000DE10DE10D8B427D020EE02F05851D92636
:1003C0005951DA2201D81BD00500FA6EDE50FD6EBD
:1003D000DE50FE6EDE50FF6EFA5077C2F6FF78C236
:1003E000F7FF000EF86E0E0EF76403D00800F5500C
:1003F00005D0F6CFE9FFF7CFEAFFEF501200020178
:10040000774B782B28D077C2F6FF78C2F7FF000E23
:10041000F86E58C2D9FF59C2DAFFDECF5EF2DDCFE7
:100420005FF25EC2D9FF5FC2DAFF0E0EF76403D03F
:100430000800F55005D0F6CFE9FFF7CFEAFFEF50FF
:10044000DF6E0201774B782B58C2D9FF59C2DAFF11
:10045000DE2A000EDD227907D8A07A077929A1E1EA
:100460007A29D8B46FEF8BF09CD75CC2D9FF5DC2FC
:10047000DAFFDFCF5EF2020EDE26DFCF5FF2000E84
:10048000DD225EC2D9FF5FC2DAFFDF508F6F8F0EB1
:10049000776F020E786F000E7A6F010E796F25D795
:1004A000C00E8D133BD002015A515E6F5B515F6FDE
:1004B0005A4B5B2B5EC2F6FF5FC2F7FF000EF86E71
:1004C0000E0EF76403D00800F55005D0F6CFE9FF13
:1004D000F7CFEAFFEF5002018F6F8F51000AD8B4B7
:1004E0008DEF8BF0580AD8B4C0D63B0AD8B4BDD72C
:1004F000070AD8B413D0020AD8B4B5D60F0AD8B4B4
:100500000DD0050AD8B4ADD61F0AD8B4B0D6060AA5
:10051000D8B4C6D70D0AD8B4A8D6B9D7070E8E1549
:10052000D8B40FEF88F08EA904D0000E8C6F060EA1
:100530008B6F5CC2D9FF5DC2DAFFDFCF5EF2040EC3
:10054000DE26DFCF5FF2000EDD225EC2D9FF5FC282
:10055000DAFFDECF81F2DECF82F2DECF83F2DECFB2
:1005600084F284AF15D081C200F282C201F283C24C
:1005700002F284C203F2CBECE1F000C281F201C2CC
:1005800082F202C283F203C284F2030E02018D13CF
:10059000000E7C6F000E7B6F81C200F282C201F2FE
:1005A00083C202F284C203F2000E046F000E056FD4
:1005B000000E066F000E076F9BECD8F00201D8B05A
:1005C00084D083358435820F7B6F7C6BFF0E7C2358
:1005D0007B07D8A07C077BC200F27CC201F2000E30
:1005E000036F030E026F79ECE2F000C27BF201C2EE
:1005F0007CF27BC206F27CC207F2000E0201096F98
:100600000A0E086F26ECD9F006C27BF207C27CF214
:1006100002017CAF03D07B07D8A07C077B51000888
:1006200050ECADF027C27DF228C27EF229C27FF2E3
:100630002AC280F27DC20EF27EC20FF27FC210F299
:1006400080C211F281C212F282C213F283C214F28A
:1006500084C215F2FCECB4F00EC27DF20FC27EF241
:1006600010C27FF211C280F27DC24CF27EC24DF206
:100670007FC24EF280C24FF2000E0201506F000E98
:10068000516F800E526F3F0E536F63ECD3F0020137
:10069000D8B004D07B07D8A07C0717D07DC24CF21D
:1006A0007EC24DF27FC24EF280C24FF2000E506FFA
:1006B000000E516F200E526F410E536F63ECD3F05A
:1006C0000201D8A002D07B4B7C2B8CBF06D08C5172
:1006D00021E10D0E8B5DD8B01DD081C234F282C2F3
:1006E00035F283C236F284C237F28B518EECBEF003
:1006F00027C238F228C239F229C23AF22AC23BF2A2
:10070000F9ECB9F034C281F235C282F236C283F21A
:1007100037C284F202017CBF06D07C5131E10A0E5F
:100720007B5DD8B02DD081C200F282C201F283C2BB
:1007300002F284C203F2000E046F000E056F000E79
:10074000066F000E076F9BECD8F00201D8B062D0A4
:1007500081C230F282C231F283C232F284C233F2F9
:1007600061ECD5F002013051311132113311D8B49E
:100770007CBF50D07C5104E1020E7B5DD8A04AD0F2
:100780007DC24CF27EC24DF27FC24EF280C24FF269
:100790005F0E506F700E516F890E526F400E536F87
:1007A00063ECD3F00201D8B002D0F70E01D0F80EFE
:1007B0007B27FF0E7C237B5150ECADF027C27DF2EE
:1007C00028C27EF229C27FF22AC280F281C200F2E0
:1007D00082C201F283C202F284C203F27DC204F239
:1007E0007EC205F27FC206F280C207F27CECD1F035
:1007F00000C285F201C286F202C287F203C288F209
:10080000000E0201816F000E826F000E836F000EDA
:10081000846F3CD081C230F282C231F283C232F2A4
:1008200084C233F261ECD5F030C285F231C286F277
:1008300032C287F233C288F281C24CF282C24DF2D8
:1008400083C24EF284C24FF285C23EF286C23FF2AC
:1008500087C240F288C241F2000E08ECCEF03EC2E0
:1008600050F23FC251F240C252F241C253F23FEC49
:10087000DEF04CC281F24DC282F24EC283F24FC210
:1008800084F2000E02017C6F000E7B6F010E8F6FF1
:100890000A0E8F19D8B41BD08F51040D4B0EF324C0
:1008A000F66EE90EF420F76EF86A000EF8220900E1
:1008B000F550855D0900F55086590900F5508759B6
:1008C0000900F5508859D8A002D08F2BE1D78F515D
:1008D0008B255E6F000E8C215F6F7B515E277C51F4
:1008E0005F235E51895F5F518A5B8B518C11D8B455
:1008F00003D08907D8A08A07030E8D155E6F000EFE
:100900008E155F6F5E515F11D8B403D08907D8A0F0
:100910008A078DA5F0D08DA341D020EE02F058516A
:10092000D9265951DA22DE50DE10DE10D8B41DD09F
:100930008DB104D0000E686F2B0E03D0000E686FCF
:100940002D0E676F20EE02F05851D9265951DA2248
:1009500001D891D00500FA6EDE50FD6EDE50FE6EBD
:10096000DE50FF6EFA50675112008DB104D0000EB8
:100970006A6F2B0E03D0000E6A6F2D0E696F58C27E
:10098000D9FF59C2DAFFDECF5EF2DDCF5FF25EC281
:10099000D9FF5FC2DAFF69C2DFFF2ED08DA16BD015
:1009A00020EE02F05851D9265951DA22DE50DE10DD
:1009B000DE10D8B413D020EE02F05851D926595188
:1009C000DA2201D858D00500FA6EDE50FD6EDE50F6
:1009D000FE6EDE50FF6EFA50200E120058C2D9FF94
:1009E00059C2DAFFDECF5EF2DDCF5FF25EC2D9FF21
:1009F0005FC2DAFF200EDF6E58C2D9FF59C2DAFF9C
:100A0000DE2A000EDD2237D020EE02F05851D92622
:100A10005951DA22DE50DE10DE10D8B413D020EEA9
:100A200002F05851D9265951DA2201D820D00500B8
:100A3000FA6EDE50FD6EDE50FE6EDE50FF6EFA5036
:100A4000300E120058C2D9FF59C2DAFFDECF5EF273
:100A5000DDCF5FF25EC2D9FF5FC2DAFF300EDF6E1C
:100A600058C2D9FF59C2DAFFDE2A000EDD22020188
:100A70008907D8A08A0702018ABF2FD18A51C4E111
:100A80008905D8A02AD1C0D720EE02F05851D92626
:100A90005951DA22DE50DE10DE10D8B413D020EE29
:100AA00002F05851D9265951DA2201D820D0050038
:100AB000FA6EDE50FD6EDE50FE6EDE50FF6EFA50B6
:100AC000200E120058C2D9FF59C2DAFFDECF5EF203
:100AD000DDCF5FF25EC2D9FF5FC2DAFF200EDF6EAC
:100AE00058C2D9FF59C2DAFFDE2A000EDD22020108
:100AF0008907D8A08A078ABF05D08A51C5E1890530
:100B0000D8B0C2D78DA341D020EE02F05851D926DB
:100B10005951DA22DE50DE10DE10D8B41DD08DB16E
:100B200004D0000E6C6F2B0E03D0000E6C6F2D0ED8
:100B30006B6F20EE02F05851D9265951DA2201D8B4
:100B4000CCD00500FA6EDE50FD6EDE50FE6EDE503B
:100B5000FF6EFA506B5112008DB104D0000E6E6F13
:100B60002B0E03D0000E6E6F2D0E6D6F58C2D9FF85
:100B700059C2DAFFDECF5EF2DDCF5FF25EC2D9FF8F
:100B80005FC2DAFF6DC2DFFFA1D08DA1A6D020EE3B
:100B900002F05851D9265951DA22DE50DE10DE100B
:100BA000D8B413D020EE02F05851D9265951DA2288
:100BB00001D893D00500FA6EDE50FD6EDE50FE6E59
:100BC000DE50FF6EFA50200E120058C2D9FF59C2F3
:100BD000DAFFDECF5EF2DDCF5FF25EC2D9FF5FC229
:100BE000DAFF200E72D085C200F286C201F287C2FF
:100BF00002F288C203F28F51040D4B0EF324F66EFD
:100C0000E90EF420F76EF86A000EF8220900F5CF1D
:100C100004F20900F5CF05F20900F5CF06F20A004B
:100C2000F5CF07F269ECD9F000C27DF201C27EF285
:100C300002C27FF203C280F27DC20DF27EC20EF2CA
:100C40007FC20FF280C210F20A0E0201116F000E75
:100C5000126F000E136F000E146F9FECDAF00DC2CE
:100C60007DF20EC27EF20FC27FF210C280F202014C
:100C700020EE02F05851D9265951DA22DE50DE100A
:100C8000DE10D8B414D020EE02F05851D9265951B4
:100C9000DA2201D822D00500FA6EDE50FD6EDE5059
:100CA000FE6EDE50FF6EFA507D51300F12007D5106
:100CB000300F58C2D9FF59C2DAFFDECF5EF2DDCF66
:100CC0005FF25EC2D9FF5FC2DAFFDF6E58C2D9FFA2
:100CD00059C2DAFFDE2A000EDD2202018F078F29BA
:100CE000D8B438D080D720EE02F05851D9265951C7
:100CF000DA22DE50DE10DE10D8B413D020EE02F07F
:100D00005851D9265951DA2201D820D00500FA6E5F
:100D1000DE50FD6EDE50FE6EDE50FF6EFA50300E7D
:100D2000120058C2D9FF59C2DAFFDECF5EF2DDCF22
:100D30005FF25EC2D9FF5FC2DAFF300EDF6E58C2CB
:100D4000D9FF59C2DAFFDE2A000EDD2202017B073D
:100D5000D8A07C077CBF05D07C51C5E17B05D8B00D
:100D6000C2D78CBF09D08C5104E1090E8B5DD8A08D
:100D700003D0080E8F6F02D08BC28FF28F518B5F22
:100D8000000E8C5B8F51D8B433D020EE02F0585156
:100D9000D9265951DA22DE50DE10DE10D8B413D035
:100DA00020EE02F05851D9265951DA2201D820D02C
:100DB0000500FA6EDE50FD6EDE50FE6EDE50FF6EF8
:100DC000FA502E0E120058C2D9FF59C2DAFFDECFF8
:100DD0005EF2DDCF5FF25EC2D9FF5FC2DAFF2E0E98
:100DE000DF6E58C2D9FF59C2DAFFDE2A000EDD22BB
:100DF00002018F5150ECADF027C262F228C263F2BB
:100E000029C264F22AC265F281C212F282C213F2CE
:100E100083C214F284C215F262C20EF263C20FF2F0
:100E200064C210F265C211F2FCECB4F00EC230F2F2
:100E30000FC231F210C232F211C233F261ECD5F0BE
:100E400030C285F231C286F232C287F233C288F2F2
:100E5000A4D085C200F286C201F287C202F288C223
:100E600003F28F51040D4B0EF324F66EE90EF420BD
:100E7000F76EF86A000EF8220900F5CF04F20900B7
:100E8000F5CF05F20900F5CF06F20A00F5CF07F21B
:100E900069ECD9F000C27DF201C27EF202C27FF29B
:100EA00003C280F27DC20DF27EC20EF27FC20FF24B
:100EB00080C210F20A0E0201116F000E126F000EB6
:100EC000136F000E146F9FECDAF00DC27DF20EC2AC
:100ED0007EF20FC27FF210C280F2020120EE02F019
:100EE0005851D9265951DA22DE50DE10DE10D8B41E
:100EF00014D020EE02F05851D9265951DA2201D8E7
:100F000022D00500FA6EDE50FD6EDE50FE6EDE5021
:100F1000FF6EFA507D51300F12007D51300F58C2D4
:100F2000D9FF59C2DAFFDECF5EF2DDCF5FF25EC2DB
:100F3000D9FF5FC2DAFFDF6E58C2D9FF59C2DAFFAC
:100F4000DE2A000EDD2285C20DF286C20EF287C2B5
:100F50000FF288C210F202018F51040D4B0EF324E0
:100F6000F66EE90EF420F76EF86A000EF82209001A
:100F7000F5CF11F20900F5CF12F20900F5CF13F207
:100F80000A00F5CF14F29FECDAF00DC285F20EC222
:100F900086F20FC287F210C288F202018F078F29F2
:100FA000D8B438D056D720EE02F05851D92659512E
:100FB000DA22DE50DE10DE10D8B413D020EE02F0BC
:100FC0005851D9265951DA2201D820D00500FA6E9D
:100FD000DE50FD6EDE50FE6EDE50FF6EFA50300EBB
:100FE000120058C2D9FF59C2DAFFDECF5EF2DDCF60
:100FF0005FF25EC2D9FF5FC2DAFF300EDF6E58C209
:10100000D9FF59C2DAFFDE2A000EDD2202018B076A
:10101000D8A08C078B518C11D8B461D3C4D7C00E23
:101020008D155E6F000E8E155F6F5E515F11D8A437
:1010300041D08DA919D05CC2D9FF5DC2DAFFDFCFE4
:101040005EF2040EDE26DFCF5FF2000EDD225EC20E
:10105000D9FF5FC2DAFFDECF85F2DECF86F2DECFC8
:1010600087F2DECF88F219D05CC2D9FF5DC2DAFF09
:10107000DFCF5EF2020EDE26DFCF5FF2000EDD2252
:101080005EC2D9FF5FC2DAFFDECF85F2DDCF86F226
:10109000000E86BFFF0E876F886F88AF40D0030EAB
:1010A0008D13881F871F861F856D000E862387235B
:1010B000882335D08DA919D05CC2D9FF5DC2DAFF73
:1010C000DFCF5EF2040EDE26DFCF5FF2000EDD2200
:1010D0005EC2D9FF5FC2DAFFDECF85F2DECF86F2D5
:1010E000DECF87F2DECF88F21AD05CC2D9FF5DC2B4
:1010F000DAFFDFCF5EF2020EDE26DFCF5FF2000EF8
:10110000DD225EC2D9FF5FC2DAFFDECF60F2DDCF43
:1011100061F260C285F261C286F2876B886B8B5187
:101120008C11D8A44BD08551861187118811D8A471
:1011300045D08B4B8C2B42D0010E8F6F0A0E8F192E
:10114000D8B447D08F51040D4B0EF324F66EE90E40
:10115000F420F76EF86A000EF8220900F550855D5C
:101160000900F55086590900F55087590900F550D6
:101170008859D8A02ED08F2BE1D7010E8F6F080E83
:101180008F19D8B426D08F51040D2B0EF324F66E90
:10119000E60EF420F76EF86A000EF8220900F5500A
:1011A000855D0900F55086590900F55087590900F9
:1011B000F5508859D8A00DD08F2BE1D78D51C00B99
:1011C000000AD8B4B9D7800AD8B4D7D7400AD8B45F
:1011D000B3D78F515E6F5F6B8B515E5D5F51800A3D
:1011E000606F8C51800A6059D8B003D08BC28FF2E7
:1011F00010D08F515E6F5F6B5E518B5D8C51800A9A
:10120000606F5F51800A6059D8B003D08FC28BF2F3
:101210008C6B89518A11D8B40DD0030E8D155E6F79
:10122000000E8E155F6F5E515F11D8B403D0890731
:10123000D8A08A078EAD13D089518B5D8C51800A5E
:101240005E6F8A51800A5E59D8B005D08B51895F94
:101250008C518A5B04D0000E8A6F000E896F8F510B
:101260005E6F5F6B89515E5D5F51800A606F8A516E
:10127000800A6059D8B005D08F51895F000E8A5B13
:1012800004D0000E8A6F000E896F8DA5B5D08DA396
:1012900041D020EE02F05851D9265951DA22DE50C1
:1012A000DE10DE10D8B41DD08DB104D0000E706FEA
:1012B0002B0E03D0000E706F2D0E6F6F20EE02F01C
:1012C0005851D9265951DA2201D859D00500FA6E61
:1012D000DE50FD6EDE50FE6EDE50FF6EFA506F5136
:1012E00012008DB104D0000E726F2B0E03D0000ED1
:1012F000726F2D0E716F58C2D9FF59C2DAFFDECF5F
:101300005EF2DDCF5FF25EC2D9FF5FC2DAFF71C26B
:10131000DFFF2ED08DA133D020EE02F05851D92618
:101320005951DA22DE50DE10DE10D8B413D020EE90
:1013300002F05851D9265951DA2201D820D005009F
:10134000FA6EDE50FD6EDE50FE6EDE50FF6EFA501D
:10135000200E120058C2D9FF59C2DAFFDECF5EF26A
:10136000DDCF5FF25EC2D9FF5FC2DAFF200EDF6E13
:1013700058C2D9FF59C2DAFFDE2A000EDD2202016F
:1013800089518A11D8B4A2D120EE02F05851D92641
:101390005951DA22DE50DE10DE10D8B413D020EE20
:1013A00002F05851D9265951DA2201D820D005002F
:1013B000FA6EDE50FD6EDE50FE6EDE50FF6EFA50AD
:1013C000300E120058C2D9FF59C2DAFFDECF5EF2EA
:1013D000DDCF5FF25EC2D9FF5FC2DAFF300EDF6E93
:1013E00058C2D9FF59C2DAFFDE2A000EDD220201FF
:1013F0008907D8A08A07C4D789518A11D8B43BD0AD
:1014000020EE02F05851D9265951DA22DE50DE1072
:10141000DE10D8B413D020EE02F05851D92659511D
:10142000DA2201D820D00500FA6EDE50FD6EDE50C3
:10143000FE6EDE50FF6EFA50200E120058C2D9FF29
:1014400059C2DAFFDECF5EF2DDCF5FF25EC2D9FFB6
:101450005FC2DAFF200EDF6E58C2D9FF59C2DAFF31
:10146000DE2A000EDD2202018907D8A08A078951F1
:101470008A11D8A4C5D78DA341D020EE02F05851CF
:10148000D9265951DA22DE50DE10DE10D8B41DD034
:101490008DB104D0000E746F2B0E03D0000E746F4C
:1014A0002D0E736F20EE02F05851D9265951DA22D1
:1014B00001D80CD10500FA6EDE50FD6EDE50FE6ED6
:1014C000DE50FF6EFA50735112008DB104D0000E41
:1014D000766F2B0E03D0000E766F2D0E756F58C2EF
:1014E000D9FF59C2DAFFDECF5EF2DDCF5FF25EC216
:1014F000D9FF5FC2DAFF75C2DFFFE1D08DA1E6D070
:1015000020EE02F05851D9265951DA22DE50DE1071
:10151000DE10D8B413D020EE02F05851D92659511C
:10152000DA2201D8D3D00500FA6EDE50FD6EDE500F
:10153000FE6EDE50FF6EFA50200E120058C2D9FF28
:1015400059C2DAFFDECF5EF2DDCF5FF25EC2D9FFB5
:101550005FC2DAFF200EDF6EB2D08BC25EF28CC2A9
:101560005FF2D8905E375F37D8905E375F374B0EAB
:101570005E25F66EE90E5F21F76EF86A000EF8221E
:101580000900F5CF04F20900F5CF05F20900F5CF07
:1015900006F20A00F5CF07F285C200F286C201F218
:1015A00087C202F288C203F269ECD9F000C20DF2E0
:1015B00001C20EF202C20FF203C210F20A0E0201C1
:1015C000116F000E126F000E136F000E146F9FEC60
:1015D000DAF002010D51300F8F6F45D085C200F255
:1015E00086C201F287C202F288C203F28BC25EF2A7
:1015F0008CC25FF2D8905E375F37D8905E375F3726
:101600002B0E5E25F66EE60E5F21F76EF86A000E71
:10161000F8220900F5CF04F20900F5CF05F2090020
:10162000F5CF06F20A00F5CF07F269ECD9F0020116
:1016300000510F0B666F1E0E6625F66EF76AFB0EE5
:10164000F722F86A000EF8220800F5CF8FF20BD0CF
:101650008D51C00B000AD8B480D7800AD8B4BED749
:10166000400AD8B47AD720EE02F05851D926595101
:10167000DA22DE50DE10DE10D8B413D020EE02F0F5
:101680005851D9265951DA2201D820D00500FA6ED6
:10169000DE50FD6EDE50FE6EDE50FF6EFA508F5152
:1016A000120058C2D9FF59C2DAFFDECF5EF2DDCF99
:1016B0005FF25EC2D9FF5FC2DAFF8FC2DFFF58C29E
:1016C000D9FF59C2DAFFDE2A000EDD2202018B07A4
:1016D000D8A08C078B29BCE18C29D8A4B9D70201EA
:1016E0005A515E6F5B515F6F5A4B5B2B5EC2F6FFC8
:1016F0005FC2F7FF000EF86E0E0EF76403D008000D
:10170000F55005D0F6CFE9FFF7CFEAFFEF50020121
:101710008F6F8F51D8A402EF80F0000E596F000E2A
:10172000586F1200FBEF96F0250EA319D8B436D0EF
:1017300020EE02F06C51D9266D51DA22DE50DE1017
:10174000DE10D8B414D020EE02F06C51D9266D51C1
:10175000DA2202D8FBEF96F00500FA6EDE50FD6E3D
:10176000DE50FE6EDE50FF6EFA50A35112006CC0C8
:10177000D9FF6DC0DAFFDECF72F0DDCF73F072C03B
:10178000D9FF73C0DAFFA3C0DFFF6CC0D9FF6DC003
:10179000DAFFDE2A000EDD22FBEF96F0000E9E6FD0
:1017A000000E9D6F000EA26F000EA16F0AD0000107
:1017B000A18105D00001A18302D00001A1856E4B5B
:1017C0006F2B6EC0F6FF6FC0F7FF000EF86E0E0EA7
:1017D000F76403D00800F55005D0F6CFE9FFF7CF46
:1017E000EAFFEF50200AD8B4E2D70B0AD8B4E2D708
:1017F0001B0AD8B4E2D70001A1B3A1916EC0F6FFD5
:101800006FC0F7FF000EF86E0E0EF76403D00800ED
:10181000F55005D0F6CFE9FFF7CFEAFFEF50A5EC82
:10182000E3F0D8A04BD0000E00019E6F000E9D6F1C
:101830009DC001F09EC002F0000E046E0A0E036E01
:10184000DCECE2F001C09DF002C09EF0D00E000181
:10185000726FFF0E736F6EC0F6FF6FC0F7FF000E62
:10186000F86E0E0EF76403D00800F55005D0F6CFE1
:10187000E9FFF7CFEAFFEF500001746F756B72510B
:1018800074277351752374519D2775519E236E4B98
:101890006F2B6EC0F6FF6FC0F7FF000EF86E0E0ED6
:1018A000F76403D00800F55005D0F6CFE9FFF7CF75
:1018B000EAFFEF50A5ECE3F0D8B0BAD76EC0F6FF60
:1018C0006FC0F7FF000EF86E0E0EF76403D008002D
:1018D000F55005D0F6CFE9FFF7CFEAFFEF502E0A1B
:1018E000D8A448D00001A28D6E4B6F2B000EA06FC4
:1018F000000E9F6F29D09FC001F0A0C002F0000E23
:10190000046E0A0E036EDCECE2F06EC0F6FF6FC0F0
:10191000F7FF000EF86E0E0EF76403D00800F550C6
:1019200005D0F6CFE9FFF7CFEAFFEF500001726F65
:1019300072510126000E0222D00E01249F6FFF0E6D
:101940000220A06F6E4B6F2B6EC0F6FF6FC0F7FFCB
:10195000000EF86E0E0EF76403D00800F55005D0A7
:10196000F6CFE9FFF7CFEAFFEF50A5ECE3F0D8A000
:101970002AD1C1D7000E0001A06F000E9F6FA2896F
:1019800022D1A18920D1A28559D1A18F57D170C070
:10199000D9FF71C0DAFFDFCF72F0020EDE26DFCF93
:1019A00073F0000EDD2272C0D9FF73C0DAFFDECF04
:1019B0008BF0DDCF8CF08B518C11D8A404D0690E44
:1019C0008B6FFF0E8C6F000E8E6F000E8D6F03D02D
:1019D00000018D4B8E2B8D518B25726F8E518C217A
:1019E000736F72C0F6FF73C0F7FF000EF86E0E0E35
:1019F000F76403D00800F55005D0F6CFE9FFF7CF24
:101A0000EAFFEF500009D8A4E3D700019F51A011CD
:101A1000D8B40AD08D519F5D8E51A059D8B004D052
:101A20009FC08DF0A0C08EF09D518D5D9E518E594E
:101A3000D8B005D08D519D5F8E519E5B38D0000E81
:101A40009E6F000E9D6F33D020EE02F06C51D926B0
:101A50006D51DA22DE50DE10DE10D8B413D020EE45
:101A600002F06C51D9266D51DA2201D820D0050040
:101A7000FA6EDE50FD6EDE50FE6EDE50FF6EFA50E6
:101A8000200E12006CC0D9FF6DC0DAFFDECF72F0FD
:101A9000DDCF73F072C0D9FF73C0DAFF200EDF6EA6
:101AA0006CC0D9FF6DC0DAFFDE2A000EDD22000116
:101AB0009D07D8A09E079D29C7E19E29D8B45BD079
:101AC000C3D720EE02F06C51D9266D51DA22DE50D8
:101AD000DE10DE10D8B427D020EE02F06C51D926EB
:101AE0006D51DA2201D81BD00500FA6EDE50FD6E72
:101AF000DE50FE6EDE50FF6EFA508BC0F6FF8CC0DB
:101B0000F7FF000EF86E0E0EF76403D00800F550D4
:101B100005D0F6CFE9FFF7CFEAFFEF501200000142
:101B20008B4B8C2B28D08BC0F6FF8CC0F7FF000EA0
:101B3000F86E6CC0D9FF6DC0DAFFDECF72F0DDCF7A
:101B400073F072C0D9FF73C0DAFF0E0EF76403D0D2
:101B50000800F55005D0F6CFE9FFF7CFEAFFEF50C8
:101B6000DF6E00018B4B8C2B6CC0D9FF6DC0DAFF90
:101B7000DE2A000EDD228D07D8A08E078D29A1E177
:101B80008E29D8B4FBEF96F09CD770C0D9FF71C0F6
:101B9000DAFFDFCF72F0020EDE26DFCF73F0000E29
:101BA000DD2272C0D9FF73C0DAFFDF50A36FA30E2E
:101BB0008B6F000E8C6F000E8E6F010E8D6F25D710
:101BC000C00EA1133BD000016E51726F6F51736F45
:101BD0006E4B6F2B72C0F6FF73C0F7FF000EF86EEE
:101BE0000E0EF76403D00800F55005D0F6CFE9FFDC
:101BF000F7CFEAFFEF500001A36FA351000AD8B45A
:101C000019EF97F0580AD8B4C0D63B0AD8B4BDD75C
:101C1000070AD8B413D0020AD8B4B5D60F0AD8B47C
:101C20000DD0050AD8B4ADD61F0AD8B4B0D6060A6E
:101C3000D8B4C6D70D0AD8B4A8D6B9D7070EA215FE
:101C4000D8B49CEF93F0A2A904D0000EA06F060EAA
:101C50009F6F70C0D9FF71C0DAFFDFCF72F0040E42
:101C6000DE26DFCF73F0000EDD2272C0D9FF73C015
:101C7000DAFFDECF95F0DECF96F0DECF97F0DECF45
:101C800098F098AF15D095C001F096C002F097C0BB
:101C900003F098C004F0FAECE1F001C095F002C046
:101CA00096F003C097F004C098F0030E0001A11352
:101CB000000E906F000E8F6F95C001F096C002F07D
:101CC00097C003F098C004F0000E056E000E066E7B
:101CD000000E076E000E086EE1ECD8F0D8B083D08D
:101CE000000197359835820F8F6F906BFF0E902310
:101CF0008F07D8A090078FC001F090C002F0000EAF
:101D0000046E030E036EDCECE2F001C08FF002C043
:101D100090F08FC007F090C008F0000E0A6E0A0E17
:101D2000096EABECD9F007C08FF008C090F000014D
:101D300090AF03D08F07D8A090078F5100086AECAE
:101D4000AFF045C091F046C092F047C093F048C054
:101D500094F091C02CF092C02DF093C02EF094C05E
:101D60002FF095C030F096C031F097C032F098C097
:101D700033F050ECB8F02CC091F02DC092F02EC092
:101D800093F02FC094F091C001F092C002F093C084
:101D900003F094C004F0000E056E000E066E800E77
:101DA000076E3F0E086ECCECD3F0D8B005D0000122
:101DB0008F07D8A0900717D091C001F092C002F011
:101DC00093C003F094C004F0000E056E000E066E82
:101DD000200E076E410E086ECCECD3F0D8A003D0D5
:101DE00000018F4B902B0001A0BF06D0A05121E134
:101DF0000D0E9F5DD8B01DD095C052F096C053F027
:101E000097C054F098C055F09F51EFECBFF045C01B
:101E100056F046C057F047C058F048C059F007EC9C
:101E2000BDF052C095F053C096F054C097F055C025
:101E300098F0000190BF06D0905131E10A0E8F5DFD
:101E4000D8B02DD095C001F096C002F097C003F035
:101E500098C004F0000E056E000E066E000E076EB0
:101E6000000E086EE1ECD8F0D8B064D095C04EF00A
:101E700096C04FF097C050F098C051F0BFECD5F02D
:101E80004E504F1050105110D8A454D0000190BFA4
:101E900051D0905104E1020E8F5DD8A04BD091C07B
:101EA00001F092C002F093C003F094C004F05F0E02
:101EB000056E700E066E890E076E400E086ECCEC35
:101EC000D3F0D8B003D00001F70E02D00001F80E15
:101ED0008F27FF0E90238F516AECAFF045C091F031
:101EE00046C092F047C093F048C094F095C001F00E
:101EF00096C002F097C003F098C004F091C005F0BE
:101F000092C006F093C007F094C008F071ECD2F0D4
:101F100001C099F002C09AF003C09BF004C09CF08D
:101F2000000E0001956F000E966F000E976F000E69
:101F3000986F3CD095C04EF096C04FF097C050F0CF
:101F400098C051F0BFECD5F04EC099F04FC09AF058
:101F500050C09BF051C09CF095C064F096C065F0F5
:101F600097C066F098C067F099C005F09AC006F077
:101F70009BC007F09CC008F0000E4CECCFF005C0F1
:101F800068F006C069F007C06AF008C06BF063EC47
:101F9000DEF064C095F065C096F066C097F067C04B
:101FA00098F0000E0001906F000E8F6F010EA36F6E
:101FB000A351040D4B0EF324F66EE90EF420F76ED8
:101FC000F86A000EF8220900F550995D0900F550F5
:101FD0009A590900F5509B590900F5509C59D8A011
:101FE00005D0A32B0A0EA319D8A4E2D7A3519F258D
:101FF000726F000EA021736F8F517227905173235F
:1020000072519D5F73519E5B9F51A011D8B403D054
:102010009D07D8A09E07030EA115726F000EA21592
:10202000736F72517311D8B403D09D07D8A09E0767
:10203000A1A5F0D0A1A341D020EE02F06C51D92689
:102040006D51DA22DE50DE10DE10D8B41DD0A1B101
:1020500004D0000E7C6F2B0E03D0000E7C6F2D0E73
:102060007B6F20EE02F06C51D9266D51DA2201D837
:1020700091D00500FA6EDE50FD6EDE50FE6EDE5031
:10208000FF6EFA507B511200A1B104D0000E7E6F9A
:102090002B0E03D0000E7E6F2D0E7D6F6CC0D9FF0E
:1020A0006DC0DAFFDECF72F0DDCF73F072C0D9FF02
:1020B00073C0DAFF7DC0DFFF2ED0A1A16BD020EE70
:1020C00002F06C51D9266D51DA22DE50DE10DE109E
:1020D000D8B413D020EE02F06C51D9266D51DA221B
:1020E00001D858D00500FA6EDE50FD6EDE50FE6E4F
:1020F000DE50FF6EFA50200E12006CC0D9FF6DC08A
:10210000DAFFDECF72F0DDCF73F072C0D9FF73C09B
:10211000DAFF200EDF6E6CC0D9FF6DC0DAFFDE2A59
:10212000000EDD2237D020EE02F06C51D9266D5121
:10213000DA22DE50DE10DE10D8B413D020EE02F02A
:102140006C51D9266D51DA2201D820D00500FA6EE3
:10215000DE50FD6EDE50FE6EDE50FF6EFA50300E29
:1021600012006CC0D9FF6DC0DAFFDECF72F0DDCF98
:1021700073F072C0D9FF73C0DAFF300EDF6E6CC02F
:10218000D9FF6DC0DAFFDE2A000EDD2200019D07B7
:10219000D8A09E0700019EBF2ED19E51C4E19D058F
:1021A000D8A029D1C0D720EE02F06C51D9266D51AC
:1021B000DA22DE50DE10DE10D8B413D020EE02F0AA
:1021C0006C51D9266D51DA2201D820D00500FA6E63
:1021D000DE50FD6EDE50FE6EDE50FF6EFA50200EB9
:1021E00012006CC0D9FF6DC0DAFFDECF72F0DDCF18
:1021F00073F072C0D9FF73C0DAFF200EDF6E6CC0BF
:10220000D9FF6DC0DAFFDE2A000EDD2200019D0736
:10221000D8A09E079EBF05D09E51C5E19D05D8B0B0
:10222000C2D7A1A341D020EE02F06C51D9266D5146
:10223000DA22DE50DE10DE10D8B41DD0A1B104D0F9
:10224000000E806F2B0E03D0000E806F2D0E7F6F5F
:1022500020EE02F06C51D9266D51DA2201D8CBD094
:102260000500FA6EDE50FD6EDE50FE6EDE50FF6E33
:10227000FA507F511200A1B104D0000E826F2B0ED4
:1022800003D0000E826F2D0E816F6CC0D9FF6DC020
:10229000DAFFDECF72F0DDCF73F072C0D9FF73C00A
:1022A000DAFF81C0DFFFA0D0A1A1A5D020EE02F00F
:1022B0006C51D9266D51DA22DE50DE10DE10D8B412
:1022C00013D020EE02F06C51D9266D51DA2201D8DC
:1022D00092D00500FA6EDE50FD6EDE50FE6EDE50CE
:1022E000FF6EFA50200E12006CC0D9FF6DC0DAFFED
:1022F000DECF72F0DDCF73F072C0D9FF73C0DAFFAA
:10230000200E71D099C001F09AC002F09BC003F07A
:102310009CC004F0A351040D4B0EF324F66EE90E9D
:10232000F420F76EF86A000EF8220900F5CF05F0E8
:102330000900F5CF06F00900F5CF07F00A00F5CF48
:1023400008F0EDECD9F001C091F002C092F003C0AA
:1023500093F004C094F091C00EF092C00FF093C0BF
:1023600010F094C011F00A0E126E000E136E000EE3
:10237000146E000E156E6CECDBF00EC091F00FC009
:1023800092F010C093F011C094F0000120EE02F022
:102390006C51D9266D51DA22DE50DE10DE10D8B431
:1023A00014D020EE02F06C51D9266D51DA2201D8FA
:1023B00022D00500FA6EDE50FD6EDE50FE6EDE505D
:1023C000FF6EFA509151300F12009151300F6CC0D6
:1023D000D9FF6DC0DAFFDECF72F0DDCF73F072C0CF
:1023E000D9FF73C0DAFFDF6E6CC0D9FF6DC0DAFFB2
:1023F000DE2A000EDD220001A307A329D8B438D0BD
:1024000081D720EE02F06C51D9266D51DA22DE50D0
:10241000DE10DE10D8B413D020EE02F06C51D926B5
:102420006D51DA2201D820D00500FA6EDE50FD6E23
:10243000DE50FE6EDE50FF6EFA50300E12006CC0A1
:10244000D9FF6DC0DAFFDECF72F0DDCF73F072C05E
:10245000D9FF73C0DAFF300EDF6E6CC0D9FF6DC0DC
:10246000DAFFDE2A000EDD2200018F07D8A09007D8
:1024700090BF05D09051C5E18F05D8B0C2D7A0BF9D
:1024800009D0A05104E1090E9F5DD8A003D0080E29
:10249000A36F02D09FC0A3F0A3519F5F000EA05B6B
:1024A000A351D8B433D020EE02F06C51D9266D512F
:1024B000DA22DE50DE10DE10D8B413D020EE02F0A7
:1024C0006C51D9266D51DA2201D820D00500FA6E60
:1024D000DE50FD6EDE50FE6EDE50FF6EFA502E0EA8
:1024E00012006CC0D9FF6DC0DAFFDECF72F0DDCF15
:1024F00073F072C0D9FF73C0DAFF2E0EDF6E6CC0AE
:10250000D9FF6DC0DAFFDE2A000EDD220001A351E3
:102510006AECAFF045C076F046C077F047C078F07F
:1025200048C079F095C030F096C031F097C032F0D5
:1025300098C033F076C02CF077C02DF078C02EF024
:1025400079C02FF050ECB8F02CC04EF02DC04FF0F9
:102550002EC050F02FC051F0BFECD5F04EC099F016
:102560004FC09AF050C09BF051C09CF0A3D099C0CE
:1025700001F09AC002F09BC003F09CC004F0A3518C
:10258000040D4B0EF324F66EE90EF420F76EF86A94
:10259000000EF8220900F5CF05F00900F5CF06F08E
:1025A0000900F5CF07F00A00F5CF08F0EDECD9F0FF
:1025B00001C091F002C092F003C093F004C094F007
:1025C00091C00EF092C00FF093C010F094C011F0C3
:1025D0000A0E126E000E136E000E146E000E156EB3
:1025E0006CECDBF00EC091F00FC092F010C093F0D5
:1025F00011C094F0000120EE02F06C51D9266D510B
:10260000DA22DE50DE10DE10D8B414D020EE02F054
:102610006C51D9266D51DA2201D822D00500FA6E0C
:10262000DE50FD6EDE50FE6EDE50FF6EFA509151B0
:10263000300F12009151300F6CC0D9FF6DC0DAFF1E
:10264000DECF72F0DDCF73F072C0D9FF73C0DAFF56
:10265000DF6E6CC0D9FF6DC0DAFFDE2A000EDD220E
:1026600099C00EF09AC00FF09BC010F09CC011F002
:102670000001A351040D4B0EF324F66EE90EF42075
:10268000F76EF86A000EF8220900F5CF12F0090083
:10269000F5CF13F00900F5CF14F00A00F5CF15F0CF
:1026A0006CECDBF00EC099F00FC09AF010C09BF0FC
:1026B00011C09CF00001A307A329D8B438D057D784
:1026C00020EE02F06C51D9266D51DA22DE50DE1078
:1026D000DE10D8B413D020EE02F06C51D9266D5123
:1026E000DA2201D820D00500FA6EDE50FD6EDE50F1
:1026F000FE6EDE50FF6EFA50300E12006CC0D9FF35
:102700006DC0DAFFDECF72F0DDCF73F072C0D9FF9B
:1027100073C0DAFF300EDF6E6CC0D9FF6DC0DAFF18
:10272000DE2A000EDD2200019F07D8A0A0079F51DE
:10273000A011D8B460D3C4D7C00EA115726F000E1B
:10274000A215736F72517311D8A441D0A1A919D0E9
:1027500070C0D9FF71C0DAFFDFCF72F0040EDE2641
:10276000DFCF73F0000EDD2272C0D9FF73C0DAFF35
:10277000DECF99F0DECF9AF0DECF9BF0DECF9CF07B
:1027800019D070C0D9FF71C0DAFFDFCF72F0020E2E
:10279000DE26DFCF73F0000EDD2272C0D9FF73C0DA
:1027A000DAFFDECF99F0DDCF9AF0000E9ABFFF0E70
:1027B0009B6F9C6F9CAF40D0030EA1139C1F9B1F6F
:1027C0009A1F996D000E9A239B239C2335D0A1A9B3
:1027D00019D070C0D9FF71C0DAFFDFCF72F0040EDC
:1027E000DE26DFCF73F0000EDD2272C0D9FF73C08A
:1027F000DAFFDECF99F0DECF9AF0DECF9BF0DECFAE
:102800009CF01AD070C0D9FF71C0DAFFDFCF72F030
:10281000020EDE26DFCF73F0000EDD2272C0D9FF7C
:1028200073C0DAFFDECF74F0DDCF75F074C099F0BD
:1028300075C09AF09B6B9C6B9F51A011D8A44BD094
:1028400099519A119B119C11D8A445D09F4BA02B54
:1028500042D0010EA36FA351040D4B0EF324F66E6C
:10286000E90EF420F76EF86A000EF8220900F55020
:10287000995D0900F5509A590900F5509B590900D6
:10288000F5509C59D8A032D0A32B0A0EA319D8B466
:102890002DD0E1D7010EA36FA351040D2B0EF3240D
:1028A000F66EE60EF420F76EF86A000EF8220900C4
:1028B000F550995D0900F5509A590900F5509B595A
:1028C0000900F5509C59D8A011D0A32B080EA319CC
:1028D000D8B40CD0E1D7A151C00B000AD8B4B9D7F5
:1028E000800AD8B4D7D7400AD8B4B3D7A351726FEF
:1028F000736B9F51725D7351800A746FA051800A8F
:102900007459D8B003D09FC0A3F010D0A351726FF8
:10291000736B72519F5DA051800A746F7351800A6E
:102920007459D8B003D0A3C09FF0A06B9D519E11E5
:10293000D8B40DD0030EA115726F000EA215736FDF
:1029400072517311D8B403D09D07D8A09E07A2ADD1
:1029500013D09D519F5DA051800A726F9E51800AD5
:102960007259D8B005D09F519D5FA0519E5B04D095
:10297000000E9E6F000E9D6FA351726F736B9D5181
:10298000725D7351800A746F9E51800A7459D8B079
:1029900005D0A3519D5F000E9E5B04D0000E9E6F7C
:1029A000000E9D6FA1A5B5D0A1A341D020EE02F0ED
:1029B0006C51D9266D51DA22DE50DE10DE10D8B40B
:1029C0001DD0A1B104D0000E846F2B0E03D0000ED9
:1029D000846F2D0E836F20EE02F06C51D9266D515D
:1029E000DA2201D859D00500FA6EDE50FD6EDE50B5
:1029F000FE6EDE50FF6EFA5083511200A1B104D07A
:102A0000000E866F2B0E03D0000E866F2D0E856F85
:102A10006CC0D9FF6DC0DAFFDECF72F0DDCF73F08E
:102A200072C0D9FF73C0DAFF85C0DFFF2ED0A1A12D
:102A300033D020EE02F06C51D9266D51DA22DE50EF
:102A4000DE10DE10D8B413D020EE02F06C51D9267F
:102A50006D51DA2201D820D00500FA6EDE50FD6EED
:102A6000DE50FE6EDE50FF6EFA50200E12006CC07B
:102A7000D9FF6DC0DAFFDECF72F0DDCF73F072C028
:102A8000D9FF73C0DAFF200EDF6E6CC0D9FF6DC0B6
:102A9000DAFFDE2A000EDD2200019D519E11D8B41E
:102AA000A1D120EE02F06C51D9266D51DA22DE5010
:102AB000DE10DE10D8B413D020EE02F06C51D9260F
:102AC0006D51DA2201D820D00500FA6EDE50FD6E7D
:102AD000DE50FE6EDE50FF6EFA50300E12006CC0FB
:102AE000D9FF6DC0DAFFDECF72F0DDCF73F072C0B8
:102AF000D9FF73C0DAFF300EDF6E6CC0D9FF6DC036
:102B0000DAFFDE2A000EDD2200019D07D8A09E0715
:102B1000C4D79D519E11D8B43BD020EE02F06C5129
:102B2000D9266D51DA22DE50DE10DE10D8B413D073
:102B300020EE02F06C51D9266D51DA2201D820D056
:102B40000500FA6EDE50FD6EDE50FE6EDE50FF6E4A
:102B5000FA50200E12006CC0D9FF6DC0DAFFDECF34
:102B600072F0DDCF73F072C0D9FF73C0DAFF200EB0
:102B7000DF6E6CC0D9FF6DC0DAFFDE2A000EDD22E9
:102B800000019D07D8A09E079D519E11D8A4C5D7CE
:102B9000A1A341D020EE02F06C51D9266D51DA226A
:102BA000DE50DE10DE10D8B41DD0A1B104D0000E6E
:102BB000886F2B0E03D0000E886F2D0E876F20EECE
:102BC00002F06C51D9266D51DA2201D80BD10500E3
:102BD000FA6EDE50FD6EDE50FE6EDE50FF6EFA5075
:102BE00087511200A1B104D0000E8A6F2B0E03D0C2
:102BF000000E8A6F2D0E896F6CC0D9FF6DC0DAFF91
:102C0000DECF72F0DDCF73F072C0D9FF73C0DAFF90
:102C100089C0DFFFE0D0A1A1E5D020EE02F06C5129
:102C2000D9266D51DA22DE50DE10DE10D8B413D072
:102C300020EE02F06C51D9266D51DA2201D8D2D0A3
:102C40000500FA6EDE50FD6EDE50FE6EDE50FF6E49
:102C5000FA50200E12006CC0D9FF6DC0DAFFDECF33
:102C600072F0DDCF73F072C0D9FF73C0DAFF200EAF
:102C7000DF6EB1D09FC072F0A0C073F0D8907237F1
:102C80007337D890723773374B0E7225F66EE90E94
:102C90007321F76EF86A000EF8220900F5CF05F0EF
:102CA0000900F5CF06F00900F5CF07F00A00F5CFCF
:102CB00008F099C001F09AC002F09BC003F09CC0DC
:102CC00004F0EDECD9F001C00EF002C00FF003C02B
:102CD00010F004C011F00A0E126E000E136E000EFA
:102CE000146E000E156E6CECDBF00E50300F000110
:102CF000A36F45D099C001F09AC002F09BC003F0C9
:102D00009CC004F09FC072F0A0C073F0D8907237DE
:102D10007337D890723773372B0E7225F66EE60E26
:102D20007321F76EF86A000EF8220900F5CF05F05E
:102D30000900F5CF06F00900F5CF07F00A00F5CF3E
:102D400008F0EDECD9F001500F0B00017A6F1E0E68
:102D50007A25F66EF76AFB0EF722F86A000EF82263
:102D60000800F5CFA3F00BD0A151C00B000AD8B4D6
:102D700081D7800AD8B4BED7400AD8B47BD720EE1A
:102D800002F06C51D9266D51DA22DE50DE10DE10D1
:102D9000D8B413D020EE02F06C51D9266D51DA224E
:102DA00001D820D00500FA6EDE50FD6EDE50FE6EBA
:102DB000DE50FF6EFA50A35112006CC0D9FF6DC0F7
:102DC000DAFFDECF72F0DDCF73F072C0D9FF73C0CF
:102DD000DAFFA3C0DFFF6CC0D9FF6DC0DAFFDE2AC7
:102DE000000EDD2200019F07D8A0A0079F29BCE1AB
:102DF000A029D8A4B9D700016E51726F6F51736FBB
:102E00006E4B6F2B72C0F6FF73C0F7FF000EF86EAB
:102E10000E0EF76403D00800F55005D0F6CFE9FF99
:102E2000F7CFEAFFEF500001A36FA351D8A494EFAE
:102E30008BF0000E6D6F000E6C6F1200DAEF9FF0DA
:102E4000000ED76F000E036F030E046F460E056F62
:102E5000FC0E066FF7ECDDF0110E0201036F030E9E
:102E6000046F810E056FFB0E066FF7ECDDF0220E8E
:102E70000201036F030E046F710E056FFB0E066FE8
:102E8000F7ECDDF0330E0201036F030E046FFF5108
:102E9000B3ECE1F000C205F201C206F2F7ECDDF09E
:102EA000ECECCFF0010E0201D86F030E0001FD6FB4
:102EB0001200000ED76F000E036F030E046FE50EB5
:102EC000056FFD0E066FF7ECDDF0D10E0201906F7D
:102ED000030E916F9E0E926FFF0E936F75ECE3F0F1
:102EE0000BC294F20CC295F21BECDEF0110E020143
:102EF000036F030E046FD10E056F030E066FF7EC20
:102F0000DDF0220E0201036F030E046FE00E056F69
:102F1000FC0E066FF7ECDDF0E20E0201906F030E7F
:102F2000916F700E926FFF0E936F72ECE0F00201E2
:102F3000B96F410EB925946F956B000E9523C9ECBE
:102F4000E2F00201BA6FBA51966F976B1BECDEF09C
:102F5000330E0201036F030E046FE20E056F030EC2
:102F6000066FF7ECDDF0ECECCFF0020E9CD7000E14
:102F7000D76F000E036F030E046F610E056FFB0E1B
:102F8000066FF7ECDDF0110E0201036F030E046F04
:102F9000730E056FFE0E066FF7ECDDF0220E0201D8
:102FA000036F030E046F910E056FFB0E066FF7ECB7
:102FB000DDF0330E0201036F030E046FFD0E056F8B
:102FC000FB0E066FF7ECDDF0ECECCFF0030E6BD7E9
:102FD000000ED76F000E036F030E046FA80E056F6F
:102FE000FC0E066FF7ECDDF0110E0201036F030E0D
:102FF000046FF00E056FFD0E066FF7ECDDF0220E8C
:103000000201036F030E046FB60E056FFC0E066F10
:10301000F7ECDDF0330E0201036F030E046F510E67
:10302000056FFB0E066FF7ECDDF0ECECCFF0040E55
:103030003AD7000ED76F000E036F030E046FDF0E3A
:10304000056FFB0E066FF7ECDDF0110E0201036F4A
:10305000030E046FA90E056FFD0E066FF7ECDDF091
:10306000220E0201036F030E046F2CECDCF000C291
:1030700005F201C206F2F7ECDDF0330E0201036F38
:10308000030E046FA90E056FFD0E066FF7ECDDF061
:10309000ECECCFF0040E0201D86F010E0001FD6FC1
:1030A0001200000ED76F000E036F030E046F540E54
:1030B000056FFC0E066FF7ECDDF0110E0201906F4C
:1030C000030E916F510E926FFF0E936FEBC094F24F
:1030D000ECC095F2EDC096F2EEC097F21BECDEF07C
:1030E000220E0201036F030E046FA90E056FFD0E81
:1030F000066FF7ECDDF0330E0201036F030E046F71
:10310000A90E056FFD0E066FF7ECDDF0ECECCFF0CD
:10311000050EC1D7000ED76F000E036F030E046FAC
:10312000ED0E056FFC0E066FF7ECDDF0110E0201DF
:10313000906F030E916F510E926FFF0E936FE7C069
:1031400094F2E8C095F2E9C096F2EAC097F21BEC5F
:10315000DEF0220E0201036F030E046FA90E056F4D
:10316000FD0E066FF7ECDDF0330E0201036F030E68
:10317000046FA90E056FFD0E066FF7ECDDF0ECECA9
:10318000CFF0060E88D7000ED76F000E036F030E28
:10319000046F9A0E056FFC0E066FF7ECDDF0110E52
:1031A0000201906F030E916F410E926FFF0E936FAD
:1031B000EFC094F2F0C095F2F1C096F2F2C097F22F
:1031C0001BECDEF0220E0201036F030E046FA90E4A
:1031D000056FFD0E066FF7ECDDF0330E0201036F95
:1031E000030E046FA90E056FFD0E066FF7ECDDF000
:1031F000ECECCFF0070E4FD7000ED76F000E036F29
:10320000030E046F870E056FFD0E066FF7ECDDF001
:103210000201D351D411D511D611D8A40BD0110E5F
:10322000036F030E046F210E056FFD0E066FF7ECA2
:10323000DDF012D0110E906F030E916F410E926F60
:10324000FF0E936FF3C094F2F4C095F2F5C096F2BE
:10325000F6C097F21BECDEF0220E0201036F030EA4
:10326000046FA90E056FFD0E066FF7ECDDF0330E4F
:103270000201036F030E046FA90E056FFD0E066FAA
:10328000F7ECDDF0ECECCFF0080E05D7000ED76FB1
:10329000000E036F030E046F140E056FFD0E066F14
:1032A000F7ECDDF0110E0201906F030E916F590ED5
:1032B000926FFF0E936FBFC294F2C0C295F2C1C26B
:1032C00096F2C2C297F21BECDEF0220E0201036FEF
:1032D000030E046FA90E056FFD0E066FF7ECDDF00F
:1032E000330E0201036F030E046FA90E056FFD0E6E
:1032F000066FF7ECDDF0ECECCFF0090ECCD6000E4B
:10330000D76F000E036F030E046F8C0E056FFC0E5B
:10331000066FF7ECDDF00201D351D411D511D611AF
:10332000D8A40BD0110E036F030E046F210E056F8E
:10333000FD0E066FF7ECDDF012D0110E906F030E4C
:10334000916F590E926FFF0E936FC3C294F2C4C275
:1033500095F2C5C296F2C6C297F21BECDEF0220EC1
:103360000201036F030E046FA90E056FFD0E066FB9
:10337000F7ECDDF0330E0201036F030E046FA90EAC
:10338000056FFD0E066FF7ECDDF0ECECCFF00A0EEA
:1033900082D6000ED76F000E036F030E046F930EDC
:1033A000056FFD0E066FF7ECDDF00201D351D4116D
:1033B000D511D611D8A40BD0110E036F030E046FD4
:1033C000210E056FFD0E066FF7ECDDF012D0110E29
:1033D000906F030E916FFA0E926FFE0E936FC7C23D
:1033E00094F2C8C295F2C9C296F2CAC297F21BEC17
:1033F000DEF0220E0201036F030E046FA90E056FAB
:10340000FD0E066FF7ECDDF0330E0201036F030EC5
:10341000046FA90E056FFD0E066FF7ECDDF0ECEC06
:10342000CFF00B0E38D6000ED76F000E036F030ED1
:10343000046F030E056FFF0E066FF7ECDDF0110E43
:103440000201906F030E916F490E926FFF0E936F02
:10345000DBC294F2DCC295F2DDC296F2DEC297F2D4
:103460001BECDEF0220E0201036F030E046FA90EA7
:10347000056FFD0E066FF7ECDDF0330E0201036FF2
:10348000030E046FA90E056FFD0E066FF7ECDDF05D
:10349000ECECCFF00F0EFFD5000ED76F000E036FD0
:1034A000030E046F690E056FFE0E066FF7ECDDF07C
:1034B000110E0201906F030E916F490E926FFF0E75
:1034C000936FDFC294F2E0C295F2E1C296F2E2C2DB
:1034D00097F21BECDEF0220E0201036F030E046F65
:1034E000A90E056FFD0E066FF7ECDDF0330E02013D
:1034F000036F030E046FA90E056FFD0E066FF7EC48
:10350000DDF0ECECCFF0100EC6D5000ED76F000E3C
:10351000036F030E046F700E056FFC0E066FF7EC61
:10352000DDF0110E0201906F030E916F490E926F44
:10353000FF0E936FE3C294F2E4C295F2E5C296F2F5
:10354000E6C297F21BECDEF0220E0201036F030EBF
:10355000046FA90E056FFD0E066FF7ECDDF0330E5C
:103560000201036F030E046FA90E056FFD0E066FB7
:10357000F7ECDDF0ECECCFF0110E8DD5000ED76F2F
:10358000000E036F030E046F7B0E056FFD0E066FBA
:10359000F7ECDDF0110E0201906F030E916F490EF2
:1035A000926FFF0E936FF7C094F2F8C095F2F9C0D6
:1035B00096F2FAC097F21BECDEF0220E0201036FC6
:1035C000030E046FA90E056FFD0E066FF7ECDDF01C
:1035D000330E0201036F030E046FA90E056FFD0E7B
:1035E000066FF7ECDDF0ECECCFF0120E54D5000EC8
:1035F000D76F000E036F030E046F7E0E056FFC0E77
:10360000066FF7ECDDF001018C51D8B404D0030E45
:103610008C19D8A40CD0110E0201036F030E046F95
:10362000FB0E056FFD0E066FF7ECDDF00BD0110EF3
:103630000201036F030E046F1E0E056FFF0E066F6F
:10364000F7ECDDF0220E0201036F030E046FA90EEA
:10365000056FFD0E066FF7ECDDF0330E0201036F10
:10366000030E046FA90E056FFD0E066FF7ECDDF07B
:10367000ECECCFF0130E0FD5000ED76F000E036FDA
:10368000030E046F070E056FFD0E066FF7ECDDF0FD
:1036900001018C51D8B404D0030E8C19D8A40CD0DD
:1036A000110E0201036F030E046FFB0E056FFD0E7A
:1036B000066FF7ECDDF01DD068C1A3F269C1A4F27A
:1036C0006AC1A5F26BC1A6F2FBECA4F0A3C2F3F3AE
:1036D000A4C2F4F3110E0201906F030E916FA30EBA
:1036E000926FFF0E936FF3C394F2F4C395F21BEC49
:1036F000DEF0220E0201036F030E046FA90E056FA8
:10370000FD0E066FF7ECDDF0330E0201036F030EC2
:10371000046FA90E056FFD0E066FF7ECDDF0ECEC03
:10372000CFF0140EB8D4000ED76F000E036F030E47
:10373000046F620E056FFC0E066FF7ECDDF0800E75
:103740000001C55D330EC659E10EC759010EC859B7
:10375000D8A04FD0110E0201906F030E916F0C0E86
:10376000926FFF0E936FC5C00DF2C6C00EF2C7C0B8
:103770000FF2C8C010F29BECE1F00201B96FB95131
:10378000946F956B1BECDEF0220E0201906F030E1E
:10379000916F610E926FFF0E936FC5C00DF2C6C0A0
:1037A0000EF2C7C00FF2C8C010F253ECD8F00201FD
:1037B000B96FB951946F956B1BECDEF0330E0201BB
:1037C000906F030E916F150E926FFF0E936FC5C031
:1037D0000DF2C6C00EF2C7C00FF2C8C010F2EBEC7B
:1037E000D2F00201B96FB951946F956B1BECDEF00A
:1037F00029D1C85108E1800EC55D510EC659010E90
:10380000C759D8A04FD0110E0201906F030E916FCF
:10381000610E926FFF0E936FC5C00DF2C6C00EF21F
:10382000C7C00FF2C8C010F253ECD8F00201B96F54
:10383000B951946F956B1BECDEF0220E0201906F74
:10384000030E916F150E926FFF0E936FC5C00DF2B0
:10385000C6C00EF2C7C00FF2C8C010F2EBECD2F037
:103860000201B96FB951946F956B1BECDEF0330E0A
:103870000201906F030E916F110E926FFE0E936F07
:10388000C5C00DF2C6C00EF2C7C00FF2C8C010F21C
:10389000B8ECCCF00201B96FB951946F956B1BEC89
:1038A000DEF0D0D0C851C71106E1100EC55D0E0E76
:1038B000C659D8A04FD0110E0201906F030E916F20
:1038C000150E926FFF0E936FC5C00DF2C6C00EF2BB
:1038D000C7C00FF2C8C010F2EBECD2F00201B96F12
:1038E000B951946F956B1BECDEF0220E0201906FC4
:1038F000030E916F110E926FFE0E936FC5C00DF205
:10390000C6C00EF2C7C00FF2C8C010F2B8ECCCF0BF
:103910000201B96FB951946F956B1BECDEF0330E59
:103920000201906F030E916F060E926FFE0E936F61
:10393000C5C00DF2C6C00EF2C7C00FF2C8C010F26B
:10394000FBECCBF00201B96FB951946F956B1BEC96
:10395000DEF078D0C851C711C61104E13C0EC55D38
:10396000D8A040D0110E0201906F030E916F110E7E
:10397000926FFE0E936FC5C00DF2C6C00EF2C7C0A7
:103980000FF2C8C010F2B8ECCCF00201B96FB95117
:10399000946F956B1BECDEF0220E0201906F030E0C
:1039A000916F060E926FFE0E936FC5C00DF2C6C0EA
:1039B0000EF2C7C00FF2C8C010F2FBECCBF0020150
:1039C000B96FB951946F956B1BECDEF0330E0201A9
:1039D000036F030E046FA90E056FFD0E066FF7EC63
:1039E000DDF030D0110E0201906F030E916F060EC4
:1039F000926FFE0E936FC5C00DF2C6C00EF2C7C027
:103A00000FF2C8C010F2FBECCBF00201B96FB95154
:103A1000946F956B1BECDEF0220E0201036F030E18
:103A2000046FA90E056FFD0E066FF7ECDDF0330E87
:103A30000201036F030E046FA90E056FFD0E066FE2
:103A4000F7ECDDF0ECECCFF0150E4BEF98F0000E3C
:103A5000D76F000E036F030E046FFA0E056FFC0E96
:103A6000066FF7ECDDF00201D651D51106E1100E1C
:103A7000D35D0E0ED459D8A04ED0110E906F030E08
:103A8000916F150E926FFF0E936FD3C20DF2D4C2D9
:103A90000EF2D5C20FF2D6C210F2EBECD2F0020158
:103AA000B96FB951946F956B1BECDEF0220E0201D9
:103AB000906F030E916F110E926FFE0E936FD3C233
:103AC0000DF2D4C20EF2D5C20FF2D6C210F2B8EC8B
:103AD000CCF00201B96FB951946F956B1BECDEF01D
:103AE000330E0201906F030E916F060E926FFE0E61
:103AF000936FD3C20DF2D4C20EF2D5C20FF2D6C26A
:103B000010F2FBECCBF00201B96FB951946F956BD9
:103B10001BECDEF09DD0D651D511D41104E13C0E42
:103B2000D35DD8A03FD0110E906F030E916F110E90
:103B3000926FFE0E936FD3C20DF2D4C20EF2D5C2B5
:103B40000FF2D6C210F2B8ECCCF00201B96FB95145
:103B5000946F956B1BECDEF0220E0201906F030E4A
:103B6000916F060E926FFE0E936FD3C20DF2D4C208
:103B70000EF2D5C20FF2D6C210F2FBECCBF002016E
:103B8000B96FB951946F956B1BECDEF0330E0201E7
:103B9000036F030E046FA90E056FFD0E066FF7ECA1
:103BA000DDF056D0D351D411D511D611D8A421D0DF
:103BB000110E036F030E046F210E056FFD0E066FCD
:103BC000F7ECDDF0220E0201036F030E046FA90E65
:103BD000056FFD0E066FF7ECDDF0330E0201036F8B
:103BE000030E046FA90E056FFD0E066FF7ECDDF0F6
:103BF0002FD0110E906F030E916F060E926FFE0E76
:103C0000936FD3C20DF2D4C20EF2D5C20FF2D6C258
:103C100010F2FBECCBF00201B96FB951946F956BC8
:103C20001BECDEF0220E0201036F030E046FA90EDF
:103C3000056FFD0E066FF7ECDDF0330E0201036F2A
:103C4000030E046FA90E056FFD0E066FF7ECDDF095
:103C5000ECECCFF00C0E4BEF98F0000ED76F000E8F
:103C6000036F030E046FD00E056FFB0E066FF7ECAB
:103C7000DDF00201D351D411D511D611D8A40BD047
:103C8000110E036F030E046F210E056FFD0E066FFC
:103C9000F7ECDDF01DD0CBC2A3F2CCC2A4F2CDC2B2
:103CA000A5F2CEC2A6F2FBECA4F0A3C2F3F3A4C229
:103CB000F4F3110E0201906F030E916FBE0E926F1E
:103CC000FF0E936FF3C394F2F4C395F21BECDEF096
:103CD000220E0201036F030E046FA90E056FFD0E85
:103CE000066FF7ECDDF0330E0201036F030E046F75
:103CF000A90E056FFD0E066FF7ECDDF0ECECCFF0D2
:103D00000D0E4BEF98F0000ED76F000E036F030EF1
:103D1000046FEE0E056FFB0E066FF7ECDDF002018F
:103D2000D351D411D511D611D8A40BD0110E036FD5
:103D3000030E046F210E056FFD0E066FF7ECDDF02C
:103D40001DD0CFC2A3F2D0C2A4F2D1C2A5F2D2C27A
:103D5000A6F2FBECA4F0A3C2F3F3A4C2F4F3110E99
:103D60000201906F030E916FC20E926FFF0E936F60
:103D7000F3C394F2F4C395F21BECDEF0220E0201C1
:103D8000036F030E046FA90E056FFD0E066FF7ECAF
:103D9000DDF0330E0201036F030E046FA90E056FF1
:103DA000FD0E066FF7ECDDF0ECECCFF00E0E4BEFF6
:103DB00098F0000ED76F000E036F030E046F710EA4
:103DC000056FFB0E066FF7ECDDF0110E0201036FBD
:103DD000030E046FA90E056FFD0E066FF7ECDDF004
:103DE000220E0201036F030E046FFF51B3ECE1F0EA
:103DF00000C205F201C206F2F7ECDDF0330E02015B
:103E0000036F030E046FA90E056FFD0E066FF7EC2E
:103E1000DDF0ECECCFF0160E0201D86F0001FD6969
:103E20001200000ED76F000E036F030E046FE50E35
:103E3000056FFD0E066FF7ECDDF0D10E0201906FFD
:103E4000030E916F9E0E926FFF0E936F75ECE3F071
:103E50000BC294F20CC295F21BECDEF0110E0201C3
:103E6000036F030E046FD10E056F030E066FF7ECA0
:103E7000DDF0220E0201036F030E046FE00E056FEA
:103E8000FC0E066FF7ECDDF0E20E0201906F030E00
:103E9000916F700E926FFF0E936F72ECE0F0020163
:103EA000B96F410EB925946F956B000E9523C9EC3F
:103EB000E2F00201BA6FBA51966F976B1BECDEF01D
:103EC000330E0201036F030E046FE20E056F030E43
:103ED000066FF7ECDDF0ECECCFF0170E9DD7000E7F
:103EE000D76F000E036F030E046F610E056FFB0E9C
:103EF000066FF7ECDDF0110E0201036F030E046F85
:103F0000730E056FFE0E066FF7ECDDF0220E020158
:103F1000036F030E046F910E056FFB0E066FF7EC37
:103F2000DDF0330E0201036F030E046FFD0E056F0B
:103F3000FB0E066FF7ECDDF0ECECCFF0180E6CD753
:103F4000000ED76F000E036F030E046F460E056F51
:103F5000FC0E066FF7ECDDF0110E0201036F030E8D
:103F6000046F810E056FFB0E066FF7ECDDF0220E7D
:103F70000201036F030E046F2E0E056FFD0E066F18
:103F8000F7ECDDF0330E0201036F030E046F6F0ECA
:103F9000056FFD0E066FF7ECDDF0ECECCFF0190EBF
:103FA0003BD7000ED76F1200000ED76F010E000135
:103FB000BC6F12000201D851000AD8B420EF97F06C
:103FC000010AD8B459EF97F0030AD8B4B7EF97F0C5
:103FD000010AD8B4E8EF97F0070AD8B419EF98F0BF
