:020000040000FA
:0400000060EF00F0BD
:060008005E8255EFC4F01A
:100018005E80D8CF05F1E8CF06F1E0CF07F1FACF3F
:1000280008F1FBCF09F1D9CF0AF1DACF0BF10E01B4
:10003800C6B3CEA303D032ECD0F02ED0C2B3CAA33D
:1000480003D086ECD2F028D0C2B5CAA503D081EC83
:10005800D2F022D0C5B7CDA703D070ECD2F01CD017
:10006800C5B5CDA503D0D9ECB9F016D0C6B5CEA587
:1000780003D0DBECCEF010D0C5BDCDAD0DD001D88E
:100088000BD00500FA6E02012551FD6E2651FE6E59
:100098002751FF6EFA5012000BC1DAFF0AC1D9FFCF
:1000A80009C1FBFF08C1FAFF07C1E0FF06C1E8FF6D
:0C00B80005C1D8FF5E90100033EFC6F0C9
:10E2FC00000000803F000020410000C84200007A6E
:10E30C004400401C460050C34700247449809618B2
:10E31C004B20BCBE4C286B6E4EF9021550EC78AD00
:10E32C0060CAF249710000803FCDCCCC3D0AD723A6
:10E33C003C6F12833A17B7D138ACC52737BD378637
:10E34C003595BFD63377CC2B325F708930FFE6DB47
:10E35C002E08E53C1E6042A20D01000000100000DA
:10E36C00000001000000100000000001000000107F
:10E37C000000000001000000100000000000000080
:10E38C000000005F00000000000000070007000014
:10E39C000000147F147F14000000242A7F2A12002E
:10E3AC000000231308646200000036495522500017
:10E3BC00000000050300000000001C2241000000CA
:10E3CC00000041221C0000000000082A1C2A080042
:10E3DC00000008083E0808000000A06000000000D3
:10E3EC000000080808080800000060600000000039
:10E3FC00000020100804020000003E5149453E0078
:10E40C00000000427F400000000062514949460074
:10E41C00000022414949360000001814127F1000F8
:10E42C00000027454545390000003C4A4949300069
:10E43C000000017109050300000036494949360006
:10E44C000000064949291E00000000363600000075
:10E45C00000000AC6C000000000008142241000019
:10E46C0000001414141414000000412214080000BD
:10E47C0000000201510906000000324979413E00BA
:10E48C0000007E0909097E0000007F4949493600D9
:10E49C0000003E414141220000007F4141221C000E
:10E4AC0000007F494949410000007F09090901002A
:10E4BC0000003E414151720000007F0808087F00B7
:10E4CC000000417F4100000000002040413F01005E
:10E4DC0000007F081422410000007F4040404000B3
:10E4EC0000007F020C027F0000007F0408107F00F8
:10E4FC0000003E4141413E0000007F090909060031
:10E50C0000003E4151215E0000007F0919294600A0
:10E51C000000264949493200000001017F01010039
:10E52C0000003F4040403F0000001F2040201F00E3
:10E53C0000003F4038403F000000631408146300A3
:10E54C0000000304780403000000615149454300B6
:10E55C0000007F4141000000000002040810200070
:10E56C00000041417F000000000004020102040091
:10E57C000000808080808000000001020400000008
:10E58C00000020545454780000007F484444380064
:10E59C0000003844442800000000384444487F0000
:10E5AC0000003854545418000000087E0902000082
:10E5BC00000018A4A4A47C0000007F0804047800C8
:10E5CC000000007D00000000000080847D00000041
:10E5DC0000007F10284400000000417F4000000034
:10E5EC0000007C041804780000007C08047C000007
:10E5FC0000003844443800000000FC2424180000BB
:10E60C000000182424FC00000000007C080400001A
:10E61C0000004854542400000000047F4400000013
:10E62C0000003C40407C000000001C2040201C00EE
:10E63C0000003C4030403C000000442810284400BE
:10E64C0000001CA0A07C000000004464544C44005A
:10E65C0000000836410000000000007F00000000B0
:10E66C000000413608000000000002010102010018
:10E67C00000002050502000000010000000A000075
:10E68C000064000000E803000010270000A08601D1
:10E69C000040420F008096980000E1F50500CA9AF0
:10E6AC003BB80EDA432020202048656C703A204C91
:10E6BC006973747320617661696C61626C65206347
:10E6CC006F6D6D616E64730A0D202020202A494401
:10E6DC004E3F3A205072696E7473206964656E7493
:10E6EC00696669636174696F6E20737472696E67B1
:10E6FC000A0D2020202052657365743A20457865F8
:10E70C00637574657320736F6674776172652072BC
:10E71C006573657420696E737472756374696F6E5A
:10E72C000A0D20202020436C6561723A20436C65F1
:10E73C0061727320746865207669727475616C20DF
:10E74C00434F4D20706F7274207465726D696E61E9
:10E75C006C0A0D202020204361757365206F6620A4
:10E76C0052657365743F3A205072696E74732074ED
:10E77C006865206361757365206F66207468652019
:10E78C006D6F737420726563656E74206465766951
:10E79C0063652072657365740A0D20202020446522
:10E7AC00766963652049443F3A205072696E7473F0
:10E7BC0020746865206D6963726F6368697020648A
:10E7CC0065766963652049440A0D20202020526536
:10E7DC00766973696F6E2049443F3A205072696EB6
:10E7EC00747320746865206D6963726F63686970F7
:10E7FC002073696C69636F6E207265766973696FDB
:10E80C006E2049440A0D2020202055736572204942
:10E81C0044733F3A205072696E74732061206C69A6
:10E82C007374206F6620557365722049447320738E
:10E83C006176656420696E20466C6173680A0D20F0
:10E84C00202020446576696365204F6E2054696DE5
:10E85C00653F3A205072696E747320746865206449
:10E86C006576696365206F6E2074696D65207369C8
:10E87C006E6365206C6173742064657669636520D2
:10E88C0072657365740A0D20202020456E61626CE0
:10E89C00652051493A20456E61626C65642051498E
:10E8AC0020776972656C65737320706F7765722061
:10E8BC00636F6E76657273696F6E0A0D202020206F
:10E8CC0044697361626C652051493A2044697361F3
:10E8DC00626C657320514920776972656C6573733E
:10E8EC0020706F77657220636F6E76657273696FD7
:10E8FC006E0A0D20202020436861726765205374D6
:10E90C00617475733F3A205072696E747320746829
:10E91C006520636861726765207374617465206F2C
:10E92C00662074686520514920776972656C65733F
:10E93C007320706F77657220636F6E766572746585
:10E94C00720A0D202020204D656173757265205070
:10E95C004F53353F3A205072696E7473207468655A
:10E96C002041444320636F6E76657273696F6E202D
:10E97C00726573756C7420666F7220746865202BD9
:10E98C003556207261696C0A0D202020204D65617E
:10E99C007375726520504F5331323F3A2050726973
:10E9AC006E7473207468652041444320636F6E76E7
:10E9BC00657273696F6E20726573756C7420666F07
:10E9CC007220746865202B313256207261696C0A92
:10E9DC000D202020204D65617375726520504F53BA
:10E9EC0031322043757272656E743F3A20507269F1
:10E9FC006E7473207468652041444320636F6E7697
:10EA0C00657273696F6E20726573756C7420666FB6
:10EA1C007220746865202B31325620696E707574C3
:10EA2C002063757272656E740A0D202020204D656E
:10EA3C0061737572652051492043757272656E74ED
:10EA4C003F3A205072696E7473207468652041449B
:10EA5C004320636F6E76657273696F6E2072657397
:10EA6C00756C7420666F7220746865205149206340
:10EA7C006F6E7665727465722063757272656E74F2
:10EA8C000A0D202020204D65617375726520496E3A
:10EA9C0070757420506F7765723F3A205072696EB2
:10EAAC007473207468652063616C63756C61746544
:10EABC006420656C656374726963616C20696E7047
:10EACC00757420706F776572206261736564206F56
:10EADC006E20414443206D6561737572656D656E82
:10EAEC0074730A0D202020204D65617375726520AA
:10EAFC004F757470757420506F7765723F3A205063
:10EB0C0072696E7473207468652063616C63756CD4
:10EB1C006174656420776972656C657373206F75B9
:10EB2C007470757420706F776572206261736564A0
:10EB3C00206F6E20414443206D6561737572656D65
:10EB4C00656E74730A0D202020204D6561737572FB
:10EB5C006520456666696369656E63793F3A205046
:10EB6C0072696E7473207468652063616C63756C74
:10EB7C00617465642073797374656D20656666696C
:10EB8C006369656E6379206261736564206F6E20C2
:10EB9C00414443206D6561737572656D656E747368
:10EBAC000A0D202020204D65617375726520415639
:10EBBC0053533F3A205072696E7473207468652009
:10EBCC0041444320636F6E76657273696F6E207279
:10EBDC006573756C7420666F7220415653530A0D21
:10EBEC00202020204D656173757265204656523F7A
:10EBFC003A205072696E74732074686520414443E6
:10EC0C0020636F6E76657273696F6E2072657375B3
:10EC1C006C7420666F722074686520666978656410
:10EC2C0020766F6C74616765207265666572656EBF
:10EC3C0063650A0D202020204D6561737572652077
:10EC4C004469652054656D703F3A205072696E744A
:10EC5C0073207468652041444320636F6E7665723F
:10EC6C0073696F6E20726573756C7420666F722099
:10EC7C00746865206D6963726F636F6E74726F6C0C
:10EC8C006C6572206469652074656D706572617461
:10EC9C007572650A0D202020204D656173757265B3
:10ECAC002051492054656D703F3A205072696E7442
:10ECBC007320746865206469676974616C2074657D
:10ECCC006D70657261747572652073656E736F72A9
:10ECDC0020726573756C7420666F72207468652081
:10ECEC00514920636F6E7665727465720A0D20202F
:10ECFC0020204D65617375726520504F533520543B
:10ED0C00656D703F3A205072696E7473207468653B
:10ED1C00206469676974616C2074656D70657261DB
:10ED2C00747572652073656E736F7220726573757E
:10ED3C006C7420666F7220746865202B35562063C6
:10ED4C006F6E7665727465720A0D202020204D65F9
:10ED5C00617375726520416D6269656E74205465CE
:10ED6C006D703F3A205072696E7473207468652020
:10ED7C006469676974616C2074656D706572617427
:10ED8C007572652073656E736F7220726573756C26
:10ED9C007420666F7220616D6269656E7420656E99
:10EDAC007669726F6E6D656E740A0D202020204599
:10EDBC0072726F72205374617475733F2050726954
:10EDCC006E747320696620616E7920737973746533
:10EDDC006D206661756C7473206861766520626560
:10EDEC00656E2064657465637465640A0D2020206B
:10EDFC0020436C6561722055415254204572726FEC
:10EE0C0072733A20436C65617273205541525420E1
:10EE1C006572726F7220666C6167730A0D20202018
:10EE2C0020436C65617220493243204572726F72C7
:10EE3C00733A20436C6561727320493243206572CA
:10EE4C00726F7220666C6167730A0D20202020435C
:10EE5C006C65617220414443204572726F72733A43
:10EE6C0020436C6561727320414443206572726F5C
:10EE7C007220666C6167730A0D00436F6D6D616E75
:10EE8C0064732061726520636173652073656E73B2
:10EE9C0069746976652C206261636B73706163655C
:10EEAC0020697320737570706F727465642C2063A5
:10EEBC006F6D6D616E6420686973746F727920690F
:10EECC0073206E6F7420737570706F727465640A42
:10EEDC000D00466978656420566F6C746167652017
:10EEEC005265666572656E6365204275666665720D
:10EEFC002031206D65617375726564206173202506
:10EF0C002B2E336620566F6C74732C2063616C69E6
:10EF1C0062726174656420666F72202B342E3039F6
:10EF2C003620566F6C74730A0D0054686520666F3A
:10EF3C006C6C6F77696E67205573657220494473EA
:10EF4C002068617665206265656E207265747269F1
:10EF5C00657665642066726F6D20666C61736820DF
:10EF6C006D656D6F72793A0A0D0053797374656D26
:10EF7C0020706172616D657465727320616E6420BE
:10EF8C0061666669726D617469766520726573700D
:10EF9C006F6E7365732061707065617220696E208D
:10EFAC00677265656E0A0D0046696E697368656403
:10EFBC002074657374206D6573736167652C2074A0
:10EFCC00797065202748656C702720666F72206CFD
:10EFDC00697374206F6620636F6D6D616E64730A64
:10EFEC000D0A0D0043616C6C2027436C6561722027
:10EFFC0055415254204572726F72732720746F20E2
:10F00C00636C65617220636F6D6D756E696361749D
:10F01C00696F6E73206572726F722873290A0D0006
:10F02C0043616C6C2027436C65617220493243202C
:10F03C004572726F72732720746F20636C656172F6
:10F04C0020636F6D6D756E69636174696F6E73208B
:10F05C006572726F722873290A0D004465766963B4
:10F06C00652073696C69636F6E207265766973696C
:10F07C006F6E2049442061732073746F7265642035
:10F08C00696E20466C6173682069733A202563258C
:10F09C003033640A0D000A0D48656C70206D657381
:10F0AC00736167657320616E64206E65757472613F
:10F0BC006C20726573706F6E736573206170706510
:10F0CC00617220696E2079656C6C6F770A0D002077
:10F0DC002020205573657220494420576F7264209C
:10F0EC0025642028466C61736820616464726573C2
:10F0FC007320307832303030302558293A2030782F
:10F10C00253034580A0D004D6963726F636F6E744D
:10F11C00726F6C6C6572204469652054656D706506
:10F12C00726174757265206D6561737572656420AA
:10F13C00617320252B2E336620430A0D0051492084
:10F14C00776972656C65737320706F776572206375
:10F15C006F6E766572746572206861732066756C6B
:10F16C006C7920636861726765642070686F6E6586
:10F17C000A0D0051492043686172676572207769F6
:10F18C007468204469676974616C204D6F6E697492
:10F19C006F72696E672C2062792044726577204DFE
:10F1AC006161746D616E0A0D005468652063617550
:10F1BC007365206F6620746865206D6F73742072A0
:10F1CC006563656E7420646576696365207265732A
:10F1DC006574207761733A2025730A0D005149201C
:10F1EC004368617267657220776974682044696747
:10F1FC006974616C204D6F6E69746F72696E670A09
:10F20C000D426F6F7420436F6D706C6574650A0DE1
:10F21C0000446576696365206F6E2074696D6520A6
:10F22C0073696E6365206C617374207265736574A9
:10F23C0020636F6E646974696F6E2069733A202560
:10F24C00730A0D00456C656374726963616C2049C7
:10F25C006E70757420506F7765722063616C637586
:10F26C006C6174656420617320252B2E33662057E6
:10F27C00617474730A0D00576972656C6573732041
:10F28C004F757470757420506F7765722063616C64
:10F29C0063756C6174656420617320252B2E336655
:10F2AC002057617474730A0D0043616C6C20274302
:10F2BC006C65617220414443204572726F727327F2
:10F2CC0020746F20636C6561722041444320657229
:10F2DC00726F722873290A0D002B355620436F6EFE
:10F2EC007665727465722054656D706572617475A3
:10F2FC007265206D6561737572656420617320257C
:10F30C002B2E336620430A0D00514920436F6E7635
:10F31C0065727465722054656D7065726174757276
:10F32C0065206D6561737572656420617320252B92
:10F33C002E336620430A0D000A0D43616C6C2027A6
:10F34C0048656C702720666F72206C697374206F2F
:10F35C006620737570706F7274656420636F6D6D69
:10F36C00616E64730A0D0054686520666F6C6C6F77
:10F37C0077696E67206368616E6E656C732063617C
:10F38C007573656420616E20414443206572726F11
:10F39C00723A0A0D00514920636F6E76657274657E
:10F3AC00722063757272656E74206D65617375720F
:10F3BC00656420617320252B2E336620416D70739C
:10F3CC000A0D004572726F727320616E64206E6557
:10F3DC0067617469766520726573706F6E7365739F
:10F3EC002061707065617220696E207265640A0D0F
:10F3FC00004465766963652049442073746F7265B7
:10F40C006420696E20466C6173682069733A20250C
:10F41C00732028307825303458290A0D002B3132CE
:10F42C005620696E7075742063757272656E7420E7
:10F43C006D6561737572656420617320252B2E33A5
:10F44C006620416D70730A0D004361757365206F02
:10F45C0066206D6F737420726563656E74206465CD
:10F46C0076696365207265736574207761733A20E1
:10F47C0025730A0D0054686520666F6C6C6F776994
:10F48C006E6720493243204572726F727320776524
:10F49C0072652064657465637465643A0A0D004195
:10F4AC006D6269656E742054656D706572617475FA
:10F4BC007265206D656173757265642061732025BA
:10F4CC002B2E336620430A0D0053797374656D201F
:10F4DC00456666696369656E63792063616C637503
:10F4EC006C6174656420617320252E336625250AB2
:10F4FC000D0057696E646F7765642057617463689B
:10F50C0020446F672054696D65722056696F6C6179
:10F51C0074696F6E20526573657400514920576988
:10F52C0072656C65737320506F77657220436F6ED4
:10F53C0076657273696F6E2044697361626C656481
:10F54C000A0D00514920576972656C657373205020
:10F55C006F77657220436F6E76657273696F6E207C
:10F56C00456E61626C65640A0D004D656173757260
:10F57C00656D656E7420726573706F6E7365732044
:10F58C0061707065617220696E206379616E0A0D1D
:10F59C000054686973207465787420686173206105
:10F5AC00206D6167656E7461206261636B67726F59
:10F5BC00756E640A0D00556E737570706F7274659C
:10F5CC0064206F72206D69732D656E74657265644D
:10F5DC0020636F6D6D616E640A0D00546869732051
:10F5EC00746578742068617320612079656C6C6F28
:10F5FC0077206261636B67726F756E640A0D002011
:10F60C0020202049324320416D6269656E7420547C
:10F61C00656D702053656E736F72204572726F72D8
:10F62C000A0D00514920776972656C6573732070FF
:10F63C006F77657220636F6E766572746572206980
:10F64C00732025730A0D002B313256207261696CC0
:10F65C00206D6561737572656420617320252B2E96
:10F66C00336620566F6C74730A0D005468697320EE
:10F67C00746578742068617320612077686974659B
:10F68C00206261636B67726F756E640A0D0054685B
:10F69C006973207465787420686173206120626CD2
:10F6AC0061636B206261636B67726F756E640A0DC8
:10F6BC0000546869732074657874206861732061E4
:10F6CC0020677265656E206261636B67726F756E21
:10F6DC00640A0D002B3556207261696C206D6561D2
:10F6EC00737572656420617320252B2E336620564A
:10F6FC006F6C74730A0D00546869732074657874A8
:10F70C0020686173206120626C7565206261636B97
:10F71C0067726F756E640A0D0054686973207465A6
:10F72C007874206861732061206379616E20626156
:10F73C00636B67726F756E640A0D00546869732091
:10F74C00746578742068617320612072656420622E
:10F75C0061636B67726F756E640A0D002020202048
:10F76C0049324320504F53352054656D70205365FA
:10F77C006E736F72204572726F720A0D00514920C0
:10F78C004368617267657220697320696E204572E7
:10F79C00726F722053746174650A0D002020202052
:10F7AC004932432051492054656D702053656E7366
:10F7BC006F72204572726F720A0D004156535320BE
:10F7CC006D6561737572656420617320252B2E3312
:10F7DC006620566F6C74730A0D0055736572206940
:10F7EC006E707574206170706561727320696E2023
:10F7FC0077686974650A0D00202020204932432067
:10F80C004F4C454420446973706C61792045727289
:10F81C006F720A0D004E6F20554152542065727262
:10F82C006F722873292064657465637465640A0DAE
:10F83C000054657374696E67207465787420617404
:10F84C0074726962757465733A0A0D005468697351
:10F85C00207465787420697320756E6465727363A7
:10F86C006F7265640A0D004E6F2049324320657239
:10F87C00726F722873292064657465637465640AF9
:10F88C000D004E6F20414443206572726F722873D5
:10F89C00292064657465637465640A0D00524553D0
:10F8AC00455420496E737472756374696F6E20458C
:10F8BC007865637574656400555342205541525404
:10F8CC00204572726F722044657465637465640AB6
:10F8DC000D00414443206572726F722873292064B5
:10F8EC0065746563746564210A0D0054686973203E
:10F8FC0074657874206973206E6F726D616C0A0D7B
:10F90C000A0D00546869732074657874206973203B
:10F91C0072657665727365640A0D005468697320AC
:10F92C007465787420697320626C696E6B696E679C
:10F93C000A0D0055415254206572726F722873295A
:10F94C0020636C65617265640A0D002020202049DB
:10F95C0032432047656E6572616C204572726F721E
:10F96C000A0D002020202047656E6572616C2041D5
:10F97C004443206572726F720A0D005468697320DB
:10F98C0074657874206973206D6167656E74610AA3
:10F99C000D00414443204572726F72287329206315
:10F9AC006C65617265640A0D0049324320657272A0
:10F9BC006F7228732920636C65617265640A0D008F
:10F9CC004D65617375726520504F5331322043750C
:10F9DC007272656E743F0054686973207465787434
:10F9EC002069732079656C6C6F770A0D0041766124
:10F9FC00696C61626C6520436F6D6D616E64733A06
:10FA0C000A0D004D65617375726520416D62696503
:10FA1C006E742054656D703F004D65617375726531
:10FA2C00204F757470757420506F7765723F00535A
:10FA3C007461636B20556E646572666C6F772052CF
:10FA4C0065736574005468697320746578742069F3
:10FA5C007320626C61636B0A0D00546869732074C7
:10FA6C0065787420697320677265656E0A0D004DA8
:10FA7C0065617375726520496E70757420506F776F
:10FA8C0065723F00537461636B204F766572666CD0
:10FA9C006F772052657365740054686973207465C0
:10FAAC00787420697320626F6C640A0D0054686965
:10FABC0073207465787420697320626C75650A0D07
:10FACC0000546869732074657874206973206379B5
:10FADC00616E0A0D004D6561737572652051492088
:10FAEC0043757272656E743F004D65617375726516
:10FAFC0020456666696369656E63793F0054686981
:10FB0C00732074657874206973207265640A0D0023
:10FB1C004D65617375726520504F53352054656D7A
:10FB2C00703F004D617374657220436C6561722087
:10FB3C0052657365740055534220554152542054FC
:10FB4C006573740A0D0A0D004D656173757265203D
:10FB5C004469652054656D703F00436C656172208B
:10FB6C0055415254204572726F72730030313233EA
:10FB7C00343536373839414243444546004D65618A
:10FB8C00737572652051492054656D703F00436C4C
:10FB9C0065617220493243204572726F7273004363
:10FBAC006C65617220414443204572726F72730020
:10FBBC00446576696365204F6E2054696D653F001E
:10FBCC004361757365206F662052657365743F00E1
:10FBDC00766961205553422C202748656C702700AC
:10FBEC00434F4D20506F72742053657475703A00FA
:10FBFC004361757365206F662052657365743A00B6
:10FC0C004469676974616C204D6F6E69746F720022
:10FC1C00386269742C206E6F20706172697479007F
:10FC2C00556E646566696E65642052657365740013
:10FC3C0042726F776E204F75742052657365740035
:10FC4C004D65617375726520504F5331323F0043DF
:10FC5C006861726765205374617475733F00504F0F
:10FC6C0053313220566F6C746167653A004368619A
:10FC7C00726765205374617475733A00504F533139
:10FC8C00322043757272656E743A00312073747051
:10FC9C002C206E6F20666C6F7700524553455420B4
:10FCAC00457865637574656400506F776572204F95
:10FCBC006E205265736574004D65617375726520B5
:10FCCC00504F53353F004D65617375726520415639
:10FCDC0053533F004572726F722053746174757385
:10FCEC003F005149204368617267657220772F008D
:10FCFC00504F533520566F6C746167653A00416DF7
:10FD0C006269656E742054656D703A004F7574703D
:10FD1C00757420506F7765723A00426F6F74204390
:10FD2C006F6D706C657465004D6F726520536574F2
:10FD3C0074696E67730046756C6C792043686172E8
:10FD4C006765640066756C6C7920636861726765C1
:10FD5C0064005265766973696F6E2049443F004DAB
:10FD6C00656173757265204656523F00526576691F
:10FD7C0073696F6E2049443A00496E707574205057
:10FD8C006F7765723A002564206D696E75746573C2
:10FD9C002C200050494331384C4632374B3430001C
:10FDAC0050494331384C4634374B3430005049437A
:10FDBC0031384C4636374B3430004D6963726F2006
:10FDCC0054656D703A0051492043757272656E74BA
:10FDDC003A00456666696369656E63793A00256425
:10FDEC00206D696E7574652C20005049433138467E
:10FDFC0032374B34300050494331384634374B346A
:10FE0C00300050494331384636374B343000256C7E
:10FE1C00752E25362E366C75001B5B303B33373B0D
:10FE2C0034306D004465766963652049443F004475
:10FE3C00697361626C65205149004465766963653C
:10FE4C002049443A00514920456E61626C6564005A
:10FE5C0025642079656172732C2000256420686FFD
:10FE6C007572732C20002564207365636F6E647348
:10FE7C000053544F462052657365740053545546D5
:10FE8C00205265736574004D434C52205265736566
:10FE9C007400575744542052657365740020202019
:10FEAC00204656520A0D0055736572204944733F23
:10FEBC0000456E61626C65205149002B355620540B
:10FECC00656D703A003131352E32206B627300252E
:10FEDC006420796561722C2000256420686F75722E
:10FEEC002C2000256420646179732C20002564206B
:10FEFC007365636F6E6400424F5220526573657474
:10FF0C0000504F5220526573657400556E646566DF
:10FF1C00696E656400756E646566696E6564004F34
:10FF2C006E2054696D653A0051492054656D703AE4
:10FF3C00002564206461792C200043686172676934
:10FF4C006E67006368617267696E6700252B2E33DC
:10FF5C0066252500286E756C6C2900252B2E3366C2
:10FF6C004100252B2E33664300252B2E336656007D
:10FF7C00252B2E33665700256325303364002A4920
:10FF8C00444E3F00436C656172004572726F7200A3
:10FF9C006572726F72001B5B324A0048656C7000B0
:10FFAC00307825580049646C650069646C65001BE9
:10FFBC005B73001B5B75001B5B48001B5B4B0033CA
:10FFCC0030003331003431003332003432003333FB
:10FFDC00003433003334003434003335003435000E
:10FFEC003336003436003337003437001B5B0038AF
:04FFFC00003B0000C6
:020000040001F9
:100000006FEF8BF0250E8F19D8B436D020EE02F0AA
:100010005851D9265951DA22DE50DE10DE10D8B4FC
:1000200014D020EE02F05851D9265951DA2202D8C4
:100030006FEF8BF00500FA6EDE50FD6EDE50FE6E47
:10004000DE50FF6EFA508F51120058C1D9FF59C1CE
:10005000DAFFDECF5EF1DDCF5FF15EC1D9FF5FC1B8
:10006000DAFF8FC1DFFF58C1D9FF59C1DAFFDE2A9D
:10007000000EDD226FEF8BF0000E8A6F000E896F8D
:10008000000E8E6F000E8D6F0AD001018D8105D09C
:1000900001018D8302D001018D855A4B5B2B5AC122
:1000A000F6FF5BC1F7FF000EF86E0E0EF76403D08B
:1000B0000800F55005D0F6CFE9FFF7CFEAFFEF5083
:1000C000200AD8B4E2D70B0AD8B4E2D71B0AD8B4B6
:1000D000E2D701018DB38D915AC1F6FF5BC1F7FFE5
:1000E000000EF86E0E0EF76403D00800F55005D030
:1000F000F6CFE9FFF7CFEAFFEF50CAECD0F0D8A077
:100100004CD0000E01018A6F000E896F89C10CF17D
:100110008AC10DF1000E01010F6F0A0E0E6F1EEC69
:10012000D0F00CC189F10DC18AF1D00E01015E6FD2
:10013000FF0E5F6F5AC1F6FF5BC1F7FF000EF86E4E
:100140000E0EF76403D00800F55005D0F6CFE9FF96
:10015000F7CFEAFFEF500101606F616B5E516027DE
:100160005F5161236051892761518A235A4B5B2B70
:100170005AC1F6FF5BC1F7FF000EF86E0E0EF76472
:1001800003D00800F55005D0F6CFE9FFF7CFEAFF1E
:10019000EF50CAECD0F0D8B0B9D75AC1F6FF5BC166
:1001A000F7FF000EF86E0E0EF76403D00800F5504E
:1001B00005D0F6CFE9FFF7CFEAFFEF502E0AD8A41B
:1001C00049D001018E8D5A4B5B2B000E8C6F000EB7
:1001D0008B6F2AD08BC10CF18CC10DF1000E010187
:1001E0000F6F0A0E0E6F1EECD0F05AC1F6FF5BC106
:1001F000F7FF000EF86E0E0EF76403D00800F550FE
:1002000005D0F6CFE9FFF7CFEAFFEF5001015E6FAF
:100210005E510C27000E0D23D00E0C258B6FFF0EA8
:100220000D218C6F5A4B5B2B5AC1F6FF5BC1F7FF58
:10023000000EF86E0E0EF76403D00800F55005D0DE
:10024000F6CFE9FFF7CFEAFFEF50CAECD0F0D8A025
:100250002AD1C0D7000E01018C6F000E8B6F8E89E2
:1002600022D18D8920D18E8559D18D8F57D15CC1F6
:10027000D9FF5DC1DAFFDFCF5EF1020EDE26DFCFF0
:100280005FF1000EDD225EC1D9FF5FC1DAFFDECF74
:1002900077F1DDCF78F177517811D8A404D0600ED2
:1002A000776FFF0E786F000E7A6F000E796F03D0B4
:1002B0000101794B7A2B795177255E6F7A5178213C
:1002C0005F6F5EC1F6FF5FC1F7FF000EF86E0E0EA6
:1002D000F76403D00800F55005D0F6CFE9FFF7CF5B
:1002E000EAFFEF500009D8A4E3D701018B518C112C
:1002F000D8B40AD079518B5D7A518C59D8B004D0DA
:100300008BC179F18CC17AF18951795D8A517A5921
:10031000D8B005D07951895F7A518A5B38D0000E08
:100320008A6F000E896F33D020EE02F05851D92623
:100330005951DA22DE50DE10DE10D8B413D020EE90
:1003400002F05851D9265951DA2201D820D005009F
:10035000FA6EDE50FD6EDE50FE6EDE50FF6EFA501D
:10036000200E120058C1D9FF59C1DAFFDECF5EF16D
:10037000DDCF5FF15EC1D9FF5FC1DAFF200EDF6E16
:1003800058C1D9FF59C1DAFFDE2A000EDD22010172
:100390008907D8A08A078929C7E18A29D8B45BD000
:1003A000C3D720EE02F05851D9265951DA22DE5037
:1003B000DE10DE10D8B427D020EE02F05851D92636
:1003C0005951DA2201D81BD00500FA6EDE50FD6EBD
:1003D000DE50FE6EDE50FF6EFA5077C1F6FF78C138
:1003E000F7FF000EF86E0E0EF76403D00800F5500C
:1003F00005D0F6CFE9FFF7CFEAFFEF501200010179
:10040000774B782B28D077C1F6FF78C1F7FF000E25
:10041000F86E58C1D9FF59C1DAFFDECF5EF1DDCFEA
:100420005FF15EC1D9FF5FC1DAFF0E0EF76403D042
:100430000800F55005D0F6CFE9FFF7CFEAFFEF50FF
:10044000DF6E0101774B782B58C1D9FF59C1DAFF14
:10045000DE2A000EDD227907D8A07A077929A1E1EA
:100460007A29D8B46FEF8BF09CD75CC1D9FF5DC1FE
:10047000DAFFDFCF5EF1020EDE26DFCF5FF1000E86
:10048000DD225EC1D9FF5FC1DAFFDF508F6F8F0EB3
:10049000776F010E786F000E7A6F010E796F25D796
:1004A000C00E8D133BD001015A515E6F5B515F6FDF
:1004B0005A4B5B2B5EC1F6FF5FC1F7FF000EF86E73
:1004C0000E0EF76403D00800F55005D0F6CFE9FF13
:1004D000F7CFEAFFEF5001018F6F8F51000AD8B4B8
:1004E0008DEF8BF0580AD8B4C0D63B0AD8B4BDD72C
:1004F000070AD8B413D0020AD8B4B5D60F0AD8B4B4
:100500000DD0050AD8B4ADD61F0AD8B4B0D6060AA5
:10051000D8B4C6D70D0AD8B4A8D6B9D7070E8E1549
:10052000D8B40FEF88F08EA904D0000E8C6F060EA1
:100530008B6F5CC1D9FF5DC1DAFFDFCF5EF1040EC6
:10054000DE26DFCF5FF1000EDD225EC1D9FF5FC185
:10055000DAFFDECF81F1DECF82F1DECF83F1DECFB5
:1005600084F184AF15D081C10CF182C10DF183C13A
:100570000EF184C10FF158ECCFF00CC181F10DC127
:1005800082F10EC183F10FC184F1030E01018D13BD
:10059000000E7C6F000E7B6F81C10CF182C10DF1EA
:1005A00083C10EF184C10FF1000E106F000E116FA8
:1005B000000E126F000E136F7EECC6F00101D8B072
:1005C00084D083358435820F7B6F7C6BFF0E7C2358
:1005D0007B07D8A07C077BC10CF17CC10DF1000E1C
:1005E0000F6F030E0E6F1EECD0F00CC17BF10DC12E
:1005F0007CF17BC112F17CC113F1000E0101156F7A
:100600000A0E146F09ECC7F012C17BF113C17CF123
:1006100001017CAF03D07B07D8A07C077B51000889
:1006200098ECA6F033C17DF134C17EF135C17FF184
:1006300036C180F17DC11AF17EC11BF17FC11CF171
:1006400080C11DF181C11EF182C11FF183C120F162
:1006500084C121F12EECAEF01AC17DF11BC17EF1F7
:100660001CC17FF11DC180F17DC10CF17EC10DF176
:100670007FC10EF180C10FF1000E0101106F000E5D
:10068000116F800E126F3F0E136F10ECC2F001015C
:10069000D8B004D07B07D8A07C0717D07DC10CF15F
:1006A0007EC10DF17FC10EF180C10FF1000E106F00
:1006B000000E116F200E126F410E136F10ECC2F07E
:1006C0000101D8A002D07B4B7C2B8CBF06D08C5173
:1006D00021E10D0E8B5DD8B01DD081C140F182C1EA
:1006E00041F183C142F184C143F18B518FECB4F0ED
:1006F00033C144F134C145F135C146F136C147F14A
:1007000081ECB1F040C181F141C182F142C183F17C
:1007100043C184F101017CBF06D07C5131E10A0E56
:100720007B5DD8B02DD081C10CF182C10DF183C1A8
:100730000EF184C10FF1000E106F000E116F000E4C
:10074000126F000E136F7EECC6F00101D8B062D0BC
:1007500081C13CF182C13DF183C13EF184C13FF1D1
:1007600043ECC3F001013C513D113E113F11D8B49F
:100770007CBF50D07C5104E1020E7B5DD8A04AD0F2
:100780007DC10CF17EC10DF17FC10EF180C10FF171
:100790005F0E106F700E116F890E126F400E136F87
:1007A00010ECC2F00101D8B002D0F70E01D0F80E63
:1007B0007B27FF0E7C237B5198ECA6F033C17DF1A3
:1007C00034C17EF135C17FF136C180F181C10CF1B8
:1007D00082C10DF183C10EF184C10FF17DC110F111
:1007E0007EC111F17FC112F180C113F1A6ECC0F0FE
:1007F0000CC185F10DC186F10EC187F10FC188F1E1
:10080000000E0101816F000E826F000E836F000EDB
:10081000846F3CD081C13CF182C13DF183C13EF186
:1008200084C13FF143ECC3F03CC185F13DC186F189
:100830003EC187F13FC188F181C150F182C151F1C0
:1008400083C152F184C153F185C10CF186C10DF110
:1008500087C10EF188C10FF1000E65ECBEF00CC12E
:1008600054F10DC155F10EC156F10FC157F15DECB8
:10087000CCF050C181F151C182F152C183F153C119
:1008800084F1000E01017C6F000E7B6F010E8F6FF3
:100890000A0E8F19D8B41BD08F51040D850EF32486
:1008A000F66EE60EF420F76EF86A000EF8220900E4
:1008B000F550855D0900F55086590900F5508759B6
:1008C0000900F5508859D8A002D08F2BE1D78F515D
:1008D0008B255E6F000E8C215F6F7B515E277C51F4
:1008E0005F235E51895F5F518A5B8B518C11D8B455
:1008F00003D08907D8A08A07030E8D155E6F000EFE
:100900008E155F6F5E515F11D8B403D08907D8A0F0
:100910008A078DA5F0D08DA341D020EE02F058516A
:10092000D9265951DA22DE50DE10DE10D8B41DD09F
:100930008DB104D0000E686F2B0E03D0000E686FCF
:100940002D0E676F20EE02F05851D9265951DA2248
:1009500001D891D00500FA6EDE50FD6EDE50FE6EBD
:10096000DE50FF6EFA50675112008DB104D0000EB8
:100970006A6F2B0E03D0000E6A6F2D0E696F58C17F
:10098000D9FF59C1DAFFDECF5EF1DDCF5FF15EC185
:10099000D9FF5FC1DAFF69C1DFFF2ED08DA16BD017
:1009A00020EE02F05851D9265951DA22DE50DE10DD
:1009B000DE10D8B413D020EE02F05851D926595188
:1009C000DA2201D858D00500FA6EDE50FD6EDE50F6
:1009D000FE6EDE50FF6EFA50200E120058C1D9FF95
:1009E00059C1DAFFDECF5EF1DDCF5FF15EC1D9FF25
:1009F0005FC1DAFF200EDF6E58C1D9FF59C1DAFF9F
:100A0000DE2A000EDD2237D020EE02F05851D92622
:100A10005951DA22DE50DE10DE10D8B413D020EEA9
:100A200002F05851D9265951DA2201D820D00500B8
:100A3000FA6EDE50FD6EDE50FE6EDE50FF6EFA5036
:100A4000300E120058C1D9FF59C1DAFFDECF5EF176
:100A5000DDCF5FF15EC1D9FF5FC1DAFF300EDF6E1F
:100A600058C1D9FF59C1DAFFDE2A000EDD2201018B
:100A70008907D8A08A0701018ABF2FD18A51C4E112
:100A80008905D8A02AD1C0D720EE02F05851D92626
:100A90005951DA22DE50DE10DE10D8B413D020EE29
:100AA00002F05851D9265951DA2201D820D0050038
:100AB000FA6EDE50FD6EDE50FE6EDE50FF6EFA50B6
:100AC000200E120058C1D9FF59C1DAFFDECF5EF106
:100AD000DDCF5FF15EC1D9FF5FC1DAFF200EDF6EAF
:100AE00058C1D9FF59C1DAFFDE2A000EDD2201010B
:100AF0008907D8A08A078ABF05D08A51C5E1890530
:100B0000D8B0C2D78DA341D020EE02F05851D926DB
:100B10005951DA22DE50DE10DE10D8B41DD08DB16E
:100B200004D0000E6C6F2B0E03D0000E6C6F2D0ED8
:100B30006B6F20EE02F05851D9265951DA2201D8B4
:100B4000CCD00500FA6EDE50FD6EDE50FE6EDE503B
:100B5000FF6EFA506B5112008DB104D0000E6E6F13
:100B60002B0E03D0000E6E6F2D0E6D6F58C1D9FF86
:100B700059C1DAFFDECF5EF1DDCF5FF15EC1D9FF93
:100B80005FC1DAFF6DC1DFFFA1D08DA1A6D020EE3D
:100B900002F05851D9265951DA22DE50DE10DE100B
:100BA000D8B413D020EE02F05851D9265951DA2288
:100BB00001D893D00500FA6EDE50FD6EDE50FE6E59
:100BC000DE50FF6EFA50200E120058C1D9FF59C1F5
:100BD000DAFFDECF5EF1DDCF5FF15EC1D9FF5FC12D
:100BE000DAFF200E72D085C10CF186C10DF187C1EC
:100BF0000EF188C10FF18F51040D850EF324F66EAE
:100C0000E60EF420F76EF86A000EF8220900F5CF20
:100C100010F10900F5CF11F10900F5CF12F10A002A
:100C2000F5CF13F14CECC7F00CC17DF10DC17EF195
:100C30000EC17FF10FC180F17DC119F17EC11AF1A2
:100C40007FC11BF180C11CF10A0E01011D6F000E56
:100C50001E6F000E1F6F000E206FBFECC8F019C191
:100C60007DF11AC17EF11BC17FF11CC180F1010130
:100C700020EE02F05851D9265951DA22DE50DE100A
:100C8000DE10D8B414D020EE02F05851D9265951B4
:100C9000DA2201D822D00500FA6EDE50FD6EDE5059
:100CA000FE6EDE50FF6EFA507D51300F12007D5106
:100CB000300F58C1D9FF59C1DAFFDECF5EF1DDCF69
:100CC0005FF15EC1D9FF5FC1DAFFDF6E58C1D9FFA6
:100CD00059C1DAFFDE2A000EDD2201018F078F29BC
:100CE000D8B438D080D720EE02F05851D9265951C7
:100CF000DA22DE50DE10DE10D8B413D020EE02F07F
:100D00005851D9265951DA2201D820D00500FA6E5F
:100D1000DE50FD6EDE50FE6EDE50FF6EFA50300E7D
:100D2000120058C1D9FF59C1DAFFDECF5EF1DDCF25
:100D30005FF15EC1D9FF5FC1DAFF300EDF6E58C1CF
:100D4000D9FF59C1DAFFDE2A000EDD2201017B073F
:100D5000D8A07C077CBF05D07C51C5E17B05D8B00D
:100D6000C2D78CBF09D08C5104E1090E8B5DD8A08D
:100D700003D0080E8F6F02D08BC18FF18F518B5F24
:100D8000000E8C5B8F51D8B433D020EE02F0585156
:100D9000D9265951DA22DE50DE10DE10D8B413D035
:100DA00020EE02F05851D9265951DA2201D820D02C
:100DB0000500FA6EDE50FD6EDE50FE6EDE50FF6EF8
:100DC000FA502E0E120058C1D9FF59C1DAFFDECFFA
:100DD0005EF1DDCF5FF15EC1D9FF5FC1DAFF2E0E9C
:100DE000DF6E58C1D9FF59C1DAFFDE2A000EDD22BD
:100DF00001018F5198ECA6F033C162F134C163F167
:100E000035C164F136C165F181C11EF182C11FF1A6
:100E100083C120F184C121F162C11AF163C11BF1C8
:100E200064C11CF165C11DF12EECAEF01AC13CF19C
:100E30001BC13DF11CC13EF11DC13FF143ECC3F0AC
:100E40003CC185F13DC186F13EC187F13FC188F1CA
:100E5000A4D085C10CF186C10DF187C10EF188C106
:100E60000FF18F51040D850EF324F66EE60EF4207B
:100E7000F76EF86A000EF8220900F5CF10F10900AC
:100E8000F5CF11F10900F5CF12F10A00F5CF13F1FA
:100E90004CECC7F00CC17DF10DC17EF10EC17FF1AC
:100EA0000FC180F17DC119F17EC11AF17FC11BF123
:100EB00080C11CF10A0E01011D6F000E1E6F000E95
:100EC0001F6F000E206FBFECC8F019C17DF11AC171
:100ED0007EF11BC17FF11CC180F1010120EE02F007
:100EE0005851D9265951DA22DE50DE10DE10D8B41E
:100EF00014D020EE02F05851D9265951DA2201D8E7
:100F000022D00500FA6EDE50FD6EDE50FE6EDE5021
:100F1000FF6EFA507D51300F12007D51300F58C1D5
:100F2000D9FF59C1DAFFDECF5EF1DDCF5FF15EC1DF
:100F3000D9FF5FC1DAFFDF6E58C1D9FF59C1DAFFAF
:100F4000DE2A000EDD2285C119F186C11AF187C1A2
:100F50001BF188C11CF101018F51040D850EF32492
:100F6000F66EE60EF420F76EF86A000EF82209001D
:100F7000F5CF1DF10900F5CF1EF10900F5CF1FF1E6
:100F80000A00F5CF20F1BFECC8F019C185F11AC1F4
:100F900086F11BC187F11CC188F101018F078F29E0
:100FA000D8B438D056D720EE02F05851D92659512E
:100FB000DA22DE50DE10DE10D8B413D020EE02F0BC
:100FC0005851D9265951DA2201D820D00500FA6E9D
:100FD000DE50FD6EDE50FE6EDE50FF6EFA50300EBB
:100FE000120058C1D9FF59C1DAFFDECF5EF1DDCF63
:100FF0005FF15EC1D9FF5FC1DAFF300EDF6E58C10D
:10100000D9FF59C1DAFFDE2A000EDD2201018B076C
:10101000D8A08C078B518C11D8B461D3C4D7C00E23
:101020008D155E6F000E8E155F6F5E515F11D8A437
:1010300041D08DA919D05CC1D9FF5DC1DAFFDFCFE6
:101040005EF1040EDE26DFCF5FF1000EDD225EC111
:10105000D9FF5FC1DAFFDECF85F1DECF86F1DECFCB
:1010600087F1DECF88F119D05CC1D9FF5DC1DAFF0D
:10107000DFCF5EF1020EDE26DFCF5FF1000EDD2254
:101080005EC1D9FF5FC1DAFFDECF85F1DDCF86F12A
:10109000000E86BFFF0E876F886F88AF40D0030EAB
:1010A0008D13881F871F861F856D000E862387235B
:1010B000882335D08DA919D05CC1D9FF5DC1DAFF75
:1010C000DFCF5EF1040EDE26DFCF5FF1000EDD2202
:1010D0005EC1D9FF5FC1DAFFDECF85F1DECF86F1D9
:1010E000DECF87F1DECF88F11AD05CC1D9FF5DC1B8
:1010F000DAFFDFCF5EF1020EDE26DFCF5FF1000EFA
:10110000DD225EC1D9FF5FC1DAFFDECF60F1DDCF46
:1011100061F160C185F161C186F1876B886B8B518C
:101120008C11D8A44BD08551861187118811D8A471
:1011300045D08B4B8C2B42D0010E8F6F0A0E8F192E
:10114000D8B447D08F51040D850EF324F66EE60E09
:10115000F420F76EF86A000EF8220900F550855D5C
:101160000900F55086590900F55087590900F550D6
:101170008859D8A02ED08F2BE1D7010E8F6F080E83
:101180008F19D8B426D08F51040D650EF324F66E56
:10119000E30EF420F76EF86A000EF8220900F5500D
:1011A000855D0900F55086590900F55087590900F9
:1011B000F5508859D8A00DD08F2BE1D78D51C00B99
:1011C000000AD8B4B9D7800AD8B4D7D7400AD8B45F
:1011D000B3D78F515E6F5F6B8B515E5D5F51800A3D
:1011E000606F8C51800A6059D8B003D08BC18FF1E9
:1011F00010D08F515E6F5F6B5E518B5D8C51800A9A
:10120000606F5F51800A6059D8B003D08FC18BF1F5
:101210008C6B89518A11D8B40DD0030E8D155E6F79
:10122000000E8E155F6F5E515F11D8B403D0890731
:10123000D8A08A078EAD13D089518B5D8C51800A5E
:101240005E6F8A51800A5E59D8B005D08B51895F94
:101250008C518A5B04D0000E8A6F000E896F8F510B
:101260005E6F5F6B89515E5D5F51800A606F8A516E
:10127000800A6059D8B005D08F51895F000E8A5B13
:1012800004D0000E8A6F000E896F8DA5B5D08DA396
:1012900041D020EE02F05851D9265951DA22DE50C1
:1012A000DE10DE10D8B41DD08DB104D0000E706FEA
:1012B0002B0E03D0000E706F2D0E6F6F20EE02F01C
:1012C0005851D9265951DA2201D859D00500FA6E61
:1012D000DE50FD6EDE50FE6EDE50FF6EFA506F5136
:1012E00012008DB104D0000E726F2B0E03D0000ED1
:1012F000726F2D0E716F58C1D9FF59C1DAFFDECF61
:101300005EF1DDCF5FF15EC1D9FF5FC1DAFF71C170
:10131000DFFF2ED08DA133D020EE02F05851D92618
:101320005951DA22DE50DE10DE10D8B413D020EE90
:1013300002F05851D9265951DA2201D820D005009F
:10134000FA6EDE50FD6EDE50FE6EDE50FF6EFA501D
:10135000200E120058C1D9FF59C1DAFFDECF5EF16D
:10136000DDCF5FF15EC1D9FF5FC1DAFF200EDF6E16
:1013700058C1D9FF59C1DAFFDE2A000EDD22010172
:1013800089518A11D8B4A2D120EE02F05851D92641
:101390005951DA22DE50DE10DE10D8B413D020EE20
:1013A00002F05851D9265951DA2201D820D005002F
:1013B000FA6EDE50FD6EDE50FE6EDE50FF6EFA50AD
:1013C000300E120058C1D9FF59C1DAFFDECF5EF1ED
:1013D000DDCF5FF15EC1D9FF5FC1DAFF300EDF6E96
:1013E00058C1D9FF59C1DAFFDE2A000EDD22010102
:1013F0008907D8A08A07C4D789518A11D8B43BD0AD
:1014000020EE02F05851D9265951DA22DE50DE1072
:10141000DE10D8B413D020EE02F05851D92659511D
:10142000DA2201D820D00500FA6EDE50FD6EDE50C3
:10143000FE6EDE50FF6EFA50200E120058C1D9FF2A
:1014400059C1DAFFDECF5EF1DDCF5FF15EC1D9FFBA
:101450005FC1DAFF200EDF6E58C1D9FF59C1DAFF34
:10146000DE2A000EDD2201018907D8A08A078951F2
:101470008A11D8A4C5D78DA341D020EE02F05851CF
:10148000D9265951DA22DE50DE10DE10D8B41DD034
:101490008DB104D0000E746F2B0E03D0000E746F4C
:1014A0002D0E736F20EE02F05851D9265951DA22D1
:1014B00001D80CD10500FA6EDE50FD6EDE50FE6ED6
:1014C000DE50FF6EFA50735112008DB104D0000E41
:1014D000766F2B0E03D0000E766F2D0E756F58C1F0
:1014E000D9FF59C1DAFFDECF5EF1DDCF5FF15EC11A
:1014F000D9FF5FC1DAFF75C1DFFFE1D08DA1E6D072
:1015000020EE02F05851D9265951DA22DE50DE1071
:10151000DE10D8B413D020EE02F05851D92659511C
:10152000DA2201D8D3D00500FA6EDE50FD6EDE500F
:10153000FE6EDE50FF6EFA50200E120058C1D9FF29
:1015400059C1DAFFDECF5EF1DDCF5FF15EC1D9FFB9
:101550005FC1DAFF200EDF6EB2D08BC15EF18CC1AD
:101560005FF1D8905E375F37D8905E375F37850E72
:101570005E25F66EE60E5F21F76EF86A000EF82221
:101580000900F5CF10F10900F5CF11F10900F5CFF1
:1015900012F10A00F5CF13F185C10CF186C10DF1EE
:1015A00087C10EF188C10FF14CECC7F00CC119F1E5
:1015B0000DC11AF10EC11BF10FC11CF10A0E010180
:1015C0001D6F000E1E6F000E1F6F000E206FBFEC10
:1015D000C8F001011951300F8F6F45D085C10CF152
:1015E00086C10DF187C10EF188C10FF18BC15EF18B
:1015F0008CC15FF1D8905E375F37D8905E375F3728
:10160000650E5E25F66EE30E5F21F76EF86A000E3A
:10161000F8220900F5CF10F10900F5CF11F109000A
:10162000F5CF12F10A00F5CF13F14CECC7F0010130
:101630000C510F0B666F780E6625F66EF76AFB0E7F
:10164000F722F86A000EF8220800F5CF8FF10BD0D0
:101650008D51C00B000AD8B480D7800AD8B4BED749
:10166000400AD8B47AD720EE02F05851D926595101
:10167000DA22DE50DE10DE10D8B413D020EE02F0F5
:101680005851D9265951DA2201D820D00500FA6ED6
:10169000DE50FD6EDE50FE6EDE50FF6EFA508F5152
:1016A000120058C1D9FF59C1DAFFDECF5EF1DDCF9C
:1016B0005FF15EC1D9FF5FC1DAFF8FC1DFFF58C1A3
:1016C000D9FF59C1DAFFDE2A000EDD2201018B07A6
:1016D000D8A08C078B29BCE18C29D8A4B9D70101EB
:1016E0005A515E6F5B515F6F5A4B5B2B5EC1F6FFC9
:1016F0005FC1F7FF000EF86E0E0EF76403D008000E
:10170000F55005D0F6CFE9FFF7CFEAFFEF50010122
:101710008F6F8F51D8A402EF80F0000E596F000E2A
:10172000586F1200FBEF96F0250EA319D8B436D0EF
:1017300020EE02F06C51D9266D51DA22DE50DE1017
:10174000DE10D8B414D020EE02F06C51D9266D51C1
:10175000DA2202D8FBEF96F00500FA6EDE50FD6E3D
:10176000DE50FE6EDE50FF6EFA50A35112006CC0C8
:10177000D9FF6DC0DAFFDECF72F0DDCF73F072C03B
:10178000D9FF73C0DAFFA3C0DFFF6CC0D9FF6DC003
:10179000DAFFDE2A000EDD22FBEF96F0000E9E6FD0
:1017A000000E9D6F000EA26F000EA16F0AD0000107
:1017B000A18105D00001A18302D00001A1856E4B5B
:1017C0006F2B6EC0F6FF6FC0F7FF000EF86E0E0EA7
:1017D000F76403D00800F55005D0F6CFE9FFF7CF46
:1017E000EAFFEF50200AD8B4E2D70B0AD8B4E2D708
:1017F0001B0AD8B4E2D70001A1B3A1916EC0F6FFD5
:101800006FC0F7FF000EF86E0E0EF76403D00800ED
:10181000F55005D0F6CFE9FFF7CFEAFFEF500BEC1C
:10182000D1F0D8A04BD0000E00019E6F000E9D6F2E
:101830009DC001F09EC002F0000E046E0A0E036E01
:1018400081ECD0F001C09DF002C09EF0D00E0001EE
:10185000726FFF0E736F6EC0F6FF6FC0F7FF000E62
:10186000F86E0E0EF76403D00800F55005D0F6CFE1
:10187000E9FFF7CFEAFFEF500001746F756B72510B
:1018800074277351752374519D2775519E236E4B98
:101890006F2B6EC0F6FF6FC0F7FF000EF86E0E0ED6
:1018A000F76403D00800F55005D0F6CFE9FFF7CF75
:1018B000EAFFEF500BECD1F0D8B0BAD76EC0F6FF0C
:1018C0006FC0F7FF000EF86E0E0EF76403D008002D
:1018D000F55005D0F6CFE9FFF7CFEAFFEF502E0A1B
:1018E000D8A448D00001A28D6E4B6F2B000EA06FC4
:1018F000000E9F6F29D09FC001F0A0C002F0000E23
:10190000046E0A0E036E81ECD0F06EC0F6FF6FC05D
:10191000F7FF000EF86E0E0EF76403D00800F550C6
:1019200005D0F6CFE9FFF7CFEAFFEF500001726F65
:1019300072510126000E0222D00E01249F6FFF0E6D
:101940000220A06F6E4B6F2B6EC0F6FF6FC0F7FFCB
:10195000000EF86E0E0EF76403D00800F55005D0A7
:10196000F6CFE9FFF7CFEAFFEF500BECD1F0D8A0AC
:101970002AD1C1D7000E0001A06F000E9F6FA2896F
:1019800022D1A18920D1A28559D1A18F57D170C070
:10199000D9FF71C0DAFFDFCF72F0020EDE26DFCF93
:1019A00073F0000EDD2272C0D9FF73C0DAFFDECF04
:1019B0008BF0DDCF8CF08B518C11D8A404D0600E4D
:1019C0008B6FFF0E8C6F000E8E6F000E8D6F03D02D
:1019D00000018D4B8E2B8D518B25726F8E518C217A
:1019E000736F72C0F6FF73C0F7FF000EF86E0E0E35
:1019F000F76403D00800F55005D0F6CFE9FFF7CF24
:101A0000EAFFEF500009D8A4E3D700019F51A011CD
:101A1000D8B40AD08D519F5D8E51A059D8B004D052
:101A20009FC08DF0A0C08EF09D518D5D9E518E594E
:101A3000D8B005D08D519D5F8E519E5B38D0000E81
:101A40009E6F000E9D6F33D020EE02F06C51D926B0
:101A50006D51DA22DE50DE10DE10D8B413D020EE45
:101A600002F06C51D9266D51DA2201D820D0050040
:101A7000FA6EDE50FD6EDE50FE6EDE50FF6EFA50E6
:101A8000200E12006CC0D9FF6DC0DAFFDECF72F0FD
:101A9000DDCF73F072C0D9FF73C0DAFF200EDF6EA6
:101AA0006CC0D9FF6DC0DAFFDE2A000EDD22000116
:101AB0009D07D8A09E079D29C7E19E29D8B45BD079
:101AC000C3D720EE02F06C51D9266D51DA22DE50D8
:101AD000DE10DE10D8B427D020EE02F06C51D926EB
:101AE0006D51DA2201D81BD00500FA6EDE50FD6E72
:101AF000DE50FE6EDE50FF6EFA508BC0F6FF8CC0DB
:101B0000F7FF000EF86E0E0EF76403D00800F550D4
:101B100005D0F6CFE9FFF7CFEAFFEF501200000142
:101B20008B4B8C2B28D08BC0F6FF8CC0F7FF000EA0
:101B3000F86E6CC0D9FF6DC0DAFFDECF72F0DDCF7A
:101B400073F072C0D9FF73C0DAFF0E0EF76403D0D2
:101B50000800F55005D0F6CFE9FFF7CFEAFFEF50C8
:101B6000DF6E00018B4B8C2B6CC0D9FF6DC0DAFF90
:101B7000DE2A000EDD228D07D8A08E078D29A1E177
:101B80008E29D8B4FBEF96F09CD770C0D9FF71C0F6
:101B9000DAFFDFCF72F0020EDE26DFCF73F0000E29
:101BA000DD2272C0D9FF73C0DAFFDF50A36FA30E2E
:101BB0008B6F000E8C6F000E8E6F010E8D6F25D710
:101BC000C00EA1133BD000016E51726F6F51736F45
:101BD0006E4B6F2B72C0F6FF73C0F7FF000EF86EEE
:101BE0000E0EF76403D00800F55005D0F6CFE9FFDC
:101BF000F7CFEAFFEF500001A36FA351000AD8B45A
:101C000019EF97F0580AD8B4C0D63B0AD8B4BDD75C
:101C1000070AD8B413D0020AD8B4B5D60F0AD8B47C
:101C20000DD0050AD8B4ADD61F0AD8B4B0D6060A6E
:101C3000D8B4C6D70D0AD8B4A8D6B9D7070EA215FE
:101C4000D8B49CEF93F0A2A904D0000EA06F060EAA
:101C50009F6F70C0D9FF71C0DAFFDFCF72F0040E42
:101C6000DE26DFCF73F0000EDD2272C0D9FF73C015
:101C7000DAFFDECF95F0DECF96F0DECF97F0DECF45
:101C800098F098AF15D095C001F096C002F097C0BB
:101C900003F098C004F09FECCFF001C095F002C0B3
:101CA00096F003C097F004C098F0030E0001A11352
:101CB000000E906F000E8F6F95C001F096C002F07D
:101CC00097C003F098C004F0000E056E000E066E7B
:101CD000000E076E000E086EC4ECC6F0D8B083D0BC
:101CE000000197359835820F8F6F906BFF0E902310
:101CF0008F07D8A090078FC001F090C002F0000EAF
:101D0000046E030E036E81ECD0F001C08FF002C0B0
:101D100090F08FC007F090C008F0000E0A6E0A0E17
:101D2000096E8EECC7F007C08FF008C090F000017C
:101D300090AF03D08F07D8A090078F510008B2EC66
:101D4000A8F045C091F046C092F047C093F048C05B
:101D500094F091C02CF092C02DF093C02EF094C05E
:101D60002FF095C030F096C031F097C032F098C097
:101D700033F0D8ECAFF02CC091F02DC092F02EC013
:101D800093F02FC094F091C001F092C002F093C084
:101D900003F094C004F0000E056E000E066E800E77
:101DA000076E3F0E086E79ECC2F0D8B005D0000186
:101DB0008F07D8A0900717D091C001F092C002F011
:101DC00093C003F094C004F0000E056E000E066E82
:101DD000200E076E410E086E79ECC2F0D8A003D039
:101DE00000018F4B902B0001A0BF06D0A05121E134
:101DF0000D0E9F5DD8B01DD095C052F096C053F027
:101E000097C054F098C055F09F51F0ECB5F045C024
:101E100056F046C057F047C058F048C059F008EC9B
:101E2000B3F052C095F053C096F054C097F055C02F
:101E300098F0000190BF06D0905131E10A0E8F5DFD
:101E4000D8B02DD095C001F096C002F097C003F035
:101E500098C004F0000E056E000E066E000E076EB0
:101E6000000E086EC4ECC6F0D8B064D095C04EF039
:101E700096C04FF097C050F098C051F0A1ECC3F05D
:101E80004E504F1050105110D8A454D0000190BFA4
:101E900051D0905104E1020E8F5DD8A04BD091C07B
:101EA00001F092C002F093C003F094C004F05F0E02
:101EB000056E700E066E890E076E400E086E79EC88
:101EC000C2F0D8B003D00001F70E02D00001F80E26
:101ED0008F27FF0E90238F51B2ECA8F045C091F0F0
:101EE00046C092F047C093F048C094F095C001F00E
:101EF00096C002F097C003F098C004F091C005F0BE
:101F000092C006F093C007F094C008F021ECC1F035
:101F100001C099F002C09AF003C09BF004C09CF08D
:101F2000000E0001956F000E966F000E976F000E69
:101F3000986F3CD095C04EF096C04FF097C050F0CF
:101F400098C051F0A1ECC3F04EC099F04FC09AF088
:101F500050C09BF051C09CF095C064F096C065F0F5
:101F600097C066F098C067F099C005F09AC006F077
:101F70009BC007F09CC008F0000E07ECBFF005C046
:101F800068F006C069F007C06AF008C06BF081EC29
:101F9000CCF064C095F065C096F066C097F067C05D
:101FA00098F0000E0001906F000E8F6F010EA36F6E
:101FB000A351040D850EF324F66EE60EF420F76EA1
:101FC000F86A000EF8220900F550995D0900F550F5
:101FD0009A590900F5509B590900F5509C59D8A011
:101FE00005D0A32B0A0EA319D8A4E2D7A3519F258D
:101FF000726F000EA021736F8F517227905173235F
:1020000072519D5F73519E5B9F51A011D8B403D054
:102010009D07D8A09E07030EA115726F000EA21592
:10202000736F72517311D8B403D09D07D8A09E0767
:10203000A1A5F0D0A1A341D020EE02F06C51D92689
:102040006D51DA22DE50DE10DE10D8B41DD0A1B101
:1020500004D0000E7C6F2B0E03D0000E7C6F2D0E73
:102060007B6F20EE02F06C51D9266D51DA2201D837
:1020700091D00500FA6EDE50FD6EDE50FE6EDE5031
:10208000FF6EFA507B511200A1B104D0000E7E6F9A
:102090002B0E03D0000E7E6F2D0E7D6F6CC0D9FF0E
:1020A0006DC0DAFFDECF72F0DDCF73F072C0D9FF02
:1020B00073C0DAFF7DC0DFFF2ED0A1A16BD020EE70
:1020C00002F06C51D9266D51DA22DE50DE10DE109E
:1020D000D8B413D020EE02F06C51D9266D51DA221B
:1020E00001D858D00500FA6EDE50FD6EDE50FE6E4F
:1020F000DE50FF6EFA50200E12006CC0D9FF6DC08A
:10210000DAFFDECF72F0DDCF73F072C0D9FF73C09B
:10211000DAFF200EDF6E6CC0D9FF6DC0DAFFDE2A59
:10212000000EDD2237D020EE02F06C51D9266D5121
:10213000DA22DE50DE10DE10D8B413D020EE02F02A
:102140006C51D9266D51DA2201D820D00500FA6EE3
:10215000DE50FD6EDE50FE6EDE50FF6EFA50300E29
:1021600012006CC0D9FF6DC0DAFFDECF72F0DDCF98
:1021700073F072C0D9FF73C0DAFF300EDF6E6CC02F
:10218000D9FF6DC0DAFFDE2A000EDD2200019D07B7
:10219000D8A09E0700019EBF2ED19E51C4E19D058F
:1021A000D8A029D1C0D720EE02F06C51D9266D51AC
:1021B000DA22DE50DE10DE10D8B413D020EE02F0AA
:1021C0006C51D9266D51DA2201D820D00500FA6E63
:1021D000DE50FD6EDE50FE6EDE50FF6EFA50200EB9
:1021E00012006CC0D9FF6DC0DAFFDECF72F0DDCF18
:1021F00073F072C0D9FF73C0DAFF200EDF6E6CC0BF
:10220000D9FF6DC0DAFFDE2A000EDD2200019D0736
:10221000D8A09E079EBF05D09E51C5E19D05D8B0B0
:10222000C2D7A1A341D020EE02F06C51D9266D5146
:10223000DA22DE50DE10DE10D8B41DD0A1B104D0F9
:10224000000E806F2B0E03D0000E806F2D0E7F6F5F
:1022500020EE02F06C51D9266D51DA2201D8CBD094
:102260000500FA6EDE50FD6EDE50FE6EDE50FF6E33
:10227000FA507F511200A1B104D0000E826F2B0ED4
:1022800003D0000E826F2D0E816F6CC0D9FF6DC020
:10229000DAFFDECF72F0DDCF73F072C0D9FF73C00A
:1022A000DAFF81C0DFFFA0D0A1A1A5D020EE02F00F
:1022B0006C51D9266D51DA22DE50DE10DE10D8B412
:1022C00013D020EE02F06C51D9266D51DA2201D8DC
:1022D00092D00500FA6EDE50FD6EDE50FE6EDE50CE
:1022E000FF6EFA50200E12006CC0D9FF6DC0DAFFED
:1022F000DECF72F0DDCF73F072C0D9FF73C0DAFFAA
:10230000200E71D099C001F09AC002F09BC003F07A
:102310009CC004F0A351040D850EF324F66EE60E66
:10232000F420F76EF86A000EF8220900F5CF05F0E8
:102330000900F5CF06F00900F5CF07F00A00F5CF48
:1023400008F0D0ECC7F001C091F002C092F003C0D9
:1023500093F004C094F091C00EF092C00FF093C0BF
:1023600010F094C011F00A0E126E000E136E000EE3
:10237000146E000E156EBFECC9F00EC091F00FC0C8
:1023800092F010C093F011C094F0000120EE02F022
:102390006C51D9266D51DA22DE50DE10DE10D8B431
:1023A00014D020EE02F06C51D9266D51DA2201D8FA
:1023B00022D00500FA6EDE50FD6EDE50FE6EDE505D
:1023C000FF6EFA509151300F12009151300F6CC0D6
:1023D000D9FF6DC0DAFFDECF72F0DDCF73F072C0CF
:1023E000D9FF73C0DAFFDF6E6CC0D9FF6DC0DAFFB2
:1023F000DE2A000EDD220001A307A329D8B438D0BD
:1024000081D720EE02F06C51D9266D51DA22DE50D0
:10241000DE10DE10D8B413D020EE02F06C51D926B5
:102420006D51DA2201D820D00500FA6EDE50FD6E23
:10243000DE50FE6EDE50FF6EFA50300E12006CC0A1
:10244000D9FF6DC0DAFFDECF72F0DDCF73F072C05E
:10245000D9FF73C0DAFF300EDF6E6CC0D9FF6DC0DC
:10246000DAFFDE2A000EDD2200018F07D8A09007D8
:1024700090BF05D09051C5E18F05D8B0C2D7A0BF9D
:1024800009D0A05104E1090E9F5DD8A003D0080E29
:10249000A36F02D09FC0A3F0A3519F5F000EA05B6B
:1024A000A351D8B433D020EE02F06C51D9266D512F
:1024B000DA22DE50DE10DE10D8B413D020EE02F0A7
:1024C0006C51D9266D51DA2201D820D00500FA6E60
:1024D000DE50FD6EDE50FE6EDE50FF6EFA502E0EA8
:1024E00012006CC0D9FF6DC0DAFFDECF72F0DDCF15
:1024F00073F072C0D9FF73C0DAFF2E0EDF6E6CC0AE
:10250000D9FF6DC0DAFFDE2A000EDD220001A351E3
:10251000B2ECA8F045C076F046C077F047C078F03E
:1025200048C079F095C030F096C031F097C032F0D5
:1025300098C033F076C02CF077C02DF078C02EF024
:1025400079C02FF0D8ECAFF02CC04EF02DC04FF07A
:102550002EC050F02FC051F0A1ECC3F04EC099F046
:102560004FC09AF050C09BF051C09CF0A3D099C0CE
:1025700001F09AC002F09BC003F09CC004F0A3518C
:10258000040D850EF324F66EE60EF420F76EF86A5D
:10259000000EF8220900F5CF05F00900F5CF06F08E
:1025A0000900F5CF07F00A00F5CF08F0D0ECC7F02E
:1025B00001C091F002C092F003C093F004C094F007
:1025C00091C00EF092C00FF093C010F094C011F0C3
:1025D0000A0E126E000E136E000E146E000E156EB3
:1025E000BFECC9F00EC091F00FC092F010C093F094
:1025F00011C094F0000120EE02F06C51D9266D510B
:10260000DA22DE50DE10DE10D8B414D020EE02F054
:102610006C51D9266D51DA2201D822D00500FA6E0C
:10262000DE50FD6EDE50FE6EDE50FF6EFA509151B0
:10263000300F12009151300F6CC0D9FF6DC0DAFF1E
:10264000DECF72F0DDCF73F072C0D9FF73C0DAFF56
:10265000DF6E6CC0D9FF6DC0DAFFDE2A000EDD220E
:1026600099C00EF09AC00FF09BC010F09CC011F002
:102670000001A351040D850EF324F66EE60EF4203E
:10268000F76EF86A000EF8220900F5CF12F0090083
:10269000F5CF13F00900F5CF14F00A00F5CF15F0CF
:1026A000BFECC9F00EC099F00FC09AF010C09BF0BB
:1026B00011C09CF00001A307A329D8B438D057D784
:1026C00020EE02F06C51D9266D51DA22DE50DE1078
:1026D000DE10D8B413D020EE02F06C51D9266D5123
:1026E000DA2201D820D00500FA6EDE50FD6EDE50F1
:1026F000FE6EDE50FF6EFA50300E12006CC0D9FF35
:102700006DC0DAFFDECF72F0DDCF73F072C0D9FF9B
:1027100073C0DAFF300EDF6E6CC0D9FF6DC0DAFF18
:10272000DE2A000EDD2200019F07D8A0A0079F51DE
:10273000A011D8B460D3C4D7C00EA115726F000E1B
:10274000A215736F72517311D8A441D0A1A919D0E9
:1027500070C0D9FF71C0DAFFDFCF72F0040EDE2641
:10276000DFCF73F0000EDD2272C0D9FF73C0DAFF35
:10277000DECF99F0DECF9AF0DECF9BF0DECF9CF07B
:1027800019D070C0D9FF71C0DAFFDFCF72F0020E2E
:10279000DE26DFCF73F0000EDD2272C0D9FF73C0DA
:1027A000DAFFDECF99F0DDCF9AF0000E9ABFFF0E70
:1027B0009B6F9C6F9CAF40D0030EA1139C1F9B1F6F
:1027C0009A1F996D000E9A239B239C2335D0A1A9B3
:1027D00019D070C0D9FF71C0DAFFDFCF72F0040EDC
:1027E000DE26DFCF73F0000EDD2272C0D9FF73C08A
:1027F000DAFFDECF99F0DECF9AF0DECF9BF0DECFAE
:102800009CF01AD070C0D9FF71C0DAFFDFCF72F030
:10281000020EDE26DFCF73F0000EDD2272C0D9FF7C
:1028200073C0DAFFDECF74F0DDCF75F074C099F0BD
:1028300075C09AF09B6B9C6B9F51A011D8A44BD094
:1028400099519A119B119C11D8A445D09F4BA02B54
:1028500042D0010EA36FA351040D850EF324F66E32
:10286000E60EF420F76EF86A000EF8220900F55023
:10287000995D0900F5509A590900F5509B590900D6
:10288000F5509C59D8A032D0A32B0A0EA319D8B466
:102890002DD0E1D7010EA36FA351040D650EF324D3
:1028A000F66EE30EF420F76EF86A000EF8220900C7
:1028B000F550995D0900F5509A590900F5509B595A
:1028C0000900F5509C59D8A011D0A32B080EA319CC
:1028D000D8B40CD0E1D7A151C00B000AD8B4B9D7F5
:1028E000800AD8B4D7D7400AD8B4B3D7A351726FEF
:1028F000736B9F51725D7351800A746FA051800A8F
:102900007459D8B003D09FC0A3F010D0A351726FF8
:10291000736B72519F5DA051800A746F7351800A6E
:102920007459D8B003D0A3C09FF0A06B9D519E11E5
:10293000D8B40DD0030EA115726F000EA215736FDF
:1029400072517311D8B403D09D07D8A09E07A2ADD1
:1029500013D09D519F5DA051800A726F9E51800AD5
:102960007259D8B005D09F519D5FA0519E5B04D095
:10297000000E9E6F000E9D6FA351726F736B9D5181
:10298000725D7351800A746F9E51800A7459D8B079
:1029900005D0A3519D5F000E9E5B04D0000E9E6F7C
:1029A000000E9D6FA1A5B5D0A1A341D020EE02F0ED
:1029B0006C51D9266D51DA22DE50DE10DE10D8B40B
:1029C0001DD0A1B104D0000E846F2B0E03D0000ED9
:1029D000846F2D0E836F20EE02F06C51D9266D515D
:1029E000DA2201D859D00500FA6EDE50FD6EDE50B5
:1029F000FE6EDE50FF6EFA5083511200A1B104D07A
:102A0000000E866F2B0E03D0000E866F2D0E856F85
:102A10006CC0D9FF6DC0DAFFDECF72F0DDCF73F08E
:102A200072C0D9FF73C0DAFF85C0DFFF2ED0A1A12D
:102A300033D020EE02F06C51D9266D51DA22DE50EF
:102A4000DE10DE10D8B413D020EE02F06C51D9267F
:102A50006D51DA2201D820D00500FA6EDE50FD6EED
:102A6000DE50FE6EDE50FF6EFA50200E12006CC07B
:102A7000D9FF6DC0DAFFDECF72F0DDCF73F072C028
:102A8000D9FF73C0DAFF200EDF6E6CC0D9FF6DC0B6
:102A9000DAFFDE2A000EDD2200019D519E11D8B41E
:102AA000A1D120EE02F06C51D9266D51DA22DE5010
:102AB000DE10DE10D8B413D020EE02F06C51D9260F
:102AC0006D51DA2201D820D00500FA6EDE50FD6E7D
:102AD000DE50FE6EDE50FF6EFA50300E12006CC0FB
:102AE000D9FF6DC0DAFFDECF72F0DDCF73F072C0B8
:102AF000D9FF73C0DAFF300EDF6E6CC0D9FF6DC036
:102B0000DAFFDE2A000EDD2200019D07D8A09E0715
:102B1000C4D79D519E11D8B43BD020EE02F06C5129
:102B2000D9266D51DA22DE50DE10DE10D8B413D073
:102B300020EE02F06C51D9266D51DA2201D820D056
:102B40000500FA6EDE50FD6EDE50FE6EDE50FF6E4A
:102B5000FA50200E12006CC0D9FF6DC0DAFFDECF34
:102B600072F0DDCF73F072C0D9FF73C0DAFF200EB0
:102B7000DF6E6CC0D9FF6DC0DAFFDE2A000EDD22E9
:102B800000019D07D8A09E079D519E11D8A4C5D7CE
:102B9000A1A341D020EE02F06C51D9266D51DA226A
:102BA000DE50DE10DE10D8B41DD0A1B104D0000E6E
:102BB000886F2B0E03D0000E886F2D0E876F20EECE
:102BC00002F06C51D9266D51DA2201D80BD10500E3
:102BD000FA6EDE50FD6EDE50FE6EDE50FF6EFA5075
:102BE00087511200A1B104D0000E8A6F2B0E03D0C2
:102BF000000E8A6F2D0E896F6CC0D9FF6DC0DAFF91
:102C0000DECF72F0DDCF73F072C0D9FF73C0DAFF90
:102C100089C0DFFFE0D0A1A1E5D020EE02F06C5129
:102C2000D9266D51DA22DE50DE10DE10D8B413D072
:102C300020EE02F06C51D9266D51DA2201D8D2D0A3
:102C40000500FA6EDE50FD6EDE50FE6EDE50FF6E49
:102C5000FA50200E12006CC0D9FF6DC0DAFFDECF33
:102C600072F0DDCF73F072C0D9FF73C0DAFF200EAF
:102C7000DF6EB1D09FC072F0A0C073F0D8907237F1
:102C80007337D89072377337850E7225F66EE60E5D
:102C90007321F76EF86A000EF8220900F5CF05F0EF
:102CA0000900F5CF06F00900F5CF07F00A00F5CFCF
:102CB00008F099C001F09AC002F09BC003F09CC0DC
:102CC00004F0D0ECC7F001C00EF002C00FF003C05A
:102CD00010F004C011F00A0E126E000E136E000EFA
:102CE000146E000E156EBFECC9F00E50300F0001CF
:102CF000A36F45D099C001F09AC002F09BC003F0C9
:102D00009CC004F09FC072F0A0C073F0D8907237DE
:102D10007337D89072377337650E7225F66EE30EEF
:102D20007321F76EF86A000EF8220900F5CF05F05E
:102D30000900F5CF06F00900F5CF07F00A00F5CF3E
:102D400008F0D0ECC7F001500F0B00017A6F780E3D
:102D50007A25F66EF76AFB0EF722F86A000EF82263
:102D60000800F5CFA3F00BD0A151C00B000AD8B4D6
:102D700081D7800AD8B4BED7400AD8B47BD720EE1A
:102D800002F06C51D9266D51DA22DE50DE10DE10D1
:102D9000D8B413D020EE02F06C51D9266D51DA224E
:102DA00001D820D00500FA6EDE50FD6EDE50FE6EBA
:102DB000DE50FF6EFA50A35112006CC0D9FF6DC0F7
:102DC000DAFFDECF72F0DDCF73F072C0D9FF73C0CF
:102DD000DAFFA3C0DFFF6CC0D9FF6DC0DAFFDE2AC7
:102DE000000EDD2200019F07D8A0A0079F29BCE1AB
:102DF000A029D8A4B9D700016E51726F6F51736FBB
:102E00006E4B6F2B72C0F6FF73C0F7FF000EF86EAB
:102E10000E0EF76403D00800F55005D0F6CFE9FF99
:102E2000F7CFEAFFEF500001A36FA351D8A494EFAE
:102E30008BF0000E6D6F000E6C6F1200D6C10CF19E
:102E4000D7C10DF1820E01010E6FFE0E0F6F78ECEF
:102E5000CBF001010C510D11D8A40FD0A20EC56FFB
:102E6000FF0EC66FF5ECCDF0C30E0101C56FFF0E6E
:102E7000C66FF5ECCDF0FF001200D6C10CF1D7C142
:102E80000DF1900E0E6FFF0E0F6F78ECCBF001017D
:102E90000C510D11D8A40ED0A20EC56FFF0EC66F37
:102EA000F5ECCDF0C30E0101C56FFF0EC66FF5EC5A
:102EB000CDF01200D6C10CF1D7C10DF1CC0E0E6FC2
:102EC000FB0E0F6F78ECCBF001010C510D11D8A463
:102ED00019D0000ED46F000ED56F020E7BECACF053
:102EE000B50E0101C56FF10EC66F0001FD5140EC3A
:102EF000CFF00CC1C7F10DC1C8F1F5ECCDF0DAECA3
:102F0000D1F01200D6C10CF1D7C10DF18A0E0E6FAF
:102F1000FF0E0F6F78ECCBF001010C510D11D8A40E
:102F200011D0000ED46F000ED56F020E7BECACF00A
:102F30007F0E0101C56FF10EC66FF5ECCDF0DAEC36
:102F4000D1F01200D6C10CF1D7C10DF1300E0E6FC9
:102F5000FE0E0F6F78ECCBF001010C510D11D8A4CF
:102F600023D0000ED46F000ED56F020E7BECACF0B8
:102F7000FD0E0101C56FF30EC66FEBECD0F017C16B
:102F800019F118C11AF1E7ECC5F019C1C7F11AC15E
:102F9000C8F1EBECD0F017C1C9F118C1CAF1F5ECDA
:102FA000CDF0DAECD1F01200D6C10CF1D7C10DF1A1
:102FB0005E0E0E6FFD0E0F6F78ECCBF001010C5121
:102FC0000D11D8A422D0000ED46F000ED56F020EC2
:102FD0007BECACF0670E0101C56FF00EC66F13EC11
:102FE000CEF00101D86F410ED825C76FC86B000E17
:102FF000C8236EECD0F00101D96FD951C96FCA6BEB
:10300000F5ECCDF0DAECD1F01200D6C10CF1D7C15D
:103010000DF1B30E0E6FFE0E0F6F78ECCBF00101C9
:103020000C510D11D8A437D0000ED46F000ED56FFF
:10303000020E7BECACF0360E0101C56FEF0EC66FD1
:10304000F5ECCDF0000E0101DB6F000EDA6FDB0E48
:10305000C56FF00EC66FDAC1C7F1DBC1C8F1D890F9
:10306000DA35C96FDB35CA6FDA51C1ECCEF017C162
:10307000CBF118C1CCF1F5ECCDF00101DA4BDB2B33
:10308000DBBFE5D7DB5104E1080EDA5DD8A0DFD75E
:10309000DAECD1F01200D6C10CF1D7C10DF1BC0EA3
:1030A0000E6FFB0E0F6F78ECCBF001010C510D1180
:1030B000D8A41FD0000ED46F000ED56F020E7BEC8B
:1030C000ACF01D0E0101C56FF20EC66F0CC2A3F16C
:1030D0000DC2A4F10EC2A5F10FC2A6F1BEECAAF07A
:1030E000A3C1C7F1A4C1C8F1F5ECCDF0DAECD1F081
:1030F0001200D6C10CF1D7C10DF1BD0E0E6FFE0E40
:103100000F6F78ECCBF001010C510D11D8A412D047
:103110008594000ED46F000ED56F020E7BECACF0E0
:103120004F0E0101C56FF50EC66FF5ECCDF0DAEC70
:10313000D1F01200D6C10CF1D7C10DF13B0E0E6FCC
:10314000FE0E0F6F78ECCBF001010C510D11D8A4DD
:1031500012D08584000ED46F000ED56F010E7BEC6B
:10316000ACF0270E0101C56FF50EC66FF5ECCDF082
:10317000DAECD1F01200D6C10CF1D7C10DF1AB0ED3
:103180000E6FFB0E0F6F78ECCBF001010C510D119F
:10319000D8A412D0E2ECD1F0000E0101D46F000EE1
:1031A000D56F020E7BECACF09E0E0101C56FF90EDF
:1031B000C66FF5ECCDF06CD7D6C10CF1D7C10DF1CF
:1031C0009A0E0E6FFB0E0F6F78ECCBF001010C51D5
:1031D0000D11D8A412D01AECD1F0000E0101D46F59
:1031E000000ED56F020E7BECACF0B50E0101C56F81
:1031F000F90EC66FF5ECCDF04BD7D6C10CF1D7C1A7
:103200000DF1660E0E6FFB0E0F6F78ECCBF0010127
:103210000C510D11D8A412D064ECD2F0000E0101B3
:10322000D46F000ED56F020E7BECACF03F0E0101A7
:10323000C56FF90EC66FF5ECCDF02AD7D6C10CF1EB
:10324000D7C10DF1E00E0E6FFC0E0F6F78ECCBF0D6
:1032500001010C510D11D8A4FAD091ECD1F0000964
:10326000D8B43ED0000E0101D46F000ED56F010E10
:103270007BECACF0DE0E0101C56FF80EC66FF5EC0D
:10328000CDF0730E0101C56FF30EC66FF5ECCDF0F6
:103290000001BA51D8B407D06F0E0101C56FF90E05
:1032A000C66FF5ECCDF00001B951D8B407D0A90E26
:1032B0000101C56FFE0EC66FF5ECCDF0000E0101E9
:1032C000D46F000ED56F030E7BECACF0B50E010190
:1032D000C56FF20EC66FF5ECCDF0DAECD1F011D07F
:1032E000000E0101D46F000ED56F020E7BECACF026
:1032F0008E0E0101C56FF80EC66FF5ECCDF0DAEC5D
:10330000D1F00AECD0F00009D8B458D0000E010179
:10331000D46F000ED56F010E7BECACF0810E010175
:10332000C56FF40EC66FF5ECCDF00001BB51D8B4FB
:1033300007D0570E0101C56FF90EC66FF5ECCDF041
:103340000001BF51D8B407D00B0E0101C56FF60EB6
:10335000C66FF5ECCDF00001BE51D8B407D0680EB1
:103360000101C56FF70EC66FF5ECCDF00001BD5140
:10337000D8B407D0A80E0101C56FF70EC66FF5ECE3
:10338000CDF00001BC51D8B407D0040E0101C56FC7
:10339000F80EC66FF5ECCDF0000E0101D46F000EF3
:1033A000D56F030E7BECACF02C0E0101C56FF00E57
:1033B000C66FF5ECCDF0DAECD1F011D0000E0101C2
:1033C000D46F000ED56F020E7BECACF0730E0101D2
:1033D000C56FF80EC66FF5ECCDF0DAECD1F094ECD9
:1033E000D2F00009D8B421D0000E0101D46F000E34
:1033F000D56F010E7BECACF0C40E0101C56FF80E69
:10340000C66FF5ECCDF0000E0101D46F000ED56F44
:10341000030E7BECACF0F00E0101C56FEF0EC66F32
:10342000F5ECCDF0DAECD1F01200000E0101D46F12
:10343000000ED56F020E7BECACF0210E0101C56FC2
:10344000F80EC66FF5ECCDF0DAECD1F01200D6C173
:103450000CF1D7C10DF1C40E0E6FFC0E0F6F78EC9E
:10346000CBF001010C510D11D8A419D0000ED46F6E
:10347000000ED56F060E7BECACF0E00E0101C56FBF
:10348000F60EC66FE7C0C7F1E8C0C8F1E9C0C9F1E0
:10349000EAC0CAF1F5ECCDF0DAECD1F01200D6C1F9
:1034A0000CF1D7C10DF14C0E0E6FFC0E0F6F78ECC6
:1034B000CBF001010C510D11D8A419D0000ED46F1E
:1034C000000ED56F060E7BECACF0530E0101C56FFC
:1034D000F60EC66FEBC0C7F1ECC0C8F1EDC0C9F184
:1034E000EEC0CAF1F5ECCDF0DAECD1F01200D6C1A5
:1034F0000CF1D7C10DF1540E0E6FFB0E0F6F78EC6F
:10350000CBF001010C510D11D8A419D0000ED46FCD
:10351000000ED56F060E7BECACF0130E0101C56FEB
:10352000F10EC66FF7C0C7F1F8C0C8F1F9C0C9F114
:10353000FAC0CAF1F5ECCDF0DAECD1F01200D6C148
:103540000CF1D7C10DF1CC0E0E6FF90E0F6F78ECA8
:10355000CBF001010C510D11D8A419D0000ED46F7D
:10356000000ED56F060E7BECACF0290E0101C56F85
:10357000F40EC66FEFC0C7F1F0C0C8F1F1C0C9F1D9
:10358000F2C0CAF1F5ECCDF0DAECD1F01200D6C100
:103590000CF1D7C10DF1E10E0E6FFA0E0F6F78EC42
:1035A000CBF001010C510D11D8A419D0000ED46F2D
:1035B000000ED56F060E7BECACF0A10E0101C56FBD
:1035C000F30EC66FF3C0C7F1F4C0C8F1F5C0C9F17E
:1035D000F6C0CAF1F5ECCDF0DAECD1F01200D6C1AC
:1035E0000CF1D7C10DF16B0E0E6FFD0E0F6F78EC65
:1035F000CBF001010C510D11D8A419D0000ED46FDD
:10360000000ED56F060E7BECACF0DE0E0101C56F2F
:10361000EE0EC66FE3C0C7F1E4C0C8F1E5C0C9F162
:10362000E6C0CAF1F5ECCDF0DAECD1F01200D6C16B
:103630000CF1D7C10DF1D20E0E6FFC0E0F6F78ECAE
:10364000CBF001010C510D11D8A419D0000ED46F8C
:10365000000ED56F060E7BECACF0C70E0101C56FF6
:10366000F70EC66FDFC0C7F1E0C0C8F1E1C0C9F115
:10367000E2C0CAF1F5ECCDF0DAECD1F01200D6C11F
:103680000CF1D7C10DF17B0E0E6FFA0E0F6F78ECB7
:10369000CBF001010C510D11D8A419D0000ED46F3C
:1036A000000ED56F060E7BECACF0500E0101C56F1D
:1036B000F20EC66F00C2C7F101C2C8F102C2C9F161
:1036C00003C2CAF1F5ECCDF0DAECD1F01200D6C1AC
:1036D0000CF1D7C10DF1250E0E6FFA0E0F6F78ECBD
:1036E000CBF001010C510D11D8A419D0000ED46FEC
:1036F000000ED56F060E7BECACF0830E0101C56F9A
:10370000F20EC66F04C2C7F105C2C8F106C2C9F104
:1037100007C2CAF1F5ECCDF0DAECD1F01200D6C157
:103720000CF1D7C10DF1F50E0E6FFA0E0F6F78EC9C
:10373000CBF001010C510D11D8A419D0000ED46F9B
:10374000000ED56F060E7BECACF0D50E0101C56FF7
:10375000F40EC66F08C2C7F109C2C8F10AC2C9F1A6
:103760000BC2CAF1F5ECCDF0DAECD1F01200D6C103
:103770000CF1D7C10DF1890E0E6FFB0E0F6F78ECB7
:10378000CBF001010C510D11D8A419D0000ED46F4B
:10379000000ED56F060E7BECACF0150E0101C56F67
:1037A000F30EC66F94C2C7F195C2C8F196C2C9F1B3
:1037B00097C2CAF1F5ECCDF0DAECD1F01200D6C127
:1037C0000CF1D7C10DF11C0E0E6FFB0E0F6F78ECD4
:1037D000CBF001010C510D11D8A419D0000ED46FFB
:1037E000000ED56F060E7BECACF0E50E0101C56F47
:1037F000F20EC66F98C2C7F199C2C8F19AC2C9F158
:103800009BC2CAF1F5ECCDF0DAECD1F01200D6C1D2
:103810000CF1D7C10DF10F0E0E6FFA0E0F6F78EC91
:10382000CBF001010C510D11D8A419D0000ED46FAA
:10383000000ED56F060E7BECACF0AB0E0101C56F30
:10384000F40EC66F9CC2C7F19DC2C8F19EC2C9F1F9
:103850009FC2CAF1F5ECCDF0DAECD1F01200D6C17E
:103860000CF1D7C10DF15B0E0E6FFC0E0F6F78ECF3
:10387000CBF001010C510D11D8A441D0030EE91970
:10388000D8A411D0000ED46F000ED56F010E7BECC2
:10389000ACF0890E0101C56FF70EC66FF5ECCDF0E7
:1038A000DAECD1F01200020EE919D8A411D0000E02
:1038B000D46F000ED56F020E7BECACF0490E010107
:1038C000C56FF10EC66FF5ECCDF0DAECD1F0120059
:1038D000000ED46F000ED56F020E7BECACF02F0EF5
:1038E0000101C56FF60EC66FD4ECCAF00CC1C7F16A
:1038F0000DC1C8F1F5ECCDF0DAECD1F01200D6C173
:103900000CF1D7C10DF1A70E0E6FFF0E0F6F78EC03
:10391000CBF001010C510D11D8A453D0000ED46F7F
:10392000000ED56F030E7BECACF0F90E0101C56FF4
:10393000F90EC66FF5ECCDF0B10E0101C56FE60EC4
:10394000C66FF5ECCDF0A20E0101C56FF00EC66F8B
:10395000F5ECCDF0000E0101D46F000ED56F020E14
:103960007BECACF0760E0101C56FEF0EC66FF5EC87
:10397000CDF0000E0101D46F000ED56F060E7BEC6A
:10398000ACF0760E0101C56FF50EC66FF5ECCDF00B
:10399000000E0101D46F000ED56F010E7BECACF070
:1039A000CF0E0101C56FF30EC66FF5ECCDF0DAEC6A
:1039B000D1F0E60E0101C56FF70EC66FF5ECCDF044
:1039C0001200D6C10CF1D7C10DF188ECCFF0010186
:1039D0000C510D11D8B41200000ED46F000ED56F2B
:1039E000010E7BECACF0C20E0101C56FF50EC66F87
:1039F000F5ECCDF0000E0101D46F000ED56F030E73
:103A00007BECACF0860E0101C56FEE0EC66FF5ECD7
:103A1000CDF0460E0101C56FF30EC66FF5ECCDF08B
:103A2000DAECD1F01200B6EFA1F0000EE76F280E2D
:103A30000F6F020E106FEE0E116FFC0E126F15EC71
:103A4000CCF0390E01010F6F020E106F0C0E116FCA
:103A5000FC0E126F15ECCCF04A0E01010F6F020E36
:103A6000106FFC0E116FFB0E126F15ECCCF05B0E9D
:103A700001010F6F020E106F0001FD5170ECCFF0CD
:103A80000CC111F10DC112F115ECCCF011ECC8F024
:103A9000010E0101E86F030EF16F1200000EE76FD7
:103AA000280E0F6F020E106F460E116FFE0E126F72
:103AB00015ECCCF0A50E0101906F010E916FAC0ECC
:103AC000926FFF0E936FEBECD0F017C194F118C119
:103AD00095F139ECCCF0390E01010F6F020E106F29
:103AE000A50E116F010E126F15ECCCF04A0E0101FC
:103AF0000F6F020E106F780E116FFD0E126F15EC26
:103B0000CCF0B60E0101906F010E916F830E926F93
:103B1000FF0E936F13ECCEF00101A36F410EA325AE
:103B2000946F956B000E95236EECD0F00101A46F9D
:103B3000A451966F976B39ECCCF05B0E01010F6FBF
:103B4000020E106FB60E116F010E126F15ECCCF055
:103B500011ECC8F0020E9DD7000EE76F280E0F6F14
:103B6000020E106FEC0E116FFB0E126F15ECCCF005
:103B7000390E01010F6F020E106FD10E116FFE0E84
:103B8000126F15ECCCF04A0E01010F6F020E106F90
:103B90001C0E116FFC0E126F15ECCCF05B0E0101C8
:103BA0000F6F020E106F970E116FFC0E126F15EC57
:103BB000CCF011ECC8F0030E6CD7000EE76F280EA6
:103BC0000F6F020E106F260E116FFD0E126F15ECA7
:103BD000CCF0390E01010F6F020E106F510E116FF4
:103BE000FE0E126F15ECCCF04A0E01010F6F020EA3
:103BF000106F340E116FFD0E126F15ECCCF05B0ED2
:103C000001010F6F020E106FDC0E116FFB0E126FB1
:103C100015ECCCF011ECC8F0040E3BD7000EE76FAA
:103C2000280E0F6F020E106F790E116FFC0E126FBF
:103C300015ECCCF0390E01010F6F020E106FF40E6F
:103C4000116FFD0E126F15ECCCF04A0E01010F6FD3
:103C5000020E106FFDECCAF00CC111F10DC112F192
:103C600015ECCCF05B0E01010F6F020E106FF40E1D
:103C7000116FFD0E126F15ECCCF011ECC8F0040EB4
:103C80000101E86F020EF16F1200000EE76F280EBF
:103C90000F6F020E106F6A0E116FFC0E126F15EC93
:103CA000CCF0390E0101906F020E916F750E926F7C
:103CB000FF0E936FEBC094F1ECC095F1EDC096F15F
:103CC000EEC097F139ECCCF04A0E01010F6F020EF5
:103CD000106FF40E116FFD0E126F15ECCCF05B0E31
:103CE00001010F6F020E106FF40E116FFD0E126FB7
:103CF00015ECCCF011ECC8F0050EC2D7000EE76F42
:103D0000280E0F6F020E106FFC0E116FFC0E126F5B
