:020000040000FA
:0400000061EF00F0BC
:060008005E8271EFCFF0F3
:100018005E80D8CF58F1E8CF59F1E0CF5AF1FACF46
:100028005BF1FBCF5CF1D9CF5DF1DACF5EF1F3CFB5
:100038005FF1F4CF60F10E01C6B3CEA303D0E0ECBC
:10004800DCF027D0C5B7CDA703D04DECDFF021D029
:10005800C5B5CDA503D07CECC2F01BD0C6B5CEA5E6
:1000680003D08AECDBF015D0C5BDCDAD0DD001D8DD
:1000780010D00500FA6E01018351FD6E8451FE6EA9
:100088008551FF6EFA501200C8B3D0A302D049ECD4
:10009800DEF060C1F4FF5FC1F3FF5EC1DAFF5DC14E
:1000A800D9FF5CC1FBFF5BC1FAFF5AC1E0FF59C130
:0E00B800E8FF58C1D8FF5E901000B6EFD2F0FE
:10E16400000000803F000020410000C84200007A07
:10E174004400401C460050C347002474498096184C
:10E184004B20BCBE4C286B6E4EF9021550EC78AD9A
:10E1940060CAF249710000803FCDCCCC3D0AD72340
:10E1A4003C6F12833A17B7D138ACC52737BD3786D1
:10E1B4003595BFD63377CC2B325F708930FFE6DBE1
:10E1C4002E08E53C1E6042A20D0100000010000074
:10E1D4000000010000001000000000010000001019
:10E1E400000000000100000010000000000000001A
:10E1F4000000005F000000000000000700070000AE
:10E204000000147F147F14000000242A7F2A1200C7
:10E2140000002313086462000000364955225000B0
:10E22400000000050300000000001C224100000063
:10E23400000041221C0000000000082A1C2A0800DB
:10E24400000008083E0808000000A060000000006C
:10E2540000000808080808000000606000000000D2
:10E26400000020100804020000003E5149453E0011
:10E27400000000427F40000000006251494946000E
:10E28400000022414949360000001814127F100092
:10E29400000027454545390000003C4A4949300003
:10E2A40000000171090503000000364949493600A0
:10E2B4000000064949291E0000000036360000000F
:10E2C400000000AC6C0000000000081422410000B3
:10E2D4000000141414141400000041221408000057
:10E2E40000000201510906000000324979413E0054
:10E2F40000007E0909097E0000007F494949360073
:10E3040000003E414141220000007F4141221C00A7
:10E3140000007F494949410000007F0909090100C3
:10E3240000003E414151720000007F0808087F0050
:10E334000000417F4100000000002040413F0100F7
:10E3440000007F081422410000007F40404040004C
:10E3540000007F020C027F0000007F0408107F0091
:10E3640000003E4141413E0000007F0909090600CA
:10E3740000003E4151215E0000007F09192946003A
:10E384000000264949493200000001017F010100D3
:10E3940000003F4040403F0000001F2040201F007D
:10E3A40000003F4038403F0000006314081463003D
:10E3B4000000030478040300000061514945430050
:10E3C40000007F414100000000000204081020000A
:10E3D400000041417F00000000000402010204002B
:10E3E40000008080808080000000010204000000A2
:10E3F400000020545454780000007F4844443800FE
:10E4040000003844442800000000384444487F0099
:10E4140000003854545418000000087E090200001B
:10E42400000018A4A4A47C0000007F080404780061
:10E434000000007D00000000000080847D000000DA
:10E4440000007F10284400000000417F40000000CD
:10E4540000007C041804780000007C08047C0000A0
:10E4640000003844443800000000FC242418000054
:10E474000000182424FC00000000007C08040000B4
:10E4840000004854542400000000047F44000000AD
:10E4940000003C40407C000000001C2040201C0088
:10E4A40000003C4030403C00000044281028440058
:10E4B40000001CA0A07C000000004464544C4400F4
:10E4C40000000836410000000000007F000000004A
:10E4D40000004136080000000000020101020100B2
:10E4E400000002050502000000010000000A00000F
:10E4F4000064000000E803000010270000A086016B
:10E504000040420F008096980000E1F50500CA9A89
:10E514003BB80EBC432020202048656C703A204C48
:10E524006973747320617661696C61626C652063E0
:10E534006F6D6D616E64730A0D202020202A49449A
:10E544004E3F3A205072696E7473206964656E742C
:10E55400696669636174696F6E20737472696E674A
:10E564000A0D2020202052657365743A2045786591
:10E57400637574657320736F667477617265207256
:10E584006573657420696E737472756374696F6EF4
:10E594000A0D20202020436C6561723A20436C658B
:10E5A40061727320746865207669727475616C2079
:10E5B400434F4D20706F7274207465726D696E6183
:10E5C4006C0A0D202020204361757365206F66203E
:10E5D40052657365743F3A205072696E7473207487
:10E5E4006865206361757365206F662074686520B3
:10E5F4006D6F737420726563656E742064657669EB
:10E6040063652072657365740A0D202020204465BB
:10E61400766963652049443F3A205072696E747389
:10E6240020746865206D6963726F63686970206423
:10E6340065766963652049440A0D202020205265CF
:10E64400766973696F6E2049443F3A205072696E4F
:10E65400747320746865206D6963726F6368697090
:10E664002073696C69636F6E207265766973696F74
:10E674006E2049440A0D20202020557365722049DC
:10E6840044733F3A205072696E74732061206C6940
:10E694007374206F66205573657220494473207328
:10E6A4006176656420696E20466C6173680A0D208A
:10E6B400202020446576696365204F6E2054696D7F
:10E6C400653F3A205072696E7473207468652064E3
:10E6D4006576696365206F6E2074696D6520736962
:10E6E4006E6365206C61737420646576696365206C
:10E6F40072657365740A0D20202020456E61626C7A
:10E70400652051493A20456E61626C656420514927
:10E7140020776972656C65737320706F77657220FA
:10E72400636F6E76657273696F6E0A0D2020202008
:10E7340044697361626C652051493A20446973618C
:10E74400626C657320514920776972656C657373D7
:10E7540020706F77657220636F6E76657273696F70
:10E764006E0A0D202020204368617267652053746F
:10E77400617475733F3A205072696E7473207468C3
:10E784006520636861726765207374617465206FC6
:10E79400662074686520514920776972656C6573D9
:10E7A4007320706F77657220636F6E76657274651F
:10E7B400720A0D202020204D65617375726520500A
:10E7C4004F53353F3A205072696E747320746865F4
:10E7D4002041444320636F6E76657273696F6E20C7
:10E7E400726573756C7420666F7220746865202B73
:10E7F4003556207261696C0A0D202020204D656118
:10E804007375726520504F5331323F3A205072690C
:10E814006E7473207468652041444320636F6E7680
:10E82400657273696F6E20726573756C7420666FA0
:10E834007220746865202B313256207261696C0A2B
:10E844000D202020204D65617375726520504F5353
:10E8540031322043757272656E743F3A205072698A
:10E864006E7473207468652041444320636F6E7630
:10E87400657273696F6E20726573756C7420666F50
:10E884007220746865202B31325620696E7075745D
:10E894002063757272656E740A0D202020204D6508
:10E8A40061737572652051492043757272656E7487
:10E8B4003F3A205072696E74732074686520414435
:10E8C4004320636F6E76657273696F6E2072657331
:10E8D400756C7420666F72207468652051492063DA
:10E8E4006F6E7665727465722063757272656E748C
:10E8F4000A0D202020204D65617375726520496ED4
:10E9040070757420506F7765723F3A205072696E4B
:10E914007473207468652063616C63756C617465DD
:10E924006420656C656374726963616C20696E70E0
:10E93400757420706F776572206261736564206FEF
:10E944006E20414443206D6561737572656D656E1B
:10E9540074730A0D202020204D6561737572652043
:10E964004F757470757420506F7765723F3A2050FC
:10E9740072696E7473207468652063616C63756C6E
:10E984006174656420776972656C657373206F7553
:10E994007470757420706F7765722062617365643A
:10E9A400206F6E20414443206D6561737572656DFF
:10E9B400656E74730A0D202020204D656173757295
:10E9C4006520456666696369656E63793F3A2050E0
:10E9D40072696E7473207468652063616C63756C0E
:10E9E400617465642073797374656D206566666906
:10E9F4006369656E6379206261736564206F6E205C
:10EA0400414443206D6561737572656D656E747301
:10EA14000A0D202020204D656173757265204156D2
:10EA240053533F3A205072696E74732074686520A2
:10EA340041444320636F6E76657273696F6E207212
:10EA44006573756C7420666F7220415653530A0DBA
:10EA5400202020204D656173757265204656523F13
:10EA64003A205072696E747320746865204144437F
:10EA740020636F6E76657273696F6E20726573754D
:10EA84006C7420666F7220746865206669786564AA
:10EA940020766F6C74616765207265666572656E59
:10EAA40063650A0D202020204D6561737572652011
:10EAB4004469652054656D703F3A205072696E74E4
:10EAC40073207468652041444320636F6E766572D9
:10EAD40073696F6E20726573756C7420666F722033
:10EAE400746865206D6963726F636F6E74726F6CA6
:10EAF4006C6572206469652074656D7065726174FB
:10EB04007572650A0D202020204D6561737572654C
:10EB14002051492054656D703F3A205072696E74DB
:10EB24007320746865206469676974616C20746516
:10EB34006D70657261747572652073656E736F7242
:10EB440020726573756C7420666F7220746865201A
:10EB5400514920636F6E7665727465720A0D2020C8
:10EB640020204D65617375726520504F53352054D4
:10EB7400656D703F3A205072696E747320746865D5
:10EB8400206469676974616C2074656D7065726175
:10EB9400747572652073656E736F72207265737518
:10EBA4006C7420666F7220746865202B3556206360
:10EBB4006F6E7665727465720A0D202020204D6593
:10EBC400617375726520416D6269656E7420546568
:10EBD4006D703F3A205072696E74732074686520BA
:10EBE4006469676974616C2074656D7065726174C1
:10EBF4007572652073656E736F7220726573756CC0
:10EC04007420666F7220616D6269656E7420656E32
:10EC14007669726F6E6D656E740A0D202020204D2A
:10EC240065617375726520504F5335204653573FC5
:10EC34003A205072696E747320746865206D656142
:10EC4400737572656420504F53352053776974632C
:10EC540068696E67204672657175656E63790A0D21
:10EC6400202020204D65617375726520514920462E
:10EC740053573F3A205072696E747320746865204C
:10EC84006D656173757265642051492053776974A9
:10EC94006368696E67204672657175656E63790A8B
:10ECA4000D202020204572726F7220537461747598
:10ECB400733F205072696E747320696620616E79A7
:10ECC4002073797374656D206661756C7473206844
:10ECD400617665206265656E20646574656374653C
:10ECE400640A0D20202020436C6561722055415236
:10ECF40054204572726F72733A20436C656172736B
:10ED04002055415254206572726F7220666C61679F
:10ED1400730A0D20202020436C6561722049324320
:10ED2400204572726F72733A20436C65617273206E
:10ED3400493243206572726F7220666C6167730A90
:10ED44000D20202020436C656172204144432045FE
:10ED540072726F72733A20436C656172732041441E
:10ED640043206572726F7220666C6167730A0D00CE
:10ED7400436F6D6D616E64732061726520636173AE
:10ED8400652073656E7369746976652C20626163AE
:10ED94006B737061636520697320737570706F7233
:10EDA4007465642C20636F6D6D616E642068697393
:10EDB400746F7279206973206E6F7420737570702C
:10EDC4006F727465640A0D00466978656420566F35
:10EDD4006C74616765205265666572656E63652053
:10EDE4004275666665722031206D65617375726562
:10EDF4006420617320252B2E336620566F6C747348
:10EE04002C2063616C6962726174656420666F7240
:10EE1400202B342E30393620566F6C74730A0D0053
:10EE240054686520666F6C6C6F77696E67205573E4
:10EE34006572204944732068617665206265656E59
:10EE4400207265747269657665642066726F6D20E0
:10EE5400666C617368206D656D6F72793A0A0D0096
:10EE640053797374656D20706172616D6574657238
:10EE74007320616E642061666669726D617469767F
:10EE84006520726573706F6E736573206170706551
:10EE9400617220696E20677265656E0A0D004669AD
:10EEA4006E69736865642074657374206D6573732B
:10EEB4006167652C2074797065202748656C70271C
:10EEC40020666F72206C697374206F6620636F6DA7
:10EED4006D616E64730A0D0A0D0043616C6C20272A
:10EEE400436C6561722055415254204572726F72B1
:10EEF400732720746F20636C65617220636F6D6D7E
:10EF0400756E69636174696F6E73206572726F7276
:10EF14002873290A0D0043616C6C2027436C6561DA
:10EF24007220493243204572726F72732720746FC6
:10EF340020636C65617220636F6D6D756E696361CA
:10EF440074696F6E73206572726F722873290A0D6B
:10EF5400004465766963652073696C69636F6E202C
:10EF64007265766973696F6E2049442061732073FA
:10EF7400746F72656420696E20466C6173682069E1
:10EF8400733A202563253033640A0D000A0D486561
:10EF94006C70206D6573736167657320616E6420A6
:10EFA4006E65757472616C20726573706F6E7365D3
:10EFB400732061707065617220696E2079656C6C74
:10EFC4006F770A0D00202020205573657220494474
:10EFD40020576F72642025642028466C6173682072
:10EFE4006164647265737320307832303030302558
:10EFF40058293A203078253034580A0D0043757268
:10F0040072656E74202B3556205377697463686972
:10F014006E67204672657175656E6379206D6561F2
:10F02400737572656420617320252B2E3166204D23
:10F03400487A0A0D0043757272656E742051492036
:10F04400537769746368696E672046726571756584
:10F054006E6379206D6561737572656420617320D8
:10F06400252B2E3366206B487A0A0D004D69637296
:10F074006F636F6E74726F6C6C6572204469652087
:10F0840054656D7065726174757265206D65617328
:10F094007572656420617320252B2E336620430A24
:10F0A4000D00514920776972656C65737320706F28
:10F0B40077657220636F6E7665727465722068611D
:10F0C400732066756C6C792063686172676564206F
:10F0D40070686F6E650A0D0051492043686172675C
:10F0E40065722077697468204469676974616C206B
:10F0F4004D6F6E69746F72696E672C20627920445B
:10F10400726577204D6161746D616E0A0D005468FB
:10F1140065206361757365206F6620746865206D72
:10F124006F737420726563656E74206465766963B9
:10F1340065207265736574207761733A2025730ABC
:10F144000D005149204368617267657220776974C4
:10F1540068204469676974616C204D6F6E69746FCF
:10F1640072696E670A0D426F6F7420436F6D706C25
:10F174006574650A0D00446576696365206F6E20C9
:10F1840074696D652073696E6365206C61737420A6
:10F19400726573657420636F6E646974696F6E2041
:10F1A40069733A2025730A0D00456C6563747269AE
:10F1B40063616C20496E70757420506F776572209E
:10F1C40063616C63756C6174656420617320252BC5
:10F1D4002E33662057617474730A0D005769726583
:10F1E4006C657373204F757470757420506F7765F8
:10F1F400722063616C63756C617465642061732053
:10F20400252B2E33662057617474730A0D004361F5
:10F214006C6C2027436C6561722041444320457225
:10F22400726F72732720746F20636C656172204162
:10F234004443206572726F722873290A0D002B35BE
:10F244005620436F6E7665727465722054656D70D6
:10F2540065726174757265206D656173757265643C
:10F2640020617320252B2E336620430A0D0051495B
:10F2740020436F6E7665727465722054656D706597
:10F28400726174757265206D656173757265642051
:10F29400617320252B2E336620430A0D000A0D438B
:10F2A400616C6C202748656C702720666F72206C37
:10F2B400697374206F6620737570706F72746564FF
:10F2C40020636F6D6D616E64730A0D005468652070
:10F2D400666F6C6C6F77696E67206368616E6E65CC
:10F2E4006C732063617573656420616E20414443CF
:10F2F400206572726F723A0A0D00514920636F6E75
:10F304007665727465722063757272656E74206DB1
:10F314006561737572656420617320252B2E3366D5
:10F3240020416D70730A0D004572726F7273206113
:10F334006E64206E656761746976652072657370AA
:10F344006F6E7365732061707065617220696E20E1
:10F354007265640A0D00446576696365204944203A
:10F3640073746F72656420696E20466C61736820E3
:10F3740069733A2025732028307825303458290AB7
:10F384000D002B31325620696E70757420637572CE
:10F3940072656E74206D6561737572656420617346
:10F3A40020252B2E336620416D70730A0D004361B6
:10F3B400757365206F66206D6F7374207265636565
:10F3C4006E74206465766963652072657365742064
:10F3D4007761733A2025730A0D0054686520666FBF
:10F3E4006C6C6F77696E6720493243204572726F87
:10F3F40072732077657265206465746563746564EF
:10F404003A0A0D00416D6269656E742054656D7031
:10F4140065726174757265206D656173757265647A
:10F4240020617320252B2E336620430A0D00537967
:10F434007374656D20456666696369656E637920DA
:10F4440063616C63756C6174656420617320252E3F
:10F45400336625250A0D0057696E646F776564204D
:10F46400576174636820446F672054696D65722026
:10F4740056696F6C6174696F6E20526573657400B0
:10F48400514920576972656C65737320506F7765B5
:10F494007220436F6E76657273696F6E2044697370
:10F4A40061626C65640A0D00514920576972656C8C
:10F4B40065737320506F77657220436F6E76657243
:10F4C40073696F6E20456E61626C65640A0D004D50
:10F4D4006561737572656D656E7420726573706FA6
:10F4E4006E7365732061707065617220696E20634C
:10F4F40079616E0A0D00546869732074657874200C
:10F504006861732061206D6167656E74612062615A
:10F51400636B67726F756E640A0D00556E73757058
:10F52400706F72746564206F72206D69732D656EDF
:10F53400746572656420636F6D6D616E640A0D009D
:10F54400546869732074657874206861732061203D
:10F5540079656C6C6F77206261636B67726F756E2F
:10F56400640A0D002020202049324320416D626945
:10F57400656E742054656D702053656E736F7220D0
:10F584004572726F720A0D00514920776972656C79
:10F5940065737320706F77657220636F6E76657222
:10F5A4007465722069732025730A0D002B3132565D
:10F5B400207261696C206D65617375726564206188
:10F5C4007320252B2E336620566F6C74730A0D003E
:10F5D40054686973207465787420686173206120AD
:10F5E4007768697465206261636B67726F756E64B6
:10F5F4000A0D005468697320746578742068617317
:10F60400206120626C61636B206261636B67726F5F
:10F61400756E640A0D0054686973207465787420EB
:10F62400686173206120677265656E206261636B37
:10F6340067726F756E640A0D002B3556207261690E
:10F644006C206D6561737572656420617320252B70
:10F654002E336620566F6C74730A0D0054686973F8
:10F66400207465787420686173206120626C75650C
:10F67400206261636B67726F756E640A0D00546873
:10F6840069732074657874206861732061206379DC
:10F69400616E206261636B67726F756E640A0D0040
:10F6A40054686973207465787420686173206120DC
:10F6B400726564206261636B67726F756E640A0DB4
:10F6C400002020202049324320504F5335205465D8
:10F6D4006D702053656E736F72204572726F720A7B
:10F6E4000D00514920436861726765722069732077
:10F6F400696E204572726F722053746174650A0DCD
:10F7040000202020204932432051492054656D7047
:10F714002053656E736F72204572726F720A0D000A
:10F7240041565353206D656173757265642061732E
:10F7340020252B2E336620566F6C74730A0D0055EA
:10F7440073657220696E7075742061707065617282
:10F754007320696E2077686974650A0D0020202083
:10F7640020493243204F4C454420446973706C61F6
:10F7740079204572726F720A0D004E6F2055415206
:10F7840054206572726F72287329206465746563EE
:10F794007465640A0D0054657374696E672074653A
:10F7A400787420617474726962757465733A0A0DB1
:10F7B4000054686973207465787420697320756EC9
:10F7C40064657273636F7265640A0D004E6F20493D
:10F7D4003243206572726F722873292064657465E0
:10F7E400637465640A0D004E6F20414443206572C2
:10F7F400726F722873292064657465637465640A82
:10F804000D00524553455420496E737472756374E8
:10F81400696F6E204578656375746564005553425D
:10F824002055415254204572726F722044657465AC
:10F83400637465640A0D00414443206572726F72FB
:10F84400287329206465746563746564210A0D0056
:10F85400546869732074657874206973206E6F72BC
:10F864006D616C0A0D0A0D00546869732074657823
:10F87400742069732072657665727365640A0D007D
:10F8840054686973207465787420697320626C69A4
:10F894006E6B696E670A0D00554152542065727291
:10F8A4006F7228732920636C65617265640A0D00A8
:10F8B400202020204932432047656E6572616C2008
:10F8C4004572726F720A0D002020202047656E6514
:10F8D40072616C20414443206572726F720A0D009C
:10F8E400546869732074657874206973206D616746
:10F8F400656E74610A0D00414443204572726F7253
:10F9040028732920636C65617265640A0D004932AD
:10F9140043206572726F7228732920636C6561726B
:10F9240065640A0D004D65617375726520504F530F
:10F9340031322043757272656E743F005468697386
:10F9440020746578742069732079656C6C6F770A0C
:10F954000D00417661696C61626C6520436F6D6D69
:10F96400616E64733A0A0D004D65617375726520AA
:10F97400416D6269656E742054656D703F004D651C
:10F984006173757265204F757470757420506F774C
:10F9940065723F00537461636B20556E64657266D3
:10F9A4006C6F7720526573657400546869732074B2
:10F9B40065787420697320626C61636B0A0D00546E
:10F9C400686973207465787420697320677265654B
:10F9D4006E0A0D004D65617375726520496E707510
:10F9E4007420506F7765723F00537461636B204FCE
:10F9F400766572666C6F772052657365740054681F
:10FA04006973207465787420697320626F6C640A6A
:10FA14000D005468697320746578742069732062DA
:10FA24006C75650A0D0054686973207465787420D8
:10FA34006973206379616E0A0D004D656173757297
:10FA4400652051492043757272656E743F004D659F
:10FA5400617375726520456666696369656E63796D
:10FA64003F00546869732074657874206973207248
:10FA740065640A0D004D65617375726520504F53BE
:10FA8400352054656D703F004D6173746572204379
:10FA94006C6561722052657365740055534220553C
:10FAA40041525420546573740A0D0A0D004D65616A
:10FAB4007375726520504F5335204653573F004DA0
:10FAC400656173757265204469652054656D703F86
:10FAD40000436C6561722055415254204572726F27
:10FAE400727300303132333435363738394142435A
:10FAF400444546004D656173757265205149205433
:10FB0400656D703F00436C65617220493243204546
:10FB140072726F727300436C6561722041444320BA
:10FB24004572726F7273004D656173757265205111
:10FB340049204653573F00446576696365204F6EFC
:10FB44002054696D653F004361757365206F6620BD
:10FB540052657365743F00766961205553422C20C9
:10FB64002748656C702700434F4D20506F727420F6
:10FB740053657475703A004361757365206F662030
:10FB840052657365743A004469676974616C204D09
:10FB94006F6E69746F7200386269742C206E6F2006
:10FBA40070617269747900556E646566696E656426
:10FBB4002052657365740042726F776E204F7574BE
:10FBC400205265736574004D6561737572652050CC
:10FBD4004F5331323F00436861726765205374614B
:10FBE4007475733F00436861726765205374617470
:10FBF40075733A0031207374702C206E6F20666C1C
:10FC04006F77005245534554204578656375746594
:10FC14006400506F776572204F6E2052657365746F
:10FC2400004D65617375726520504F53353F004D2B
:10FC340065617375726520415653533F0045727276
:10FC44006F72205374617475733F00514920436887
:10FC5400617267657220772F002B31325620566F00
:10FC64006C746167653A004465762E204F6E2054AB
:10FC7400696D653A00416D6269656E742054656D05
:10FC8400703A002B35562053772E20467265713A10
:10FC9400004F757470757420506F7765723A002B3D
:10FCA4003132562043757272656E743A00426F6F3A
:10FCB4007420436F6D706C657465004D6F726520C0
:10FCC40053657474696E67730046756C6C79204370
:10FCD4006861726765640066756C6C79206368613D
:10FCE40072676564005265766973696F6E20494472
:10FCF4003F004D656173757265204656523F005250
:10FD040065766973696F6E2049443A002B35562035
:10FD1400566F6C746167653A0051492053772E2001
:10FD2400467265713A00496E70757420506F77653C
:10FD3400723A0044726577204D6161746D616E00A2
:10FD44002564206D696E757465732C2000504943D9
:10FD540031384C4632374B34300050494331384CFB
:10FD64004634374B34300050494331384C463637EB
:10FD74004B343000537072696E6720323031390071
:10FD84004D6963726F2054656D703A005149204388
:10FD9400757272656E743A00456666696369656E6C
:10FDA40063793A002564206D696E7574652C2000B2
:10FDB40050494331384632374B343000504943318F
:10FDC400384634374B34300050494331384636379F
:10FDD4004B343000256C752E25362E366C75001B81
:10FDE4005B303B33373B34306D0044657669636583
:10FDF4002049443F0044697361626C6520514900A5
:10FE04004465766963652049443A00514920456E4A
:10FE140061626C6564004275727374204D6F646531
:10FE2400002575207365636F6E6473002575206DFE
:10FE3400696E757465730025642079656172732C2D
:10FE44002000256420686F7572732C2000256420BF
:10FE54007365636F6E64730053544F462052657329
:10FE640065740053545546205265736574004D43C0
:10FE74004C522052657365740057574454205265A0
:10FE840073657400202020204656520A0D005573D5
:10FE94006572204944733F00456E61626C65205170
:10FEA40049002B35562054656D703A003131352E9A
:10FEB40032206B627300256420796561722C200006
:10FEC400256420686F75722C200025642064617994
:10FED400732C20002564207365636F6E6400424FA9
:10FEE4005220526573657400504F522052657365F9
:10FEF4007400556E646566696E656400756E64654C
:10FF040066696E65640051492054656D703A002538
:10FF14007520796561727300257520686F75727339
:10FF240000252B2E33666B487A00256420646179A2
:10FF34002C20004368617267696E670063686172B0
:10FF440067696E6700252B2E3366252500257520ED
:10FF54006461797300286E756C6C2900252B2E332F
:10FF6400664100252B2E33664300252B2E3366561F
:10FF740000252B2E33665700256325303364003269
:10FF84002E354D487A002A49444E3F00436C656142
:10FF940072004572726F72006572726F72001B5B41
:10FFA400324A0048656C7000307825580049646C0A
:10FFB400650069646C65001B5B73001B5B75001B4B
:10FFC4005B48001B5B4B003330003331003431009D
:10FFD40033320034320033330034330033340034EA
:10FFE40034003335003435003336003436003337CB
:0CFFF400003437001B5B0038003B0000AD
:020000040001F9
:100000006FEF8BF0250E8319D8B436D020EE02F0B6
:100010004C51D9264D51DA22DE50DE10DE10D8B414
:1000200014D020EE02F04C51D9264D51DA2202D8DC
:100030006FEF8BF00500FA6EDE50FD6EDE50FE6E47
:10004000DE50FF6EFA50835112004CC2D9FF4DC2F0
:10005000DAFFDECF52F2DDCF53F252C2D9FF53C2E4
:10006000DAFF83C2DFFF4CC2D9FF4DC2DAFFDE2ABE
:10007000000EDD226FEF8BF0000E7E6F000E7D6FA5
:10008000000E826F000E816F0AD00201818105D0BF
:100090000201818302D0020181854E4B4F2B4EC25B
:1000A000F6FF4FC2F7FF000EF86E0E0EF76403D096
:1000B0000800F55005D0F6CFE9FFF7CFEAFFEF5083
:1000C000200AD8B4E2D70B0AD8B4E2D71B0AD8B4B6
:1000D000E2D7020181B381914EC2F6FF4FC2F7FF12
:1000E000000EF86E0E0EF76403D00800F55005D030
:1000F000F6CFE9FFF7CFEAFFEF5089ECDDF0D8A0AB
:100100004CD0000E02017E6F000E7D6F7DC200F2AA
:100110007EC201F2000E0201036F0A0E026FCCECE8
:10012000DCF000C27DF201C27EF2D00E0201526FFD
:10013000FF0E536F4EC2F6FF4FC2F7FF000EF86E70
:100140000E0EF76403D00800F55005D0F6CFE9FF96
:10015000F7CFEAFFEF500201546F556B525154270D
:100160005351552354517D2755517E234E4B4F2BD0
:100170004EC2F6FF4FC2F7FF000EF86E0E0EF76488
:1001800003D00800F55005D0F6CFE9FFF7CFEAFF1E
:10019000EF5089ECDDF0D8B0B9D74EC2F6FF4FC2B0
:1001A000F7FF000EF86E0E0EF76403D00800F5504E
:1001B00005D0F6CFE9FFF7CFEAFFEF502E0AD8A41B
:1001C00049D00201828D4E4B4F2B000E806F000EE6
:1001D0007F6F2AD07FC200F280C201F2000E0201BE
:1001E000036F0A0E026FCCECDCF04EC2F6FF4FC27A
:1001F000F7FF000EF86E0E0EF76403D00800F550FE
:1002000005D0F6CFE9FFF7CFEAFFEF500201526FBA
:1002100052510027000E0123D00E00257F6FFF0EE4
:100220000121806F4E4B4F2B4EC2F6FF4FC2F7FF9E
:10023000000EF86E0E0EF76403D00800F55005D0DE
:10024000F6CFE9FFF7CFEAFFEF5089ECDDF0D8A059
:100250002AD1C0D7000E0201806F000E7F6F828905
:1002600022D1818920D1828559D1818F57D150C225
:10027000D9FF51C2DAFFDFCF52F2020EDE26DFCF06
:1002800053F2000EDD2252C2D9FF53C2DAFFDECF95
:100290006BF2DDCF6CF26B516C11D8A404D0590E07
:1002A0006B6FFF0E6C6F000E6E6F000E6D6F03D0E4
:1002B00002016D4B6E2B6D516B25526F6E516C218F
:1002C000536F52C2F6FF53C2F7FF000EF86E0E0EC8
:1002D000F76403D00800F55005D0F6CFE9FFF7CF5B
:1002E000EAFFEF500009D8A4E3D702017F51801143
:1002F000D8B40AD06D517F5D6E518059D8B004D00A
:100300007FC26DF280C26EF27D516D5D7E516E597D
:10031000D8B005D06D517D5F6E517E5B38D0000E38
:100320007E6F000E7D6F33D020EE02F04C51D92647
:100330004D51DA22DE50DE10DE10D8B413D020EE9C
:1003400002F04C51D9264D51DA2201D820D00500B7
:10035000FA6EDE50FD6EDE50FE6EDE50FF6EFA501D
:10036000200E12004CC2D9FF4DC2DAFFDECF52F28E
:10037000DDCF53F252C2D9FF53C2DAFF200EDF6E37
:100380004CC2D9FF4DC2DAFFDE2A000EDD22020187
:100390007D07D8A07E077D29C7E17E29D8B45BD030
:1003A000C3D720EE02F04C51D9264D51DA22DE504F
:1003B000DE10DE10D8B427D020EE02F04C51D92642
:1003C0004D51DA2201D81BD00500FA6EDE50FD6EC9
:1003D000DE50FE6EDE50FF6EFA506BC2F6FF6CC24E
:1003E000F7FF000EF86E0E0EF76403D00800F5500C
:1003F00005D0F6CFE9FFF7CFEAFFEF501200020178
:100400006B4B6C2B28D06BC2F6FF6CC2F7FF000E53
:10041000F86E4CC2D9FF4DC2DAFFDECF52F2DDCF0B
:1004200053F252C2D9FF53C2DAFF0E0EF76403D063
:100430000800F55005D0F6CFE9FFF7CFEAFFEF50FF
:10044000DF6E02016B4B6C2B4CC2D9FF4DC2DAFF41
:10045000DE2A000EDD226D07D8A06E076D29A1E10E
:100460006E29D8B46FEF8BF09CD750C2D9FF51C220
:10047000DAFFDFCF52F2020EDE26DFCF53F2000E9C
:10048000DD2252C2D9FF53C2DAFFDF50836F830EE1
:100490006B6F020E6C6F000E6E6F010E6D6F25D7C5
:1004A000C00E81133BD002014E51526F4F51536F1A
:1004B0004E4B4F2B52C2F6FF53C2F7FF000EF86EA1
:1004C0000E0EF76403D00800F55005D0F6CFE9FF13
:1004D000F7CFEAFFEF500201836F8351000AD8B4CF
:1004E0008DEF8BF0580AD8B4C0D63B0AD8B4BDD72C
:1004F000070AD8B413D0020AD8B4B5D60F0AD8B4B4
:100500000DD0050AD8B4ADD61F0AD8B4B0D6060AA5
:10051000D8B4C6D70D0AD8B4A8D6B9D7070E821555
:10052000D8B40FEF88F082A904D0000E806F060EB9
:100530007F6F50C2D9FF51C2DAFFDFCF52F2040EF3
:10054000DE26DFCF53F2000EDD2252C2D9FF53C2A6
:10055000DAFFDECF75F2DECF76F2DECF77F2DECFD6
:1005600078F278AF15D075C200F276C201F277C288
:1005700002F278C203F2EEECDBF000C275F201C2C7
:1005800076F202C277F203C278F2030E02018113FF
:10059000000E706F000E6F6F75C200F276C201F22E
:1005A00077C202F278C203F2000E046F000E056FEC
:1005B000000E066F000E076FFDECD2F00201D8B0FE
:1005C00084D077357835820F6F6F706BFF0E702394
:1005D0006F07D8A070076FC200F270C201F2000E60
:1005E000036F030E026FCCECDCF000C26FF201C2AD
:1005F00070F26FC206F270C207F2000E0201096FBC
:100600000A0E086F88ECD3F006C26FF207C270F2D0
:10061000020170AF03D06F07D8A070076F510008B8
:100620006AECA9F027C271F228C272F229C273F2F1
:100630002AC274F271C20EF272C20FF273C210F2C9
:1006400074C211F275C212F276C213F277C214F2BA
:1006500078C215F216ECB1F00EC271F20FC272F24E
:1006600010C273F211C274F271C200F272C201F2CE
:1006700073C202F274C203F2000E0201046F000E94
:10068000056F800E066F3F0E076FD9ECCDF00201AB
:10069000D8B004D06F07D8A0700717D071C200F28D
:1006A00072C201F273C202F274C203F2000E046F4E
:1006B000000E056F200E066F410E076FD9ECCDF0CE
:1006C0000201D8A002D06F4B702B80BF06D08051A2
:1006D00021E10D0E7F5DD8B01DD075C234F276C217
:1006E00035F277C236F278C237F27F51A8ECBAF011
:1006F00027C238F228C239F229C23AF22AC23BF2A2
:1007000013ECB6F034C275F235C276F236C277F227
:1007100037C278F2020170BF06D0705131E10A0E83
:100720006F5DD8B02DD075C200F276C201F277C2EB
:1007300002F278C203F2000E046F000E056F000E85
:10074000066F000E076FFDECD2F00201D8B062D048
:1007500075C230F276C231F277C232F278C233F229
:10076000D1ECCFF002013051311132113311D8B434
:1007700070BF50D0705104E1020E6F5DD8A04AD016
:1007800071C200F272C201F273C202F274C203F2C9
:100790005F0E046F700E056F890E066F400E076FB7
:1007A000D9ECCDF00201D8B002D0F70E01D0F80E8E
:1007B0006F27FF0E70236F516AECA9F027C271F208
:1007C00028C272F229C273F22AC274F275C200F210
:1007D00076C201F277C202F278C203F271C204F269
:1007E00072C205F273C206F274C207F2F2ECCBF0E9
:1007F00000C279F201C27AF202C27BF203C27CF239
:10080000000E0201756F000E766F000E776F000EFE
:10081000786F3CD075C230F276C231F277C232F2D4
:1008200078C233F2D1ECCFF030C279F231C27AF231
:1008300032C27BF233C27CF275C244F276C245F218
:1008400077C246F278C247F279C200F27AC201F268
:100850007BC202F27CC203F2000E7EECC8F000C242
:1008600048F201C249F202C24AF203C24BF2AFECB3
:10087000D8F044C275F245C276F246C277F247C25A
:1008800078F2000E0201706F000E6F6F010E836F21
:100890000A0E8319D8B41BD08351040DED0EF32436
:1008A000F66EE40EF420F76EF86A000EF8220900E6
:1008B000F550795D0900F5507A590900F5507B59DA
:1008C0000900F5507C59D8A002D0832BE1D7835181
:1008D0007F25526F000E8021536F6F515227705148
:1008E000532352517D5F53517E5B7F518011D8B4A9
:1008F00003D07D07D8A07E07030E8115526F000E2E
:100900008215536F52515311D8B403D07D07D8A02C
:100910007E0781A5F0D081A341D020EE02F04C519A
:10092000D9264D51DA22DE50DE10DE10D8B41DD0AB
:1009300081B104D0000E5C6F2B0E03D0000E5C6FF3
:100940002D0E5B6F20EE02F04C51D9264D51DA226C
:1009500001D891D00500FA6EDE50FD6EDE50FE6EBD
:10096000DE50FF6EFA505B51120081B104D0000ED0
:100970005E6F2B0E03D0000E5E6F2D0E5D6F4CC2AE
:10098000D9FF4DC2DAFFDECF52F2DDCF53F252C2B1
:10099000D9FF53C2DAFF5DC2DFFF2ED081A16BD039
:1009A00020EE02F04C51D9264D51DA22DE50DE10F5
:1009B000DE10D8B413D020EE02F04C51D9264D51A0
:1009C000DA2201D858D00500FA6EDE50FD6EDE50F6
:1009D000FE6EDE50FF6EFA50200E12004CC2D9FFA0
:1009E0004DC2DAFFDECF52F2DDCF53F252C2D9FF51
:1009F00053C2DAFF200EDF6E4CC2D9FF4DC2DAFFC0
:100A0000DE2A000EDD2237D020EE02F04C51D9262E
:100A10004D51DA22DE50DE10DE10D8B413D020EEB5
:100A200002F04C51D9264D51DA2201D820D00500D0
:100A3000FA6EDE50FD6EDE50FE6EDE50FF6EFA5036
:100A4000300E12004CC2D9FF4DC2DAFFDECF52F297
:100A5000DDCF53F252C2D9FF53C2DAFF300EDF6E40
:100A60004CC2D9FF4DC2DAFFDE2A000EDD220201A0
:100A70007D07D8A07E0702017EBF2FD17E51C4E141
:100A80007D05D8A02AD1C0D720EE02F04C51D9263E
:100A90004D51DA22DE50DE10DE10D8B413D020EE35
:100AA00002F04C51D9264D51DA2201D820D0050050
:100AB000FA6EDE50FD6EDE50FE6EDE50FF6EFA50B6
:100AC000200E12004CC2D9FF4DC2DAFFDECF52F227
:100AD000DDCF53F252C2D9FF53C2DAFF200EDF6ED0
:100AE0004CC2D9FF4DC2DAFFDE2A000EDD22020120
:100AF0007D07D8A07E077EBF05D07E51C5E17D056C
:100B0000D8B0C2D781A341D020EE02F04C51D926F3
:100B10004D51DA22DE50DE10DE10D8B41DD081B186
:100B200004D0000E606F2B0E03D0000E606F2D0EF0
:100B30005F6F20EE02F04C51D9264D51DA2201D8D8
:100B4000CCD00500FA6EDE50FD6EDE50FE6EDE503B
:100B5000FF6EFA505F51120081B104D0000E626F37
:100B60002B0E03D0000E626F2D0E616F4CC2D9FFA9
:100B70004DC2DAFFDECF52F2DDCF53F252C2D9FFBF
:100B800053C2DAFF61C2DFFFA1D081A1A6D020EE5F
:100B900002F04C51D9264D51DA22DE50DE10DE1023
:100BA000D8B413D020EE02F04C51D9264D51DA22A0
:100BB00001D893D00500FA6EDE50FD6EDE50FE6E59
:100BC000DE50FF6EFA50200E12004CC2D9FF4DC20B
:100BD000DAFFDECF52F2DDCF53F252C2D9FF53C259
:100BE000DAFF200E72D079C200F27AC201F27BC223
:100BF00002F27CC203F28351040DED0EF324F66E73
:100C0000E40EF420F76EF86A000EF8220900F5CF22
:100C100004F20900F5CF05F20900F5CF06F20A004B
:100C2000F5CF07F2CBECD3F000C271F201C272F241
:100C300002C273F203C274F271C20DF272C20EF2FA
:100C400073C20FF274C210F20A0E0201116F000E8D
:100C5000126F000E136F000E146F37ECD5F00DC23B
:100C600071F20EC272F20FC273F210C274F202017C
:100C700020EE02F04C51D9264D51DA22DE50DE1022
:100C8000DE10D8B414D020EE02F04C51D9264D51CC
:100C9000DA2201D822D00500FA6EDE50FD6EDE5059
:100CA000FE6EDE50FF6EFA507151300F120071511E
:100CB000300F4CC2D9FF4DC2DAFFDECF52F2DDCF8A
:100CC00053F252C2D9FF53C2DAFFDF6E4CC2D9FFD2
:100CD0004DC2DAFFDE2A000EDD22020183078329DE
:100CE000D8B438D080D720EE02F04C51D9264D51DF
:100CF000DA22DE50DE10DE10D8B413D020EE02F07F
:100D00004C51D9264D51DA2201D820D00500FA6E77
:100D1000DE50FD6EDE50FE6EDE50FF6EFA50300E7D
:100D200012004CC2D9FF4DC2DAFFDECF52F2DDCF46
:100D300053F252C2D9FF53C2DAFF300EDF6E4CC2FB
:100D4000D9FF4DC2DAFFDE2A000EDD2202016F0755
:100D5000D8A0700770BF05D07051C5E16F05D8B03D
:100D6000C2D780BF09D0805104E1090E7F5DD8A0B1
:100D700003D0080E836F02D07FC283F283517F5F5E
:100D8000000E805B8351D8B433D020EE02F04C517A
:100D9000D9264D51DA22DE50DE10DE10D8B413D041
:100DA00020EE02F04C51D9264D51DA2201D820D044
:100DB0000500FA6EDE50FD6EDE50FE6EDE50FF6EF8
:100DC000FA502E0E12004CC2D9FF4DC2DAFFDECF10
:100DD00052F2DDCF53F252C2D9FF53C2DAFF2E0EC8
:100DE000DF6E4CC2D9FF4DC2DAFFDE2A000EDD22D3
:100DF000020183516AECA9F027C256F228C257F2C9
:100E000029C258F22AC259F275C212F276C213F2FE
:100E100077C214F278C215F256C20EF257C20FF220
:100E200058C210F259C211F216ECB1F00EC230F2F3
:100E30000FC231F210C232F211C233F2D1ECCFF054
:100E400030C279F231C27AF232C27BF233C27CF222
:100E5000A4D079C200F27AC201F27BC202F27CC253
:100E600003F28351040DED0EF324F66EE40EF4202C
:100E7000F76EF86A000EF8220900F5CF04F20900B7
:100E8000F5CF05F20900F5CF06F20A00F5CF07F21B
:100E9000CBECD3F000C271F201C272F202C273F263
:100EA00003C274F271C20DF272C20EF273C20FF27B
:100EB00074C210F20A0E0201116F000E126F000EC2
:100EC000136F000E146F37ECD5F00DC271F20EC225
:100ED00072F20FC273F210C274F2020120EE02F03D
:100EE0004C51D9264D51DA22DE50DE10DE10D8B436
:100EF00014D020EE02F04C51D9264D51DA2201D8FF
:100F000022D00500FA6EDE50FD6EDE50FE6EDE5021
:100F1000FF6EFA507151300F12007151300F4CC2F8
:100F2000D9FF4DC2DAFFDECF52F2DDCF53F252C20B
:100F3000D9FF53C2DAFFDF6E4CC2D9FF4DC2DAFFD0
:100F4000DE2A000EDD2279C20DF27AC20EF27BC2D9
:100F50000FF27CC210F202018351040DED0EF32456
:100F6000F66EE40EF420F76EF86A000EF82209001F
:100F7000F5CF11F20900F5CF12F20900F5CF13F207
:100F80000A00F5CF14F237ECD5F00DC279F20EC29B
:100F90007AF20FC27BF210C27CF20201830783292E
:100FA000D8B438D056D720EE02F04C51D9264D5146
:100FB000DA22DE50DE10DE10D8B413D020EE02F0BC
:100FC0004C51D9264D51DA2201D820D00500FA6EB5
:100FD000DE50FD6EDE50FE6EDE50FF6EFA50300EBB
:100FE00012004CC2D9FF4DC2DAFFDECF52F2DDCF84
:100FF00053F252C2D9FF53C2DAFF300EDF6E4CC239
:10100000D9FF4DC2DAFFDE2A000EDD2202017F0782
:10101000D8A080077F518011D8B461D3C4D7C00E47
:101020008115526F000E8215536F52515311D8A47F
:1010300041D081A919D050C2D9FF51C2DAFFDFCF08
:1010400052F2040EDE26DFCF53F2000EDD2252C232
:10105000D9FF53C2DAFFDECF79F2DECF7AF2DECFEC
:101060007BF2DECF7CF219D050C2D9FF51C2DAFF39
:10107000DFCF52F2020EDE26DFCF53F2000EDD226A
:1010800052C2D9FF53C2DAFFDECF79F2DDCF7AF256
:10109000000E7ABFFF0E7B6F7C6F7CAF40D0030EDB
:1010A00081137C1F7B1F7A1F796D000E7A237B23AF
:1010B0007C2335D081A919D050C2D9FF51C2DAFFA3
:1010C000DFCF52F2040EDE26DFCF53F2000EDD2218
:1010D00052C2D9FF53C2DAFFDECF79F2DECF7AF205
:1010E000DECF7BF2DECF7CF21AD050C2D9FF51C2E4
:1010F000DAFFDFCF52F2020EDE26DFCF53F2000E10
:10110000DD2252C2D9FF53C2DAFFDECF54F2DDCF67
:1011100055F254C279F255C27AF27B6B7C6B7F51E7
:101120008011D8A44BD079517A117B117C11D8A4AD
:1011300045D07F4B802B42D0010E836F0A0E83195E
:10114000D8B447D08351040DED0EF324F66EE40EAF
:10115000F420F76EF86A000EF8220900F550795D68
:101160000900F5507A590900F5507B590900F550EE
:101170007C59D8A02ED0832BE1D7010E836F080EA7
:101180008319D8B426D08351040DCD0EF324F66E06
:10119000E10EF420F76EF86A000EF8220900F5500F
:1011A000795D0900F5507A590900F5507B5909001D
:1011B000F5507C59D8A00DD0832BE1D78151C00BBD
:1011C000000AD8B4B9D7800AD8B4D7D7400AD8B45F
:1011D000B3D78351526F536B7F51525D5351800A85
:1011E000546F8051800A5459D8B003D07FC283F223
:1011F00010D08351526F536B52517F5D8051800AE2
:10120000546F5351800A5459D8B003D083C27FF22F
:10121000806B7D517E11D8B40DD0030E8115526FB5
:10122000000E8215536F52515311D8B403D07D076D
:10123000D8A07E0782AD13D07D517F5D8051800A9A
:10124000526F7E51800A5259D8B005D07F517D5FD0
:1012500080517E5B04D0000E7E6F000E7D6F835147
:10126000526F536B7D51525D5351800A546F7E51C2
:10127000800A5459D8B005D083517D5F000E7E5B43
:1012800004D0000E7E6F000E7D6F81A5B5D081A3C6
:1012900041D020EE02F04C51D9264D51DA22DE50D9
:1012A000DE10DE10D8B41DD081B104D0000E646F02
:1012B0002B0E03D0000E646F2D0E636F20EE02F034
:1012C0004C51D9264D51DA2201D859D00500FA6E79
:1012D000DE50FD6EDE50FE6EDE50FF6EFA50635142
:1012E000120081B104D0000E666F2B0E03D0000EE9
:1012F000666F2D0E656F4CC2D9FF4DC2DAFFDECF8F
:1013000052F2DDCF53F252C2D9FF53C2DAFF65C2A7
:10131000DFFF2ED081A133D020EE02F04C51D92630
:101320004D51DA22DE50DE10DE10D8B413D020EE9C
:1013300002F04C51D9264D51DA2201D820D00500B7
:10134000FA6EDE50FD6EDE50FE6EDE50FF6EFA501D
:10135000200E12004CC2D9FF4DC2DAFFDECF52F28E
:10136000DDCF53F252C2D9FF53C2DAFF200EDF6E37
:101370004CC2D9FF4DC2DAFFDE2A000EDD22020187
:101380007D517E11D8B4A2D120EE02F04C51D92665
:101390004D51DA22DE50DE10DE10D8B413D020EE2C
:1013A00002F04C51D9264D51DA2201D820D0050047
:1013B000FA6EDE50FD6EDE50FE6EDE50FF6EFA50AD
:1013C000300E12004CC2D9FF4DC2DAFFDECF52F20E
:1013D000DDCF53F252C2D9FF53C2DAFF300EDF6EB7
:1013E0004CC2D9FF4DC2DAFFDE2A000EDD22020117
:1013F0007D07D8A07E07C4D77D517E11D8B43BD0DD
:1014000020EE02F04C51D9264D51DA22DE50DE108A
:10141000DE10D8B413D020EE02F04C51D9264D5135
:10142000DA2201D820D00500FA6EDE50FD6EDE50C3
:10143000FE6EDE50FF6EFA50200E12004CC2D9FF35
:101440004DC2DAFFDECF52F2DDCF53F252C2D9FFE6
:1014500053C2DAFF200EDF6E4CC2D9FF4DC2DAFF55
:10146000DE2A000EDD2202017D07D8A07E077D5115
:101470007E11D8A4C5D781A341D020EE02F04C51F3
:10148000D9264D51DA22DE50DE10DE10D8B41DD040
:1014900081B104D0000E686F2B0E03D0000E686F70
:1014A0002D0E676F20EE02F04C51D9264D51DA22F5
:1014B00001D80CD10500FA6EDE50FD6EDE50FE6ED6
:1014C000DE50FF6EFA506751120081B104D0000E59
:1014D0006A6F2B0E03D0000E6A6F2D0E696F4CC21F
:1014E000D9FF4DC2DAFFDECF52F2DDCF53F252C246
:1014F000D9FF53C2DAFF69C2DFFFE1D081A1E6D094
:1015000020EE02F04C51D9264D51DA22DE50DE1089
:10151000DE10D8B413D020EE02F04C51D9264D5134
:10152000DA2201D8D3D00500FA6EDE50FD6EDE500F
:10153000FE6EDE50FF6EFA50200E12004CC2D9FF34
:101540004DC2DAFFDECF52F2DDCF53F252C2D9FFE5
:1015500053C2DAFF200EDF6EB2D07FC252F280C2D9
:1015600053F2D89052375337D89052375337ED0E45
:101570005225F66EE40E5321F76EF86A000EF8223B
:101580000900F5CF04F20900F5CF05F20900F5CF07
:1015900006F20A00F5CF07F279C200F27AC201F230
:1015A0007BC202F27CC203F2CBECD3F000C20DF29C
:1015B00001C20EF202C20FF203C210F20A0E0201C1
:1015C000116F000E126F000E136F000E146F37ECC8
:1015D000D5F002010D51300F836F45D079C200F272
:1015E0007AC201F27BC202F27CC203F27FC252F2E3
:1015F00080C253F2D89052375337D890523753376E
:10160000CD0E5225F66EE10E5321F76EF86A000EEC
:10161000F8220900F5CF04F20900F5CF05F2090020
:10162000F5CF06F20A00F5CF07F2CBECD3F00201BA
:1016300000510F0B5A6FE70E5A25F66EF76AFA0E35
:10164000F722F86A000EF8220800F5CF83F20BD0DB
:101650008151C00B000AD8B480D7800AD8B4BED755
:10166000400AD8B47AD720EE02F04C51D9264D5119
:10167000DA22DE50DE10DE10D8B413D020EE02F0F5
:101680004C51D9264D51DA2201D820D00500FA6EEE
:10169000DE50FD6EDE50FE6EDE50FF6EFA5083515E
:1016A00012004CC2D9FF4DC2DAFFDECF52F2DDCFBD
:1016B00053F252C2D9FF53C2DAFF83C2DFFF4CC2DA
:1016C000D9FF4DC2DAFFDE2A000EDD2202017F07BC
:1016D000D8A080077F29BCE18029D8A4B9D702010E
:1016E0004E51526F4F51536F4E4B4F2B52C2F6FF1C
:1016F00053C2F7FF000EF86E0E0EF76403D0080019
:10170000F55005D0F6CFE9FFF7CFEAFFEF50020121
:10171000836F8351D8A402EF80F0000E4D6F000E4E
:101720004C6F1200FBEF96F0250EA319D8B436D0FB
:1017300020EE02F06C51D9266D51DA22DE50DE1017
:10174000DE10D8B414D020EE02F06C51D9266D51C1
:10175000DA2202D8FBEF96F00500FA6EDE50FD6E3D
:10176000DE50FE6EDE50FF6EFA50A35112006CC0C8
:10177000D9FF6DC0DAFFDECF72F0DDCF73F072C03B
:10178000D9FF73C0DAFFA3C0DFFF6CC0D9FF6DC003
:10179000DAFFDE2A000EDD22FBEF96F0000E9E6FD0
:1017A000000E9D6F000EA26F000EA16F0AD0000107
:1017B000A18105D00001A18302D00001A1856E4B5B
:1017C0006F2B6EC0F6FF6FC0F7FF000EF86E0E0EA7
:1017D000F76403D00800F55005D0F6CFE9FFF7CF46
:1017E000EAFFEF50200AD8B4E2D70B0AD8B4E2D708
:1017F0001B0AD8B4E2D70001A1B3A1916EC0F6FFD5
:101800006FC0F7FF000EF86E0E0EF76403D00800ED
:10181000F55005D0F6CFE9FFF7CFEAFFEF50E9EC3E
:10182000DDF0D8A04BD0000E00019E6F000E9D6F22
:101830009DC001F09EC002F0000E046E0A0E036E01
:101840002FECDDF001C09DF002C09EF0D00E000133
:10185000726FFF0E736F6EC0F6FF6FC0F7FF000E62
:10186000F86E0E0EF76403D00800F55005D0F6CFE1
:10187000E9FFF7CFEAFFEF500001746F756B72510B
:1018800074277351752374519D2775519E236E4B98
:101890006F2B6EC0F6FF6FC0F7FF000EF86E0E0ED6
:1018A000F76403D00800F55005D0F6CFE9FFF7CF75
:1018B000EAFFEF50E9ECDDF0D8B0BAD76EC0F6FF22
:1018C0006FC0F7FF000EF86E0E0EF76403D008002D
:1018D000F55005D0F6CFE9FFF7CFEAFFEF502E0A1B
:1018E000D8A448D00001A28D6E4B6F2B000EA06FC4
:1018F000000E9F6F29D09FC001F0A0C002F0000E23
:10190000046E0A0E036E2FECDDF06EC0F6FF6FC0A2
:10191000F7FF000EF86E0E0EF76403D00800F550C6
:1019200005D0F6CFE9FFF7CFEAFFEF500001726F65
:1019300072510126000E0222D00E01249F6FFF0E6D
:101940000220A06F6E4B6F2B6EC0F6FF6FC0F7FFCB
:10195000000EF86E0E0EF76403D00800F55005D0A7
:10196000F6CFE9FFF7CFEAFFEF50E9ECDDF0D8A0C2
:101970002AD1C1D7000E0001A06F000E9F6FA2896F
:1019800022D1A18920D1A28559D1A18F57D170C070
:10199000D9FF71C0DAFFDFCF72F0020EDE26DFCF93
:1019A00073F0000EDD2272C0D9FF73C0DAFFDECF04
:1019B0008BF0DDCF8CF08B518C11D8A404D0590E54
:1019C0008B6FFF0E8C6F000E8E6F000E8D6F03D02D
:1019D00000018D4B8E2B8D518B25726F8E518C217A
:1019E000736F72C0F6FF73C0F7FF000EF86E0E0E35
:1019F000F76403D00800F55005D0F6CFE9FFF7CF24
:101A0000EAFFEF500009D8A4E3D700019F51A011CD
:101A1000D8B40AD08D519F5D8E51A059D8B004D052
:101A20009FC08DF0A0C08EF09D518D5D9E518E594E
:101A3000D8B005D08D519D5F8E519E5B38D0000E81
:101A40009E6F000E9D6F33D020EE02F06C51D926B0
:101A50006D51DA22DE50DE10DE10D8B413D020EE45
:101A600002F06C51D9266D51DA2201D820D0050040
:101A7000FA6EDE50FD6EDE50FE6EDE50FF6EFA50E6
:101A8000200E12006CC0D9FF6DC0DAFFDECF72F0FD
:101A9000DDCF73F072C0D9FF73C0DAFF200EDF6EA6
:101AA0006CC0D9FF6DC0DAFFDE2A000EDD22000116
:101AB0009D07D8A09E079D29C7E19E29D8B45BD079
:101AC000C3D720EE02F06C51D9266D51DA22DE50D8
:101AD000DE10DE10D8B427D020EE02F06C51D926EB
:101AE0006D51DA2201D81BD00500FA6EDE50FD6E72
:101AF000DE50FE6EDE50FF6EFA508BC0F6FF8CC0DB
:101B0000F7FF000EF86E0E0EF76403D00800F550D4
:101B100005D0F6CFE9FFF7CFEAFFEF501200000142
:101B20008B4B8C2B28D08BC0F6FF8CC0F7FF000EA0
:101B3000F86E6CC0D9FF6DC0DAFFDECF72F0DDCF7A
:101B400073F072C0D9FF73C0DAFF0E0EF76403D0D2
:101B50000800F55005D0F6CFE9FFF7CFEAFFEF50C8
:101B6000DF6E00018B4B8C2B6CC0D9FF6DC0DAFF90
:101B7000DE2A000EDD228D07D8A08E078D29A1E177
:101B80008E29D8B4FBEF96F09CD770C0D9FF71C0F6
:101B9000DAFFDFCF72F0020EDE26DFCF73F0000E29
:101BA000DD2272C0D9FF73C0DAFFDF50A36FA30E2E
:101BB0008B6F000E8C6F000E8E6F010E8D6F25D710
:101BC000C00EA1133BD000016E51726F6F51736F45
:101BD0006E4B6F2B72C0F6FF73C0F7FF000EF86EEE
:101BE0000E0EF76403D00800F55005D0F6CFE9FFDC
:101BF000F7CFEAFFEF500001A36FA351000AD8B45A
:101C000019EF97F0580AD8B4C0D63B0AD8B4BDD75C
:101C1000070AD8B413D0020AD8B4B5D60F0AD8B47C
:101C20000DD0050AD8B4ADD61F0AD8B4B0D6060A6E
:101C3000D8B4C6D70D0AD8B4A8D6B9D7070EA215FE
:101C4000D8B49CEF93F0A2A904D0000EA06F060EAA
:101C50009F6F70C0D9FF71C0DAFFDFCF72F0040E42
:101C6000DE26DFCF73F0000EDD2272C0D9FF73C015
:101C7000DAFFDECF95F0DECF96F0DECF97F0DECF45
:101C800098F098AF15D095C001F096C002F097C0BB
:101C900003F098C004F04DECDCF001C095F002C0F8
:101CA00096F003C097F004C098F0030E0001A11352
:101CB000000E906F000E8F6F95C001F096C002F07D
:101CC00097C003F098C004F0000E056E000E066E7B
:101CD000000E076E000E086E43ECD3F0D8B083D030
:101CE000000197359835820F8F6F906BFF0E902310
:101CF0008F07D8A090078FC001F090C002F0000EAF
:101D0000046E030E036E2FECDDF001C08FF002C0F5
:101D100090F08FC007F090C008F0000E0A6E0A0E17
:101D2000096E0DECD4F007C08FF008C090F00001F0
:101D300090AF03D08F07D8A090078F51000884EC94
:101D4000ABF045C091F046C092F047C093F048C058
:101D500094F091C02CF092C02DF093C02EF094C05E
:101D60002FF095C030F096C031F097C032F098C097
:101D700033F06AECB4F02CC091F02DC092F02EC07C
:101D800093F02FC094F091C001F092C002F093C084
:101D900003F094C004F0000E056E000E066E800E77
:101DA000076E3F0E086E42ECCEF0D8B005D00001B1
:101DB0008F07D8A0900717D091C001F092C002F011
:101DC00093C003F094C004F0000E056E000E066E82
:101DD000200E076E410E086E42ECCEF0D8A003D064
:101DE00000018F4B902B0001A0BF06D0A05121E134
:101DF0000D0E9F5DD8B01DD095C052F096C053F027
:101E000097C054F098C055F09F5109ECBCF045C004
:101E100056F046C057F047C058F048C059F021EC82
:101E2000B9F052C095F053C096F054C097F055C029
:101E300098F0000190BF06D0905131E10A0E8F5DFD
:101E4000D8B02DD095C001F096C002F097C003F035
:101E500098C004F0000E056E000E066E000E076EB0
:101E6000000E086E43ECD3F0D8B064D095C04EF0AD
:101E700096C04FF097C050F098C051F02FECD0F0C2
:101E80004E504F1050105110D8A454D0000190BFA4
:101E900051D0905104E1020E8F5DD8A04BD091C07B
:101EA00001F092C002F093C003F094C004F05F0E02
:101EB000056E700E066E890E076E400E086E42ECBF
:101EC000CEF0D8B003D00001F70E02D00001F80E1A
:101ED0008F27FF0E90238F5184ECABF045C091F01B
:101EE00046C092F047C093F048C094F095C001F00E
:101EF00096C002F097C003F098C004F091C005F0BE
:101F000092C006F093C007F094C008F0E7ECCCF064
:101F100001C099F002C09AF003C09BF004C09CF08D
:101F2000000E0001956F000E966F000E976F000E69
:101F3000986F3CD095C04EF096C04FF097C050F0CF
:101F400098C051F02FECD0F04EC099F04FC09AF0ED
:101F500050C09BF051C09CF095C064F096C065F0F5
:101F600097C066F098C067F099C005F09AC006F077
:101F70009BC007F09CC008F0000EC2ECC9F005C081
:101F800068F006C069F007C06AF008C06BF0D3ECD7
:101F9000D8F064C095F065C096F066C097F067C051
:101FA00098F0000E0001906F000E8F6F010EA36F6E
:101FB000A351040DED0EF324F66EE40EF420F76E3B
:101FC000F86A000EF8220900F550995D0900F550F5
:101FD0009A590900F5509B590900F5509C59D8A011
:101FE00005D0A32B0A0EA319D8A4E2D7A3519F258D
:101FF000726F000EA021736F8F517227905173235F
:1020000072519D5F73519E5B9F51A011D8B403D054
:102010009D07D8A09E07030EA115726F000EA21592
:10202000736F72517311D8B403D09D07D8A09E0767
:10203000A1A5F0D0A1A341D020EE02F06C51D92689
:102040006D51DA22DE50DE10DE10D8B41DD0A1B101
:1020500004D0000E7C6F2B0E03D0000E7C6F2D0E73
:102060007B6F20EE02F06C51D9266D51DA2201D837
:1020700091D00500FA6EDE50FD6EDE50FE6EDE5031
:10208000FF6EFA507B511200A1B104D0000E7E6F9A
:102090002B0E03D0000E7E6F2D0E7D6F6CC0D9FF0E
:1020A0006DC0DAFFDECF72F0DDCF73F072C0D9FF02
:1020B00073C0DAFF7DC0DFFF2ED0A1A16BD020EE70
:1020C00002F06C51D9266D51DA22DE50DE10DE109E
:1020D000D8B413D020EE02F06C51D9266D51DA221B
:1020E00001D858D00500FA6EDE50FD6EDE50FE6E4F
:1020F000DE50FF6EFA50200E12006CC0D9FF6DC08A
:10210000DAFFDECF72F0DDCF73F072C0D9FF73C09B
:10211000DAFF200EDF6E6CC0D9FF6DC0DAFFDE2A59
:10212000000EDD2237D020EE02F06C51D9266D5121
:10213000DA22DE50DE10DE10D8B413D020EE02F02A
:102140006C51D9266D51DA2201D820D00500FA6EE3
:10215000DE50FD6EDE50FE6EDE50FF6EFA50300E29
:1021600012006CC0D9FF6DC0DAFFDECF72F0DDCF98
:1021700073F072C0D9FF73C0DAFF300EDF6E6CC02F
:10218000D9FF6DC0DAFFDE2A000EDD2200019D07B7
:10219000D8A09E0700019EBF2ED19E51C4E19D058F
:1021A000D8A029D1C0D720EE02F06C51D9266D51AC
:1021B000DA22DE50DE10DE10D8B413D020EE02F0AA
:1021C0006C51D9266D51DA2201D820D00500FA6E63
:1021D000DE50FD6EDE50FE6EDE50FF6EFA50200EB9
:1021E00012006CC0D9FF6DC0DAFFDECF72F0DDCF18
:1021F00073F072C0D9FF73C0DAFF200EDF6E6CC0BF
:10220000D9FF6DC0DAFFDE2A000EDD2200019D0736
:10221000D8A09E079EBF05D09E51C5E19D05D8B0B0
:10222000C2D7A1A341D020EE02F06C51D9266D5146
:10223000DA22DE50DE10DE10D8B41DD0A1B104D0F9
:10224000000E806F2B0E03D0000E806F2D0E7F6F5F
:1022500020EE02F06C51D9266D51DA2201D8CBD094
:102260000500FA6EDE50FD6EDE50FE6EDE50FF6E33
:10227000FA507F511200A1B104D0000E826F2B0ED4
:1022800003D0000E826F2D0E816F6CC0D9FF6DC020
:10229000DAFFDECF72F0DDCF73F072C0D9FF73C00A
:1022A000DAFF81C0DFFFA0D0A1A1A5D020EE02F00F
:1022B0006C51D9266D51DA22DE50DE10DE10D8B412
:1022C00013D020EE02F06C51D9266D51DA2201D8DC
:1022D00092D00500FA6EDE50FD6EDE50FE6EDE50CE
:1022E000FF6EFA50200E12006CC0D9FF6DC0DAFFED
:1022F000DECF72F0DDCF73F072C0D9FF73C0DAFFAA
:10230000200E71D099C001F09AC002F09BC003F07A
:102310009CC004F0A351040DED0EF324F66EE40E00
:10232000F420F76EF86A000EF8220900F5CF05F0E8
:102330000900F5CF06F00900F5CF07F00A00F5CF48
:1023400008F04FECD4F001C091F002C092F003C04D
:1023500093F004C094F091C00EF092C00FF093C0BF
:1023600010F094C011F00A0E126E000E136E000EE3
:10237000146E000E156E04ECD6F00EC091F00FC076
:1023800092F010C093F011C094F0000120EE02F022
:102390006C51D9266D51DA22DE50DE10DE10D8B431
:1023A00014D020EE02F06C51D9266D51DA2201D8FA
:1023B00022D00500FA6EDE50FD6EDE50FE6EDE505D
:1023C000FF6EFA509151300F12009151300F6CC0D6
:1023D000D9FF6DC0DAFFDECF72F0DDCF73F072C0CF
:1023E000D9FF73C0DAFFDF6E6CC0D9FF6DC0DAFFB2
:1023F000DE2A000EDD220001A307A329D8B438D0BD
:1024000081D720EE02F06C51D9266D51DA22DE50D0
:10241000DE10DE10D8B413D020EE02F06C51D926B5
:102420006D51DA2201D820D00500FA6EDE50FD6E23
:10243000DE50FE6EDE50FF6EFA50300E12006CC0A1
:10244000D9FF6DC0DAFFDECF72F0DDCF73F072C05E
:10245000D9FF73C0DAFF300EDF6E6CC0D9FF6DC0DC
:10246000DAFFDE2A000EDD2200018F07D8A09007D8
:1024700090BF05D09051C5E18F05D8B0C2D7A0BF9D
:1024800009D0A05104E1090E9F5DD8A003D0080E29
:10249000A36F02D09FC0A3F0A3519F5F000EA05B6B
:1024A000A351D8B433D020EE02F06C51D9266D512F
:1024B000DA22DE50DE10DE10D8B413D020EE02F0A7
:1024C0006C51D9266D51DA2201D820D00500FA6E60
:1024D000DE50FD6EDE50FE6EDE50FF6EFA502E0EA8
:1024E00012006CC0D9FF6DC0DAFFDECF72F0DDCF15
:1024F00073F072C0D9FF73C0DAFF2E0EDF6E6CC0AE
:10250000D9FF6DC0DAFFDE2A000EDD220001A351E3
:1025100084ECABF045C076F046C077F047C078F069
:1025200048C079F095C030F096C031F097C032F0D5
:1025300098C033F076C02CF077C02DF078C02EF024
:1025400079C02FF06AECB4F02CC04EF02DC04FF0E3
:102550002EC050F02FC051F02FECD0F04EC099F0AB
:102560004FC09AF050C09BF051C09CF0A3D099C0CE
:1025700001F09AC002F09BC003F09CC004F0A3518C
:10258000040DED0EF324F66EE40EF420F76EF86AF7
:10259000000EF8220900F5CF05F00900F5CF06F08E
:1025A0000900F5CF07F00A00F5CF08F04FECD4F0A2
:1025B00001C091F002C092F003C093F004C094F007
:1025C00091C00EF092C00FF093C010F094C011F0C3
:1025D0000A0E126E000E136E000E146E000E156EB3
:1025E00004ECD6F00EC091F00FC092F010C093F042
:1025F00011C094F0000120EE02F06C51D9266D510B
:10260000DA22DE50DE10DE10D8B414D020EE02F054
:102610006C51D9266D51DA2201D822D00500FA6E0C
:10262000DE50FD6EDE50FE6EDE50FF6EFA509151B0
:10263000300F12009151300F6CC0D9FF6DC0DAFF1E
:10264000DECF72F0DDCF73F072C0D9FF73C0DAFF56
:10265000DF6E6CC0D9FF6DC0DAFFDE2A000EDD220E
:1026600099C00EF09AC00FF09BC010F09CC011F002
:102670000001A351040DED0EF324F66EE40EF420D8
:10268000F76EF86A000EF8220900F5CF12F0090083
:10269000F5CF13F00900F5CF14F00A00F5CF15F0CF
:1026A00004ECD6F00EC099F00FC09AF010C09BF069
:1026B00011C09CF00001A307A329D8B438D057D784
:1026C00020EE02F06C51D9266D51DA22DE50DE1078
:1026D000DE10D8B413D020EE02F06C51D9266D5123
:1026E000DA2201D820D00500FA6EDE50FD6EDE50F1
:1026F000FE6EDE50FF6EFA50300E12006CC0D9FF35
:102700006DC0DAFFDECF72F0DDCF73F072C0D9FF9B
:1027100073C0DAFF300EDF6E6CC0D9FF6DC0DAFF18
:10272000DE2A000EDD2200019F07D8A0A0079F51DE
:10273000A011D8B460D3C4D7C00EA115726F000E1B
:10274000A215736F72517311D8A441D0A1A919D0E9
:1027500070C0D9FF71C0DAFFDFCF72F0040EDE2641
:10276000DFCF73F0000EDD2272C0D9FF73C0DAFF35
:10277000DECF99F0DECF9AF0DECF9BF0DECF9CF07B
:1027800019D070C0D9FF71C0DAFFDFCF72F0020E2E
:10279000DE26DFCF73F0000EDD2272C0D9FF73C0DA
:1027A000DAFFDECF99F0DDCF9AF0000E9ABFFF0E70
:1027B0009B6F9C6F9CAF40D0030EA1139C1F9B1F6F
:1027C0009A1F996D000E9A239B239C2335D0A1A9B3
:1027D00019D070C0D9FF71C0DAFFDFCF72F0040EDC
:1027E000DE26DFCF73F0000EDD2272C0D9FF73C08A
:1027F000DAFFDECF99F0DECF9AF0DECF9BF0DECFAE
:102800009CF01AD070C0D9FF71C0DAFFDFCF72F030
:10281000020EDE26DFCF73F0000EDD2272C0D9FF7C
:1028200073C0DAFFDECF74F0DDCF75F074C099F0BD
:1028300075C09AF09B6B9C6B9F51A011D8A44BD094
:1028400099519A119B119C11D8A445D09F4BA02B54
:1028500042D0010EA36FA351040DED0EF324F66ECA
:10286000E40EF420F76EF86A000EF8220900F55025
:10287000995D0900F5509A590900F5509B590900D6
:10288000F5509C59D8A032D0A32B0A0EA319D8B466
:102890002DD0E1D7010EA36FA351040DCD0EF3246B
:1028A000F66EE10EF420F76EF86A000EF8220900C9
:1028B000F550995D0900F5509A590900F5509B595A
:1028C0000900F5509C59D8A011D0A32B080EA319CC
:1028D000D8B40CD0E1D7A151C00B000AD8B4B9D7F5
:1028E000800AD8B4D7D7400AD8B4B3D7A351726FEF
:1028F000736B9F51725D7351800A746FA051800A8F
:102900007459D8B003D09FC0A3F010D0A351726FF8
:10291000736B72519F5DA051800A746F7351800A6E
:102920007459D8B003D0A3C09FF0A06B9D519E11E5
:10293000D8B40DD0030EA115726F000EA215736FDF
:1029400072517311D8B403D09D07D8A09E07A2ADD1
:1029500013D09D519F5DA051800A726F9E51800AD5
:102960007259D8B005D09F519D5FA0519E5B04D095
:10297000000E9E6F000E9D6FA351726F736B9D5181
:10298000725D7351800A746F9E51800A7459D8B079
:1029900005D0A3519D5F000E9E5B04D0000E9E6F7C
:1029A000000E9D6FA1A5B5D0A1A341D020EE02F0ED
:1029B0006C51D9266D51DA22DE50DE10DE10D8B40B
:1029C0001DD0A1B104D0000E846F2B0E03D0000ED9
:1029D000846F2D0E836F20EE02F06C51D9266D515D
:1029E000DA2201D859D00500FA6EDE50FD6EDE50B5
:1029F000FE6EDE50FF6EFA5083511200A1B104D07A
:102A0000000E866F2B0E03D0000E866F2D0E856F85
:102A10006CC0D9FF6DC0DAFFDECF72F0DDCF73F08E
:102A200072C0D9FF73C0DAFF85C0DFFF2ED0A1A12D
:102A300033D020EE02F06C51D9266D51DA22DE50EF
:102A4000DE10DE10D8B413D020EE02F06C51D9267F
:102A50006D51DA2201D820D00500FA6EDE50FD6EED
:102A6000DE50FE6EDE50FF6EFA50200E12006CC07B
:102A7000D9FF6DC0DAFFDECF72F0DDCF73F072C028
:102A8000D9FF73C0DAFF200EDF6E6CC0D9FF6DC0B6
:102A9000DAFFDE2A000EDD2200019D519E11D8B41E
:102AA000A1D120EE02F06C51D9266D51DA22DE5010
:102AB000DE10DE10D8B413D020EE02F06C51D9260F
:102AC0006D51DA2201D820D00500FA6EDE50FD6E7D
:102AD000DE50FE6EDE50FF6EFA50300E12006CC0FB
:102AE000D9FF6DC0DAFFDECF72F0DDCF73F072C0B8
:102AF000D9FF73C0DAFF300EDF6E6CC0D9FF6DC036
:102B0000DAFFDE2A000EDD2200019D07D8A09E0715
:102B1000C4D79D519E11D8B43BD020EE02F06C5129
:102B2000D9266D51DA22DE50DE10DE10D8B413D073
:102B300020EE02F06C51D9266D51DA2201D820D056
:102B40000500FA6EDE50FD6EDE50FE6EDE50FF6E4A
:102B5000FA50200E12006CC0D9FF6DC0DAFFDECF34
:102B600072F0DDCF73F072C0D9FF73C0DAFF200EB0
:102B7000DF6E6CC0D9FF6DC0DAFFDE2A000EDD22E9
:102B800000019D07D8A09E079D519E11D8A4C5D7CE
:102B9000A1A341D020EE02F06C51D9266D51DA226A
:102BA000DE50DE10DE10D8B41DD0A1B104D0000E6E
:102BB000886F2B0E03D0000E886F2D0E876F20EECE
:102BC00002F06C51D9266D51DA2201D80BD10500E3
:102BD000FA6EDE50FD6EDE50FE6EDE50FF6EFA5075
:102BE00087511200A1B104D0000E8A6F2B0E03D0C2
:102BF000000E8A6F2D0E896F6CC0D9FF6DC0DAFF91
:102C0000DECF72F0DDCF73F072C0D9FF73C0DAFF90
:102C100089C0DFFFE0D0A1A1E5D020EE02F06C5129
:102C2000D9266D51DA22DE50DE10DE10D8B413D072
:102C300020EE02F06C51D9266D51DA2201D8D2D0A3
:102C40000500FA6EDE50FD6EDE50FE6EDE50FF6E49
:102C5000FA50200E12006CC0D9FF6DC0DAFFDECF33
:102C600072F0DDCF73F072C0D9FF73C0DAFF200EAF
:102C7000DF6EB1D09FC072F0A0C073F0D8907237F1
:102C80007337D89072377337ED0E7225F66EE40EF7
:102C90007321F76EF86A000EF8220900F5CF05F0EF
:102CA0000900F5CF06F00900F5CF07F00A00F5CFCF
:102CB00008F099C001F09AC002F09BC003F09CC0DC
:102CC00004F04FECD4F001C00EF002C00FF003C0CE
:102CD00010F004C011F00A0E126E000E136E000EFA
:102CE000146E000E156E04ECD6F00E50300F00017D
:102CF000A36F45D099C001F09AC002F09BC003F0C9
:102D00009CC004F09FC072F0A0C073F0D8907237DE
:102D10007337D89072377337CD0E7225F66EE10E89
:102D20007321F76EF86A000EF8220900F5CF05F05E
:102D30000900F5CF06F00900F5CF07F00A00F5CF3E
:102D400008F04FECD4F001500F0B00017A6FE70E42
:102D50007A25F66EF76AFA0EF722F86A000EF82264
:102D60000800F5CFA3F00BD0A151C00B000AD8B4D6
:102D700081D7800AD8B4BED7400AD8B47BD720EE1A
:102D800002F06C51D9266D51DA22DE50DE10DE10D1
:102D9000D8B413D020EE02F06C51D9266D51DA224E
:102DA00001D820D00500FA6EDE50FD6EDE50FE6EBA
:102DB000DE50FF6EFA50A35112006CC0D9FF6DC0F7
:102DC000DAFFDECF72F0DDCF73F072C0D9FF73C0CF
:102DD000DAFFA3C0DFFF6CC0D9FF6DC0DAFFDE2AC7
:102DE000000EDD2200019F07D8A0A0079F29BCE1AB
:102DF000A029D8A4B9D700016E51726F6F51736FBB
:102E00006E4B6F2B72C0F6FF73C0F7FF000EF86EAB
:102E10000E0EF76403D00800F55005D0F6CFE9FF99
:102E2000F7CFEAFFEF500001A36FA351D8A494EFAE
:102E30008BF0000E6D6F000E6C6F1200F5EF9DF0C1
:102E4000000EB66FBA0E036F020E046F4F0E056FC1
:102E5000FC0E066F67ECD8F0CB0E0201036F020E7A
:102E6000046F8B0E056FFB0E066F67ECD8F0DC0E5F
:102E70000201036F020E046F7B0E056FFB0E066FDF
:102E800067ECD8F0ED0E0201036F020E046FFE51E5
:102E90001EECDCF000C205F201C206F267ECD8F0CD
:102EA00062ECCAF0010E0201B76F030EFF6F120051
:102EB000000EB66FBA0E036F020E046F040E056F9C
:102EC000FE0E066F67ECD8F0DD0E0201846F030E74
:102ED000856FAC0E866FFF0E876FBAECDDF00BC20C
:102EE00088F20CC289F28BECD8F0CB0E0201036F92
:102EF000020E046FDD0E056F030E066F67ECD8F04F
:102F0000DC0E0201036F020E046F030E056FFD0E4F
:102F1000066F67ECD8F0EE0E0201846F030E856F2A
:102F20007C0E866FFF0E876FC2ECDAF00201976F9E
:102F3000410E9725886F896B000E89231CECDDF00C
:102F40000201986F98518A6F8B6B8BECD8F0ED0E65
:102F50000201036F020E046FEE0E056F030E066F83
:102F600067ECD8F062ECCAF0020E9DD7000EB66F87
:102F7000BA0E036F020E046F6B0E056FFB0E066F29
:102F800067ECD8F0CB0E0201036F020E046FB00E97
:102F9000056FFE0E066F67ECD8F0DC0E0201036FC2
:102FA000020E046F9B0E056FFB0E066F67ECD8F0E8
:102FB000ED0E0201036F020E046FF80E056FFB0E9B
:102FC000066F67ECD8F062ECCAF0030E6CD7000E07
:102FD000B66FBA0E036F020E046FB10E056FFC0ED2
:102FE000066F67ECD8F0CB0E0201036F020E046F80
:102FF0000F0E056FFE0E066F67ECD8F0DC0E0201B7
:10300000036F020E046FBF0E056FFC0E066F67ECB8
:10301000D8F0ED0E0201036F020E046F5B0E056F18
:10302000FB0E066F67ECD8F062ECCAF0040E3BD7DB
:10303000000EB66FBA0E036F020E046FE90E056F35
:10304000FB0E066F67ECD8F0CB0E0201036F020E89
:10305000046FB20E056FFD0E066F67ECD8F0DC0E44
:103060000201036F020E046FC4ECD6F000C205F239
:1030700001C206F267ECD8F0ED0E0201036F020EFA
:10308000046FB20E056FFD0E066F67ECD8F062ECB0
:10309000CAF0040E0201B76F010EFF6F1200000E9E
:1030A000B66FBA0E036F020E046F5D0E056FFC0E55
:1030B000066F67ECD8F0CB0E0201846F020E856FAD
:1030C0006E0E866FFF0E876FEAC088F2EBC089F242
:1030D000ECC08AF2EDC08BF28BECD8F0DC0E020172
:1030E000036F020E046FB20E056FFD0E066F67ECE4
:1030F000D8F0ED0E0201036F020E046FB20E056FE1
:10310000FD0E066F67ECD8F062ECCAF0050EC2D770
:10311000000EB66FBA0E036F020E046F100E056F2D
:10312000FD0E066F67ECD8F0CB0E0201846F020E25
:10313000856F6E0E866FFF0E876FE6C088F2E7C060
:1031400089F2E8C08AF2E9C08BF28BECD8F0DC0E91
:103150000201036F020E046FB20E056FFD0E066FC3
:1031600067ECD8F0ED0E0201036F020E046FB20E91
:10317000056FFD0E066F67ECD8F062ECCAF0060E24
:1031800089D7000EB66FBA0E036F020E046FA30E3E
:10319000056FFC0E066F67ECD8F0CB0E0201846F52
:1031A000020E856F600E866FFF0E876FEEC088F28D
:1031B000EFC089F2F0C08AF2F1C08BF28BECD8F04C
:1031C000DC0E0201036F020E046FB20E056FFD0EDE
:1031D000066F67ECD8F0ED0E0201036F020E046F6C
:1031E000B20E056FFD0E066F67ECD8F062ECCAF008
:1031F000070E50D7000EB66FBA0E036F020E046FA3
:10320000900E056FFD0E066F67ECD8F0CB0E020135
:10321000846F020E856F600E866FFF0E876FF2C09F
:1032200088F2F3C089F2F4C08AF2F5C08BF28BEC1D
:10323000D8F0DC0E0201036F020E046FB20E056FB0
:10324000FD0E066F67ECD8F0ED0E0201036F020E63
:10325000046FB20E056FFD0E066F67ECD8F062ECDE
:10326000CAF0080E17D7000EB66FBA0E036F020E23
:10327000046F2A0E056FFD0E066F67ECD8F0CB0EBB
:103280000201846F020E856F750E866FFF0E876FC9
:10329000B9C088F2BAC089F2BBC08AF2BCC08BF256
:1032A0008BECD8F0DC0E0201036F020E046FB20E3D
:1032B000056FFD0E066F67ECD8F0ED0E0201036F8F
:1032C000020E046FB20E056FFD0E066F67ECD8F0AC
:1032D00062ECCAF0090EDED6000EB66FBA0E036FAE
:1032E000020E046F950E056FFC0E066F67ECD8F0AA
:1032F000CB0E0201846F020E856F750E866FFF0E76
:10330000876FBDC088F2BEC089F2BFC08AF2C0C05C
:103310008BF28BECD8F0DC0E0201036F020E046F0F
:10332000B20E056FFD0E066F67ECD8F0ED0E0201D0
:10333000036F020E046FB20E056FFD0E066F67EC91
:10334000D8F062ECCAF00A0EA5D6000EB66FBA0E1F
:10335000036F020E046F9C0E056FFD0E066F67EC87
:10336000D8F0CB0E0201846F020E856F490E866F76
:10337000FF0E876FC1C088F2C2C089F2C3C08AF253
:10338000C4C08BF28BECD8F0DC0E0201036F020E8E
:10339000046FB20E056FFD0E066F67ECD8F0ED0EF0
:1033A0000201036F020E046FB20E056FFD0E066F71
:1033B00067ECD8F062ECCAF00B0E6CD6000EB66F5C
:1033C000BA0E036F020E046F0A0E056FFF0E066F32
:1033D00067ECD8F0CB0E0201846F020E856F670E8A
:1033E000866FFF0E876F97C188F298C189F299C1E5
:1033F0008AF29AC18BF28BECD8F0DC0E0201036FDB
:10340000020E046FB20E056FFD0E066F67ECD8F06A
:10341000ED0E0201036F020E046FB20E056FFD0E7A
:10342000066F67ECD8F062ECCAF00C0E33D6000ED3
:10343000B66FBA0E036F020E046FA60E056FFE0E76
:10344000066F67ECD8F0CB0E0201846F020E856F19
:10345000670E866FFF0E876F9BC188F29CC189F251
:103460009DC18AF29EC18BF28BECD8F0DC0E02017A
:10347000036F020E046FB20E056FFD0E066F67EC50
:10348000D8F0ED0E0201036F020E046FB20E056F4D
:10349000FD0E066F67ECD8F062ECCAF00D0EFAD59F
:1034A000000EB66FBA0E036F020E046F790E056F31
:1034B000FC0E066F67ECD8F0CB0E0201846F020E93
:1034C000856F670E866FFF0E876F9FC188F2A0C160
:1034D00089F2A1C18AF2A2C18BF28BECD8F0DC0E8A
:1034E0000201036F020E046FB20E056FFD0E066F30
:1034F00067ECD8F0ED0E0201036F020E046FB20EFE
:10350000056FFD0E066F67ECD8F062ECCAF00E0E88
:10351000C1D5000EB66FBA0E036F020E046F840E93
:10352000056FFD0E066F67ECD8F0CB0E0201846FBD
:10353000020E856F670E866FFF0E876FF6C088F2EA
:10354000F7C089F2F8C08AF2F9C08BF28BECD8F0A0
:10355000DC0E0201036F020E046FB20E056FFD0E4A
:10356000066F67ECD8F0ED0E0201036F020E046FD8
:10357000B20E056FFD0E066F67ECD8F062ECCAF074
:103580000F0E88D5000EB66FBA0E036F020E046FD1
:10359000870E056FFC0E066F67ECD8F001019051A5
:1035A000D8B404D0030E9019D8A40CD0CB0E0201CD
:1035B000036F020E046F1A0E056FFE0E066F67ECA6
:1035C000D8F00BD0CB0E0201036F020E046F830EF6
:1035D000056FFF0E066F67ECD8F0DC0E0201036F7B
:1035E000020E046FB20E056FFD0E066F67ECD8F089
:1035F000ED0E0201036F020E046FB20E056FFD0E99
:10360000066F67ECD8F062ECCAF0100E43D5000EDE
:10361000B66FBA0E036F020E046F1D0E056FFD0E1E
:10362000066F67ECD8F001019051D8B404D0030EB6
:103630009019D8A40CD0CB0E0201036F020E046FB8
:103640001A0E056FFE0E066F67ECD8F025D0CB0E74
:103650000201846F020E856F250E866FFF0E876F45
:1036600068C100F269C101F26AC102F26BC103F2E2
:10367000000E046F000E056F7A0E066F440E076F82
:10368000AEECBEF000C288F201C289F202C28AF238
:1036900003C28BF28BECD8F0DC0E0201036F020E3A
:1036A000046FB20E056FFD0E066F67ECD8F0ED0EDD
:1036B0000201036F020E046FB20E056FFD0E066F5E
:1036C00067ECD8F062ECCAF0110EE4D4000EB66FCD
:1036D000BA0E036F020E046F6B0E056FFC0E066FC1
:1036E00067ECD8F0800E0201B25D330EB359E10EE3
:1036F000B459010EB559D8A04ED0CB0E846F020E2E
:10370000856F130E866FFF0E876FB2C20DF2B3C2C4
:103710000EF2B4C20FF2B5C210F206ECDCF00201F8
:10372000976F9751886F896B8BECD8F0DC0E020194
:10373000846F020E856F510E866FFF0E876FB2C2C7
:103740000DF2B3C20EF2B4C20FF2B5C210F26EECBB
:10375000D2F00201976F9751886F896B8BECD8F08C
:10376000ED0E0201846F020E856F1C0E866FFF0E38
:10377000876FB2C20DF2B3C20EF2B4C20FF2B5C27D
:1037800010F261ECCDF00201976F9751886F896B51
:103790008BECD8F025D1B55108E1800EB25D510E09
:1037A000B359010EB459D8A04ED0CB0E846F020E7F
:1037B000856F510E866FFF0E876FB2C20DF2B3C2D6
:1037C0000EF2B4C20FF2B5C210F26EECD2F00201EA
:1037D000976F9751886F896B8BECD8F0DC0E0201E4
:1037E000846F020E856F1C0E866FFF0E876FB2C24C
:1037F0000DF2B3C20EF2B4C20FF2B5C210F261EC18
:10380000CDF00201976F9751886F896B8BECD8F0E0
:10381000ED0E0201846F020E856F300E866FFE0E74
:10382000876FB2C20DF2B3C20EF2B4C20FF2B5C2CC
:1038300010F2D6ECC7F00201976F9751886F896B31
:103840008BECD8F0CDD0B551B41106E1100EB25DBD
:103850000E0EB359D8A04ED0CB0E846F020E856FDA
:103860001C0E866FFF0E876FB2C20DF2B3C20EF24E
:10387000B4C20FF2B5C210F261ECCDF00201976F45
:103880009751886F896B8BECD8F0DC0E0201846F46
:10389000020E856F300E866FFE0E876FB2C20DF27C
:1038A000B3C20EF2B4C20FF2B5C210F2D6ECC7F03A
:1038B0000201976F9751886F896B8BECD8F0ED0EF2
:1038C0000201846F020E856F250E866FFE0E876FD4
:1038D000B2C20DF2B3C20EF2B4C20FF2B5C210F210
:1038E00019ECC7F00201976F9751886F896B8BECC9
:1038F000D8F076D0B551B411B31104E13C0EB25DED
:10390000D8A03FD0CB0E846F020E856F300E866F2D
:10391000FE0E876FB2C20DF2B3C20EF2B4C20FF246
:10392000B5C210F2D6ECC7F00201976F9751886FBD
:10393000896B8BECD8F0DC0E0201846F020E856F70
:10394000250E866FFE0E876FB2C20DF2B3C20EF265
:10395000B4C20FF2B5C210F219ECC7F00201976FB2
:103960009751886F896B8BECD8F0ED0E0201036FD5
:10397000020E046FB20E056FFD0E066F67ECD8F0F5
:103980002FD0CB0E846F020E856F250E866FFE0E34
:10399000876FB2C20DF2B3C20EF2B4C20FF2B5C25B
:1039A00010F219ECC7F00201976F9751886F896B7D
:1039B0008BECD8F0DC0E0201036F020E046FB20E26
:1039C000056FFD0E066F67ECD8F0ED0E0201036F78
:1039D000020E046FB20E056FFD0E066F67ECD8F095
:1039E00062ECCAF0120E4AEF98F0000EB66FBA0EF3
:1039F000036F020E046F7B0E056FFB0E066F67EC04
:103A0000D8F0CB0E0201036F020E046FB20E056FE9
:103A1000FD0E066F67ECD8F0DC0E0201036F020E9C
:103A2000046FFE511EECDCF000C205F201C206F28A
:103A300067ECD8F0ED0E0201036F020E046FB20EB8
:103A4000056FFD0E066F67ECD8F062ECCAF0130E3E
:103A50000201B76FFF691200000EB66FBA0E036F56
:103A6000020E046F040E056FFE0E066F67ECD8F0B1
:103A7000DD0E0201846F030E856FAC0E866FFF0EA4
:103A8000876FBAECDDF00BC288F20CC289F28BECC6
:103A9000D8F0CB0E0201036F020E046FDD0E056F2E
:103AA000030E066F67ECD8F0DC0E0201036F020E06
:103AB000046F030E056FFD0E066F67ECD8F0EE0E77
:103AC0000201846F030E856F7C0E866FFF0E876F79
:103AD000C2ECDAF00201976F410E9725886F896B6F
:103AE000000E89231CECDDF00201986F98518A6F5B
:103AF0008B6B8BECD8F0ED0E0201036F020E046F9E
:103B0000EE0E056F030E066F67ECD8F062ECCAF09C
:103B1000140E9ED7000EB66FBA0E036F020E046F1E
:103B20006B0E056FFB0E066F67ECD8F0CB0E020133
:103B3000036F020E046FB00E056FFE0E066F67EC8A
:103B4000D8F0DC0E0201036F020E046F9B0E056FAE
:103B5000FB0E066F67ECD8F0ED0E0201036F020E4C
:103B6000046FF80E056FFB0E066F67ECD8F062EC81
:103B7000CAF0150E6DD7000EB66FBA0E036F020EA7
