:020000040000FA
:0400000061EF00F0BC
:060008005E8245EFCFF01F
:100018005E80D8CF58F1E8CF59F1E0CF5AF1FACF46
:100028005BF1FBCF5CF1D9CF5DF1DACF5EF1F3CFB5
:100038005FF1F4CF60F10E01C6B3CEA303D0C9ECD3
:10004800DDF027D0C5B7CDA703D089ECE0F021D0EB
:10005800C5B5CDA503D04DECC3F01BD0C6B5CEA514
:1000680003D06EECDCF015D0C5BDCDAD0DD001D8F8
:1000780010D00500FA6E01018651FD6E8751FE6EA3
:100088008851FF6EFA501200C8B3D0A302D06FECAB
:10009800DFF060C1F4FF5FC1F3FF5EC1DAFF5DC14D
:1000A800D9FF5CC1FBFF5BC1FAFF5AC1E0FF59C130
:0E00B800E8FF58C1D8FF5E901000A6EFD3F00D
:10E69600000000803F000020410000C84200007AD0
:10E6A6004400401C460050C3470024744980961815
:10E6B6004B20BCBE4C286B6E4EF9021550EC78AD63
:10E6C60060CAF249710000803FCDCCCC3D0AD72309
:10E6D6003C6F12833A17B7D138ACC52737BD37869A
:10E6E6003595BFD63377CC2B325F708930FFE6DBAA
:10E6F6002E08E53C1E6042A20D010000001000003D
:10E7060000000100000010000000000100000010E1
:10E7160000000000010000001000000000000000E2
:10E726000000005F00000000000000070007000076
:10E736000000147F147F14000000242A7F2A120090
:10E746000000231308646200000036495522500079
:10E75600000000050300000000001C22410000002C
:10E76600000041221C0000000000082A1C2A0800A4
:10E77600000008083E0808000000A0600000000035
:10E78600000008080808080000006060000000009B
:10E79600000020100804020000003E5149453E00DA
:10E7A600000000427F4000000000625149494600D7
:10E7B600000022414949360000001814127F10005B
:10E7C600000027454545390000003C4A49493000CC
:10E7D6000000017109050300000036494949360069
:10E7E6000000064949291E000000003636000000D8
:10E7F600000000AC6C00000000000814224100007C
:10E80600000014141414140000004122140800001F
:10E8160000000201510906000000324979413E001C
:10E8260000007E0909097E0000007F49494936003B
:10E8360000003E414141220000007F4141221C0070
:10E8460000007F494949410000007F09090901008C
:10E8560000003E414151720000007F0808087F0019
:10E866000000417F4100000000002040413F0100C0
:10E8760000007F081422410000007F404040400015
:10E8860000007F020C027F0000007F0408107F005A
:10E8960000003E4141413E0000007F090909060093
:10E8A60000003E4151215E0000007F091929460003
:10E8B6000000264949493200000001017F0101009C
:10E8C60000003F4040403F0000001F2040201F0046
:10E8D60000003F4038403F00000063140814630006
:10E8E6000000030478040300000061514945430019
:10E8F60000007F41410000000000020408102000D3
:10E90600000041417F0000000000040201020400F3
:10E91600000080808080800000000102040000006A
:10E92600000020545454780000007F4844443800C6
:10E9360000003844442800000000384444487F0062
:10E9460000003854545418000000087E09020000E4
:10E95600000018A4A4A47C0000007F08040478002A
:10E966000000007D00000000000080847D000000A3
:10E9760000007F10284400000000417F4000000096
:10E9860000007C041804780000007C08047C000069
:10E9960000003844443800000000FC24241800001D
:10E9A6000000182424FC00000000007C080400007D
:10E9B60000004854542400000000047F4400000076
:10E9C60000003C40407C000000001C2040201C0051
:10E9D60000003C4030403C00000044281028440021
:10E9E60000001CA0A07C000000004464544C4400BD
:10E9F60000000836410000000000007F0000000013
:10EA0600000041360800000000000201010201007A
:10EA1600000002050502000000010000000A0000D7
:10EA26000064000000E803000010270000A0860133
:10EA36000040420F008096980000E1F50500CA9A52
:10EA46003BB80EBC43202020202A49444E3F3A20A2
:10EA56005072696E7473206964656E746966696361
:10EA66006174696F6E20737472696E670A0D202077
:10EA7600202052657365743A204578656375746520
:10EA86007320736F6674776172652072657365743F
:10EA960020696E737472756374696F6E0A0D202037
:10EAA6002020436C6561723A20436C656172732065
:10EAB600746865207669727475616C20434F4D20C9
:10EAC600706F7274207465726D696E616C0A0D20C8
:10EAD60020202043757272656E74204D65617375D2
:10EAE60072656D656E74733F3A205072696E747309
:10EAF60020696E7374616E74616E656F75732073D1
:10EB0600797374656D206C6576656C20656C6563DC
:10EB160074726963616C206D6561737572656D658C
:10EB26006E74730A0D202020204465766963652083
:10EB36005374617475733F3A205072696E74732012
:10EB46006469676974616C206D6F6E69746F726950
:10EB56006E67206D6963726F636F6E74726F6C6C33
:10EB66006572206465766963652073746174757374
:10EB76000A0D202020204572726F72205374617432
:10EB860075733F205072696E747320696620616EDA
:10EB9600792073797374656D206661756C74732062
:10EBA60068617665206265656E2064657465637468
:10EBB60065640A0D20202020436C65617220554152
:10EBC6005254204572726F72733A20436C656172BB
:10EBD600732055415254206572726F7220666C61C3
:10EBE60067730A0D20202020436C6561722049322C
:10EBF60043204572726F72733A20436C656172737B
:10EC060020493243206572726F7220666C616773A9
:10EC16000A0D20202020436C656172204144432068
:10EC26004572726F72733A20436C6561727320414C
:10EC36004443206572726F7220666C6167730A0DB9
:10EC46002020202048656C703A204C69737473202C
:10EC5600617661696C61626C6520636F6D6D616E72
:10EC6600647320287468697320636F6D6D616E64C8
:10EC7600290A0D00202020202020202046697865C2
:10EC86006420566F6C7461676520526566657265AF
:10EC96006E6365204275666665722031206D65611A
:10ECA600737572656420617320252B2E336620569A
:10ECB6006F6C74732C2063616C6962726174656435
:10ECC60020666F72202B342E30393620566F6C74C6
:10ECD600730A0D00436F6D6D616E6473206172651A
:10ECE60020636173652073656E7369746976652C3C
:10ECF600206261636B73706163652069732073754D
:10ED060070706F727465642C20636F6D6D616E64D4
:10ED160020686973746F7279206973206E6F74202E
:10ED2600737570706F727465640A0D002020202060
:10ED360043616C6C2027436C6561722055415254C7
:10ED4600204572726F72732720746F20636C656141
:10ED56007220636F6D6D756E69636174696F6E7332
:10ED6600206572726F722873290A0D0020202020F8
:10ED76002020202043757272656E74202B35562034
:10ED8600537769746368696E672046726571756545
:10ED96006E6379206D656173757265642061732099
:10EDA600252B2E3166204D487A0A0D002020202082
:10EDB60043616C6C2027436C6561722049324320A5
:10EDC6004572726F72732720746F20636C6561726F
:10EDD60020636F6D6D756E69636174696F6E732004
:10EDE6006572726F722873290A0D00202020202078
:10EDF60020202043757272656E7420514920537726
:10EE060069746368696E67204672657175656E63BD
:10EE160079206D6561737572656420617320252B99
:10EE26002E3366206B487A0A0D00202020202020F1
:10EE360020204D6963726F636F6E74726F6C6C65C0
:10EE460072204469652054656D70657261747572CF
:10EE560065206D6561737572656420617320252B6D
:10EE66002E336620430A0D00202020204465766953
:10EE760063652073696C69636F6E2072657669736A
:10EE8600696F6E204944207265747269657665649F
:10EE96002066726F6D20666C6173683A2025632563
:10EEA6003033640A0D0053797374656D2070617296
:10EEB600616D657465727320616E64206166666952
:10EEC600726D617469766520726573706F6E7365B5
:10EED600732061707065617220696E206772656566
:10EEE6006E0A0D002020202054686520666F6C6C29
:10EEF6006F77696E67205573657220494473206881
:10EF0600617665206265656E2072657472696576E4
:10EF160065642066726F6D20666C6173683A0A0DCF
:10EF26000046696E69736865642074657374206D44
:10EF36006573736167652C20747970652027486551
:10EF46006C702720666F72206C697374206F662060
:10EF5600636F6D6D616E64730A0D0A0D00202020CB
:10EF660020202020205573657220494420576F7257
:10EF7600642025642028466C61736820616464728D
:10EF860065737320307832303030302558293A2076
:10EF96003078253034580A0D0020202020202020EB
:10EFA60020456C656374726963616C20496E707587
:10EFB6007420506F7765722063616C63756C617441
:10EFC600656420617320252B2E3366205761747487
:10EFD600730A0D0020202020514920776972656C44
:10EFE60065737320706F77657220636F6E766572D6
:10EFF600746572206861732066756C6C792063682D
:10F0060061726765642070686F6E650A0D00202066
:10F01600202020202020576972656C657373204F6D
:10F02600757470757420506F7765722063616C63B8
:10F03600756C6174656420617320252B2E33662000
:10F0460057617474730A0D000A0D48656C70206D63
:10F056006573736167657320616E64206E65757490
:10F0660072616C20726573706F6E73657320617068
:10F076007065617220696E2079656C6C6F770A0D18
:10F086000020202020202020202B355620436F6E84
:10F096007665727465722054656D706572617475FB
:10F0A6007265206D656173757265642061732025D4
:10F0B6002B2E336620430A0D00202020205468653D
:10F0C600206361757365206F6620746865206D6FB7
:10F0D600737420726563656E742064657669636512
:10F0E600207265736574207761733A2025730A0D63
:10F0F600002020202020202020514920436F6E76BA
:10F1060065727465722054656D706572617475728E
:10F1160065206D6561737572656420617320252BAA
:10F126002E336620430A0D005149204368617267F9
:10F1360065722077697468204469676974616C2018
:10F146004D6F6E69746F72696E672C206279204408
:10F15600726577204D6161746D616E0A0D00202025
:10F166002020446576696365206F6E2074696D653D
:10F176002073696E6365206C6173742072657365B4
:10F186007420636F6E646974696F6E2069732025DD
:10F19600730A0D00202020202020202051492063C2
:10F1A6006F6E7665727465722063757272656E74C1
:10F1B600206D6561737572656420617320252B2E41
:10F1C600336620416D70730A0D00202020204361B4
:10F1D6006C6C2027436C6561722041444320457264
:10F1E600726F72732720746F20636C6561722041A1
:10F1F6004443206572726F722873290A0D0020201D
:10F206002020202020202B31325620696E70757404
:10F216002063757272656E74206D656173757265B3
:10F226006420617320252B2E336620416D70730A8E
:10F236000D005149204368617267657220776974D1
:10F2460068204469676974616C204D6F6E69746FDC
:10F2560072696E670A0D426F6F7420436F6D706C32
:10F266006574650A0D002020202044657669636573
:10F2760020494420726574726965766564206672F9
:10F286006F6D20666C6173683A202573202830788C
:10F2960025303458290A0D00202020205468652086
:10F2A600666F6C6C6F77696E67206368616E6E65FA
:10F2B6006C732063617573656420616E20414443FD
:10F2C600206572726F723A0A0D00202020202020DD
:10F2D6002020416D6269656E742054656D7065729B
:10F2E6006174757265206D65617375726564206100
:10F2F6007320252B2E336620430A0D002020202064
:10F30600514920776972656C65737320706F7765F4
:10F316007220636F6E7665727465722069732063FE
:10F32600757272656E746C792025730A0D005379B7
:10F336007374656D204D6561737572656D656E7468
:10F34600732061742074696D65206F6620636F6D2C
:10F356006D616E642063616C6C3A0A0D000A0D43A0
:10F36600616C6C202748656C702720666F72206C74
:10F37600697374206F6620737570706F727465643C
:10F3860020636F6D6D616E64730A0D00202020206E
:10F3960054686520666F6C6C6F77696E67204932BA
:10F3A60043204572726F72732077657265206465BB
:10F3B6007465637465643A0A0D0020202020537931
:10F3C6007374656D20686173206265656E2063687D
:10F3D600617267696E6720612070686F6E6520666E
:10F3E6006F722025730A0D004572726F7273206169
:10F3F6006E64206E656761746976652072657370E8
:10F406006F6E7365732061707065617220696E201E
:10F416007265640A0D002020202053797374656D8F
:10F4260020456666696369656E63792063616C630E
:10F43600756C6174656420617320252E33662525FD
:10F446000A0D004469676974616C204D6F6E6974BA
:10F456006F72696E67204D6963726F636F6E747247
:10F466006F6C6C6572205374617475733A0A0D0083
:10F4760020202020202020202B3132562072616946
:10F486006C206D6561737572656420617320252B30
:10F496002E336620566F6C74730A0D0043617573C4
:10F4A60065206F66206D6F737420726563656E7478
:10F4B600206465766963652072657365742077617B
:10F4C600733A2025730A0D002020202020202020BA
:10F4D6002B3556207261696C206D65617375726596
:10F4E6006420617320252B2E336620566F6C74734F
:10F4F6000A0D002020202020202020504F533520A8
:10F50600436F6E76657274657220697320696E202A
:10F516004275727374204D6F64650A0D0057696EEB
:10F52600646F77656420576174636820446F672051
:10F5360054696D65722056696F6C6174696F6E20CF
:10F546005265736574002020202020202020514918
:10F5560020436F6E76657274657220697320696EDA
:10F56600204275727374204D6F64650A0D00202069
:10F5760020202020202049324320416D6269656E9B
:10F58600742054656D702053656E736F72204572DA
:10F59600726F720A0D002020202020202020415664
:10F5A6005353206D65617375726564206173202500
:10F5B6002B2E336620566F6C74730A0D005149204A
:10F5C600576972656C65737320506F776572204357
:10F5D6006F6E76657273696F6E20456E61626C65DB
:10F5E600640A0D004D6561737572656D656E7420F4
:10F5F600726573706F6E736573206170706561728A
:10F6060020696E206379616E0A0D00546869732063
:10F6160074657874206861732061206D6167656E1A
:10F626007461206261636B67726F756E640A0D00A8
:10F63600556E737570706F72746564206F72206D8D
:10F6460069732D656E746572656420636F6D6D6197
:10F656006E640A0D002020202020202020493243FD
:10F6660020504F53352054656D702053656E736F6F
:10F6760072204572726F720A0D00546869732074A5
:10F686006578742068617320612079656C6C6F778A
:10F69600206261636B67726F756E640A0D002020CD
:10F6A600202053797374656D205377697463686994
:10F6B6006E67204672657175656E636965733A0A91
:10F6C6000D0054686973207465787420686173202E
:10F6D60061207768697465206261636B67726F7514
:10F6E6006E640A0D00546869732074657874206826
:10F6F6006173206120626C61636B206261636B677A
:10F70600726F756E640A0D005468697320746578AB
:10F716007420686173206120677265656E2062617E
:10F72600636B67726F756E640A0D0020202020518E
:10F7360049204368617267657220697320696E208B
:10F746004572726F722053746174650A0D00202031
:10F756002020202020204932432051492054656D25
:10F76600702053656E736F72204572726F720A0D48
:10F776000054686973207465787420686173206129
:10F7860020626C7565206261636B67726F756E646B
:10F796000A0D005468697320746578742068617373
:10F7A6002061206379616E206261636B67726F7599
:10F7B6006E640A0D00202020204D6963726F636F0E
:10F7C6006E74726F6C6C657220506172616D6574D7
:10F7D6006572733A0A0D005468697320746578740B
:10F7E60020686173206120726564206261636B67C3
:10F7F600726F756E640A0D002020202020202020C4
:10F80600493243204F4C454420446973706C6179FA
:10F81600204572726F720A0D00202020204E6F2044
:10F8260055415254206572726F722873292064659F
:10F836007465637465640A0D00202020204E6F20D5
:10F84600493243206572726F722873292064657489
:10F8560065637465640A0D00202020204E6F2041E8
:10F866004443206572726F7228732920646574653B
:10F87600637465640A0D00202020205553422055EC
:10F88600415254204572726F7220446574656374E8
:10F8960065640A0D005573657220696E7075742073
:10F8A6006170706561727320696E2077686974652E
:10F8B6000A0D0020202020414443206572726F7299
:10F8C600287329206465746563746564210A0D00D4
:10F8D60020202020202020204932432047656E65C5
:10F8E60072616C204572726F720A0D002020202012
:10F8F6002020202047656E6572616C2041444320BC
:10F906006572726F720A0D0054657374696E6720B2
:10F916007465787420617474726962757465733A7B
:10F926000A0D005468697320746578742069732021
:10F93600756E64657273636F7265640A0D002020CC
:10F94600202053797374656D2054656D70657261FE
:10F9560074757265733A0A0D005245534554204931
:10F966006E737472756374696F6E2045786563751E
:10F9760074656400546869732074657874206973CB
:10F98600206E6F726D616C0A0D0A0D005468697302
:10F996002074657874206973207265766572736564
:10F9A600640A0D005468697320746578742069735D
:10F9B60020626C696E6B696E670A0D005541525480
:10F9C600206572726F7228732920636C6561726597
:10F9D600640A0D005468697320746578742069732D
:10F9E600206D6167656E74610A0D0020202020532A
:10F9F600797374656D20566F6C74616765733A0A26
:10FA06000D002020202053797374656D2043757294
:10FA160072656E74733A0A0D004144432045727252
:10FA26006F7228732920636C65617265640A0D0024
:10FA3600493243206572726F7228732920636C65A0
:10FA4600617265640A0D0054686973207465787480
:10FA56002069732079656C6C6F770A0D00417661B9
:10FA6600696C61626C6520436F6D6D616E64733A9B
:10FA76000A0D0043757272656E74204D656173756B
:10FA860072656D656E74733F00537461636B2055C8
:10FA96006E646572666C6F77205265736574005488
:10FAA600686973207465787420697320626C616379
:10FAB6006B0A0D0054686973207465787420697345
:10FAC60020677265656E0A0D00537461636B204F83
:10FAD600766572666C6F772052657365740054683C
:10FAE6006973207465787420697320626F6C640A88
:10FAF6000D005468697320746578742069732062F8
:10FB06006C75650A0D0054686973207465787420F5
:10FB16006973206379616E0A0D00202020205379D5
:10FB26007374656D20506F7765723A0A0D005468DC
:10FB360069732074657874206973207265640A0D90
:10FB4600004D617374657220436C65617220526565
:10FB560073657400555342205541525420546573C1
:10FB6600740A0D0A0D00436C6561722055415254AA
:10FB7600204572726F727300303132333435363746
:10FB8600383941424344454600436C656172204919
:10FB96003243204572726F727300436C6561722046
:10FBA600414443204572726F727300766961205535
:10FBB60053422C202748656C702700514920436822
:10FBC600617267652054696D653A00434F4D205058
:10FBD6006F72742053657475703A0043617573656E
:10FBE600206F662052657365743A004469676974CC
:10FBF600616C204D6F6E69746F7200386269742C87
:10FC0600206E6F2070617269747900556E64656646
:10FC1600696E65642052657365740042726F776E13
:10FC2600204F757420526573657400446576696368
:10FC360065205374617475733F004368617267652C
:10FC4600205374617475733A0031207374702C20DC
:10FC56006E6F20666C6F7700524553455420457889
:10FC660065637574656400506F776572204F6E200A
:10FC760052657365740020202020202020204656DF
:10FC8600520A0D004572726F722053746174757357
:10FC96003F005149204368617267657220772F00E3
:10FCA6002B31325620566F6C746167653A00446595
:10FCB600762E204F6E2054696D653A00416D62695B
:10FCC600656E742054656D703A002B355620537757
:10FCD6002E20467265713A004F7574707574205007
:10FCE6006F7765723A002B31325620437572726512
:10FCF6006E743A00426F6F7420436F6D706C65745A
:10FD060065004D6F72652053657474696E67730084
:10FD160046756C6C79204368617267656400667528
:10FD26006C6C7920636861726765640052657669F8
:10FD360073696F6E2049443A002B355620566F6C16
:10FD4600746167653A0051492053772E20467265E3
:10FD5600713A00496E70757420506F7765723A007B
:10FD66004E6F74204368617267696E6700447265FE
:10FD760077204D6161746D616E002564206D696E3A
:10FD8600757465732C200050494331384C46323720
:10FD96004B34300050494331384C4634374B3430BD
:10FDA6000050494331384C4636374B343000537097
:10FDB60072696E672032303139004D6963726F2087
:10FDC60054656D703A0051492043757272656E74C0
:10FDD6003A00456666696369656E63793A0025642B
:10FDE600206D696E7574652C200050494331384684
:10FDF60032374B34300050494331384634374B3470
:10FE0600300050494331384636374B343000256C84
:10FE1600752E25362E366C75001B5B303B33373B13
:10FE260034306D004465766963652049443A005173
:10FE36004920456E61626C65640042757273742078
:10FE46004D6F6465002575207365636F6E6473007E
:10FE56002575206D696E7574657300256420796556
:10FE66006172732C2000256420686F7572732C20D4
:10FE7600002564207365636F6E64730053544F46A8
:10FE86002052657365740053545546205265736558
:10FE960074004D434C5220526573657400575744A5
:10FEA60054205265736574002B35562054656D7069
:10FEB6003A003131352E32206B6273002564207989
:10FEC6006561722C2000256420686F75722C2000F5
:10FED600256420646179732C200025642073656392
:10FEE6006F6E6400424F5220526573657400504F26
:10FEF6005220526573657400556E646566696E6559
:10FF06006400756E646566696E65640051492054C7
:10FF1600656D703A002575207965617273002575E7
:10FF260020686F75727300252B2E33666B487A0036
:10FF36002564206461792C20006368617267696EAC
:10FF46006700252B2E3366252500257520646179EB
:10FF56007300286E756C6C2900252B2E33664100C4
:10FF6600252B2E33664300252B2E33665600252B74
:10FF76002E3366570025632530336400322E354D07
:10FF8600487A002A49444E3F00436C656172004539
:10FF960072726F72006572726F72001B5B324A007A
:10FFA60048656C7000307825580049646C650069B6
:10FFB600646C65001B5B73001B5B75001B5B480074
:10FFC6001B5B4B00333000333100343100333200D9
:10FFD60034320033330034330033340034340033E6
:10FFE60035003435003336003436003337003437C5
:09FFF600001B5B0038003B000019
:020000040001F9
:100000006FEF8BF0250E8319D8B436D020EE02F0B6
:100010004C51D9264D51DA22DE50DE10DE10D8B414
:1000200014D020EE02F04C51D9264D51DA2202D8DC
:100030006FEF8BF00500FA6EDE50FD6EDE50FE6E47
:10004000DE50FF6EFA50835112004CC2D9FF4DC2F0
:10005000DAFFDECF52F2DDCF53F252C2D9FF53C2E4
:10006000DAFF83C2DFFF4CC2D9FF4DC2DAFFDE2ABE
:10007000000EDD226FEF8BF0000E7E6F000E7D6FA5
:10008000000E826F000E816F0AD00201818105D0BF
:100090000201818302D0020181854E4B4F2B4EC25B
:1000A000F6FF4FC2F7FF000EF86E0E0EF76403D096
:1000B0000800F55005D0F6CFE9FFF7CFEAFFEF5083
:1000C000200AD8B4E2D70B0AD8B4E2D71B0AD8B4B6
:1000D000E2D7020181B381914EC2F6FF4FC2F7FF12
:1000E000000EF86E0E0EF76403D00800F55005D030
:1000F000F6CFE9FFF7CFEAFFEF5072ECDEF0D8A0C1
:100100004CD0000E02017E6F000E7D6F7DC200F2AA
:100110007EC201F2000E0201036F0A0E026FB5ECFF
:10012000DDF000C27DF201C27EF2D00E0201526FFC
:10013000FF0E536F4EC2F6FF4FC2F7FF000EF86E70
:100140000E0EF76403D00800F55005D0F6CFE9FF96
:10015000F7CFEAFFEF500201546F556B525154270D
:100160005351552354517D2755517E234E4B4F2BD0
:100170004EC2F6FF4FC2F7FF000EF86E0E0EF76488
:1001800003D00800F55005D0F6CFE9FFF7CFEAFF1E
:10019000EF5072ECDEF0D8B0B9D74EC2F6FF4FC2C6
:1001A000F7FF000EF86E0E0EF76403D00800F5504E
:1001B00005D0F6CFE9FFF7CFEAFFEF502E0AD8A41B
:1001C00049D00201828D4E4B4F2B000E806F000EE6
:1001D0007F6F2AD07FC200F280C201F2000E0201BE
:1001E000036F0A0E026FB5ECDDF04EC2F6FF4FC290
:1001F000F7FF000EF86E0E0EF76403D00800F550FE
:1002000005D0F6CFE9FFF7CFEAFFEF500201526FBA
:1002100052510027000E0123D00E00257F6FFF0EE4
:100220000121806F4E4B4F2B4EC2F6FF4FC2F7FF9E
:10023000000EF86E0E0EF76403D00800F55005D0DE
:10024000F6CFE9FFF7CFEAFFEF5072ECDEF0D8A06F
:100250002AD1C0D7000E0201806F000E7F6F828905
:1002600022D1818920D1828559D1818F57D150C225
:10027000D9FF51C2DAFFDFCF52F2020EDE26DFCF06
:1002800053F2000EDD2252C2D9FF53C2DAFFDECF95
:100290006BF2DDCF6CF26B516C11D8A404D0580E08
:1002A0006B6FFF0E6C6F000E6E6F000E6D6F03D0E4
:1002B00002016D4B6E2B6D516B25526F6E516C218F
:1002C000536F52C2F6FF53C2F7FF000EF86E0E0EC8
:1002D000F76403D00800F55005D0F6CFE9FFF7CF5B
:1002E000EAFFEF500009D8A4E3D702017F51801143
:1002F000D8B40AD06D517F5D6E518059D8B004D00A
:100300007FC26DF280C26EF27D516D5D7E516E597D
:10031000D8B005D06D517D5F6E517E5B38D0000E38
:100320007E6F000E7D6F33D020EE02F04C51D92647
:100330004D51DA22DE50DE10DE10D8B413D020EE9C
:1003400002F04C51D9264D51DA2201D820D00500B7
:10035000FA6EDE50FD6EDE50FE6EDE50FF6EFA501D
:10036000200E12004CC2D9FF4DC2DAFFDECF52F28E
:10037000DDCF53F252C2D9FF53C2DAFF200EDF6E37
:100380004CC2D9FF4DC2DAFFDE2A000EDD22020187
:100390007D07D8A07E077D29C7E17E29D8B45BD030
:1003A000C3D720EE02F04C51D9264D51DA22DE504F
:1003B000DE10DE10D8B427D020EE02F04C51D92642
:1003C0004D51DA2201D81BD00500FA6EDE50FD6EC9
:1003D000DE50FE6EDE50FF6EFA506BC2F6FF6CC24E
:1003E000F7FF000EF86E0E0EF76403D00800F5500C
:1003F00005D0F6CFE9FFF7CFEAFFEF501200020178
:100400006B4B6C2B28D06BC2F6FF6CC2F7FF000E53
:10041000F86E4CC2D9FF4DC2DAFFDECF52F2DDCF0B
:1004200053F252C2D9FF53C2DAFF0E0EF76403D063
:100430000800F55005D0F6CFE9FFF7CFEAFFEF50FF
:10044000DF6E02016B4B6C2B4CC2D9FF4DC2DAFF41
:10045000DE2A000EDD226D07D8A06E076D29A1E10E
:100460006E29D8B46FEF8BF09CD750C2D9FF51C220
:10047000DAFFDFCF52F2020EDE26DFCF53F2000E9C
:10048000DD2252C2D9FF53C2DAFFDF50836F830EE1
:100490006B6F020E6C6F000E6E6F010E6D6F25D7C5
:1004A000C00E81133BD002014E51526F4F51536F1A
:1004B0004E4B4F2B52C2F6FF53C2F7FF000EF86EA1
:1004C0000E0EF76403D00800F55005D0F6CFE9FF13
:1004D000F7CFEAFFEF500201836F8351000AD8B4CF
:1004E0008DEF8BF0580AD8B4C0D63B0AD8B4BDD72C
:1004F000070AD8B413D0020AD8B4B5D60F0AD8B4B4
:100500000DD0050AD8B4ADD61F0AD8B4B0D6060AA5
:10051000D8B4C6D70D0AD8B4A8D6B9D7070E821555
:10052000D8B40FEF88F082A904D0000E806F060EB9
:100530007F6F50C2D9FF51C2DAFFDFCF52F2040EF3
:10054000DE26DFCF53F2000EDD2252C2D9FF53C2A6
:10055000DAFFDECF75F2DECF76F2DECF77F2DECFD6
:1005600078F278AF15D075C200F276C201F277C288
:1005700002F278C203F2ECECDCF000C275F201C2C8
:1005800076F202C277F203C278F2030E02018113FF
:10059000000E706F000E6F6F75C200F276C201F22E
:1005A00077C202F278C203F2000E046F000E056FEC
:1005B000000E066F000E076FEDECD3F00201D8B00D
:1005C00084D077357835820F6F6F706BFF0E702394
:1005D0006F07D8A070076FC200F270C201F2000E60
:1005E000036F030E026FB5ECDDF000C26FF201C2C3
:1005F00070F26FC206F270C207F2000E0201096FBC
:100600000A0E086F78ECD4F006C26FF207C270F2DF
:10061000020170AF03D06F07D8A070076F510008B8
:10062000ECECA8F027C271F228C272F229C273F270
:100630002AC274F271C20EF272C20FF273C210F2C9
:1006400074C211F275C212F276C213F277C214F2BA
:1006500078C215F2A8ECB0F00EC271F20FC272F2BD
:1006600010C273F211C274F271C200F272C201F2CE
:1006700073C202F274C203F2000E0201046F000E94
:10068000056F800E066F3F0E076F74ECCEF002010F
:10069000D8B004D06F07D8A0700717D071C200F28D
:1006A00072C201F273C202F274C203F2000E046F4E
:1006B000000E056F200E066F410E076F74ECCEF032
:1006C0000201D8A002D06F4B702B80BF06D08051A2
:1006D00021E10D0E7F5DD8B01DD075C234F276C217
:1006E00035F277C236F278C237F27F513AECBAF07F
:1006F00027C238F228C239F229C23AF22AC23BF2A2
:10070000A5ECB5F034C275F235C276F236C277F296
:1007100037C278F2020170BF06D0705131E10A0E83
:100720006F5DD8B02DD075C200F276C201F277C2EB
:1007300002F278C203F2000E046F000E056F000E85
:10074000066F000E076FEDECD3F00201D8B062D057
:1007500075C230F276C231F277C232F278C233F229
:1007600072ECD0F002013051311132113311D8B492
:1007700070BF50D0705104E1020E6F5DD8A04AD016
:1007800071C200F272C201F273C202F274C203F2C9
:100790005F0E046F700E056F890E066F400E076FB7
:1007A00074ECCEF00201D8B002D0F70E01D0F80EF2
:1007B0006F27FF0E70236F51ECECA8F027C271F287
:1007C00028C272F229C273F22AC274F275C200F210
:1007D00076C201F277C202F278C203F271C204F269
:1007E00072C205F273C206F274C207F28DECCCF04D
:1007F00000C279F201C27AF202C27BF203C27CF239
:10080000000E0201756F000E766F000E776F000EFE
:10081000786F3CD075C230F276C231F277C232F2D4
:1008200078C233F272ECD0F030C279F231C27AF28F
:1008300032C27BF233C27CF275C244F276C245F218
:1008400077C246F278C247F279C200F27AC201F268
:100850007BC202F27CC203F2000E19ECC9F000C2A6
:1008600048F201C249F202C24AF203C24BF291ECD1
:10087000D9F044C275F245C276F246C277F247C259
:1008800078F2000E0201706F000E6F6F010E836F21
:100890000A0E8319D8B41BD08351040D1F0EF32404
:1008A000F66EEA0EF420F76EF86A000EF8220900E0
:1008B000F550795D0900F5507A590900F5507B59DA
:1008C0000900F5507C59D8A002D0832BE1D7835181
:1008D0007F25526F000E8021536F6F515227705148
:1008E000532352517D5F53517E5B7F518011D8B4A9
:1008F00003D07D07D8A07E07030E8115526F000E2E
:100900008215536F52515311D8B403D07D07D8A02C
:100910007E0781A5F0D081A341D020EE02F04C519A
:10092000D9264D51DA22DE50DE10DE10D8B41DD0AB
:1009300081B104D0000E5C6F2B0E03D0000E5C6FF3
:100940002D0E5B6F20EE02F04C51D9264D51DA226C
:1009500001D891D00500FA6EDE50FD6EDE50FE6EBD
:10096000DE50FF6EFA505B51120081B104D0000ED0
:100970005E6F2B0E03D0000E5E6F2D0E5D6F4CC2AE
:10098000D9FF4DC2DAFFDECF52F2DDCF53F252C2B1
:10099000D9FF53C2DAFF5DC2DFFF2ED081A16BD039
:1009A00020EE02F04C51D9264D51DA22DE50DE10F5
:1009B000DE10D8B413D020EE02F04C51D9264D51A0
:1009C000DA2201D858D00500FA6EDE50FD6EDE50F6
:1009D000FE6EDE50FF6EFA50200E12004CC2D9FFA0
:1009E0004DC2DAFFDECF52F2DDCF53F252C2D9FF51
:1009F00053C2DAFF200EDF6E4CC2D9FF4DC2DAFFC0
:100A0000DE2A000EDD2237D020EE02F04C51D9262E
:100A10004D51DA22DE50DE10DE10D8B413D020EEB5
:100A200002F04C51D9264D51DA2201D820D00500D0
:100A3000FA6EDE50FD6EDE50FE6EDE50FF6EFA5036
:100A4000300E12004CC2D9FF4DC2DAFFDECF52F297
:100A5000DDCF53F252C2D9FF53C2DAFF300EDF6E40
:100A60004CC2D9FF4DC2DAFFDE2A000EDD220201A0
:100A70007D07D8A07E0702017EBF2FD17E51C4E141
:100A80007D05D8A02AD1C0D720EE02F04C51D9263E
:100A90004D51DA22DE50DE10DE10D8B413D020EE35
:100AA00002F04C51D9264D51DA2201D820D0050050
:100AB000FA6EDE50FD6EDE50FE6EDE50FF6EFA50B6
:100AC000200E12004CC2D9FF4DC2DAFFDECF52F227
:100AD000DDCF53F252C2D9FF53C2DAFF200EDF6ED0
:100AE0004CC2D9FF4DC2DAFFDE2A000EDD22020120
:100AF0007D07D8A07E077EBF05D07E51C5E17D056C
:100B0000D8B0C2D781A341D020EE02F04C51D926F3
:100B10004D51DA22DE50DE10DE10D8B41DD081B186
:100B200004D0000E606F2B0E03D0000E606F2D0EF0
:100B30005F6F20EE02F04C51D9264D51DA2201D8D8
:100B4000CCD00500FA6EDE50FD6EDE50FE6EDE503B
:100B5000FF6EFA505F51120081B104D0000E626F37
:100B60002B0E03D0000E626F2D0E616F4CC2D9FFA9
:100B70004DC2DAFFDECF52F2DDCF53F252C2D9FFBF
:100B800053C2DAFF61C2DFFFA1D081A1A6D020EE5F
:100B900002F04C51D9264D51DA22DE50DE10DE1023
:100BA000D8B413D020EE02F04C51D9264D51DA22A0
:100BB00001D893D00500FA6EDE50FD6EDE50FE6E59
:100BC000DE50FF6EFA50200E12004CC2D9FF4DC20B
:100BD000DAFFDECF52F2DDCF53F252C2D9FF53C259
:100BE000DAFF200E72D079C200F27AC201F27BC223
:100BF00002F27CC203F28351040D1F0EF324F66E41
:100C0000EA0EF420F76EF86A000EF8220900F5CF1C
:100C100004F20900F5CF05F20900F5CF06F20A004B
:100C2000F5CF07F2BBECD4F000C271F201C272F250
:100C300002C273F203C274F271C20DF272C20EF2FA
:100C400073C20FF274C210F20A0E0201116F000E8D
:100C5000126F000E136F000E146FF1ECD5F00DC281
:100C600071F20EC272F20FC273F210C274F202017C
:100C700020EE02F04C51D9264D51DA22DE50DE1022
:100C8000DE10D8B414D020EE02F04C51D9264D51CC
:100C9000DA2201D822D00500FA6EDE50FD6EDE5059
:100CA000FE6EDE50FF6EFA507151300F120071511E
:100CB000300F4CC2D9FF4DC2DAFFDECF52F2DDCF8A
:100CC00053F252C2D9FF53C2DAFFDF6E4CC2D9FFD2
:100CD0004DC2DAFFDE2A000EDD22020183078329DE
:100CE000D8B438D080D720EE02F04C51D9264D51DF
:100CF000DA22DE50DE10DE10D8B413D020EE02F07F
:100D00004C51D9264D51DA2201D820D00500FA6E77
:100D1000DE50FD6EDE50FE6EDE50FF6EFA50300E7D
:100D200012004CC2D9FF4DC2DAFFDECF52F2DDCF46
:100D300053F252C2D9FF53C2DAFF300EDF6E4CC2FB
:100D4000D9FF4DC2DAFFDE2A000EDD2202016F0755
:100D5000D8A0700770BF05D07051C5E16F05D8B03D
:100D6000C2D780BF09D0805104E1090E7F5DD8A0B1
:100D700003D0080E836F02D07FC283F283517F5F5E
:100D8000000E805B8351D8B433D020EE02F04C517A
:100D9000D9264D51DA22DE50DE10DE10D8B413D041
:100DA00020EE02F04C51D9264D51DA2201D820D044
:100DB0000500FA6EDE50FD6EDE50FE6EDE50FF6EF8
:100DC000FA502E0E12004CC2D9FF4DC2DAFFDECF10
:100DD00052F2DDCF53F252C2D9FF53C2DAFF2E0EC8
:100DE000DF6E4CC2D9FF4DC2DAFFDE2A000EDD22D3
:100DF00002018351ECECA8F027C256F228C257F248
:100E000029C258F22AC259F275C212F276C213F2FE
:100E100077C214F278C215F256C20EF257C20FF220
:100E200058C210F259C211F2A8ECB0F00EC230F262
:100E30000FC231F210C232F211C233F272ECD0F0B2
:100E400030C279F231C27AF232C27BF233C27CF222
:100E5000A4D079C200F27AC201F27BC202F27CC253
:100E600003F28351040D1F0EF324F66EEA0EF420F4
:100E7000F76EF86A000EF8220900F5CF04F20900B7
:100E8000F5CF05F20900F5CF06F20A00F5CF07F21B
:100E9000BBECD4F000C271F201C272F202C273F272
:100EA00003C274F271C20DF272C20EF273C20FF27B
:100EB00074C210F20A0E0201116F000E126F000EC2
:100EC000136F000E146FF1ECD5F00DC271F20EC26B
:100ED00072F20FC273F210C274F2020120EE02F03D
:100EE0004C51D9264D51DA22DE50DE10DE10D8B436
:100EF00014D020EE02F04C51D9264D51DA2201D8FF
:100F000022D00500FA6EDE50FD6EDE50FE6EDE5021
:100F1000FF6EFA507151300F12007151300F4CC2F8
:100F2000D9FF4DC2DAFFDECF52F2DDCF53F252C20B
:100F3000D9FF53C2DAFFDF6E4CC2D9FF4DC2DAFFD0
:100F4000DE2A000EDD2279C20DF27AC20EF27BC2D9
:100F50000FF27CC210F202018351040D1F0EF32424
:100F6000F66EEA0EF420F76EF86A000EF822090019
:100F7000F5CF11F20900F5CF12F20900F5CF13F207
:100F80000A00F5CF14F2F1ECD5F00DC279F20EC2E1
:100F90007AF20FC27BF210C27CF20201830783292E
:100FA000D8B438D056D720EE02F04C51D9264D5146
:100FB000DA22DE50DE10DE10D8B413D020EE02F0BC
:100FC0004C51D9264D51DA2201D820D00500FA6EB5
:100FD000DE50FD6EDE50FE6EDE50FF6EFA50300EBB
:100FE00012004CC2D9FF4DC2DAFFDECF52F2DDCF84
:100FF00053F252C2D9FF53C2DAFF300EDF6E4CC239
:10100000D9FF4DC2DAFFDE2A000EDD2202017F0782
:10101000D8A080077F518011D8B461D3C4D7C00E47
:101020008115526F000E8215536F52515311D8A47F
:1010300041D081A919D050C2D9FF51C2DAFFDFCF08
:1010400052F2040EDE26DFCF53F2000EDD2252C232
:10105000D9FF53C2DAFFDECF79F2DECF7AF2DECFEC
:101060007BF2DECF7CF219D050C2D9FF51C2DAFF39
:10107000DFCF52F2020EDE26DFCF53F2000EDD226A
:1010800052C2D9FF53C2DAFFDECF79F2DDCF7AF256
:10109000000E7ABFFF0E7B6F7C6F7CAF40D0030EDB
:1010A00081137C1F7B1F7A1F796D000E7A237B23AF
:1010B0007C2335D081A919D050C2D9FF51C2DAFFA3
:1010C000DFCF52F2040EDE26DFCF53F2000EDD2218
:1010D00052C2D9FF53C2DAFFDECF79F2DECF7AF205
:1010E000DECF7BF2DECF7CF21AD050C2D9FF51C2E4
:1010F000DAFFDFCF52F2020EDE26DFCF53F2000E10
:10110000DD2252C2D9FF53C2DAFFDECF54F2DDCF67
:1011100055F254C279F255C27AF27B6B7C6B7F51E7
:101120008011D8A44BD079517A117B117C11D8A4AD
:1011300045D07F4B802B42D0010E836F0A0E83195E
:10114000D8B447D08351040D1F0EF324F66EEA0E77
:10115000F420F76EF86A000EF8220900F550795D68
:101160000900F5507A590900F5507B590900F550EE
:101170007C59D8A02ED0832BE1D7010E836F080EA7
:101180008319D8B426D08351040DFF0EF324F66ED4
:10119000E60EF420F76EF86A000EF8220900F5500A
:1011A000795D0900F5507A590900F5507B5909001D
:1011B000F5507C59D8A00DD0832BE1D78151C00BBD
:1011C000000AD8B4B9D7800AD8B4D7D7400AD8B45F
:1011D000B3D78351526F536B7F51525D5351800A85
:1011E000546F8051800A5459D8B003D07FC283F223
:1011F00010D08351526F536B52517F5D8051800AE2
:10120000546F5351800A5459D8B003D083C27FF22F
:10121000806B7D517E11D8B40DD0030E8115526FB5
:10122000000E8215536F52515311D8B403D07D076D
:10123000D8A07E0782AD13D07D517F5D8051800A9A
:10124000526F7E51800A5259D8B005D07F517D5FD0
:1012500080517E5B04D0000E7E6F000E7D6F835147
:10126000526F536B7D51525D5351800A546F7E51C2
:10127000800A5459D8B005D083517D5F000E7E5B43
:1012800004D0000E7E6F000E7D6F81A5B5D081A3C6
:1012900041D020EE02F04C51D9264D51DA22DE50D9
:1012A000DE10DE10D8B41DD081B104D0000E646F02
:1012B0002B0E03D0000E646F2D0E636F20EE02F034
:1012C0004C51D9264D51DA2201D859D00500FA6E79
:1012D000DE50FD6EDE50FE6EDE50FF6EFA50635142
:1012E000120081B104D0000E666F2B0E03D0000EE9
:1012F000666F2D0E656F4CC2D9FF4DC2DAFFDECF8F
:1013000052F2DDCF53F252C2D9FF53C2DAFF65C2A7
:10131000DFFF2ED081A133D020EE02F04C51D92630
:101320004D51DA22DE50DE10DE10D8B413D020EE9C
:1013300002F04C51D9264D51DA2201D820D00500B7
:10134000FA6EDE50FD6EDE50FE6EDE50FF6EFA501D
:10135000200E12004CC2D9FF4DC2DAFFDECF52F28E
:10136000DDCF53F252C2D9FF53C2DAFF200EDF6E37
:101370004CC2D9FF4DC2DAFFDE2A000EDD22020187
:101380007D517E11D8B4A2D120EE02F04C51D92665
:101390004D51DA22DE50DE10DE10D8B413D020EE2C
:1013A00002F04C51D9264D51DA2201D820D0050047
:1013B000FA6EDE50FD6EDE50FE6EDE50FF6EFA50AD
:1013C000300E12004CC2D9FF4DC2DAFFDECF52F20E
:1013D000DDCF53F252C2D9FF53C2DAFF300EDF6EB7
:1013E0004CC2D9FF4DC2DAFFDE2A000EDD22020117
:1013F0007D07D8A07E07C4D77D517E11D8B43BD0DD
:1014000020EE02F04C51D9264D51DA22DE50DE108A
:10141000DE10D8B413D020EE02F04C51D9264D5135
:10142000DA2201D820D00500FA6EDE50FD6EDE50C3
:10143000FE6EDE50FF6EFA50200E12004CC2D9FF35
:101440004DC2DAFFDECF52F2DDCF53F252C2D9FFE6
:1014500053C2DAFF200EDF6E4CC2D9FF4DC2DAFF55
:10146000DE2A000EDD2202017D07D8A07E077D5115
:101470007E11D8A4C5D781A341D020EE02F04C51F3
:10148000D9264D51DA22DE50DE10DE10D8B41DD040
:1014900081B104D0000E686F2B0E03D0000E686F70
:1014A0002D0E676F20EE02F04C51D9264D51DA22F5
:1014B00001D80CD10500FA6EDE50FD6EDE50FE6ED6
:1014C000DE50FF6EFA506751120081B104D0000E59
:1014D0006A6F2B0E03D0000E6A6F2D0E696F4CC21F
:1014E000D9FF4DC2DAFFDECF52F2DDCF53F252C246
:1014F000D9FF53C2DAFF69C2DFFFE1D081A1E6D094
:1015000020EE02F04C51D9264D51DA22DE50DE1089
:10151000DE10D8B413D020EE02F04C51D9264D5134
:10152000DA2201D8D3D00500FA6EDE50FD6EDE500F
:10153000FE6EDE50FF6EFA50200E12004CC2D9FF34
:101540004DC2DAFFDECF52F2DDCF53F252C2D9FFE5
:1015500053C2DAFF200EDF6EB2D07FC252F280C2D9
:1015600053F2D89052375337D890523753371F0E13
:101570005225F66EEA0E5321F76EF86A000EF82235
:101580000900F5CF04F20900F5CF05F20900F5CF07
:1015900006F20A00F5CF07F279C200F27AC201F230
:1015A0007BC202F27CC203F2BBECD4F000C20DF2AB
:1015B00001C20EF202C20FF203C210F20A0E0201C1
:1015C000116F000E126F000E136F000E146FF1EC0E
:1015D000D5F002010D51300F836F45D079C200F272
:1015E0007AC201F27BC202F27CC203F27FC252F2E3
:1015F00080C253F2D89052375337D890523753376E
:10160000FF0E5225F66EE60E5321F76EF86A000EB5
:10161000F8220900F5CF04F20900F5CF05F2090020
:10162000F5CF06F20A00F5CF07F2BBECD4F00201C9
:1016300000510F0B5A6F7E0E5A25F66EF76AFB0E9D
:10164000F722F86A000EF8220800F5CF83F20BD0DB
:101650008151C00B000AD8B480D7800AD8B4BED755
:10166000400AD8B47AD720EE02F04C51D9264D5119
:10167000DA22DE50DE10DE10D8B413D020EE02F0F5
:101680004C51D9264D51DA2201D820D00500FA6EEE
:10169000DE50FD6EDE50FE6EDE50FF6EFA5083515E
:1016A00012004CC2D9FF4DC2DAFFDECF52F2DDCFBD
:1016B00053F252C2D9FF53C2DAFF83C2DFFF4CC2DA
:1016C000D9FF4DC2DAFFDE2A000EDD2202017F07BC
:1016D000D8A080077F29BCE18029D8A4B9D702010E
:1016E0004E51526F4F51536F4E4B4F2B52C2F6FF1C
:1016F00053C2F7FF000EF86E0E0EF76403D0080019
:10170000F55005D0F6CFE9FFF7CFEAFFEF50020121
:10171000836F8351D8A402EF80F0000E4D6F000E4E
:101720004C6F1200FBEF96F0250EA319D8B436D0FB
:1017300020EE02F06C51D9266D51DA22DE50DE1017
:10174000DE10D8B414D020EE02F06C51D9266D51C1
:10175000DA2202D8FBEF96F00500FA6EDE50FD6E3D
:10176000DE50FE6EDE50FF6EFA50A35112006CC0C8
:10177000D9FF6DC0DAFFDECF72F0DDCF73F072C03B
:10178000D9FF73C0DAFFA3C0DFFF6CC0D9FF6DC003
:10179000DAFFDE2A000EDD22FBEF96F0000E9E6FD0
:1017A000000E9D6F000EA26F000EA16F0AD0000107
:1017B000A18105D00001A18302D00001A1856E4B5B
:1017C0006F2B6EC0F6FF6FC0F7FF000EF86E0E0EA7
:1017D000F76403D00800F55005D0F6CFE9FFF7CF46
:1017E000EAFFEF50200AD8B4E2D70B0AD8B4E2D708
:1017F0001B0AD8B4E2D70001A1B3A1916EC0F6FFD5
:101800006FC0F7FF000EF86E0E0EF76403D00800ED
:10181000F55005D0F6CFE9FFF7CFEAFFEF50F3EC34
:10182000DEF0D8A04BD0000E00019E6F000E9D6F21
:101830009DC001F09EC002F0000E046E0A0E036E01
:1018400018ECDEF001C09DF002C09EF0D00E000149
:10185000726FFF0E736F6EC0F6FF6FC0F7FF000E62
:10186000F86E0E0EF76403D00800F55005D0F6CFE1
:10187000E9FFF7CFEAFFEF500001746F756B72510B
:1018800074277351752374519D2775519E236E4B98
:101890006F2B6EC0F6FF6FC0F7FF000EF86E0E0ED6
:1018A000F76403D00800F55005D0F6CFE9FFF7CF75
:1018B000EAFFEF50F3ECDEF0D8B0BAD76EC0F6FF17
:1018C0006FC0F7FF000EF86E0E0EF76403D008002D
:1018D000F55005D0F6CFE9FFF7CFEAFFEF502E0A1B
:1018E000D8A448D00001A28D6E4B6F2B000EA06FC4
:1018F000000E9F6F29D09FC001F0A0C002F0000E23
:10190000046E0A0E036E18ECDEF06EC0F6FF6FC0B8
:10191000F7FF000EF86E0E0EF76403D00800F550C6
:1019200005D0F6CFE9FFF7CFEAFFEF500001726F65
:1019300072510126000E0222D00E01249F6FFF0E6D
:101940000220A06F6E4B6F2B6EC0F6FF6FC0F7FFCB
:10195000000EF86E0E0EF76403D00800F55005D0A7
:10196000F6CFE9FFF7CFEAFFEF50F3ECDEF0D8A0B7
:101970002AD1C1D7000E0001A06F000E9F6FA2896F
:1019800022D1A18920D1A28559D1A18F57D170C070
:10199000D9FF71C0DAFFDFCF72F0020EDE26DFCF93
:1019A00073F0000EDD2272C0D9FF73C0DAFFDECF04
:1019B0008BF0DDCF8CF08B518C11D8A404D0580E55
:1019C0008B6FFF0E8C6F000E8E6F000E8D6F03D02D
:1019D00000018D4B8E2B8D518B25726F8E518C217A
:1019E000736F72C0F6FF73C0F7FF000EF86E0E0E35
:1019F000F76403D00800F55005D0F6CFE9FFF7CF24
:101A0000EAFFEF500009D8A4E3D700019F51A011CD
:101A1000D8B40AD08D519F5D8E51A059D8B004D052
:101A20009FC08DF0A0C08EF09D518D5D9E518E594E
:101A3000D8B005D08D519D5F8E519E5B38D0000E81
:101A40009E6F000E9D6F33D020EE02F06C51D926B0
:101A50006D51DA22DE50DE10DE10D8B413D020EE45
:101A600002F06C51D9266D51DA2201D820D0050040
:101A7000FA6EDE50FD6EDE50FE6EDE50FF6EFA50E6
:101A8000200E12006CC0D9FF6DC0DAFFDECF72F0FD
:101A9000DDCF73F072C0D9FF73C0DAFF200EDF6EA6
:101AA0006CC0D9FF6DC0DAFFDE2A000EDD22000116
:101AB0009D07D8A09E079D29C7E19E29D8B45BD079
:101AC000C3D720EE02F06C51D9266D51DA22DE50D8
:101AD000DE10DE10D8B427D020EE02F06C51D926EB
:101AE0006D51DA2201D81BD00500FA6EDE50FD6E72
:101AF000DE50FE6EDE50FF6EFA508BC0F6FF8CC0DB
:101B0000F7FF000EF86E0E0EF76403D00800F550D4
:101B100005D0F6CFE9FFF7CFEAFFEF501200000142
:101B20008B4B8C2B28D08BC0F6FF8CC0F7FF000EA0
:101B3000F86E6CC0D9FF6DC0DAFFDECF72F0DDCF7A
:101B400073F072C0D9FF73C0DAFF0E0EF76403D0D2
:101B50000800F55005D0F6CFE9FFF7CFEAFFEF50C8
:101B6000DF6E00018B4B8C2B6CC0D9FF6DC0DAFF90
:101B7000DE2A000EDD228D07D8A08E078D29A1E177
:101B80008E29D8B4FBEF96F09CD770C0D9FF71C0F6
:101B9000DAFFDFCF72F0020EDE26DFCF73F0000E29
:101BA000DD2272C0D9FF73C0DAFFDF50A36FA30E2E
:101BB0008B6F000E8C6F000E8E6F010E8D6F25D710
:101BC000C00EA1133BD000016E51726F6F51736F45
:101BD0006E4B6F2B72C0F6FF73C0F7FF000EF86EEE
:101BE0000E0EF76403D00800F55005D0F6CFE9FFDC
:101BF000F7CFEAFFEF500001A36FA351000AD8B45A
:101C000019EF97F0580AD8B4C0D63B0AD8B4BDD75C
:101C1000070AD8B413D0020AD8B4B5D60F0AD8B47C
:101C20000DD0050AD8B4ADD61F0AD8B4B0D6060A6E
:101C3000D8B4C6D70D0AD8B4A8D6B9D7070EA215FE
:101C4000D8B49CEF93F0A2A904D0000EA06F060EAA
:101C50009F6F70C0D9FF71C0DAFFDFCF72F0040E42
:101C6000DE26DFCF73F0000EDD2272C0D9FF73C015
:101C7000DAFFDECF95F0DECF96F0DECF97F0DECF45
:101C800098F098AF15D095C001F096C002F097C0BB
:101C900003F098C004F04BECDDF001C095F002C0F9
:101CA00096F003C097F004C098F0030E0001A11352
:101CB000000E906F000E8F6F95C001F096C002F07D
:101CC00097C003F098C004F0000E056E000E066E7B
:101CD000000E076E000E086E33ECD4F0D8B083D03F
:101CE000000197359835820F8F6F906BFF0E902310
:101CF0008F07D8A090078FC001F090C002F0000EAF
:101D0000046E030E036E18ECDEF001C08FF002C00B
:101D100090F08FC007F090C008F0000E0A6E0A0E17
:101D2000096EFDECD4F007C08FF008C090F0000100
:101D300090AF03D08F07D8A090078F51000806EC12
:101D4000ABF045C091F046C092F047C093F048C058
:101D500094F091C02CF092C02DF093C02EF094C05E
:101D60002FF095C030F096C031F097C032F098C097
:101D700033F0FCECB3F02CC091F02DC092F02EC0EB
:101D800093F02FC094F091C001F092C002F093C084
:101D900003F094C004F0000E056E000E066E800E77
:101DA000076E3F0E086EDDECCEF0D8B005D0000116
:101DB0008F07D8A0900717D091C001F092C002F011
:101DC00093C003F094C004F0000E056E000E066E82
:101DD000200E076E410E086EDDECCEF0D8A003D0C9
:101DE00000018F4B902B0001A0BF06D0A05121E134
:101DF0000D0E9F5DD8B01DD095C052F096C053F027
:101E000097C054F098C055F09F519BECBBF045C073
:101E100056F046C057F047C058F048C059F0B3ECF0
:101E2000B8F052C095F053C096F054C097F055C02A
:101E300098F0000190BF06D0905131E10A0E8F5DFD
:101E4000D8B02DD095C001F096C002F097C003F035
:101E500098C004F0000E056E000E066E000E076EB0
:101E6000000E086E33ECD4F0D8B064D095C04EF0BC
:101E700096C04FF097C050F098C051F0D0ECD0F021
:101E80004E504F1050105110D8A454D0000190BFA4
:101E900051D0905104E1020E8F5DD8A04BD091C07B
:101EA00001F092C002F093C003F094C004F05F0E02
:101EB000056E700E066E890E076E400E086EDDEC24
:101EC000CEF0D8B003D00001F70E02D00001F80E1A
:101ED0008F27FF0E90238F5106ECABF045C091F099
:101EE00046C092F047C093F048C094F095C001F00E
:101EF00096C002F097C003F098C004F091C005F0BE
:101F000092C006F093C007F094C008F082ECCDF0C8
:101F100001C099F002C09AF003C09BF004C09CF08D
:101F2000000E0001956F000E966F000E976F000E69
:101F3000986F3CD095C04EF096C04FF097C050F0CF
:101F400098C051F0D0ECD0F04EC099F04FC09AF04C
:101F500050C09BF051C09CF095C064F096C065F0F5
:101F600097C066F098C067F099C005F09AC006F077
:101F70009BC007F09CC008F0000E5DECCAF005C0E5
:101F800068F006C069F007C06AF008C06BF0B5ECF5
:101F9000D9F064C095F065C096F066C097F067C050
:101FA00098F0000E0001906F000E8F6F010EA36F6E
:101FB000A351040D1F0EF324F66EEA0EF420F76E03
:101FC000F86A000EF8220900F550995D0900F550F5
:101FD0009A590900F5509B590900F5509C59D8A011
:101FE00005D0A32B0A0EA319D8A4E2D7A3519F258D
:101FF000726F000EA021736F8F517227905173235F
:1020000072519D5F73519E5B9F51A011D8B403D054
:102010009D07D8A09E07030EA115726F000EA21592
:10202000736F72517311D8B403D09D07D8A09E0767
:10203000A1A5F0D0A1A341D020EE02F06C51D92689
:102040006D51DA22DE50DE10DE10D8B41DD0A1B101
:1020500004D0000E7C6F2B0E03D0000E7C6F2D0E73
:102060007B6F20EE02F06C51D9266D51DA2201D837
:1020700091D00500FA6EDE50FD6EDE50FE6EDE5031
:10208000FF6EFA507B511200A1B104D0000E7E6F9A
:102090002B0E03D0000E7E6F2D0E7D6F6CC0D9FF0E
:1020A0006DC0DAFFDECF72F0DDCF73F072C0D9FF02
:1020B00073C0DAFF7DC0DFFF2ED0A1A16BD020EE70
:1020C00002F06C51D9266D51DA22DE50DE10DE109E
:1020D000D8B413D020EE02F06C51D9266D51DA221B
:1020E00001D858D00500FA6EDE50FD6EDE50FE6E4F
:1020F000DE50FF6EFA50200E12006CC0D9FF6DC08A
:10210000DAFFDECF72F0DDCF73F072C0D9FF73C09B
:10211000DAFF200EDF6E6CC0D9FF6DC0DAFFDE2A59
:10212000000EDD2237D020EE02F06C51D9266D5121
:10213000DA22DE50DE10DE10D8B413D020EE02F02A
:102140006C51D9266D51DA2201D820D00500FA6EE3
:10215000DE50FD6EDE50FE6EDE50FF6EFA50300E29
:1021600012006CC0D9FF6DC0DAFFDECF72F0DDCF98
:1021700073F072C0D9FF73C0DAFF300EDF6E6CC02F
:10218000D9FF6DC0DAFFDE2A000EDD2200019D07B7
:10219000D8A09E0700019EBF2ED19E51C4E19D058F
:1021A000D8A029D1C0D720EE02F06C51D9266D51AC
:1021B000DA22DE50DE10DE10D8B413D020EE02F0AA
:1021C0006C51D9266D51DA2201D820D00500FA6E63
:1021D000DE50FD6EDE50FE6EDE50FF6EFA50200EB9
:1021E00012006CC0D9FF6DC0DAFFDECF72F0DDCF18
:1021F00073F072C0D9FF73C0DAFF200EDF6E6CC0BF
:10220000D9FF6DC0DAFFDE2A000EDD2200019D0736
:10221000D8A09E079EBF05D09E51C5E19D05D8B0B0
:10222000C2D7A1A341D020EE02F06C51D9266D5146
:10223000DA22DE50DE10DE10D8B41DD0A1B104D0F9
:10224000000E806F2B0E03D0000E806F2D0E7F6F5F
:1022500020EE02F06C51D9266D51DA2201D8CBD094
:102260000500FA6EDE50FD6EDE50FE6EDE50FF6E33
:10227000FA507F511200A1B104D0000E826F2B0ED4
:1022800003D0000E826F2D0E816F6CC0D9FF6DC020
:10229000DAFFDECF72F0DDCF73F072C0D9FF73C00A
:1022A000DAFF81C0DFFFA0D0A1A1A5D020EE02F00F
:1022B0006C51D9266D51DA22DE50DE10DE10D8B412
:1022C00013D020EE02F06C51D9266D51DA2201D8DC
:1022D00092D00500FA6EDE50FD6EDE50FE6EDE50CE
:1022E000FF6EFA50200E12006CC0D9FF6DC0DAFFED
:1022F000DECF72F0DDCF73F072C0D9FF73C0DAFFAA
:10230000200E71D099C001F09AC002F09BC003F07A
:102310009CC004F0A351040D1F0EF324F66EEA0EC8
:10232000F420F76EF86A000EF8220900F5CF05F0E8
:102330000900F5CF06F00900F5CF07F00A00F5CF48
:1023400008F03FECD5F001C091F002C092F003C05C
:1023500093F004C094F091C00EF092C00FF093C0BF
:1023600010F094C011F00A0E126E000E136E000EE3
:10237000146E000E156EBEECD6F00EC091F00FC0BC
:1023800092F010C093F011C094F0000120EE02F022
:102390006C51D9266D51DA22DE50DE10DE10D8B431
:1023A00014D020EE02F06C51D9266D51DA2201D8FA
:1023B00022D00500FA6EDE50FD6EDE50FE6EDE505D
:1023C000FF6EFA509151300F12009151300F6CC0D6
:1023D000D9FF6DC0DAFFDECF72F0DDCF73F072C0CF
:1023E000D9FF73C0DAFFDF6E6CC0D9FF6DC0DAFFB2
:1023F000DE2A000EDD220001A307A329D8B438D0BD
:1024000081D720EE02F06C51D9266D51DA22DE50D0
:10241000DE10DE10D8B413D020EE02F06C51D926B5
:102420006D51DA2201D820D00500FA6EDE50FD6E23
:10243000DE50FE6EDE50FF6EFA50300E12006CC0A1
:10244000D9FF6DC0DAFFDECF72F0DDCF73F072C05E
:10245000D9FF73C0DAFF300EDF6E6CC0D9FF6DC0DC
:10246000DAFFDE2A000EDD2200018F07D8A09007D8
:1024700090BF05D09051C5E18F05D8B0C2D7A0BF9D
:1024800009D0A05104E1090E9F5DD8A003D0080E29
:10249000A36F02D09FC0A3F0A3519F5F000EA05B6B
:1024A000A351D8B433D020EE02F06C51D9266D512F
:1024B000DA22DE50DE10DE10D8B413D020EE02F0A7
:1024C0006C51D9266D51DA2201D820D00500FA6E60
:1024D000DE50FD6EDE50FE6EDE50FF6EFA502E0EA8
:1024E00012006CC0D9FF6DC0DAFFDECF72F0DDCF15
:1024F00073F072C0D9FF73C0DAFF2E0EDF6E6CC0AE
:10250000D9FF6DC0DAFFDE2A000EDD220001A351E3
:1025100006ECABF045C076F046C077F047C078F0E7
:1025200048C079F095C030F096C031F097C032F0D5
:1025300098C033F076C02CF077C02DF078C02EF024
:1025400079C02FF0FCECB3F02CC04EF02DC04FF052
:102550002EC050F02FC051F0D0ECD0F04EC099F00A
:102560004FC09AF050C09BF051C09CF0A3D099C0CE
:1025700001F09AC002F09BC003F09CC004F0A3518C
:10258000040D1F0EF324F66EEA0EF420F76EF86ABF
:10259000000EF8220900F5CF05F00900F5CF06F08E
:1025A0000900F5CF07F00A00F5CF08F03FECD5F0B1
:1025B00001C091F002C092F003C093F004C094F007
:1025C00091C00EF092C00FF093C010F094C011F0C3
:1025D0000A0E126E000E136E000E146E000E156EB3
:1025E000BEECD6F00EC091F00FC092F010C093F088
:1025F00011C094F0000120EE02F06C51D9266D510B
:10260000DA22DE50DE10DE10D8B414D020EE02F054
:102610006C51D9266D51DA2201D822D00500FA6E0C
:10262000DE50FD6EDE50FE6EDE50FF6EFA509151B0
:10263000300F12009151300F6CC0D9FF6DC0DAFF1E
:10264000DECF72F0DDCF73F072C0D9FF73C0DAFF56
:10265000DF6E6CC0D9FF6DC0DAFFDE2A000EDD220E
:1026600099C00EF09AC00FF09BC010F09CC011F002
:102670000001A351040D1F0EF324F66EEA0EF420A0
:10268000F76EF86A000EF8220900F5CF12F0090083
:10269000F5CF13F00900F5CF14F00A00F5CF15F0CF
:1026A000BEECD6F00EC099F00FC09AF010C09BF0AF
:1026B00011C09CF00001A307A329D8B438D057D784
:1026C00020EE02F06C51D9266D51DA22DE50DE1078
:1026D000DE10D8B413D020EE02F06C51D9266D5123
:1026E000DA2201D820D00500FA6EDE50FD6EDE50F1
:1026F000FE6EDE50FF6EFA50300E12006CC0D9FF35
:102700006DC0DAFFDECF72F0DDCF73F072C0D9FF9B
:1027100073C0DAFF300EDF6E6CC0D9FF6DC0DAFF18
:10272000DE2A000EDD2200019F07D8A0A0079F51DE
:10273000A011D8B460D3C4D7C00EA115726F000E1B
:10274000A215736F72517311D8A441D0A1A919D0E9
:1027500070C0D9FF71C0DAFFDFCF72F0040EDE2641
:10276000DFCF73F0000EDD2272C0D9FF73C0DAFF35
:10277000DECF99F0DECF9AF0DECF9BF0DECF9CF07B
:1027800019D070C0D9FF71C0DAFFDFCF72F0020E2E
:10279000DE26DFCF73F0000EDD2272C0D9FF73C0DA
:1027A000DAFFDECF99F0DDCF9AF0000E9ABFFF0E70
:1027B0009B6F9C6F9CAF40D0030EA1139C1F9B1F6F
:1027C0009A1F996D000E9A239B239C2335D0A1A9B3
:1027D00019D070C0D9FF71C0DAFFDFCF72F0040EDC
:1027E000DE26DFCF73F0000EDD2272C0D9FF73C08A
:1027F000DAFFDECF99F0DECF9AF0DECF9BF0DECFAE
:102800009CF01AD070C0D9FF71C0DAFFDFCF72F030
:10281000020EDE26DFCF73F0000EDD2272C0D9FF7C
:1028200073C0DAFFDECF74F0DDCF75F074C099F0BD
:1028300075C09AF09B6B9C6B9F51A011D8A44BD094
:1028400099519A119B119C11D8A445D09F4BA02B54
:1028500042D0010EA36FA351040D1F0EF324F66E98
:10286000EA0EF420F76EF86A000EF8220900F5501F
:10287000995D0900F5509A590900F5509B590900D6
:10288000F5509C59D8A032D0A32B0A0EA319D8B466
:102890002DD0E1D7010EA36FA351040DFF0EF32439
:1028A000F66EE60EF420F76EF86A000EF8220900C4
:1028B000F550995D0900F5509A590900F5509B595A
:1028C0000900F5509C59D8A011D0A32B080EA319CC
:1028D000D8B40CD0E1D7A151C00B000AD8B4B9D7F5
:1028E000800AD8B4D7D7400AD8B4B3D7A351726FEF
:1028F000736B9F51725D7351800A746FA051800A8F
:102900007459D8B003D09FC0A3F010D0A351726FF8
:10291000736B72519F5DA051800A746F7351800A6E
:102920007459D8B003D0A3C09FF0A06B9D519E11E5
:10293000D8B40DD0030EA115726F000EA215736FDF
:1029400072517311D8B403D09D07D8A09E07A2ADD1
:1029500013D09D519F5DA051800A726F9E51800AD5
:102960007259D8B005D09F519D5FA0519E5B04D095
:10297000000E9E6F000E9D6FA351726F736B9D5181
:10298000725D7351800A746F9E51800A7459D8B079
:1029900005D0A3519D5F000E9E5B04D0000E9E6F7C
:1029A000000E9D6FA1A5B5D0A1A341D020EE02F0ED
:1029B0006C51D9266D51DA22DE50DE10DE10D8B40B
:1029C0001DD0A1B104D0000E846F2B0E03D0000ED9
:1029D000846F2D0E836F20EE02F06C51D9266D515D
:1029E000DA2201D859D00500FA6EDE50FD6EDE50B5
:1029F000FE6EDE50FF6EFA5083511200A1B104D07A
:102A0000000E866F2B0E03D0000E866F2D0E856F85
:102A10006CC0D9FF6DC0DAFFDECF72F0DDCF73F08E
:102A200072C0D9FF73C0DAFF85C0DFFF2ED0A1A12D
:102A300033D020EE02F06C51D9266D51DA22DE50EF
:102A4000DE10DE10D8B413D020EE02F06C51D9267F
:102A50006D51DA2201D820D00500FA6EDE50FD6EED
:102A6000DE50FE6EDE50FF6EFA50200E12006CC07B
:102A7000D9FF6DC0DAFFDECF72F0DDCF73F072C028
:102A8000D9FF73C0DAFF200EDF6E6CC0D9FF6DC0B6
:102A9000DAFFDE2A000EDD2200019D519E11D8B41E
:102AA000A1D120EE02F06C51D9266D51DA22DE5010
:102AB000DE10DE10D8B413D020EE02F06C51D9260F
:102AC0006D51DA2201D820D00500FA6EDE50FD6E7D
:102AD000DE50FE6EDE50FF6EFA50300E12006CC0FB
:102AE000D9FF6DC0DAFFDECF72F0DDCF73F072C0B8
:102AF000D9FF73C0DAFF300EDF6E6CC0D9FF6DC036
:102B0000DAFFDE2A000EDD2200019D07D8A09E0715
:102B1000C4D79D519E11D8B43BD020EE02F06C5129
:102B2000D9266D51DA22DE50DE10DE10D8B413D073
:102B300020EE02F06C51D9266D51DA2201D820D056
:102B40000500FA6EDE50FD6EDE50FE6EDE50FF6E4A
:102B5000FA50200E12006CC0D9FF6DC0DAFFDECF34
:102B600072F0DDCF73F072C0D9FF73C0DAFF200EB0
:102B7000DF6E6CC0D9FF6DC0DAFFDE2A000EDD22E9
:102B800000019D07D8A09E079D519E11D8A4C5D7CE
:102B9000A1A341D020EE02F06C51D9266D51DA226A
:102BA000DE50DE10DE10D8B41DD0A1B104D0000E6E
:102BB000886F2B0E03D0000E886F2D0E876F20EECE
:102BC00002F06C51D9266D51DA2201D80BD10500E3
:102BD000FA6EDE50FD6EDE50FE6EDE50FF6EFA5075
:102BE00087511200A1B104D0000E8A6F2B0E03D0C2
:102BF000000E8A6F2D0E896F6CC0D9FF6DC0DAFF91
:102C0000DECF72F0DDCF73F072C0D9FF73C0DAFF90
:102C100089C0DFFFE0D0A1A1E5D020EE02F06C5129
:102C2000D9266D51DA22DE50DE10DE10D8B413D072
:102C300020EE02F06C51D9266D51DA2201D8D2D0A3
:102C40000500FA6EDE50FD6EDE50FE6EDE50FF6E49
:102C5000FA50200E12006CC0D9FF6DC0DAFFDECF33
:102C600072F0DDCF73F072C0D9FF73C0DAFF200EAF
:102C7000DF6EB1D09FC072F0A0C073F0D8907237F1
:102C80007337D890723773371F0E7225F66EEA0EBF
:102C90007321F76EF86A000EF8220900F5CF05F0EF
:102CA0000900F5CF06F00900F5CF07F00A00F5CFCF
:102CB00008F099C001F09AC002F09BC003F09CC0DC
:102CC00004F03FECD5F001C00EF002C00FF003C0DD
:102CD00010F004C011F00A0E126E000E136E000EFA
:102CE000146E000E156EBEECD6F00E50300F0001C3
:102CF000A36F45D099C001F09AC002F09BC003F0C9
:102D00009CC004F09FC072F0A0C073F0D8907237DE
:102D10007337D89072377337FF0E7225F66EE60E52
:102D20007321F76EF86A000EF8220900F5CF05F05E
:102D30000900F5CF06F00900F5CF07F00A00F5CF3E
:102D400008F03FECD5F001500F0B00017A6F7E0EBA
:102D50007A25F66EF76AFB0EF722F86A000EF82263
:102D60000800F5CFA3F00BD0A151C00B000AD8B4D6
:102D700081D7800AD8B4BED7400AD8B47BD720EE1A
:102D800002F06C51D9266D51DA22DE50DE10DE10D1
:102D9000D8B413D020EE02F06C51D9266D51DA224E
:102DA00001D820D00500FA6EDE50FD6EDE50FE6EBA
:102DB000DE50FF6EFA50A35112006CC0D9FF6DC0F7
:102DC000DAFFDECF72F0DDCF73F072C0D9FF73C0CF
:102DD000DAFFA3C0DFFF6CC0D9FF6DC0DAFFDE2AC7
:102DE000000EDD2200019F07D8A0A0079F29BCE1AB
:102DF000A029D8A4B9D700016E51726F6F51736FBB
:102E00006E4B6F2B72C0F6FF73C0F7FF000EF86EAB
:102E10000E0EF76403D00800F55005D0F6CFE9FF99
:102E2000F7CFEAFFEF500001A36FA351D8A494EFAE
:102E30008BF0000E6D6F000E6C6F1200FBEF9EF0BA
:102E4000000EB66FBA0E036F020E046F980E056F78
:102E5000FC0E066F49ECD9F0CB0E0201036F020E97
:102E6000046FF10E056FFB0E066F49ECD9F0DC0E16
:102E70000201036F020E046FE10E056FFB0E066F79
:102E800049ECD9F0ED0E0201036F020E046FFE5102
:102E90001CECDDF000C205F201C206F249ECD9F0EB
:102EA000FDECCAF0010E0201B76F030EFF6F1200B6
:102EB000000EB66FBA0E036F020E046F2A0E056F76
:102EC000FE0E066F49ECD9F0DD0E0201846F030E91
:102ED000856FAB0E866FFF0E876FC3ECDEF00BC203
:102EE00088F20CC289F26DECD9F0CB0E0201036FAF
:102EF000020E046FDD0E056F030E066F49ECD9F06C
:102F0000DC0E0201036F020E046F320E056FFD0E20
:102F1000066F49ECD9F0EE0E0201846F030E856F47
:102F20007B0E866FFF0E876FC3ECDBF00201976F9D
:102F3000410E9725886F896B000E892305ECDEF022
:102F40000201986F98518A6F8B6B6DECD9F0ED0E82
:102F50000201036F020E046FEE0E056F030E066F83
:102F600049ECD9F0FDECCAF0020E9DD7000EB66F09
:102F7000BA0E036F020E046FD10E056FFB0E066FC3
:102F800049ECD9F0CB0E0201036F020E046FB80EAC
:102F9000056FFE0E066F49ECD9F0DC0E0201036FDF
:102FA000020E046F010E056FFC0E066F49ECD9F09E
:102FB000ED0E0201036F020E046F4F0E056FFC0E43
:102FC000066F49ECD9F0FDECCAF0030E6CD7000E89
:102FD000B66FBA0E036F020E046FFA0E056FFC0E89
:102FE000066F49ECD9F0CB0E0201036F020E046F9D
:102FF000350E056FFE0E066F49ECD9F0DC0E0201AE
:10300000036F020E046F080E056FFD0E066F49EC8C
:10301000D9F0ED0E0201036F020E046FB10E056FC1
:10302000FB0E066F49ECD9F0FDECCAF0040E3BD75D
:10303000000EB66FBA0E036F020E046F400E056FDE
:10304000FC0E066F49ECD9F0CB0E0201036F020EA5
:10305000046FEE0E056FFD0E066F49ECD9F0DC0E25
:103060000201036F020E046F7EECD7F000C205F27E
:1030700001C206F249ECD9F0ED0E0201036F020E17
:10308000046FEE0E056FFD0E066F49ECD9F0FDECF6
:10309000CAF0040E0201B76F010EFF6F1200000E9E
:1030A000B66FBA0E036F020E046FA60E056FFC0E0C
:1030B000066F49ECD9F0CB0E0201846F020E856FCA
:1030C0006D0E866FFF0E876FEAC088F2EBC089F243
:1030D000ECC08AF2EDC08BF26DECD9F0DC0E02018F
:1030E000036F020E046FEE0E056FFD0E066F49ECC6
:1030F000D9F0ED0E0201036F020E046FEE0E056FA4
:10310000FD0E066F49ECD9F0FDECCAF0050EC2D7F2
:10311000000EB66FBA0E036F020E046F3F0E056FFE
:10312000FD0E066F49ECD9F0CB0E0201846F020E42
:10313000856F6D0E866FFF0E876FE6C088F2E7C061
:1031400089F2E8C08AF2E9C08BF26DECD9F0DC0EAE
:103150000201036F020E046FEE0E056FFD0E066F87
:1031600049ECD9F0ED0E0201036F020E046FEE0E72
:10317000056FFD0E066F49ECD9F0FDECCAF0060EA6
:1031800089D7000EB66FBA0E036F020E046FEC0EF5
:10319000056FFC0E066F49ECD9F0CB0E0201846F6F
:1031A000020E856F5F0E866FFF0E876FEEC088F28E
:1031B000EFC089F2F0C08AF2F1C08BF26DECD9F069
:1031C000DC0E0201036F020E046FEE0E056FFD0EA2
:1031D000066F49ECD9F0ED0E0201036F020E046F89
:1031E000EE0E056FFD0E066F49ECD9F0FDECCAF04E
:1031F000070E50D7000EB66FBA0E036F020E046FA3
:10320000CC0E056FFD0E066F49ECD9F0CB0E020116
:10321000846F020E856F5F0E866FFF0E876FF2C0A0
:1032200088F2F3C089F2F4C08AF2F5C08BF26DEC3B
:10323000D9F0DC0E0201036F020E046FEE0E056F73
:10324000FD0E066F49ECD9F0ED0E0201036F020E80
:10325000046FEE0E056FFD0E066F49ECD9F0FDEC24
:10326000CAF0080E17D7000EB66FBA0E036F020E23
:10327000046F590E056FFD0E066F49ECD9F0CB0EA9
:103280000201846F020E856F740E866FFF0E876FCA
:10329000B9C088F2BAC089F2BBC08AF2BCC08BF256
:1032A0006DECD9F0DC0E0201036F020E046FEE0E1E
:1032B000056FFD0E066F49ECD9F0ED0E0201036FAC
:1032C000020E046FEE0E056FFD0E066F49ECD9F08D
:1032D000FDECCAF0090EDED6000EB66FBA0E036F13
:1032E000020E046FDE0E056FFC0E066F49ECD9F07E
:1032F000CB0E0201846F020E856F740E866FFF0E77
:10330000876FBDC088F2BEC089F2BFC08AF2C0C05C
:103310008BF26DECD9F0DC0E0201036F020E046F2C
:10332000EE0E056FFD0E066F49ECD9F0ED0E0201B1
:10333000036F020E046FEE0E056FFD0E066F49EC73
:10334000D9F0FDECCAF00A0EA5D6000EB66FBA0E83
:10335000036F020E046FD80E056FFD0E066F49EC69
:10336000D9F0CB0E0201846F020E856F480E866F76
:10337000FF0E876FC1C088F2C2C089F2C3C08AF253
:10338000C4C08BF26DECD9F0DC0E0201036F020EAB
:10339000046FEE0E056FFD0E066F49ECD9F0ED0ED1
:1033A0000201036F020E046FEE0E056FFD0E066F35
:1033B00049ECD9F0FDECCAF00B0E6CD6000EB66FDE
:1033C000BA0E036F020E046F120E056FFF0E066F2A
:1033D00049ECD9F0CB0E0201846F020E856F660EA8
:1033E000866FFF0E876F9CC188F29DC189F29EC1D6
:1033F0008AF29FC18BF26DECD9F0DC0E0201036FF3
:10340000020E046FEE0E056FFD0E066F49ECD9F04B
:10341000ED0E0201036F020E046FEE0E056FFD0E3E
:10342000066F49ECD9F0FDECCAF00C0E33D6000E55
:10343000B66FBA0E036F020E046FAE0E056FFE0E6E
:10344000066F49ECD9F0CB0E0201846F020E856F36
:10345000660E866FFF0E876FA0C188F2A1C189F248
:10346000A2C18AF2A3C18BF26DECD9F0DC0E02018D
:10347000036F020E046FEE0E056FFD0E066F49EC32
:10348000D9F0ED0E0201036F020E046FEE0E056F10
:10349000FD0E066F49ECD9F0FDECCAF00D0EFAD521
:1034A000000EB66FBA0E036F020E046FC20E056FE8
:1034B000FC0E066F49ECD9F0CB0E0201846F020EB0
:1034C000856F660E866FFF0E876FA4C188F2A5C157
:1034D00089F2A6C18AF2A7C18BF26DECD9F0DC0E9D
:1034E0000201036F020E046FEE0E056FFD0E066FF4
:1034F00049ECD9F0ED0E0201036F020E046FEE0EDF
:10350000056FFD0E066F49ECD9F0FDECCAF00E0E0A
:10351000C1D5000EB66FBA0E036F020E046FC00E57
:10352000056FFD0E066F49ECD9F0CB0E0201846FDA
:10353000020E856F660E866FFF0E876FF6C088F2EB
:10354000F7C089F2F8C08AF2F9C08BF26DECD9F0BD
:10355000DC0E0201036F020E046FEE0E056FFD0E0E
:10356000066F49ECD9F0ED0E0201036F020E046FF5
:10357000EE0E056FFD0E066F49ECD9F0FDECCAF0BA
:103580000F0E88D5000EB66FBA0E036F020E046FD1
:10359000D00E056FFC0E066F49ECD9F00101955174
:1035A000D8B404D0030E9519D8A40CD0CB0E0201C8
:1035B000036F020E046F400E056FFE0E066F49EC9E
:1035C000D9F00BD0CB0E0201036F020E046F820EF6
:1035D000056FFF0E066F49ECD9F0DC0E0201036F98
:1035E000020E046FEE0E056FFD0E066F49ECD9F06A
:1035F000ED0E0201036F020E046FEE0E056FFD0E5D
:10360000066F49ECD9F0FDECCAF0100E43D5000E60
:10361000B66FBA0E036F020E046F4C0E056FFD0EEF
:10362000066F49ECD9F001019551D8B404D0030ECE
:103630009519D8A40CD0CB0E0201036F020E046FB3
:10364000400E056FFE0E066F49ECD9F025D0CB0E6B
:103650000201846F020E856F2D0E866FFF0E876F3D
:1036600068C100F269C101F26AC102F26BC103F2E2
:10367000000E046F000E056F7A0E066F440E076F82
:1036800040ECBEF000C288F201C289F202C28AF2A6
:1036900003C28BF26DECD9F0DC0E0201036F020E57
:1036A000046FEE0E056FFD0E066F49ECD9F0ED0EBE
:1036B0000201036F020E046FEE0E056FFD0E066F22
:1036C00049ECD9F0FDECCAF0110EE4D4000EB66F4F
:1036D000BA0E036F020E046FB40E056FFC0E066F78
:1036E00049ECD9F0800E0201AE5D330EAF59E10E08
:1036F000B059010EB159D8A04ED0CB0E846F020E36
:10370000856F1B0E866FFF0E876FAEC20DF2AFC2C4
:103710000EF2B0C20FF2B1C210F204ECDDF0020101
:10372000976F9751886F896B6DECD9F0DC0E0201B1
:10373000846F020E856F500E866FFF0E876FAEC2CC
:103740000DF2AFC20EF2B0C20FF2B1C210F25EECD7
:10375000D3F00201976F9751886F896B6DECD9F0A8
:10376000ED0E0201846F020E856F240E866FFF0E30
:10377000876FAEC20DF2AFC20EF2B0C20FF2B1C28D
:1037800010F2FCECCDF00201976F9751886F896BB6
:103790006DECD9F025D1B15108E1800EAE5D510E2E
:1037A000AF59010EB059D8A04ED0CB0E846F020E87
:1037B000856F500E866FFF0E876FAEC20DF2AFC2DF
:1037C0000EF2B0C20FF2B1C210F25EECD3F0020101
:1037D000976F9751886F896B6DECD9F0DC0E020101
:1037E000846F020E856F240E866FFF0E876FAEC248
:1037F0000DF2AFC20EF2B0C20FF2B1C210F2FCEC89
:10380000CDF00201976F9751886F896B6DECD9F0FD
:10381000ED0E0201846F020E856F560E866FFE0E4E
:10382000876FAEC20DF2AFC20EF2B0C20FF2B1C2DC
:1038300010F271ECC8F00201976F9751886F896B95
:103840006DECD9F0CDD0B151B01106E1100EAE5DE6
:103850000E0EAF59D8A04ED0CB0E846F020E856FDE
:10386000240E866FFF0E876FAEC20DF2AFC20EF24E
:10387000B0C20FF2B1C210F2FCECCDF00201976FB2
:103880009751886F896B6DECD9F0DC0E0201846F63
:10389000020E856F560E866FFE0E876FAEC20DF25A
:1038A000AFC20EF2B0C20FF2B1C210F271ECC8F0AA
:1038B0000201976F9751886F896B6DECD9F0ED0E0F
:1038C0000201846F020E856F4B0E866FFE0E876FAE
:1038D000AEC20DF2AFC20EF2B0C20FF2B1C210F220
:1038E000B4ECC7F00201976F9751886F896B6DEC4C
:1038F000D9F076D0B151B011AF1104E13C0EAE5DFC
:10390000D8A03FD0CB0E846F020E856F560E866F07
:10391000FE0E876FAEC20DF2AFC20EF2B0C20FF252
:10392000B1C210F271ECC8F00201976F9751886F25
:10393000896B6DECD9F0DC0E0201846F020E856F8D
:103940004B0E866FFE0E876FAEC20DF2AFC20EF247
:10395000B0C20FF2B1C210F2B4ECC7F00201976F1F
:103960009751886F896B6DECD9F0ED0E0201036FF2
:10397000020E046FEE0E056FFD0E066F49ECD9F0D6
:103980002FD0CB0E846F020E856F4B0E866FFE0E0E
:10399000876FAEC20DF2AFC20EF2B0C20FF2B1C26B
:1039A00010F2B4ECC7F00201976F9751886F896BE2
:1039B0006DECD9F0DC0E0201036F020E046FEE0E07
:1039C000056FFD0E066F49ECD9F0ED0E0201036F95
:1039D000020E046FEE0E056FFD0E066F49ECD9F076
:1039E000FDECCAF0120E4AEF98F0000EB66FBA0E58
:1039F000036F020E046FC10E056FFB0E066F49ECDC
:103A0000D9F00201B551B41106E1100EB25D0E0EEF
:103A1000B359D8A04ED0CB0E846F020E856F240E02
:103A2000866FFF0E876FB2C20DF2B3C20EF2B4C240
:103A30000FF2B5C210F2FCECCDF00201976F975176
:103A4000886F896B6DECD9F0DC0E0201846F020E79
:103A5000856F560E866FFE0E876FB2C20DF2B3C22F
:103A60000EF2B4C20FF2B5C210F271ECC8F002014E
:103A7000976F9751886F896B6DECD9F0ED0E02014D
:103A8000846F020E856F4B0E866FFE0E876FB2C27B
:103A90000DF2B3C20EF2B4C20FF2B5C210F2B4EC22
:103AA000C7F00201976F9751886F896B6DECD9F061
:103AB0009DD0B551B411B31104E13C0EB25DD8A054
:103AC0003FD0CB0E846F020E856F560E866FFE0EB2
:103AD000876FB2C20DF2B3C20EF2B4C20FF2B5C21A
:103AE00010F271ECC8F00201976F9751886F896BE3
:103AF0006DECD9F0DC0E0201846F020E856F4B0E67
:103B0000866FFE0E876FB2C20DF2B3C20EF2B4C260
:103B10000FF2B5C210F2B4ECC7F00201976F9751E3
:103B2000886F896B6DECD9F0ED0E0201036F020E08
:103B3000046FEE0E056FFD0E066F49ECD9F056D0FE
:103B4000B251B311B411B511D8A421D0CB0E036F6B
:103B5000020E046F660E056FFD0E066F49ECD9F07C
:103B6000DC0E0201036F020E046FEE0E056FFD0EF8
:103B7000066F49ECD9F0ED0E0201036F020E046FDF
:103B8000EE0E056FFD0E066F49ECD9F02FD0CB0E6F
:103B9000846F020E856F4B0E866FFE0E876FB2C26A
:103BA0000DF2B3C20EF2B4C20FF2B5C210F2B4EC11
:103BB000C7F00201976F9751886F896B6DECD9F050
:103BC000DC0E0201036F020E046FEE0E056FFD0E98
:103BD000066F49ECD9F0ED0E0201036F020E046F7F
:103BE000EE0E056FFD0E066F49ECD9F0FDECCAF044
:103BF000130E4AEF98F0000EB66FBA0E036F020E66
:103C0000046FE10E056FFB0E066F49ECD9F0CB0E89
:103C10000201036F020E046FEE0E056FFD0E066FBC
:103C200049ECD9F0DC0E0201036F020E046FFE5165
:103C30001CECDDF000C205F201C206F249ECD9F03D
:103C4000ED0E0201036F020E046FEE0E056FFD0E06
:103C5000066F49ECD9F0FDECCAF0140E0201B76F03
:103C6000FF691200000EB66FBA0E036F020E046FEA
:103C70002A0E056FFE0E066F49ECD9F0DD0E02012B
:103C8000846F030E856FAB0E866FFF0E876FC3ECDC
:103C9000DEF00BC288F20CC289F26DECD9F0CB0ECB
:103CA0000201036F020E046FDD0E056F030E066F37
:103CB00049ECD9F0DC0E0201036F020E046F320EE4
:103CC000056FFD0E066F49ECD9F0EE0E0201846F10
:103CD000030E856F7B0E866FFF0E876FC3ECDBF0E4
:103CE0000201976F410E9725886F896B000E89231B
:103CF00005ECDEF00201986F98518A6F8B6B6DECCA
:103D0000D9F0ED0E0201036F020E046FEE0E056F87
:103D1000030E066F49ECD9F0FDECCAF0150E9ED7E4
:103D2000000EB66FBA0E036F020E046FD10E056F50
:103D3000FB0E066F49ECD9F0CB0E0201036F020EA9
:103D4000046FB80E056FFE0E066F49ECD9F0DC0E5D
:103D50000201036F020E046F010E056FFC0E066F69
:103D600049ECD9F0ED0E0201036F020E046F4F0E05
:103D7000056FFC0E066F49ECD9F0FDECCAF0160E8B
:103D80006DD7000EB66FBA0E036F020E046F980E59
:103D9000056FFC0E066F49ECD9F0CB0E0201036FE4
:103DA000020E046FF10E056FFB0E066F49ECD9F0A1
:103DB000DC0E0201036F020E046F730E056FFD0E21
:103DC000066F49ECD9F0ED0E0201036F020E046F8D
:103DD000B40E056FFD0E066F49ECD9F0FDECCAF08C
:103DE000170E3CD7000EB66F1200000EB66F010E14
:103DF0000001C86F12000201B751000AD8B420EFC9
:103E000097F0010AD8B458EF97F0030AD8B4B6EF88
:103E100097F0010AD8B4E7EF97F0070AD8B418EF83
:103E200098F0010AD8B44FEF98F0030AD8B488EF9D
:103E300098F0010AD8B4C1EF98F00F0AD8B4FAEF9D
:103E400098F0010AD8B433EF99F0030AD8B46CEFB4
:103E500099F0010AD8B4A5EF99F0070AD8B4DEEFBB
:103E600099F0010AD8B417EF9AF0030AD8B450EFCA
:103E70009AF0010AD8B489EF9AF01F0AD8B4C2EFB9
:103E80009AF0010AD8B407EF9BF0030AD8B41ED405
:103E9000010AD8B4AAD5070AD8B4ADD6010AD8B455
:103EA000E1D6030AD8B43CD7010AD8B46AD70F0ABE
:103EB000D8B498D79AD7D0ECE0F05FCF78F06CEF19
:103EC000A3F0DCECDFF001C005F002C006F0076AE9
:103ED000086A000E5DECCAF005C02CF006C02DF09B
:103EE00007C02EF008C02FF00A0E306E280E316E7B
:103EF000A00E326E3B0E336EFCECB3F02CC0DEF045
:103F00002DC0DFF02EC0E0F02FC0E1F03F0EDED379
:103F10000A0E306E280E316EA00E326E3B0E336EDE
:103F2000DCECDFF001C005F002C006F0076A086AA9
:103F3000000E5DECCAF005C02CF006C02DF007C0E5
:103F40002EF008C02FF0FCECB3F02CC052F02DC0C6
:103F500053F02EC054F02FC055F0DEC056F0DFC035
:103F600057F0E0C058F0E1C059F0B3ECB8F052C0DF
:103F7000E2F053C0E3F054C0E4F055C0E5F06F0E3A
:103F8000136E120E146E830E156E400E166EE2C086
:103F900017F0E3C018F0E4C019F0E5C01AF0CAEC5D
:103FA000C0F013C0CDF014C0CEF015C0CFF016C0D5
:103FB000D0F0000E016E000E026EA00E036E400ED9
:103FC000046EE2C005F0E3C006F0E4C007F0E5C00F
:103FD00008F0DDECCEF0D8A014D0E2C001F0E3C0D0
:103FE00002F0E4C003F0E5C004F09A0E056E990EED
:103FF000066E790E076E400E086EDDECCEF0D8B07E
:1040000003D0010E0001C56F040E60D30A0E306E9E
:10401000280E316EA00E326E3B0E336ED2ECDFF006
:1040200001C005F002C006F0076A086A000E5DECE8
:10403000CAF005C02CF006C02DF007C02EF008C055
:104040002FF0FCECB3F02CC07BF02DC07CF02EC028
:104050007DF02FC07EF0DEC068F0DFC069F0E0C008
:104060006AF0E1C06BF0000E306E000E316E000E93
:10407000326E400E336E7BC02CF07CC02DF07DC0C4
:104080002EF07EC02FF0FCECB3F02CC064F02DC0FD
:1040900065F02EC066F02FC067F0B5ECD9F064C0B3
:1040A0007FF065C080F066C081F067C082F07FC09D
