:020000040000FA
:0400000051EF00F0CC
:060008005F8211EFD2F04F
:100018005F80D8CF58F1E8CF59F1E0CF5AF1FACF45
:100028005BF1FBCF5CF1D9CF5DF1DACF5EF1F3CFB5
:100038005FF1F4CF60F10E01C6B3CEA303D070EC2C
:10004800E1F017D0C5B7CDA703D030ECE4F011D05C
:10005800C5B5CDA503D03BECC6F00BD0C6B5CEA533
:1000680003D019ECE0F005D0C8B3D0A302D004EC5B
:10007800E3F060C1F4FF5FC1F3FF5EC1DAFF5DC169
:10008800D9FF5CC1FBFF5BC1FAFF5AC1E0FF59C150
:0E009800E8FF58C1D8FF5F901000D8EFD4F0F9
:10E42600000000803F000020410000C84200007A42
:10E436004400401C460050C3470024744980961887
:10E446004B20BCBE4C286B6E4EF9021550EC78ADD5
:10E4560060CAF249710000803FCDCCCC3D0AD7237B
:10E466003C6F12833A17B7D138ACC52737BD37860C
:10E476003595BFD63377CC2B325F708930FFE6DB1C
:10E486002E08E53C1E6042A20D01000000100000AF
:10E496000000010000001000000000010000001054
:10E4A6000000000001000000100000000000000055
:10E4B6000000005F000000000000000700070000E9
:10E4C6000000147F147F14000000242A7F2A120003
:10E4D60000002313086462000000364955225000EC
:10E4E600000000050300000000001C22410000009F
:10E4F600000041221C0000000000082A1C2A080017
:10E50600000008083E0808000000A06000000000A7
:10E51600000008080808080000006060000000000D
:10E52600000020100804020000003E5149453E004C
:10E53600000000427F400000000062514949460049
:10E54600000022414949360000001814127F1000CD
:10E55600000027454545390000003C4A494930003E
:10E5660000000171090503000000364949493600DB
:10E576000000064949291E0000000036360000004A
:10E58600000000AC6C0000000000081422410000EE
:10E596000000141414141400000041221408000092
:10E5A60000000201510906000000324979413E008F
:10E5B60000007E0909097E0000007F4949493600AE
:10E5C60000003E414141220000007F4141221C00E3
:10E5D60000007F494949410000007F0909090100FF
:10E5E60000003E414151720000007F0808087F008C
:10E5F6000000417F4100000000002040413F010033
:10E6060000007F081422410000007F404040400087
:10E6160000007F020C027F0000007F0408107F00CC
:10E6260000003E4141413E0000007F090909060005
:10E6360000003E4151215E0000007F091929460075
:10E646000000264949493200000001017F0101000E
:10E6560000003F4040403F0000001F2040201F00B8
:10E6660000003F4038403F00000063140814630078
:10E67600000003047804030000006151494543008B
:10E6860000007F4141000000000002040810200045
:10E69600000041417F000000000004020102040066
:10E6A60000008080808080000000010204000000DD
:10E6B600000020545454780000007F484444380039
:10E6C60000003844442800000000384444487F00D5
:10E6D60000003854545418000000087E0902000057
:10E6E600000018A4A4A47C0000007F08040478009D
:10E6F6000000007D00000000000080847D00000016
:10E7060000007F10284400000000417F4000000008
:10E7160000007C041804780000007C08047C0000DB
:10E7260000003844443800000000FC24241800008F
:10E736000000182424FC00000000007C08040000EF
:10E7460000004854542400000000047F44000000E8
:10E7560000003C40407C000000001C2040201C00C3
:10E7660000003C4030403C00000044281028440093
:10E7760000001CA0A07C000000004464544C44002F
:10E7860000000836410000000000007F0000000085
:10E7960000004136080000000000020101020100ED
:10E7A600000002050502000000010000000A00004A
:10E7B6000064000000E803000010270000A08601A6
:10E7C6000040420F008096980000E1F50500CA9AC5
:10E7D6003BB80EBC43202020202A49444E3F3A2015
:10E7E6005072696E7473206964656E7469666963D4
:10E7F6006174696F6E20737472696E670A0D2020EA
:10E80600202052657365743A204578656375746592
:10E816007320736F667477617265207265736574B1
:10E8260020696E737472756374696F6E0A0D2020A9
:10E836002020436C6561723A20436C6561727320D7
:10E84600746865207669727475616C20434F4D203B
:10E85600706F7274207465726D696E616C0A0D203A
:10E8660020202043757272656E74204D6561737544
:10E8760072656D656E74733F3A205072696E74737B
:10E8860020696E7374616E74616E656F7573207343
:10E89600797374656D206C6576656C20656C65634F
:10E8A60074726963616C206D6561737572656D65FF
:10E8B6006E74730A0D20202020456E61626C6520FF
:10E8C6004C697665204D6561737572656D656E740C
:10E8D600733A205072696E7473206120636F6E7490
:10E8E600696E756F75732073747265616D206F66DE
:10E8F600206D6561737572656D656E7420646174F3
:10E906006120746F20746865207465726D696E612C
:10E916006C0A0D20202020446576696365205374B7
:10E92600617475733F3A205072696E74732064691E
:10E93600676974616C206D6F6E69746F72696E675A
:10E94600206D6963726F636F6E74726F6C6C657243
:10E9560020646576696365207374617475730A0D46
:10E96600202020204572726F722053746174757373
:10E976003F205072696E747320696620616E79203B
:10E9860073797374656D206661756C747320686144
:10E996007665206265656E2064657465637465647A
:10E9A6000A0D20202020436C656172205541525487
:10E9B600204572726F72733A20436C6561727320E0
:10E9C60055415254206572726F7220666C6167738E
:10E9D6000A0D20202020436C6561722049324320B5
:10E9E6004572726F72733A20436C65617273204987
:10E9F6003243206572726F7220666C6167730A0D0E
:10EA060020202020436C65617220414443204572DA
:10EA1600726F72733A20436C65617273204144438E
:10EA2600206572726F7220666C6167730A0D202012
:10EA3600202048656C703A204C69737473206176A7
:10EA460061696C61626C6520636F6D6D616E647384
:10EA560020287468697320636F6D6D616E64290A7E
:10EA66000D00202020202020202046697865642083
:10EA7600566F6C74616765205265666572656E6374
:10EA860065204275666665722031206D6561737515
:10EA960072656420617320252B2E336620566F6CB9
:10EAA60074732C2063616C6962726174656420669C
:10EAB6006F72202B342E30393620566F6C74731BD0
:10EAC6005B4B0A0D00436F6D6D616E64732061725E
:10EAD6006520636173652073656E73697469766515
:10EAE6002C206261636B73706163652069732073A8
:10EAF6007570706F727465642C20636F6D6D616ED6
:10EB06006420686973746F7279206973206E6F74FC
:10EB160020737570706F727465640A0D0020202072
:10EB2600202020202043757272656E742051492082
:10EB3600537769746368696E672046726571756597
:10EB46006E6379206D6561737572656420617320EB
:10EB5600252B2E3366206B487A1B5B4B0A0D1B5BFD
:10EB66004B0A0D00202020204368617267652063F0
:10EB76006F6E73756D656420627920746865206CAC
:10EB86006F6164207768696C652063686172676984
:10EB96006E673A202573436F756C6F6D62731B5BEE
:10EBA6004B0A0D1B5B4B0A0D0020202020456E658D
:10EBB60072677920636F6E73756D65642062792064
:10EBC600746865206C6F6164207768696C65206382
:10EBD60068617267696E673A2025734A6F756C655E
:10EBE600731B5B4B0A0D1B5B4B0A0D00202020207C
:10EBF6002020202043757272656E74202B355620B6
:10EC0600537769746368696E6720467265717565C6
:10EC16006E6379206D65617375726564206173201A
:10EC2600252B2E3166204D487A1B5B4B0A0D0020A2
:10EC3600202020514920776972656C6573732070B6
:10EC46006F77657220636F6E766572746572206881
:10EC560061732066756C6C792063686172676564A0
:10EC66002070686F6E651B5B4B0A0D1B5B4B0A0DB4
:10EC7600002020202020202020576972656C6573B3
:10EC860073204F757470757420506F7765722063AA
:10EC9600616C63756C6174656420617320252B2E2D
:10ECA60033662057617474731B5B4B0A0D1B5B4BF9
:10ECB6000A0D0020202020202020204D6963726F3D
:10ECC600636F6E74726F6C6C657220446965205454
:10ECD600656D7065726174757265206D65617375B9
:10ECE60072656420617320252B2E336620431B5BDF
:10ECF6004B0A0D002020202043616C6C2027436CBA
:10ED06006561722055415254204572726F727327A5
:10ED160020746F20636C65617220636F6D6D756E14
:10ED260069636174696F6E73206572726F7228739E
:10ED3600290A0D002020202043616C6C2027436C9B
:10ED460065617220493243204572726F72732720C3
:10ED5600746F20636C65617220636F6D6D756E698B
:10ED6600636174696F6E73206572726F722873299E
:10ED76000A0D002020202020202020514920636FEA
:10ED86006E7665727465722063757272656E742034
:10ED96006D6561737572656420617320252B2E3352
:10EDA6006620416D70731B5B4B0A0D1B5B4B0A0D96
:10EDB600002020202020202020456C656374726985
:10EDC60063616C20496E70757420506F7765722090
:10EDD60063616C63756C6174656420617320252BB7
:10EDE6002E33662057617474731B5B4B0A0D00202B
:10EDF6002020204465766963652073696C69636FBA
:10EE06006E207265766973696F6E2049442072655B
:10EE1600747269657665642066726F6D20666C61D2
:10EE260073683A202563253033640A0D00537973DD
:10EE360074656D20706172616D65746572732061B1
:10EE46006E642061666669726D61746976652072AA
:10EE56006573706F6E736573206170706561722083
:10EE6600696E20677265656E0A0D002020202054A9
:10EE7600686520666F6C6C6F77696E672055736581
:10EE860072204944732068617665206265656E204C
:10EE96007265747269657665642066726F6D206648
:10EEA6006C6173683A0A0D0046696E697368656439
:10EEB6002074657374206D6573736167652C2074A7
:10EEC600797065202748656C702720666F72206C04
:10EED600697374206F6620636F6D6D616E64730A6B
:10EEE6000D0A0D0020202020202020205573657259
:10EEF60020494420576F72642025642028466C619F
:10EF060073682061646472657373203078323030C0
:10EF160030302558293A203078253034580A0D00EB
:10EF260020202020202020202B355620436F6E766F
:10EF360065727465722054656D7065726174757260
:10EF460065206D6561737572656420617320252B7C
:10EF56002E336620431B5B4B0A0D00202020202009
:10EF6600202020416D6269656E742054656D706560
:10EF7600726174757265206D656173757265642062
:10EF8600617320252B2E336620431B5B4B0A0D1B1A
:10EF96005B4B0A0D002020202051492077697265BD
:10EFA6006C65737320706F77657220636F6E76651C
:10EFB600727465722069732063757272656E746C03
:10EFC600792025731B5B4B0A0D1B5B4B0A0D00203A
:10EFD60020202020202020514920436F6E76657224
:10EFE6007465722054656D70657261747572652002
:10EFF6006D6561737572656420617320252B2E33F0
:10F006006620431B5B4B0A0D000A0D48656C702099
:10F016006D6573736167657320616E64206E6575D7
:10F026007472616C20726573706F6E7365732061A4
:10F03600707065617220696E2079656C6C6F770AF5
:10F046000D002020202054686520636175736520BB
:10F056006F6620746865206D6F73742072656365D2
:10F066006E742064657669636520726573657420C5
:10F076007761733A2025730A0D0020202020202076
:10F0860020202B31325620696E707574206375729C
:10F0960072656E74206D6561737572656420617347
:10F0A60020252B2E336620416D70731B5B4B0A0D9A
:10F0B600002020202053797374656D2068617320C9
:10F0C6006265656E206368617267696E672061209C
:10F0D60070686F6E6520666F722025731B5B4B0A26
:10F0E6000D1B5B4B0A0D0051492043686172676531
:10F0F600722077697468204469676974616C204D71
:10F106006F6E69746F72696E672C20627920447223
:10F116006577204D6161746D616E0A0D00202020B7
:10F1260020446576696365206F6E2074696D65207D
:10F1360073696E6365206C617374207265736574A0
:10F1460020636F6E646974696F6E2069732025731E
:10F156000A0D002020202053797374656D204566C2
:10F1660066696369656E63792063616C63756C615A
:10F1760074656420617320252E336625251B5B4B41
:10F186000A0D1B5B4B0A0D002020202043616C6C8E
:10F196002027436C65617220414443204572726F9B
:10F1A60072732720746F20636C656172204144433B
:10F1B600206572726F722873290A0D005149204327
:10F1C6006861726765722077697468204469676947
:10F1D60074616C204D6F6E69746F72696E670A0D8B
:10F1E600426F6F7420436F6D706C6574650A0D0015
:10F1F60020202020202020202B3556207261696C8B
:10F20600206D6561737572656420617320252B2EF0
:10F21600336620566F6C74731B5B4B0A0D1B5B4B7E
:10F226000A0D002020202044657669636520494444
:10F23600207265747269657665642066726F6D20EA
:10F24600666C6173683A202573202830782530343F
:10F2560058290A0D002020202054686520666F6C0E
:10F266006C6F77696E67206368616E6E656C73207C
:10F2760063617573656420616E2041444320657245
:10F28600726F723A0A0D0020202020202020205183
:10F296004920436F6E7665727465722069732069C2
:10F2A6006E204275727374204D6F64651B5B4B0A4A
:10F2B6000D1B5B4B0A0D0053797374656D204D650C
:10F2C60061737572656D656E7473206174207469FF
:10F2D6006D65206F6620636F6D6D616E642063617E
:10F2E6006C6C3A0A0D002020202020202020415658
:10F2F6005353206D656173757265642061732025B3
:10F306002B2E336620566F6C74731B5B4B0A0D1BDA
:10F316005B4B0A0D0020202020202020202B31329C
:10F3260056207261696C206D656173757265642023
:10F33600617320252B2E336620566F6C74731B5B0E
:10F346004B0A0D000A0D43616C6C202748656C70F2
:10F356002720666F72206C697374206F6620737540
:10F3660070706F7274656420636F6D6D616E647327
:10F376000A0D002020202054686520666F6C6C6F93
:10F3860077696E6720493243204572726F72732027
:10F39600776572652064657465637465643A0A0D01
:10F3A600004572726F727320616E64206E656761CC
:10F3B6007469766520726573706F6E73657320610C
:10F3C600707065617220696E207265640A0D004472
:10F3D60069676974616C204D6F6E69746F72696ECE
:10F3E60067204D6963726F636F6E74726F6C6C65C4
:10F3F60072205374617475733A0A0D002020202020
:10F4060020202020504F533520436F6E766572744E
:10F41600657220697320696E204275727374204D7F
:10F426006F64651B5B4B0A0D004361757365206F46
:10F4360066206D6F737420726563656E74206465F3
:10F4460076696365207265736574207761733A2007
:10F4560025730A0D0020202020514920436861723F
:10F4660067657220697320696E204572726F72201B
:10F4760053746174651B5B4B0A0D1B5B4B0A0D00D5
:10F4860057696E646F7765642057617463682044BA
:10F496006F672054696D65722056696F6C61746977
:10F4A6006F6E205265736574002020202020202076
:10F4B6002049324320416D6269656E742054656D42
:10F4C600702053656E736F72204572726F720A0DEB
:10F4D600002020202053797374656D20537769745A
:10F4E6006368696E67204672657175656E636965E6
:10F4F600733A1B5B4B0A0D00514920576972656CC4
:10F5060065737320506F77657220436F6E766572F0
:10F5160073696F6E20456E61626C65640A0D004DFD
:10F526006561737572656D656E7420726573706F53
:10F536006E7365732061707065617220696E2063F9
:10F5460079616E0A0D0054686973207465787420B9
:10F556006861732061206D6167656E746120626108
:10F56600636B67726F756E640A0D00202020204D54
:10F576006963726F636F6E74726F6C6C6572205024
:10F586006172616D65746572733A1B5B4B0A0D009F
:10F59600556E737570706F72746564206F72206D2E
:10F5A60069732D656E746572656420636F6D6D6138
:10F5B6006E640A0D0020202020202020204932439E
:10F5C60020504F53352054656D702053656E736F10
:10F5D60072204572726F720A0D0054686973207446
:10F5E6006578742068617320612079656C6C6F772B
:10F5F600206261636B67726F756E640A0D004C69F9
:10F606007665206D6561737572656D656E742075BE
:10F616007064617465732064697361626C65640A01
:10F626000D005468697320746578742068617320CE
:10F6360061207768697465206261636B67726F75B4
:10F646006E640A0D005468697320746578742068C6
:10F656006173206120626C61636B206261636B671A
:10F66600726F756E640A0D0054686973207465784C
:10F676007420686173206120677265656E2062611F
:10F68600636B67726F756E640A0D00202020202060
:10F696002020204932432051492054656D70205363
:10F6A600656E736F72204572726F720A0D00546830
:10F6B6006973207465787420686173206120626CB8
:10F6C6007565206261636B67726F756E640A0D0003
:10F6D60054686973207465787420686173206120AA
:10F6E6006379616E206261636B67726F756E640A1F
:10F6F6000D00507265737320656E746572206B65BC
:10F706007920746F20657869741B5B4B0A0D1B5B4F
:10F716004B0A0D005468697320746578742068611B
:10F7260073206120726564206261636B67726F7516
:10F736006E640A0D0020202020202020204932431C
:10F74600204F4C454420446973706C6179204572A2
:10F75600726F720A0D00202020204E6F20554152F4
:10F7660054206572726F722873292064657465630C
:10F776007465640A0D00202020204E6F2049324314
:10F78600206572726F7228732920646574656374CC
:10F7960065640A0D00202020204E6F20414443203E
:10F7A6006572726F72287329206465746563746567
:10F7B600640A0D002020202053797374656D20544F
:10F7C600656D7065726174757265733A1B5B4B0A81
:10F7D6000D002020202055534220554152542045EB
:10F7E60072726F722044657465637465640A0D00F5
:10F7F6005573657220696E707574206170706561ED
:10F80600727320696E2077686974650A0D0020207E
:10F816002020414443206572726F72287329206448
:10F8260065746563746564210A0D00456E61626CDA
:10F83600696E67206C697665206D656173757265A2
:10F846006D656E74730A0D004C697665204D6561B1
:10F85600737572656D656E74733A1B5B4B0A0D1B8F
:10F866005B4B0A0D00202020202020202049324317
:10F876002047656E6572616C204572726F720A0D63
:10F8860000202020202020202047656E6572616CB4
:10F8960020414443206572726F720A0D00546573ED
:10F8A60074696E6720746578742061747472696215
:10F8B600757465733A0A0D00546869732074657827
:10F8C6007420697320756E64657273636F72656404
:10F8D6000A0D00524553455420496E737472756380
:10F8E60074696F6E204578656375746564002020C1
:10F8F600202053797374656D2043757272656E743A
:10F90600733A1B5B4B0A0D00456E61626C65204CB9
:10F91600697665204D6561737572656D656E747384
:10F9260000546869732074657874206973206E6F5B
:10F93600726D616C0A0D0A0D005468697320746556
:10F9460078742069732072657665727365640A0D32
:10F956000054686973207465787420697320626C3A
:10F96600696E6B696E670A0D0055415254206572C7
:10F97600726F7228732920636C65617265640A0D63
:10F9860000546869732074657874206973206D610A
:10F9960067656E74610A0D00202020205379737408
:10F9A600656D20566F6C74616765733A0A0D0020A9
:10F9B60020202053797374656D20506F7765723AF5
:10F9C6001B5B4B0A0D00414443204572726F72283F
:10F9D600732920636C65617265640A0D00493243C0
:10F9E600206572726F7228732920636C6561726577
:10F9F600640A0D005468697320746578742069730D
:10FA06002079656C6C6F770A0D00417661696C61CF
:10FA1600626C6520436F6D6D616E64733A0A0D000A
:10FA260043757272656E74204D6561737572656D8E
:10FA3600656E74733F00537461636B20556E646525
:10FA460072666C6F772052657365740054686973CB
:10FA5600207465787420697320626C61636B0A0D8B
:10FA6600005468697320746578742069732067721E
:10FA760065656E0A0D00537461636B204F7665727F
:10FA8600666C6F77205265736574005468697320DD
:10FA96007465787420697320626F6C640A0D005473
:10FAA600686973207465787420697320626C756563
:10FAB6000A0D005468697320746578742069732090
:10FAC6006379616E0A0D00546869732074657874F1
:10FAD600206973207265640A0D004D617374657246
:10FAE60020436C65617220526573657400555342FC
:10FAF600205541525420546573740A0D0A0D004373
:10FB06006C6561722055415254204572726F727352
:10FB16000030313233343536373839414243444583
:10FB26004600436C65617220493243204572726F0C
:10FB3600727300436C6561722041444320457272C2
:10FB46006F727300766961205553422C20274865F1
:10FB56006C702700434F4D20506F727420536574AC
:10FB660075703A004361757365206F662052657340
:10FB760065743A004469676974616C204D6F6E69FB
:10FB8600746F7200386269742C206E6F2070617217
:10FB960069747900556E646566696E6564205265A0
:10FBA6007365740042726F776E204F7574205265CC
:10FBB6007365740044657669636520537461747572
:10FBC600733F004F75747075742043686172676582
:10FBD6003A00436861726765205374617475733ABD
:10FBE600004F757470757420456E657267793A00BA
:10FBF60031207374702C206E6F20666C6F77005204
:10FC06004553455420457865637574656400506FA7
:10FC1600776572204F6E2052657365740020202030
:10FC260020202020204656520A0D004572726F721F
:10FC3600205374617475733F0051492043686172A3
:10FC460067657220772F002B31325620566F6C7401
:10FC56006167653A004465762E204F6E2054696DC3
:10FC6600653A00416D6269656E742054656D703A3F
:10FC7600002B35562053772E20467265713A004F79
:10FC8600757470757420506F7765723A002B313237
:10FC9600562043757272656E743A00426F6F742017
:10FCA600436F6D706C657465004D6F7265205365AA
:10FCB6007474696E67730046756C6C79204368616D
:10FCC600726765640066756C6C792063686172673B
:10FCD6006564005265766973696F6E2049443A001F
:10FCE6002B355620566F6C746167653A0043686120
:10FCF6007267652054696D653A0051492053772E25
:10FD060020467265713A00496E70757420506F779F
:10FD160065723A004E6F74204368617267696E6758
:10FD26000044726577204D6161746D616E002564D3
:10FD3600206D696E757465732C2000504943313807
:10FD46004C4632374B34300050494331384C4634F8
:10FD5600374B34300050494331384C4636374B34F4
:10FD66003000537072696E672032303139004D6948
:10FD760063726F2054656D703A0051492043757265
:10FD860072656E743A00456666696369656E637985
:10FD96003A002564206D696E7574652C2000504903
:10FDA6004331384632374B343000504943313846B8
:10FDB60034374B34300050494331384636374B34AC
:10FDC6003000256C752E25362E366C75001B5B3083
:10FDD6003B33373B34306D004465766963652049B3
:10FDE600443A00514920456E61626C656400427573
:10FDF600727374204D6F6465002575207365636F9B
:10FE06006E6473002575206D696E757465730025C3
:10FE1600642079656172732C2000256420686F75F3
:10FE260072732C20002564207365636F6E64730003
:10FE360053544F46205265736574005354554620FB
:10FE46005265736574004D434C5220526573657458
:10FE56000057574454205265736574002B3556205D
:10FE660054656D703A003131352E32206B62730065
:10FE7600256420796561722C2000256420686F75E1
:10FE8600722C2000256420646179732C200025647F
:10FE9600207365636F6E6400424F5220526573652E
:10FEA6007400504F5220526573657400556E646538
:10FEB60066696E656400756E646566696E65640084
:10FEC6002B25302E3366204D002B25302E33662011
:10FED6006B002B25302E3366206D002B25302E33FC
:10FEE60066206E002B25302E3366207500252B2EBE
:10FEF60033662025250051492054656D703A00254A
:10FF06007520796561727300257520686F75727347
:10FF1600002B322E35204D487A0025642064617905
:10FF26002C20006368617267696E67001B5B4B0A71
:10FF36000D0A0D002B25302E33662000252B2E337F
:10FF460066204100252B2E3366204300252B2E33B9
:10FF560066205600252B2E33662057002575206413
:10FF660061797300286E756C6C2900256325303322
:10FF760064002A49444E3F00436C65617200457235
:10FF8600726F72006572726F7200302E3020001B25
:10FF96005B324A0048656C7000307825580025733E
:10FFA600487A0049646C650069646C65001B5B7384
:10FFB600001B5B75001B5B48002573430025734AD5
:10FFC600001B5B4B003330003331003431003332D9
:10FFD6000034320033330034330033340034340019
:10FFE60033350034350033360034360033370034C9
:0AFFF60037001B5B0038003B0000E1
:020000040001F9
:100000006FEF8BF0250E8B19D8B436D020EE02F0AE
:100010005451D9265551DA22DE50DE10DE10D8B404
:1000200014D020EE02F05451D9265551DA2202D8CC
:100030006FEF8BF00500FA6EDE50FD6EDE50FE6E47
:10004000DE50FF6EFA508B51120054C2D9FF55C2D8
:10005000DAFFDECF5AF2DDCF5BF25AC2D9FF5BC2C4
:10006000DAFF8BC2DFFF54C2D9FF55C2DAFFDE2AA6
:10007000000EDD226FEF8BF0000E866F000E856F95
:10008000000E8A6F000E896F0AD00201898105D0A7
:100090000201898302D002018985564B572B56C233
:1000A000F6FF57C2F7FF000EF86E0E0EF76403D08E
:1000B0000800F55005D0F6CFE9FFF7CFEAFFEF5083
:1000C000200AD8B4E2D70B0AD8B4E2D71B0AD8B4B6
:1000D000E2D7020189B3899156C2F6FF57C2F7FFF2
:1000E000000EF86E0E0EF76403D00800F55005D030
:1000F000F6CFE9FFF7CFEAFFEF5007ECE2F0D8A028
:100100004CD0000E0201866F000E856F85C200F292
:1001100086C201F2000E0201036F0A0E026F5CEC50
:10012000E1F000C285F201C286F2D00E02015A6FE0
:10013000FF0E5B6F56C2F6FF57C2F7FF000EF86E58
:100140000E0EF76403D00800F55005D0F6CFE9FF96
:10015000F7CFEAFFEF5002015C6F5D6B5A515C27ED
:100160005B515D235C5185275D518623564B572B90
:1001700056C2F6FF57C2F7FF000EF86E0E0EF76478
:1001800003D00800F55005D0F6CFE9FFF7CFEAFF1E
:10019000EF5007ECE2F0D8B0B9D756C2F6FF57C21D
:1001A000F7FF000EF86E0E0EF76403D00800F5504E
:1001B00005D0F6CFE9FFF7CFEAFFEF502E0AD8A41B
:1001C00049D002018A8D564B572B000E886F000EC6
:1001D000876F2AD087C200F288C201F2000E0201A6
:1001E000036F0A0E026F5CECE1F056C2F6FF57C2D5
:1001F000F7FF000EF86E0E0EF76403D00800F550FE
:1002000005D0F6CFE9FFF7CFEAFFEF5002015A6FB2
:100210005A510027000E0123D00E0025876FFF0ED4
:100220000121886F564B572B56C2F6FF57C2F7FF76
:10023000000EF86E0E0EF76403D00800F55005D0DE
:10024000F6CFE9FFF7CFEAFFEF5007ECE2F0D8A0D6
:100250002AD1C0D7000E0201886F000E876F8A89ED
:1002600022D1898920D18A8559D1898F57D158C205
:10027000D9FF59C2DAFFDFCF5AF2020EDE26DFCFF6
:100280005BF2000EDD225AC2D9FF5BC2DAFFDECF7D
:1002900073F2DDCF74F273517411D8A404D06A0ED6
:1002A000736FFF0E746F000E766F000E756F03D0C4
:1002B0000201754B762B755173255A6F7651742157
:1002C0005B6F5AC2F6FF5BC2F7FF000EF86E0E0EB0
:1002D000F76403D00800F55005D0F6CFE9FFF7CF5B
:1002E000EAFFEF500009D8A4E3D702018751881133
:1002F000D8B40AD07551875D76518859D8B004D0EA
:1003000087C275F288C276F28551755D865176593D
:10031000D8B005D07551855F7651865B38D0000E18
:10032000866F000E856F33D020EE02F05451D9262F
:100330005551DA22DE50DE10DE10D8B413D020EE94
:1003400002F05451D9265551DA2201D820D00500A7
:10035000FA6EDE50FD6EDE50FE6EDE50FF6EFA501D
:10036000200E120054C2D9FF55C2DAFFDECF5AF276
:10037000DDCF5BF25AC2D9FF5BC2DAFF200EDF6E1F
:1003800054C2D9FF55C2DAFFDE2A000EDD22020177
:100390008507D8A086078529C7E18629D8B45BD010
:1003A000C3D720EE02F05451D9265551DA22DE503F
:1003B000DE10DE10D8B427D020EE02F05451D9263A
:1003C0005551DA2201D81BD00500FA6EDE50FD6EC1
:1003D000DE50FE6EDE50FF6EFA5073C2F6FF74C23E
:1003E000F7FF000EF86E0E0EF76403D00800F5500C
:1003F00005D0F6CFE9FFF7CFEAFFEF501200020178
:10040000734B742B28D073C2F6FF74C2F7FF000E33
:10041000F86E54C2D9FF55C2DAFFDECF5AF2DDCFF3
:100420005BF25AC2D9FF5BC2DAFF0E0EF76403D04B
:100430000800F55005D0F6CFE9FFF7CFEAFFEF50FF
:10044000DF6E0201734B742B54C2D9FF55C2DAFF21
:10045000DE2A000EDD227507D8A076077529A1E1F6
:100460007629D8B46FEF8BF09CD758C2D9FF59C208
:10047000DAFFDFCF5AF2020EDE26DFCF5BF2000E8C
:10048000DD225AC2D9FF5BC2DAFFDF508B6F8B0EC1
:10049000736F020E746F000E766F010E756F25D7A5
:1004A000C00E89133BD0020156515A6F57515B6FF2
:1004B000564B572B5AC2F6FF5BC2F7FF000EF86E81
:1004C0000E0EF76403D00800F55005D0F6CFE9FF13
:1004D000F7CFEAFFEF5002018B6F8B51000AD8B4BF
:1004E0008DEF8BF0580AD8B4C0D63B0AD8B4BDD72C
:1004F000070AD8B413D0020AD8B4B5D60F0AD8B4B4
:100500000DD0050AD8B4ADD61F0AD8B4B0D6060AA5
:10051000D8B4C6D70D0AD8B4A8D6B9D7070E8A154D
:10052000D8B40FEF88F08AA904D0000E886F060EA9
:10053000876F58C2D9FF59C2DAFFDFCF5AF2040ED3
:10054000DE26DFCF5BF2000EDD225AC2D9FF5BC28E
:10055000DAFFDECF7DF2DECF7EF2DECF7FF2DECFBE
:1005600080F280AF15D07DC200F27EC201F27FC260
:1005700002F280C203F2AEECE0F000C27DF201C2F2
:100580007EF202C27FF203C280F2030E02018913DF
:10059000000E786F000E776F7DC200F27EC201F20E
:1005A0007FC202F280C203F2000E046F000E056FDC
:1005B000000E066F000E076F5DECD7F00201D8B099
:1005C00084D07F358035820F776F786BFF0E78236C
:1005D0007707D8A0780777C200F278C201F2000E40
:1005E000036F030E026F5CECE1F000C277F201C210
:1005F00078F277C206F278C207F2000E0201096FA4
:100600000A0E086FE8ECD7F006C277F207C278F25C
:10061000020178AF03D07707D8A078077751000898
:1006200022ECAAF027C279F228C27AF229C27BF220
:100630002AC27CF279C20EF27AC20FF27BC210F2A9
:100640007CC211F27DC212F27EC213F27FC214F29A
:1006500080C215F27AECB3F00EC279F20FC27AF2D0
:1006600010C27BF211C27CF279C200F27AC201F2AE
:100670007BC202F27CC203F2000E0201046F000E84
:10068000056F800E066F3F0E076F85ECD2F00201FA
:10069000D8B004D07707D8A0780717D079C200F275
:1006A0007AC201F27BC202F27CC203F2000E046F36
:1006B000000E056F200E066F410E076F85ECD2F01D
:1006C0000201D8A002D0774B782B88BF06D0885182
:1006D00021E10D0E875DD8B01DD07DC234F27EC2FF
:1006E00035F27FC236F280C237F2875173ECBEF02A
:1006F00027C238F228C239F229C23AF22AC23BF2A2
:1007000077ECB8F034C27DF235C27EF236C27FF2A9
:1007100037C280F2020178BF06D0785131E10A0E6B
:10072000775DD8B02DD07DC200F27EC201F27FC2CB
:1007300002F280C203F2000E046F000E056F000E7D
:10074000066F000E076F5DECD7F00201D8B062D0E3
:100750007DC230F27EC231F27FC232F280C233F209
:100760001DECD4F002013051311132113311D8B4E3
:1007700078BF50D0785104E1020E775DD8A04AD0FE
:1007800079C200F27AC201F27BC202F27CC203F2A9
:100790005F0E046F700E056F890E066F400E076FB7
:1007A00085ECD2F00201D8B002D0F70E01D0F80EDD
:1007B0007727FF0E7823775122ECAAF027C279F22F
:1007C00028C27AF229C27BF22AC27CF27DC200F2F0
:1007D0007EC201F27FC202F280C203F279C204F249
:1007E0007AC205F27BC206F27CC207F22AECD0F094
:1007F00000C281F201C282F202C283F203C284F219
:10080000000E02017D6F000E7E6F000E7F6F000EE6
:10081000806F3CD07DC230F27EC231F27FC232F2B4
:1008200080C233F21DECD4F030C281F231C282F2C8
:1008300032C283F233C284F27DC24CF27EC24DF2E8
:100840007FC24EF280C24FF281C23EF282C23FF2BC
:1008500083C240F284C241F2000EB6ECCCF03EC23C
:1008600050F23FC251F240C252F241C253F25CEC2C
:10087000DDF04CC27DF24DC27EF24EC27FF24FC21D
:1008800080F2000E0201786F000E776F010E8B6F01
:100890000A0E8B19D8B41BD08B51040DAF0EF32464
:1008A000F66EE70EF420F76EF86A000EF8220900E3
:1008B000F550815D0900F55082590900F5508359C2
:1008C0000900F5508459D8A002D08B2BE1D78B5169
:1008D00087255A6F000E88215B6F77515A27785110
:1008E0005B235A51855F5B51865B87518811D8B471
:1008F00003D08507D8A08607030E89155A6F000E0E
:100900008A155B6F5A515B11D8B403D08507D8A004
:10091000860789A5F0D089A341D020EE02F054517A
:10092000D9265551DA22DE50DE10DE10D8B41DD0A3
:1009300089B104D0000E646F2B0E03D0000E646FDB
:100940002D0E636F20EE02F05451D9265551DA2254
:1009500001D891D00500FA6EDE50FD6EDE50FE6EBD
:10096000DE50FF6EFA506351120089B104D0000EC0
:10097000666F2B0E03D0000E666F2D0E656F54C28E
:10098000D9FF55C2DAFFDECF5AF2DDCF5BF25AC291
:10099000D9FF5BC2DAFF65C2DFFF2ED089A16BD021
:1009A00020EE02F05451D9265551DA22DE50DE10E5
:1009B000DE10D8B413D020EE02F05451D926555190
:1009C000DA2201D858D00500FA6EDE50FD6EDE50F6
:1009D000FE6EDE50FF6EFA50200E120054C2D9FF98
:1009E00055C2DAFFDECF5AF2DDCF5BF25AC2D9FF31
:1009F0005BC2DAFF200EDF6E54C2D9FF55C2DAFFA8
:100A0000DE2A000EDD2237D020EE02F05451D92626
:100A10005551DA22DE50DE10DE10D8B413D020EEAD
:100A200002F05451D9265551DA2201D820D00500C0
:100A3000FA6EDE50FD6EDE50FE6EDE50FF6EFA5036
:100A4000300E120054C2D9FF55C2DAFFDECF5AF27F
:100A5000DDCF5BF25AC2D9FF5BC2DAFF300EDF6E28
:100A600054C2D9FF55C2DAFFDE2A000EDD22020190
:100A70008507D8A08607020186BF2FD18651C4E121
:100A80008505D8A02AD1C0D720EE02F05451D9262E
:100A90005551DA22DE50DE10DE10D8B413D020EE2D
:100AA00002F05451D9265551DA2201D820D0050040
:100AB000FA6EDE50FD6EDE50FE6EDE50FF6EFA50B6
:100AC000200E120054C2D9FF55C2DAFFDECF5AF20F
:100AD000DDCF5BF25AC2D9FF5BC2DAFF200EDF6EB8
:100AE00054C2D9FF55C2DAFFDE2A000EDD22020110
:100AF0008507D8A0860786BF05D08651C5E1850544
:100B0000D8B0C2D789A341D020EE02F05451D926E3
:100B10005551DA22DE50DE10DE10D8B41DD089B176
:100B200004D0000E686F2B0E03D0000E686F2D0EE0
:100B3000676F20EE02F05451D9265551DA2201D8C0
:100B4000CCD00500FA6EDE50FD6EDE50FE6EDE503B
:100B5000FF6EFA506751120089B104D0000E6A6F1F
:100B60002B0E03D0000E6A6F2D0E696F54C2D9FF91
:100B700055C2DAFFDECF5AF2DDCF5BF25AC2D9FF9F
:100B80005BC2DAFF69C2DFFFA1D089A1A6D020EE47
:100B900002F05451D9265551DA22DE50DE10DE1013
:100BA000D8B413D020EE02F05451D9265551DA2290
:100BB00001D893D00500FA6EDE50FD6EDE50FE6E59
:100BC000DE50FF6EFA50200E120054C2D9FF55C2FB
:100BD000DAFFDECF5AF2DDCF5BF25AC2D9FF5BC239
:100BE000DAFF200E72D081C200F282C201F283C20B
:100BF00002F284C203F28B51040DAF0EF324F66EA1
:100C0000E70EF420F76EF86A000EF8220900F5CF1F
:100C100004F20900F5CF05F20900F5CF06F20A004B
:100C2000F5CF07F22BECD8F000C279F201C27AF2CC
:100C300002C27BF203C27CF279C20DF27AC20EF2DA
:100C40007BC20FF27CC210F20A0E0201116F000E7D
:100C5000126F000E136F000E146F9AECD9F00DC2D4
:100C600079F20EC27AF20FC27BF210C27CF202015C
:100C700020EE02F05451D9265551DA22DE50DE1012
:100C8000DE10D8B414D020EE02F05451D9265551BC
:100C9000DA2201D822D00500FA6EDE50FD6EDE5059
:100CA000FE6EDE50FF6EFA507951300F120079510E
:100CB000300F54C2D9FF55C2DAFFDECF5AF2DDCF72
:100CC0005BF25AC2D9FF5BC2DAFFDF6E54C2D9FFB2
:100CD00055C2DAFFDE2A000EDD2202018B078B29C6
:100CE000D8B438D080D720EE02F05451D9265551CF
:100CF000DA22DE50DE10DE10D8B413D020EE02F07F
:100D00005451D9265551DA2201D820D00500FA6E67
:100D1000DE50FD6EDE50FE6EDE50FF6EFA50300E7D
:100D2000120054C2D9FF55C2DAFFDECF5AF2DDCF2E
:100D30005BF25AC2D9FF5BC2DAFF300EDF6E54C2DB
:100D4000D9FF55C2DAFFDE2A000EDD220201770745
:100D5000D8A0780778BF05D07851C5E17705D8B01D
:100D6000C2D788BF09D0885104E1090E875DD8A099
:100D700003D0080E8B6F02D087C28BF28B51875F36
:100D8000000E885B8B51D8B433D020EE02F0545162
:100D9000D9265551DA22DE50DE10DE10D8B413D039
:100DA00020EE02F05451D9265551DA2201D820D034
:100DB0000500FA6EDE50FD6EDE50FE6EDE50FF6EF8
:100DC000FA502E0E120054C2D9FF55C2DAFFDECF00
:100DD0005AF2DDCF5BF25AC2D9FF5BC2DAFF2E0EA8
:100DE000DF6E54C2D9FF55C2DAFFDE2A000EDD22C3
:100DF00002018B5122ECAAF027C25EF228C25FF2F8
:100E000029C260F22AC261F27DC212F27EC213F2DE
:100E10007FC214F280C215F25EC20EF25FC20FF200
:100E200060C210F261C211F27AECB3F00EC230F27D
:100E30000FC231F210C232F211C233F21DECD4F003
:100E400030C281F231C282F232C283F233C284F202
:100E5000A4D081C200F282C201F283C202F284C233
:100E600003F28B51040DAF0EF324F66EE70EF4205F
:100E7000F76EF86A000EF8220900F5CF04F20900B7
:100E8000F5CF05F20900F5CF06F20A00F5CF07F21B
:100E90002BECD8F000C279F201C27AF202C27BF2E6
:100EA00003C27CF279C20DF27AC20EF27BC20FF25B
:100EB0007CC210F20A0E0201116F000E126F000EBA
:100EC000136F000E146F9AECD9F00DC279F20EC2B6
:100ED0007AF20FC27BF210C27CF2020120EE02F025
:100EE0005451D9265551DA22DE50DE10DE10D8B426
:100EF00014D020EE02F05451D9265551DA2201D8EF
:100F000022D00500FA6EDE50FD6EDE50FE6EDE5021
:100F1000FF6EFA507951300F12007951300F54C2E0
:100F2000D9FF55C2DAFFDECF5AF2DDCF5BF25AC2EB
:100F3000D9FF5BC2DAFFDF6E54C2D9FF55C2DAFFB8
:100F4000DE2A000EDD2281C20DF282C20EF283C2C1
:100F50000FF284C210F202018B51040DAF0EF32484
:100F6000F66EE70EF420F76EF86A000EF82209001C
:100F7000F5CF11F20900F5CF12F20900F5CF13F207
:100F80000A00F5CF14F29AECD9F00DC281F20EC22C
:100F900082F20FC283F210C284F202018B078B2906
:100FA000D8B438D056D720EE02F05451D926555136
:100FB000DA22DE50DE10DE10D8B413D020EE02F0BC
:100FC0005451D9265551DA2201D820D00500FA6EA5
:100FD000DE50FD6EDE50FE6EDE50FF6EFA50300EBB
:100FE000120054C2D9FF55C2DAFFDECF5AF2DDCF6C
:100FF0005BF25AC2D9FF5BC2DAFF300EDF6E54C219
:10100000D9FF55C2DAFFDE2A000EDD220201870772
:10101000D8A0880787518811D8B461D3C4D7C00E2F
:1010200089155A6F000E8A155B6F5A515B11D8A44F
:1010300041D089A919D058C2D9FF59C2DAFFDFCFF0
:101040005AF2040EDE26DFCF5BF2000EDD225AC21A
:10105000D9FF5BC2DAFFDECF81F2DECF82F2DECFD4
:1010600083F2DECF84F219D058C2D9FF59C2DAFF19
:10107000DFCF5AF2020EDE26DFCF5BF2000EDD225A
:101080005AC2D9FF5BC2DAFFDECF81F2DDCF82F236
:10109000000E82BFFF0E836F846F84AF40D0030EBB
:1010A0008913841F831F821F816D000E8223832377
:1010B000842335D089A919D058C2D9FF59C2DAFF83
:1010C000DFCF5AF2040EDE26DFCF5BF2000EDD2208
:1010D0005AC2D9FF5BC2DAFFDECF81F2DECF82F2E5
:1010E000DECF83F2DECF84F21AD058C2D9FF59C2C4
:1010F000DAFFDFCF5AF2020EDE26DFCF5BF2000E00
:10110000DD225AC2D9FF5BC2DAFFDECF5CF2DDCF4F
:101110005DF25CC281F25DC282F2836B846B8751A7
:101120008811D8A44BD08151821183118411D8A485
:1011300045D0874B882B42D0010E8B6F0A0E8B193E
:10114000D8B447D08B51040DAF0EF324F66EE70EE2
:10115000F420F76EF86A000EF8220900F550815D60
:101160000900F55082590900F55083590900F550DE
:101170008459D8A02ED08B2BE1D7010E8B6F080E8F
:101180008B19D8B426D08B51040D8F0EF324F66E34
:10119000E40EF420F76EF86A000EF8220900F5500C
:1011A000815D0900F55082590900F5508359090005
:1011B000F5508459D8A00DD08B2BE1D78951C00BA5
:1011C000000AD8B4B9D7800AD8B4D7D7400AD8B45F
:1011D000B3D78B515A6F5B6B87515A5D5B51800A55
:1011E0005C6F8851800A5C59D8B003D087C28BF2FB
:1011F00010D08B515A6F5B6B5A51875D8851800AB2
:101200005C6F5B51800A5C59D8B003D08BC287F207
:10121000886B85518611D8B40DD0030E89155A6F8D
:10122000000E8A155B6F5A515B11D8B403D0850745
:10123000D8A086078AAD13D08551875D8851800A72
:101240005A6F8651800A5A59D8B005D08751855FA8
:101250008851865B04D0000E866F000E856F8B511F
:101260005A6F5B6B85515A5D5B51800A5C6F86518A
:10127000800A5C59D8B005D08B51855F000E865B23
:1012800004D0000E866F000E856F89A5B5D089A3A6
:1012900041D020EE02F05451D9265551DA22DE50C9
:1012A000DE10DE10D8B41DD089B104D0000E6C6FF2
:1012B0002B0E03D0000E6C6F2D0E6B6F20EE02F024
:1012C0005451D9265551DA2201D859D00500FA6E69
:1012D000DE50FD6EDE50FE6EDE50FF6EFA506B513A
:1012E000120089B104D0000E6E6F2B0E03D0000ED9
:1012F0006E6F2D0E6D6F54C2D9FF55C2DAFFDECF6F
:101300005AF2DDCF5BF25AC2D9FF5BC2DAFF6DC27F
:10131000DFFF2ED089A133D020EE02F05451D92620
:101320005551DA22DE50DE10DE10D8B413D020EE94
:1013300002F05451D9265551DA2201D820D00500A7
:10134000FA6EDE50FD6EDE50FE6EDE50FF6EFA501D
:10135000200E120054C2D9FF55C2DAFFDECF5AF276
:10136000DDCF5BF25AC2D9FF5BC2DAFF200EDF6E1F
:1013700054C2D9FF55C2DAFFDE2A000EDD22020177
:1013800085518611D8B4A2D120EE02F05451D9264D
:101390005551DA22DE50DE10DE10D8B413D020EE24
:1013A00002F05451D9265551DA2201D820D0050037
:1013B000FA6EDE50FD6EDE50FE6EDE50FF6EFA50AD
:1013C000300E120054C2D9FF55C2DAFFDECF5AF2F6
:1013D000DDCF5BF25AC2D9FF5BC2DAFF300EDF6E9F
:1013E00054C2D9FF55C2DAFFDE2A000EDD22020107
:1013F0008507D8A08607C4D785518611D8B43BD0BD
:1014000020EE02F05451D9265551DA22DE50DE107A
:10141000DE10D8B413D020EE02F05451D926555125
:10142000DA2201D820D00500FA6EDE50FD6EDE50C3
:10143000FE6EDE50FF6EFA50200E120054C2D9FF2D
:1014400055C2DAFFDECF5AF2DDCF5BF25AC2D9FFC6
:101450005BC2DAFF200EDF6E54C2D9FF55C2DAFF3D
:10146000DE2A000EDD2202018507D8A086078551FD
:101470008611D8A4C5D789A341D020EE02F05451DB
:10148000D9265551DA22DE50DE10DE10D8B41DD038
:1014900089B104D0000E706F2B0E03D0000E706F58
:1014A0002D0E6F6F20EE02F05451D9265551DA22DD
:1014B00001D80CD10500FA6EDE50FD6EDE50FE6ED6
:1014C000DE50FF6EFA506F51120089B104D0000E49
:1014D000726F2B0E03D0000E726F2D0E716F54C2FF
:1014E000D9FF55C2DAFFDECF5AF2DDCF5BF25AC226
:1014F000D9FF5BC2DAFF71C2DFFFE1D089A1E6D07C
:1015000020EE02F05451D9265551DA22DE50DE1079
:10151000DE10D8B413D020EE02F05451D926555124
:10152000DA2201D8D3D00500FA6EDE50FD6EDE500F
:10153000FE6EDE50FF6EFA50200E120054C2D9FF2C
:1015400055C2DAFFDECF5AF2DDCF5BF25AC2D9FFC5
:101550005BC2DAFF200EDF6EB2D087C25AF288C2B9
:101560005BF2D8905A375B37D8905A375B37AF0E5B
:101570005A25F66EE70E5B21F76EF86A000EF82228
:101580000900F5CF04F20900F5CF05F20900F5CF07
:1015900006F20A00F5CF07F281C200F282C201F220
:1015A00083C202F284C203F22BECD8F000C20DF227
:1015B00001C20EF202C20FF203C210F20A0E0201C1
:1015C000116F000E126F000E136F000E146F9AEC65
:1015D000D9F002010D51300F8B6F45D081C200F25E
:1015E00082C201F283C202F284C203F287C25AF2BB
:1015F00088C25BF2D8905A375B37D8905A375B373E
:101600008F0E5A25F66EE40E5B21F76EF86A000E17
:10161000F8220900F5CF04F20900F5CF05F2090020
:10162000F5CF06F20A00F5CF07F22BECD8F0020155
:1016300000510F0B626F170E6225F66EF76AFB0EF4
:10164000F722F86A000EF8220800F5CF8BF20BD0D3
:101650008951C00B000AD8B480D7800AD8B4BED74D
:10166000400AD8B47AD720EE02F05451D926555109
:10167000DA22DE50DE10DE10D8B413D020EE02F0F5
:101680005451D9265551DA2201D820D00500FA6EDE
:10169000DE50FD6EDE50FE6EDE50FF6EFA508B5156
:1016A000120054C2D9FF55C2DAFFDECF5AF2DDCFA5
:1016B0005BF25AC2D9FF5BC2DAFF8BC2DFFF54C2B2
:1016C000D9FF55C2DAFFDE2A000EDD2202018707AC
:1016D000D8A088078729BCE18829D8A4B9D70201F6
:1016E00056515A6F57515B6F564B572B5AC2F6FFE4
:1016F0005BC2F7FF000EF86E0E0EF76403D0080011
:10170000F55005D0F6CFE9FFF7CFEAFFEF50020121
:101710008B6F8B51D8A402EF80F0000E556F000E36
:10172000546F1200FBEF96F0250EA319D8B436D0F3
:1017300020EE02F06C51D9266D51DA22DE50DE1017
:10174000DE10D8B414D020EE02F06C51D9266D51C1
:10175000DA2202D8FBEF96F00500FA6EDE50FD6E3D
:10176000DE50FE6EDE50FF6EFA50A35112006CC0C8
:10177000D9FF6DC0DAFFDECF72F0DDCF73F072C03B
:10178000D9FF73C0DAFFA3C0DFFF6CC0D9FF6DC003
:10179000DAFFDE2A000EDD22FBEF96F0000E9E6FD0
:1017A000000E9D6F000EA26F000EA16F0AD0000107
:1017B000A18105D00001A18302D00001A1856E4B5B
:1017C0006F2B6EC0F6FF6FC0F7FF000EF86E0E0EA7
:1017D000F76403D00800F55005D0F6CFE9FFF7CF46
:1017E000EAFFEF50200AD8B4E2D70B0AD8B4E2D708
:1017F0001B0AD8B4E2D70001A1B3A1916EC0F6FFD5
:101800006FC0F7FF000EF86E0E0EF76403D00800ED
:10181000F55005D0F6CFE9FFF7CFEAFFEF5088EC9F
:10182000E2F0D8A04BD0000E00019E6F000E9D6F1D
:101830009DC001F09EC002F0000E046E0A0E036E01
:10184000BFECE1F001C09DF002C09EF0D00E00019F
:10185000726FFF0E736F6EC0F6FF6FC0F7FF000E62
:10186000F86E0E0EF76403D00800F55005D0F6CFE1
:10187000E9FFF7CFEAFFEF500001746F756B72510B
:1018800074277351752374519D2775519E236E4B98
:101890006F2B6EC0F6FF6FC0F7FF000EF86E0E0ED6
:1018A000F76403D00800F55005D0F6CFE9FFF7CF75
:1018B000EAFFEF5088ECE2F0D8B0BAD76EC0F6FF7E
:1018C0006FC0F7FF000EF86E0E0EF76403D008002D
:1018D000F55005D0F6CFE9FFF7CFEAFFEF502E0A1B
:1018E000D8A448D00001A28D6E4B6F2B000EA06FC4
:1018F000000E9F6F29D09FC001F0A0C002F0000E23
:10190000046E0A0E036EBFECE1F06EC0F6FF6FC00E
:10191000F7FF000EF86E0E0EF76403D00800F550C6
:1019200005D0F6CFE9FFF7CFEAFFEF500001726F65
:1019300072510126000E0222D00E01249F6FFF0E6D
:101940000220A06F6E4B6F2B6EC0F6FF6FC0F7FFCB
:10195000000EF86E0E0EF76403D00800F55005D0A7
:10196000F6CFE9FFF7CFEAFFEF5088ECE2F0D8A01E
:101970002AD1C1D7000E0001A06F000E9F6FA2896F
:1019800022D1A18920D1A28559D1A18F57D170C070
:10199000D9FF71C0DAFFDFCF72F0020EDE26DFCF93
:1019A00073F0000EDD2272C0D9FF73C0DAFFDECF04
:1019B0008BF0DDCF8CF08B518C11D8A404D06A0E43
:1019C0008B6FFF0E8C6F000E8E6F000E8D6F03D02D
:1019D00000018D4B8E2B8D518B25726F8E518C217A
:1019E000736F72C0F6FF73C0F7FF000EF86E0E0E35
:1019F000F76403D00800F55005D0F6CFE9FFF7CF24
:101A0000EAFFEF500009D8A4E3D700019F51A011CD
:101A1000D8B40AD08D519F5D8E51A059D8B004D052
:101A20009FC08DF0A0C08EF09D518D5D9E518E594E
:101A3000D8B005D08D519D5F8E519E5B38D0000E81
:101A40009E6F000E9D6F33D020EE02F06C51D926B0
:101A50006D51DA22DE50DE10DE10D8B413D020EE45
:101A600002F06C51D9266D51DA2201D820D0050040
:101A7000FA6EDE50FD6EDE50FE6EDE50FF6EFA50E6
:101A8000200E12006CC0D9FF6DC0DAFFDECF72F0FD
:101A9000DDCF73F072C0D9FF73C0DAFF200EDF6EA6
:101AA0006CC0D9FF6DC0DAFFDE2A000EDD22000116
:101AB0009D07D8A09E079D29C7E19E29D8B45BD079
:101AC000C3D720EE02F06C51D9266D51DA22DE50D8
:101AD000DE10DE10D8B427D020EE02F06C51D926EB
:101AE0006D51DA2201D81BD00500FA6EDE50FD6E72
:101AF000DE50FE6EDE50FF6EFA508BC0F6FF8CC0DB
:101B0000F7FF000EF86E0E0EF76403D00800F550D4
:101B100005D0F6CFE9FFF7CFEAFFEF501200000142
:101B20008B4B8C2B28D08BC0F6FF8CC0F7FF000EA0
:101B3000F86E6CC0D9FF6DC0DAFFDECF72F0DDCF7A
:101B400073F072C0D9FF73C0DAFF0E0EF76403D0D2
:101B50000800F55005D0F6CFE9FFF7CFEAFFEF50C8
:101B6000DF6E00018B4B8C2B6CC0D9FF6DC0DAFF90
:101B7000DE2A000EDD228D07D8A08E078D29A1E177
:101B80008E29D8B4FBEF96F09CD770C0D9FF71C0F6
:101B9000DAFFDFCF72F0020EDE26DFCF73F0000E29
:101BA000DD2272C0D9FF73C0DAFFDF50A36FA30E2E
:101BB0008B6F000E8C6F000E8E6F010E8D6F25D710
:101BC000C00EA1133BD000016E51726F6F51736F45
:101BD0006E4B6F2B72C0F6FF73C0F7FF000EF86EEE
:101BE0000E0EF76403D00800F55005D0F6CFE9FFDC
:101BF000F7CFEAFFEF500001A36FA351000AD8B45A
:101C000019EF97F0580AD8B4C0D63B0AD8B4BDD75C
:101C1000070AD8B413D0020AD8B4B5D60F0AD8B47C
:101C20000DD0050AD8B4ADD61F0AD8B4B0D6060A6E
:101C3000D8B4C6D70D0AD8B4A8D6B9D7070EA215FE
:101C4000D8B49CEF93F0A2A904D0000EA06F060EAA
:101C50009F6F70C0D9FF71C0DAFFDFCF72F0040E42
:101C6000DE26DFCF73F0000EDD2272C0D9FF73C015
:101C7000DAFFDECF95F0DECF96F0DECF97F0DECF45
:101C800098F098AF15D095C001F096C002F097C0BB
:101C900003F098C004F0DDECE0F001C095F002C064
:101CA00096F003C097F004C098F0030E0001A11352
:101CB000000E906F000E8F6F95C001F096C002F07D
:101CC00097C003F098C004F0000E056E000E066E7B
:101CD000000E076E000E086EA3ECD7F0D8B083D0CC
:101CE000000197359835820F8F6F906BFF0E902310
:101CF0008F07D8A090078FC001F090C002F0000EAF
:101D0000046E030E036EBFECE1F001C08FF002C061
:101D100090F08FC007F090C008F0000E0A6E0A0E17
:101D2000096E6DECD8F007C08FF008C090F000018C
:101D300090AF03D08F07D8A090078F5100083CECDC
:101D4000ACF045C091F046C092F047C093F048C057
:101D500094F091C02CF092C02DF093C02EF094C05E
:101D60002FF095C030F096C031F097C032F098C097
:101D700033F0CEECB6F02CC091F02DC092F02EC016
:101D800093F02FC094F091C001F092C002F093C084
:101D900003F094C004F0000E056E000E066E800E77
:101DA000076E3F0E086EEEECD2F0D8B005D0000101
:101DB0008F07D8A0900717D091C001F092C002F011
:101DC00093C003F094C004F0000E056E000E066E82
:101DD000200E076E410E086EEEECD2F0D8A003D0B4
:101DE00000018F4B902B0001A0BF06D0A05121E134
:101DF0000D0E9F5DD8B01DD095C052F096C053F027
:101E000097C054F098C055F09F51D4ECBFF045C036
:101E100056F046C057F047C058F048C059F085EC1E
:101E2000BBF052C095F053C096F054C097F055C027
:101E300098F0000190BF06D0905131E10A0E8F5DFD
:101E4000D8B02DD095C001F096C002F097C003F035
:101E500098C004F0000E056E000E066E000E076EB0
:101E6000000E086EA3ECD7F0D8B064D095C04EF049
:101E700096C04FF097C050F098C051F07BECD4F072
:101E80004E504F1050105110D8A454D0000190BFA4
:101E900051D0905104E1020E8F5DD8A04BD091C07B
:101EA00001F092C002F093C003F094C004F05F0E02
:101EB000056E700E066E890E076E400E086EEEEC13
:101EC000D2F0D8B003D00001F70E02D00001F80E16
:101ED0008F27FF0E90238F513CECACF045C091F062
:101EE00046C092F047C093F048C094F095C001F00E
:101EF00096C002F097C003F098C004F091C005F0BE
:101F000092C006F093C007F094C008F01FECD1F027
:101F100001C099F002C09AF003C09BF004C09CF08D
:101F2000000E0001956F000E966F000E976F000E69
:101F3000986F3CD095C04EF096C04FF097C050F0CF
:101F400098C051F07BECD4F04EC099F04FC09AF09D
:101F500050C09BF051C09CF095C064F096C065F0F5
:101F600097C066F098C067F099C005F09AC006F077
:101F70009BC007F09CC008F0000EFAECCDF005C045
:101F800068F006C069F007C06AF008C06BF080EC2A
:101F9000DDF064C095F065C096F066C097F067C04C
:101FA00098F0000E0001906F000E8F6F010EA36F6E
:101FB000A351040DAF0EF324F66EE70EF420F76E76
:101FC000F86A000EF8220900F550995D0900F550F5
:101FD0009A590900F5509B590900F5509C59D8A011
:101FE00005D0A32B0A0EA319D8A4E2D7A3519F258D
:101FF000726F000EA021736F8F517227905173235F
:1020000072519D5F73519E5B9F51A011D8B403D054
:102010009D07D8A09E07030EA115726F000EA21592
:10202000736F72517311D8B403D09D07D8A09E0767
:10203000A1A5F0D0A1A341D020EE02F06C51D92689
:102040006D51DA22DE50DE10DE10D8B41DD0A1B101
:1020500004D0000E7C6F2B0E03D0000E7C6F2D0E73
:102060007B6F20EE02F06C51D9266D51DA2201D837
:1020700091D00500FA6EDE50FD6EDE50FE6EDE5031
:10208000FF6EFA507B511200A1B104D0000E7E6F9A
:102090002B0E03D0000E7E6F2D0E7D6F6CC0D9FF0E
:1020A0006DC0DAFFDECF72F0DDCF73F072C0D9FF02
:1020B00073C0DAFF7DC0DFFF2ED0A1A16BD020EE70
:1020C00002F06C51D9266D51DA22DE50DE10DE109E
:1020D000D8B413D020EE02F06C51D9266D51DA221B
:1020E00001D858D00500FA6EDE50FD6EDE50FE6E4F
:1020F000DE50FF6EFA50200E12006CC0D9FF6DC08A
:10210000DAFFDECF72F0DDCF73F072C0D9FF73C09B
:10211000DAFF200EDF6E6CC0D9FF6DC0DAFFDE2A59
:10212000000EDD2237D020EE02F06C51D9266D5121
:10213000DA22DE50DE10DE10D8B413D020EE02F02A
:102140006C51D9266D51DA2201D820D00500FA6EE3
:10215000DE50FD6EDE50FE6EDE50FF6EFA50300E29
:1021600012006CC0D9FF6DC0DAFFDECF72F0DDCF98
:1021700073F072C0D9FF73C0DAFF300EDF6E6CC02F
:10218000D9FF6DC0DAFFDE2A000EDD2200019D07B7
:10219000D8A09E0700019EBF2ED19E51C4E19D058F
:1021A000D8A029D1C0D720EE02F06C51D9266D51AC
:1021B000DA22DE50DE10DE10D8B413D020EE02F0AA
:1021C0006C51D9266D51DA2201D820D00500FA6E63
:1021D000DE50FD6EDE50FE6EDE50FF6EFA50200EB9
:1021E00012006CC0D9FF6DC0DAFFDECF72F0DDCF18
:1021F00073F072C0D9FF73C0DAFF200EDF6E6CC0BF
:10220000D9FF6DC0DAFFDE2A000EDD2200019D0736
:10221000D8A09E079EBF05D09E51C5E19D05D8B0B0
:10222000C2D7A1A341D020EE02F06C51D9266D5146
:10223000DA22DE50DE10DE10D8B41DD0A1B104D0F9
:10224000000E806F2B0E03D0000E806F2D0E7F6F5F
:1022500020EE02F06C51D9266D51DA2201D8CBD094
:102260000500FA6EDE50FD6EDE50FE6EDE50FF6E33
:10227000FA507F511200A1B104D0000E826F2B0ED4
:1022800003D0000E826F2D0E816F6CC0D9FF6DC020
:10229000DAFFDECF72F0DDCF73F072C0D9FF73C00A
:1022A000DAFF81C0DFFFA0D0A1A1A5D020EE02F00F
:1022B0006C51D9266D51DA22DE50DE10DE10D8B412
:1022C00013D020EE02F06C51D9266D51DA2201D8DC
:1022D00092D00500FA6EDE50FD6EDE50FE6EDE50CE
:1022E000FF6EFA50200E12006CC0D9FF6DC0DAFFED
:1022F000DECF72F0DDCF73F072C0D9FF73C0DAFFAA
:10230000200E71D099C001F09AC002F09BC003F07A
:102310009CC004F0A351040DAF0EF324F66EE70E3B
:10232000F420F76EF86A000EF8220900F5CF05F0E8
:102330000900F5CF06F00900F5CF07F00A00F5CF48
:1023400008F0AFECD8F001C091F002C092F003C0E9
:1023500093F004C094F091C00EF092C00FF093C0BF
:1023600010F094C011F00A0E126E000E136E000EE3
:10237000146E000E156E34ECDAF00EC091F00FC042
:1023800092F010C093F011C094F0000120EE02F022
:102390006C51D9266D51DA22DE50DE10DE10D8B431
:1023A00014D020EE02F06C51D9266D51DA2201D8FA
:1023B00022D00500FA6EDE50FD6EDE50FE6EDE505D
:1023C000FF6EFA509151300F12009151300F6CC0D6
:1023D000D9FF6DC0DAFFDECF72F0DDCF73F072C0CF
:1023E000D9FF73C0DAFFDF6E6CC0D9FF6DC0DAFFB2
:1023F000DE2A000EDD220001A307A329D8B438D0BD
:1024000081D720EE02F06C51D9266D51DA22DE50D0
:10241000DE10DE10D8B413D020EE02F06C51D926B5
:102420006D51DA2201D820D00500FA6EDE50FD6E23
:10243000DE50FE6EDE50FF6EFA50300E12006CC0A1
:10244000D9FF6DC0DAFFDECF72F0DDCF73F072C05E
:10245000D9FF73C0DAFF300EDF6E6CC0D9FF6DC0DC
:10246000DAFFDE2A000EDD2200018F07D8A09007D8
:1024700090BF05D09051C5E18F05D8B0C2D7A0BF9D
:1024800009D0A05104E1090E9F5DD8A003D0080E29
:10249000A36F02D09FC0A3F0A3519F5F000EA05B6B
:1024A000A351D8B433D020EE02F06C51D9266D512F
:1024B000DA22DE50DE10DE10D8B413D020EE02F0A7
:1024C0006C51D9266D51DA2201D820D00500FA6E60
:1024D000DE50FD6EDE50FE6EDE50FF6EFA502E0EA8
:1024E00012006CC0D9FF6DC0DAFFDECF72F0DDCF15
:1024F00073F072C0D9FF73C0DAFF2E0EDF6E6CC0AE
:10250000D9FF6DC0DAFFDE2A000EDD220001A351E3
:102510003CECACF045C076F046C077F047C078F0B0
:1025200048C079F095C030F096C031F097C032F0D5
:1025300098C033F076C02CF077C02DF078C02EF024
:1025400079C02FF0CEECB6F02CC04EF02DC04FF07D
:102550002EC050F02FC051F07BECD4F04EC099F05B
:102560004FC09AF050C09BF051C09CF0A3D099C0CE
:1025700001F09AC002F09BC003F09CC004F0A3518C
:10258000040DAF0EF324F66EE70EF420F76EF86A32
:10259000000EF8220900F5CF05F00900F5CF06F08E
:1025A0000900F5CF07F00A00F5CF08F0AFECD8F03E
:1025B00001C091F002C092F003C093F004C094F007
:1025C00091C00EF092C00FF093C010F094C011F0C3
:1025D0000A0E126E000E136E000E146E000E156EB3
:1025E00034ECDAF00EC091F00FC092F010C093F00E
:1025F00011C094F0000120EE02F06C51D9266D510B
:10260000DA22DE50DE10DE10D8B414D020EE02F054
:102610006C51D9266D51DA2201D822D00500FA6E0C
:10262000DE50FD6EDE50FE6EDE50FF6EFA509151B0
:10263000300F12009151300F6CC0D9FF6DC0DAFF1E
:10264000DECF72F0DDCF73F072C0D9FF73C0DAFF56
:10265000DF6E6CC0D9FF6DC0DAFFDE2A000EDD220E
:1026600099C00EF09AC00FF09BC010F09CC011F002
:102670000001A351040DAF0EF324F66EE70EF42013
:10268000F76EF86A000EF8220900F5CF12F0090083
:10269000F5CF13F00900F5CF14F00A00F5CF15F0CF
:1026A00034ECDAF00EC099F00FC09AF010C09BF035
:1026B00011C09CF00001A307A329D8B438D057D784
:1026C00020EE02F06C51D9266D51DA22DE50DE1078
:1026D000DE10D8B413D020EE02F06C51D9266D5123
:1026E000DA2201D820D00500FA6EDE50FD6EDE50F1
:1026F000FE6EDE50FF6EFA50300E12006CC0D9FF35
:102700006DC0DAFFDECF72F0DDCF73F072C0D9FF9B
:1027100073C0DAFF300EDF6E6CC0D9FF6DC0DAFF18
:10272000DE2A000EDD2200019F07D8A0A0079F51DE
:10273000A011D8B460D3C4D7C00EA115726F000E1B
:10274000A215736F72517311D8A441D0A1A919D0E9
:1027500070C0D9FF71C0DAFFDFCF72F0040EDE2641
:10276000DFCF73F0000EDD2272C0D9FF73C0DAFF35
:10277000DECF99F0DECF9AF0DECF9BF0DECF9CF07B
:1027800019D070C0D9FF71C0DAFFDFCF72F0020E2E
:10279000DE26DFCF73F0000EDD2272C0D9FF73C0DA
:1027A000DAFFDECF99F0DDCF9AF0000E9ABFFF0E70
:1027B0009B6F9C6F9CAF40D0030EA1139C1F9B1F6F
:1027C0009A1F996D000E9A239B239C2335D0A1A9B3
:1027D00019D070C0D9FF71C0DAFFDFCF72F0040EDC
:1027E000DE26DFCF73F0000EDD2272C0D9FF73C08A
:1027F000DAFFDECF99F0DECF9AF0DECF9BF0DECFAE
:102800009CF01AD070C0D9FF71C0DAFFDFCF72F030
:10281000020EDE26DFCF73F0000EDD2272C0D9FF7C
:1028200073C0DAFFDECF74F0DDCF75F074C099F0BD
:1028300075C09AF09B6B9C6B9F51A011D8A44BD094
:1028400099519A119B119C11D8A445D09F4BA02B54
:1028500042D0010EA36FA351040DAF0EF324F66E08
:10286000E70EF420F76EF86A000EF8220900F55022
:10287000995D0900F5509A590900F5509B590900D6
:10288000F5509C59D8A032D0A32B0A0EA319D8B466
:102890002DD0E1D7010EA36FA351040D8F0EF324A9
:1028A000F66EE40EF420F76EF86A000EF8220900C6
:1028B000F550995D0900F5509A590900F5509B595A
:1028C0000900F5509C59D8A011D0A32B080EA319CC
:1028D000D8B40CD0E1D7A151C00B000AD8B4B9D7F5
:1028E000800AD8B4D7D7400AD8B4B3D7A351726FEF
:1028F000736B9F51725D7351800A746FA051800A8F
:102900007459D8B003D09FC0A3F010D0A351726FF8
:10291000736B72519F5DA051800A746F7351800A6E
:102920007459D8B003D0A3C09FF0A06B9D519E11E5
:10293000D8B40DD0030EA115726F000EA215736FDF
:1029400072517311D8B403D09D07D8A09E07A2ADD1
:1029500013D09D519F5DA051800A726F9E51800AD5
:102960007259D8B005D09F519D5FA0519E5B04D095
:10297000000E9E6F000E9D6FA351726F736B9D5181
:10298000725D7351800A746F9E51800A7459D8B079
:1029900005D0A3519D5F000E9E5B04D0000E9E6F7C
:1029A000000E9D6FA1A5B5D0A1A341D020EE02F0ED
:1029B0006C51D9266D51DA22DE50DE10DE10D8B40B
:1029C0001DD0A1B104D0000E846F2B0E03D0000ED9
:1029D000846F2D0E836F20EE02F06C51D9266D515D
:1029E000DA2201D859D00500FA6EDE50FD6EDE50B5
:1029F000FE6EDE50FF6EFA5083511200A1B104D07A
:102A0000000E866F2B0E03D0000E866F2D0E856F85
:102A10006CC0D9FF6DC0DAFFDECF72F0DDCF73F08E
:102A200072C0D9FF73C0DAFF85C0DFFF2ED0A1A12D
:102A300033D020EE02F06C51D9266D51DA22DE50EF
:102A4000DE10DE10D8B413D020EE02F06C51D9267F
:102A50006D51DA2201D820D00500FA6EDE50FD6EED
:102A6000DE50FE6EDE50FF6EFA50200E12006CC07B
:102A7000D9FF6DC0DAFFDECF72F0DDCF73F072C028
:102A8000D9FF73C0DAFF200EDF6E6CC0D9FF6DC0B6
:102A9000DAFFDE2A000EDD2200019D519E11D8B41E
:102AA000A1D120EE02F06C51D9266D51DA22DE5010
:102AB000DE10DE10D8B413D020EE02F06C51D9260F
:102AC0006D51DA2201D820D00500FA6EDE50FD6E7D
:102AD000DE50FE6EDE50FF6EFA50300E12006CC0FB
:102AE000D9FF6DC0DAFFDECF72F0DDCF73F072C0B8
:102AF000D9FF73C0DAFF300EDF6E6CC0D9FF6DC036
:102B0000DAFFDE2A000EDD2200019D07D8A09E0715
:102B1000C4D79D519E11D8B43BD020EE02F06C5129
:102B2000D9266D51DA22DE50DE10DE10D8B413D073
:102B300020EE02F06C51D9266D51DA2201D820D056
:102B40000500FA6EDE50FD6EDE50FE6EDE50FF6E4A
:102B5000FA50200E12006CC0D9FF6DC0DAFFDECF34
:102B600072F0DDCF73F072C0D9FF73C0DAFF200EB0
:102B7000DF6E6CC0D9FF6DC0DAFFDE2A000EDD22E9
:102B800000019D07D8A09E079D519E11D8A4C5D7CE
:102B9000A1A341D020EE02F06C51D9266D51DA226A
:102BA000DE50DE10DE10D8B41DD0A1B104D0000E6E
:102BB000886F2B0E03D0000E886F2D0E876F20EECE
:102BC00002F06C51D9266D51DA2201D80BD10500E3
:102BD000FA6EDE50FD6EDE50FE6EDE50FF6EFA5075
:102BE00087511200A1B104D0000E8A6F2B0E03D0C2
:102BF000000E8A6F2D0E896F6CC0D9FF6DC0DAFF91
:102C0000DECF72F0DDCF73F072C0D9FF73C0DAFF90
:102C100089C0DFFFE0D0A1A1E5D020EE02F06C5129
:102C2000D9266D51DA22DE50DE10DE10D8B413D072
:102C300020EE02F06C51D9266D51DA2201D8D2D0A3
:102C40000500FA6EDE50FD6EDE50FE6EDE50FF6E49
:102C5000FA50200E12006CC0D9FF6DC0DAFFDECF33
:102C600072F0DDCF73F072C0D9FF73C0DAFF200EAF
:102C7000DF6EB1D09FC072F0A0C073F0D8907237F1
:102C80007337D89072377337AF0E7225F66EE70E32
:102C90007321F76EF86A000EF8220900F5CF05F0EF
:102CA0000900F5CF06F00900F5CF07F00A00F5CFCF
:102CB00008F099C001F09AC002F09BC003F09CC0DC
:102CC00004F0AFECD8F001C00EF002C00FF003C06A
:102CD00010F004C011F00A0E126E000E136E000EFA
:102CE000146E000E156E34ECDAF00E50300F000149
:102CF000A36F45D099C001F09AC002F09BC003F0C9
:102D00009CC004F09FC072F0A0C073F0D8907237DE
:102D10007337D890723773378F0E7225F66EE40EC4
:102D20007321F76EF86A000EF8220900F5CF05F05E
:102D30000900F5CF06F00900F5CF07F00A00F5CF3E
:102D400008F0AFECD8F001500F0B00017A6F170EAE
:102D50007A25F66EF76AFB0EF722F86A000EF82263
:102D60000800F5CFA3F00BD0A151C00B000AD8B4D6
:102D700081D7800AD8B4BED7400AD8B47BD720EE1A
:102D800002F06C51D9266D51DA22DE50DE10DE10D1
:102D9000D8B413D020EE02F06C51D9266D51DA224E
:102DA00001D820D00500FA6EDE50FD6EDE50FE6EBA
:102DB000DE50FF6EFA50A35112006CC0D9FF6DC0F7
:102DC000DAFFDECF72F0DDCF73F072C0D9FF73C0CF
:102DD000DAFFA3C0DFFF6CC0D9FF6DC0DAFFDE2AC7
:102DE000000EDD2200019F07D8A0A0079F29BCE1AB
:102DF000A029D8A4B9D700016E51726F6F51736FBB
:102E00006E4B6F2B72C0F6FF73C0F7FF000EF86EAB
:102E10000E0EF76403D00800F55005D0F6CFE9FF99
:102E2000F7CFEAFFEF500001A36FA351D8A494EFAE
:102E30008BF0000E6D6F000E6C6F1200DAEF9FF0DA
:102E4000000ED66F000E036F030E046F3F0E056F6A
:102E5000FC0E066F14ECDDF0110E0201036F030E81
:102E6000046F7A0E056FFB0E066F14ECDDF0220E78
:102E70000201036F030E046F6A0E056FFB0E066FEF
:102E800014ECDDF0330E0201036F030E046FFF51EB
:102E900096ECE0F000C205F201C206F214ECDDF09F
:102EA0009AECCEF0010E0201D76F030E0001FB6F0A
:102EB0001200000ED66F000E036F030E046FDE0EBD
:102EC000056FFD0E066F14ECDDF0D10E02018C6F64
:102ED000030E8D6F9F0E8E6FFF0E8F6F58ECE2F01A
:102EE0000BC290F20CC291F238ECDDF0110E02012F
:102EF000036F030E046FD10E056F030E066F14EC03
:102F0000DDF0220E0201036F030E046FD90E056F70
:102F1000FC0E066F14ECDDF0E20E02018C6F030E66
:102F20008D6F710E8E6FFF0E8F6F6EECDFF00201F2
:102F3000A96F410EA925906F916B000E9123ACEC07
:102F4000E1F00201AA6FAA51926F936B38ECDDF0A9
:102F5000330E0201036F030E046FE20E056F030EC2
:102F6000066F14ECDDF09AECCEF0020E9CD7000E4A
:102F7000D66F000E036F030E046F5A0E056FFB0E23
:102F8000066F14ECDDF0110E0201036F030E046FE7
:102F90006C0E056FFE0E066F14ECDDF0220E0201C2
:102FA000036F030E046F8A0E056FFB0E066F14ECA1
:102FB000DDF0330E0201036F030E046FF60E056F92
:102FC000FB0E066F14ECDDF09AECCEF0030E6BD71F
:102FD000000ED66F000E036F030E046FA10E056F77
:102FE000FC0E066F14ECDDF0110E0201036F030EF0
:102FF000046FE90E056FFD0E066F14ECDDF0220E76
:103000000201036F030E046FAF0E056FFC0E066F17
:1030100014ECDDF0330E0201036F030E046F4A0E51
:10302000056FFB0E066F14ECDDF09AECCEF0040E8B
:103030003AD7000ED66F000E036F030E046FD80E42
:10304000056FFB0E066F14ECDDF0110E0201036F2D
:10305000030E046FA20E056FFD0E066F14ECDDF07B
:10306000220E0201036F030E046FF4ECDAF000C2CB
:1030700005F201C206F214ECDDF0330E0201036F1B
:10308000030E046FA20E056FFD0E066F14ECDDF04B
:103090009AECCEF0040E0201D76F010E0001FB6F17
:1030A0001200000ED66F000E036F030E046F4D0E5C
:1030B000056FFC0E066F14ECDDF0110E02018C6F33
:1030C000030E8D6F520E8E6FFF0E8F6FE9C090F260
:1030D000EAC091F2EBC092F2ECC093F238ECDDF072
:1030E000220E0201036F030E046FA20E056FFD0E88
:1030F000066F14ECDDF0330E0201036F030E046F54
:10310000A20E056FFD0E066F14ECDDF09AECCEF00A
:10311000050EC1D7000ED66F000E036F030E046FAD
:10312000E60E056FFC0E066F14ECDDF0110E0201C9
:103130008C6F030E8D6F520E8E6FFF0E8F6FE5C07A
:1031400090F2E6C091F2E7C092F2E8C093F238EC58
:10315000DDF0220E0201036F030E046FA20E056F55
:10316000FD0E066F14ECDDF0330E0201036F030E4B
:10317000046FA20E056FFD0E066F14ECDDF09AECE5
:10318000CEF0060E88D7000ED66F000E036F030E2A
:10319000046F930E056FFC0E066F14ECDDF0110E3C
:1031A00002018C6F030E8D6F420E8E6FFF0E8F6FBC
:1031B000EDC090F2EEC091F2EFC092F2F0C093F247
:1031C00038ECDDF0220E0201036F030E046FA20E35
:1031D000056FFD0E066F14ECDDF0330E0201036F78
:1031E000030E046FA20E056FFD0E066F14ECDDF0EA
:1031F0009AECCEF0070E4FD7000ED66F000E036F7D
:10320000030E046F800E056FFD0E066F14ECDDF0EB
:103210000201D251D311D411D511D8A40BD0110E63
:10322000036F030E046F1A0E056FFD0E066F14EC8C
:10323000DDF012D0110E8C6F030E8D6F420E8E6F6B
:10324000FF0E8F6FF1C090F2F2C091F2F3C092F2D4
:10325000F4C093F238ECDDF0220E0201036F030E8E
:10326000046FA20E056FFD0E066F14ECDDF0330E39
:103270000201036F030E046FA20E056FFD0E066FB1
:1032800014ECDDF09AECCEF0080E05D7000ED66FE8
:10329000000E036F030E046F0D0E056FFD0E066F1B
:1032A00014ECDDF0110E02018C6F030E8D6F5A0EBF
:1032B0008E6FFF0E8F6FBEC290F2BFC291F2C0C27E
:1032C00092F2C1C293F238ECDDF0220E0201036FDC
:1032D000030E046FA20E056FFD0E066F14ECDDF0F9
:1032E000330E0201036F030E046FA20E056FFD0E75
:1032F000066F14ECDDF09AECCEF0090ECCD6000E81
:10330000D66F000E036F030E046F850E056FFC0E63
:10331000066F14ECDDF00201D251D311D411D51196
:10332000D8A40BD0110E036F030E046F1A0E056F95
:10333000FD0E066F14ECDDF012D0110E8C6F030E33
:103340008D6F5A0E8E6FFF0E8F6FC2C290F2C3C286
:1033500091F2C4C292F2C5C293F238ECDDF0220EB3
:103360000201036F030E046FA20E056FFD0E066FC0
:1033700014ECDDF0330E0201036F030E046FA20E96
:10338000056FFD0E066F14ECDDF09AECCEF00A0E20
:1033900082D6000ED66F000E036F030E046F8C0EE4
:1033A000056FFD0E066F14ECDDF00201D251D31152
:1033B000D411D511D8A40BD0110E036F030E046FD6
:1033C0001A0E056FFD0E066F14ECDDF012D0110E13
:1033D0008C6F030E8D6FF30E8E6FFE0E8F6FC6C255
:1033E00090F2C7C291F2C8C292F2C9C293F238EC0D
:1033F000DDF0220E0201036F030E046FA20E056FB3
:10340000FD0E066F14ECDDF0330E0201036F030EA8
:10341000046FA20E056FFD0E066F14ECDDF09AEC42
:10342000CEF00B0E38D6000ED66F000E036F030ED3
:10343000046FFC0E056FFE0E066F14ECDDF0110E2E
:1034400002018C6F030E8D6F4A0E8E6FFF0E8F6F11
:10345000DBC290F2DCC291F2DDC292F2DEC293F2E4
:1034600038ECDDF0220E0201036F030E046FA20E92
:10347000056FFD0E066F14ECDDF0330E0201036FD5
:10348000030E046FA20E056FFD0E066F14ECDDF047
:103490009AECCEF00F0EFFD5000ED66F000E036F24
:1034A000030E046F620E056FFE0E066F14ECDDF066
:1034B000110E02018C6F030E8D6F4A0E8E6FFF0E80
:1034C0008F6FDFC290F2E0C291F2E1C292F2E2C2EB
:1034D00093F238ECDDF0220E0201036F030E046F4D
:1034E000A20E056FFD0E066F14ECDDF0330E020127
:1034F000036F030E046FA20E056FFD0E066F14EC32
:10350000DDF09AECCEF0100EC6D5000ED66F000E90
:10351000036F030E046F690E056FFC0E066F14EC4B
:10352000DDF0110E02018C6F030E8D6F4A0E8E6F4F
:10353000FF0E8F6FE3C290F2E4C291F2E5C292F205
:10354000E6C293F238ECDDF0220E0201036F030EA7
:10355000046FA20E056FFD0E066F14ECDDF0330E46
:103560000201036F030E046FA20E056FFD0E066FBE
:1035700014ECDDF09AECCEF0110E8DD5000ED66F66
:10358000000E036F030E046F740E056FFD0E066FC1
:1035900014ECDDF0110E02018C6F030E8D6F4A0EDC
:1035A0008E6FFF0E8F6FF5C090F2F6C091F2F7C0EC
:1035B00092F2F8C093F238ECDDF0220E0201036FB4
:1035C000030E046FA20E056FFD0E066F14ECDDF006
:1035D000330E0201036F030E046FA20E056FFD0E82
:1035E000066F14ECDDF09AECCEF0120E54D5000EFE
:1035F000D66F000E036F030E046F770E056FFC0E7F
:10360000066F14ECDDF001019551D8B404D0030E1F
:103610009519D8A40CD0110E0201036F030E046F8C
:10362000F40E056FFD0E066F14ECDDF00BD0110EDD
:103630000201036F030E046F170E056FFF0E066F76
:1036400014ECDDF0220E0201036F030E046FA20ED4
:10365000056FFD0E066F14ECDDF0330E0201036FF3
:10366000030E046FA20E056FFD0E066F14ECDDF065
:103670009AECCEF0130E0FD5000ED66F000E036F2E
:10368000030E046F000E056FFD0E066F14ECDDF0E7
:1036900001019551D8B404D0030E9519D8A40CD0CB
:1036A000110E0201036F030E046FF40E056FFD0E81
:1036B000066F14ECDDF01DD068C19FF269C1A0F265
:1036C0006AC1A1F26BC1A2F2CEECB1F09FC2F3F3DA
:1036D000A0C2F4F3110E02018C6F030E8D6FA40EC5
:1036E0008E6FFF0E8F6FF3C390F2F4C391F238EC3C
:1036F000DDF0220E0201036F030E046FA20E056FB0
:10370000FD0E066F14ECDDF0330E0201036F030EA5
:10371000046FA20E056FFD0E066F14ECDDF09AEC3F
:10372000CEF0140EB8D4000ED66F000E036F030E49
:10373000046F5B0E056FFC0E066F14ECDDF0800E5F
:103740000001C55D330EC659E10EC759010EC859B7
:10375000D8A04FD0110E02018C6F030E8D6F050E95
:103760008E6FFF0E8F6FC5C00DF2C6C00EF2C7C0C0
:103770000FF2C8C010F27EECE0F00201A96FA9516F
:10378000906F916B38ECDDF0220E02018C6F030E0E
:103790008D6F620E8E6FFF0E8F6FC5C00DF2C6C0AB
:1037A0000EF2C7C00FF2C8C010F215ECD7F002013C
:1037B000A96FA951906F916B38ECDDF0330E0201C7
:1037C0008C6F030E8D6F0E0E8E6FFF0E8F6FC5C048
:1037D0000DF2C6C00EF2C7C00FF2C8C010F299ECCD
:1037E000D1F00201A96FA951906F916B38ECDDF017
:1037F00029D1C85108E1800EC55D510EC659010E90
:10380000C759D8A04FD0110E02018C6F030E8D6FD7
:10381000620E8E6FFF0E8F6FC5C00DF2C6C00EF226
:10382000C7C00FF2C8C010F215ECD7F00201A96FA3
:10383000A951906F916B38ECDDF0220E02018C6F74
:10384000030E8D6F0E0E8E6FFF0E8F6FC5C00DF2C3
:10385000C6C00EF2C7C00FF2C8C010F299ECD1F08A
:103860000201A96FA951906F916B38ECDDF0330E16
:1038700002018C6F030E8D6F0A0E8E6FFE0E8F6F1E
:10388000C5C00DF2C6C00EF2C7C00FF2C8C010F21C
:103890000EECCCF00201A96FA951906F916B38EC3E
:1038A000DDF0D0D0C851C71106E1100EC55D0E0E77
:1038B000C659D8A04FD0110E02018C6F030E8D6F28
:1038C0000E0E8E6FFF0E8F6FC5C00DF2C6C00EF2CA
:1038D000C7C00FF2C8C010F299ECD1F00201A96F75
:1038E000A951906F916B38ECDDF0220E02018C6FC4
:1038F000030E8D6F0A0E8E6FFE0E8F6FC5C00DF218
:10390000C6C00EF2C7C00FF2C8C010F20EECCCF069
:103910000201A96FA951906F916B38ECDDF0330E65
:1039200002018C6F030E8D6FFF0E8E6FFD0E8F6F79
:10393000C5C00DF2C6C00EF2C7C00FF2C8C010F26B
:10394000A2ECCAF00201A96FA951906F916B38ECFB
:10395000DDF078D0C851C711C61104E13C0EC55D39
:10396000D8A040D0110E02018C6F030E8D6F0A0E8D
:103970008E6FFE0E8F6FC5C00DF2C6C00EF2C7C0AF
:103980000FF2C8C010F20EECCCF00201A96FA951E1
:10399000906F916B38ECDDF0220E02018C6F030EFC
:1039A0008D6FFF0E8E6FFD0E8F6FC5C00DF2C6C0FE
:1039B0000EF2C7C00FF2C8C010F2A2ECCAF00201AA
:1039C000A96FA951906F916B38ECDDF0330E0201B5
:1039D000036F030E046FA20E056FFD0E066F14EC4D
:1039E000DDF030D0110E02018C6F030E8D6FFF0ED3
:1039F0008E6FFD0E8F6FC5C00DF2C6C00EF2C7C030
:103A00000FF2C8C010F2A2ECCAF00201A96FA951CE
:103A1000906F916B38ECDDF0220E0201036F030E04
:103A2000046FA20E056FFD0E066F14ECDDF0330E71
:103A30000201036F030E046FA20E056FFD0E066FE9
:103A400014ECDDF09AECCEF0150E4BEF98F0000E72
:103A5000D66F000E036F030E046FF30E056FFC0E9E
:103A6000066F14ECDDF00201D551D41106E1100E01
:103A7000D25D0E0ED359D8A04ED0110E8C6F030E0E
:103A80008D6F0E0E8E6FFF0E8F6FD2C20DF2D3C2EE
:103A90000EF2D4C20FF2D5C210F299ECD1F00201AD
:103AA000A96FA951906F916B38ECDDF0220E0201E5
:103AB0008C6F030E8D6F0A0E8E6FFE0E8F6FD2C24B
:103AC0000DF2D3C20EF2D4C20FF2D5C210F20EEC38
:103AD000CCF00201A96FA951906F916B38ECDDF029
:103AE000330E02018C6F030E8D6FFF0E8E6FFD0E75
:103AF0008F6FD2C20DF2D3C20EF2D4C20FF2D5C272
:103B000010F2A2ECCAF00201A96FA951906F916B5B
:103B100038ECDDF09DD0D551D411D31104E13C0E29
:103B2000D25DD8A03FD0110E8C6F030E8D6F0A0EA0
:103B30008E6FFE0E8F6FD2C20DF2D3C20EF2D4C2C0
:103B40000FF2D5C210F20EECCCF00201A96FA95110
:103B5000906F916B38ECDDF0220E02018C6F030E3A
:103B60008D6FFF0E8E6FFD0E8F6FD2C20DF2D3C21E
:103B70000EF2D4C20FF2D5C210F2A2ECCAF00201CA
:103B8000A96FA951906F916B38ECDDF0330E0201F3
:103B9000036F030E046FA20E056FFD0E066F14EC8B
:103BA000DDF056D0D251D311D411D511D8A421D0E3
:103BB000110E036F030E046F1A0E056FFD0E066FD4
:103BC00014ECDDF0220E0201036F030E046FA20E4F
:103BD000056FFD0E066F14ECDDF0330E0201036F6E
:103BE000030E046FA20E056FFD0E066F14ECDDF0E0
:103BF0002FD0110E8C6F030E8D6FFF0E8E6FFD0E8A
:103C00008F6FD2C20DF2D3C20EF2D4C20FF2D5C260
:103C100010F2A2ECCAF00201A96FA951906F916B4A
:103C200038ECDDF0220E0201036F030E046FA20ECA
:103C3000056FFD0E066F14ECDDF0330E0201036F0D
:103C4000030E046FA20E056FFD0E066F14ECDDF07F
:103C50009AECCEF00C0E4BEF98F0000ED66F000EE3
:103C6000036F030E046FC90E056FFB0E066F14EC95
:103C7000DDF00201D251D311D411D511D8A40BD04B
:103C8000110E036F030E046F1A0E056FFD0E066F03
:103C900014ECDDF01DD0CAC29FF2CBC2A0F2CCC2A0
:103CA000A1F2CDC2A2F2CEECB1F09FC2F3F3A0C25A
:103CB000F4F3110E02018C6F030E8D6FBF0E8E6F29
:103CC000FF0E8F6FF3C390F2F4C391F238ECDDF086
:103CD000220E0201036F030E046FA20E056FFD0E8C
:103CE000066F14ECDDF0330E0201036F030E046F58
:103CF000A20E056FFD0E066F14ECDDF09AECCEF00F
:103D00000D0E4BEF98F0000ED66F000E036F030EF2
:103D1000046FE70E056FFB0E066F14ECDDF0020179
:103D2000D251D311D411D511D8A40BD0110E036FD9
:103D3000030E046F1A0E056FFD0E066F14ECDDF016
:103D40001DD0CEC29FF2CFC2A0F2D0C2A1F2D1C28A
:103D5000A2F2CEECB1F09FC2F3F3A0C2F4F3110EC5
:103D600002018C6F030E8D6FC30E8E6FFF0E8F6F6F
:103D7000F3C390F2F4C391F238ECDDF0220E0201AD
:103D8000036F030E046FA20E056FFD0E066F14EC99
:103D9000DDF0330E0201036F030E046FA20E056FF8
:103DA000FD0E066F14ECDDF09AECCEF00E0E4BEF2C
:103DB00098F0000ED66F000E036F030E046F6A0EAC
:103DC000056FFB0E066F14ECDDF0110E0201036FA0
:103DD000030E046FA20E056FFD0E066F14ECDDF0EE
:103DE000220E0201036F030E046FFF5196ECE0F008
:103DF00000C205F201C206F214ECDDF0330E02013E
:103E0000036F030E046FA20E056FFD0E066F14EC18
:103E1000DDF09AECCEF0160E0201D76F0001FB69BF
:103E20001200000ED66F000E036F030E046FDE0E3D
:103E3000056FFD0E066F14ECDDF0D10E02018C6FE4
:103E4000030E8D6F9F0E8E6FFF0E8F6F58ECE2F09A
:103E50000BC290F20CC291F238ECDDF0110E0201AF
