:020000040000FA
:0400000051EF00F0CC
:060008005F82BAEFE3F095
:100018005F80D8CF5CF1E8CF5DF1E0CF5EF1FACF39
:100028005FF1FBCF60F1D9CF61F1DACF62F1F3CFA5
:1000380063F1F4CF64F10E01C6B3CEA303D071EC23
:10004800F3F017D0C5B7CDA703D040ECF6F011D028
:10005800C5B5CDA503D02FECD6F00BD0C6B5CEA52F
:1000680003D01AECF2F005D0C8B3D0A302D026EC26
:10007800F5F064C1F4FF63C1F3FF62C1DAFF61C147
:10008800D9FF60C1FBFF5FC1FAFF5EC1E0FF5DC140
:0E009800E8FF5CC1D8FF5F901000CFEFE7F0EB
:10D70200000000803F000020410000C84200007A73
:10D712004400401C460050C34700247449809618B8
:10D722004B20BCBE4C286B6E4EF9021550EC78AD06
:10D7320060CAF249710000803FCDCCCC3D0AD723AC
:10D742003C6F12833A17B7D138ACC52737BD37863D
:10D752003595BFD63377CC2B325F708930FFE6DB4D
:10D762002E08E53C1E6042A20D01000000100000E0
:10D772000000010000001000000000010000001085
:10D782000000000001000000100000000000000086
:10D792000000005F0000000000000007000700001A
:10D7A2000000147F147F14000000242A7F2A120034
:10D7B200000023130864620000003649552250001D
:10D7C200000000050300000000001C2241000000D0
:10D7D200000041221C0000000000082A1C2A080048
:10D7E200000008083E0808000000A06000000000D9
:10D7F200000008080808080000006060000000003F
:10D80200000020100804020000003E5149453E007D
:10D81200000000427F40000000006251494946007A
:10D82200000022414949360000001814127F1000FE
:10D83200000027454545390000003C4A494930006F
:10D84200000001710905030000003649494936000C
:10D852000000064949291E0000000036360000007B
:10D86200000000AC6C00000000000814224100001F
:10D8720000001414141414000000412214080000C3
:10D8820000000201510906000000324979413E00C0
:10D8920000007E0909097E0000007F4949493600DF
:10D8A20000003E414141220000007F4141221C0014
:10D8B20000007F494949410000007F090909010030
:10D8C20000003E414151720000007F0808087F00BD
:10D8D2000000417F4100000000002040413F010064
:10D8E20000007F081422410000007F4040404000B9
:10D8F20000007F020C027F0000007F0408107F00FE
:10D9020000003E4141413E0000007F090909060036
:10D9120000003E4151215E0000007F0919294600A6
:10D922000000264949493200000001017F0101003F
:10D9320000003F4040403F0000001F2040201F00E9
:10D9420000003F4038403F000000631408146300A9
:10D9520000000304780403000000615149454300BC
:10D9620000007F4141000000000002040810200076
:10D97200000041417F000000000004020102040097
:10D98200000080808080800000000102040000000E
:10D99200000020545454780000007F48444438006A
:10D9A20000003844442800000000384444487F0006
:10D9B20000003854545418000000087E0902000088
:10D9C200000018A4A4A47C0000007F0804047800CE
:10D9D2000000007D00000000000080847D00000047
:10D9E20000007F10284400000000417F400000003A
:10D9F20000007C041804780000007C08047C00000D
:10DA020000003844443800000000FC2424180000C0
:10DA12000000182424FC00000000007C0804000020
:10DA220000004854542400000000047F4400000019
:10DA320000003C40407C000000001C2040201C00F4
:10DA420000003C4030403C000000442810284400C4
:10DA520000001CA0A07C000000004464544C440060
:10DA620000000836410000000000007F00000000B6
:10DA7200000041360800000000000201010201001E
:10DA8200000002050502000000010000000A00007B
:10DA92000064000000E803000010270000A08601D7
:10DAA2000040420F008096980000E1F50500CA9AF6
:10DAB2003BB80EBC43202020202A49444E3F3A2046
:10DAC2005072696E7473206964656E746966696305
:10DAD2006174696F6E20737472696E670A0D20201B
:10DAE200202052657365743A2045786563757465C4
:10DAF2007320736F667477617265207265736574E3
:10DB020020696E737472756374696F6E0A0D2020DA
:10DB12002020436C6561723A20436C656172732008
:10DB2200746865207669727475616C20434F4D206C
:10DB3200706F7274207465726D696E616C0A0D206B
:10DB420020202043757272656E74204D6561737575
:10DB520072656D656E74733F3A205072696E7473AC
:10DB620020696E7374616E74616E656F7573207374
:10DB7200797374656D206C6576656C20656C656380
:10DB820074726963616C206D6561737572656D6530
:10DB92006E74730A0D202020204D6178204D65613E
:10DBA200737572656D656E74733F3A205072696E5B
:10DBB200747320746865206D6178696D756D20726B
:10DBC20065636F726465642073797374656D206C2C
:10DBD2006576656C20656C656374726963616C203F
:10DBE2006D6561737572656D656E74730A0D2020C3
:10DBF20020204D696E204D6561737572656D656E8D
:10DC020074733F3A205072696E7473207468652091
:10DC12006D696E696D756D207265636F726465649E
:10DC22002073797374656D206C6576656C20656C04
:10DC3200656374726963616C206D65617375726589
:10DC42006D656E74730A0D20202020436C6561722D
:10DC5200204D6561737572656D656E7420457874CB
:10DC620072656D65733A20636C65617273206D65D0
:10DC720061737572656D656E74206D696E20616E7B
:10DC820064206D61782076616C7565732C20616EFD
:10DC920064207265736574732076616C7565732098
:10DCA200696E20454550524F4D0A0D2020202045D7
:10DCB2006E61626C65204C697665204D6561737595
:10DCC20072656D656E74733A205072696E7473205A
:10DCD2006120636F6E74696E756F757320737472F1
:10DCE20065616D206F66206D6561737572656D6526
:10DCF2006E74206461746120746F2074686520748E
:10DD020065726D696E616C0A0D202020204D4355AD
:10DD1200205374617475733F3A205072696E747344
:10DD2200206469676974616C206D6F6E69746F72CB
:10DD3200696E67206D6963726F636F6E74726F6C68
:10DD42006C657220646576696365207374617475AD
:10DD5200730A0D202020204572726F722053746165
:10DD62007475733F205072696E7473206966206106
:10DD72006E792073797374656D206661756C747346
:10DD82002068617665206265656E206465746563EE
:10DD92007465640A0D20202020436C656172205551
:10DDA200415254204572726F72733A20436C65611E
:10DDB20072732055415254206572726F7220666CE4
:10DDC2006167730A0D20202020436C65617220492F
:10DDD2003243204572726F72733A20436C656172EE
:10DDE2007320493243206572726F7220666C6167DC
:10DDF200730A0D20202020436C6561722041444348
:10DE0200204572726F72733A20436C65617273209F
:10DE1200414443206572726F7220666C6167730AB7
:10DE22000D2020202048656C703A204C6973747371
:10DE320020617661696C61626C6520636F6D6D61F2
:10DE42006E647320287468697320636F6D6D616EF0
:10DE520064290A0D002020202020202020496E74F1
:10DE620065726E616C20466978656420566F6C74C9
:10DE7200616765205265666572656E636520284636
:10DE8200565229204275666665722031206D6561A1
:10DE9200737572656420617320252B2E33662056BC
:10DEA2006F6C74732C2063616C6962726174656457
:10DEB20020666F72202B342E30393620566F6C74E8
:10DEC200731B5B4B0A0D00436F6D6D616E647320B3
:10DED20061726520636173652073656E736974692D
:10DEE20076652C206261636B737061636520697370
:10DEF20020737570706F727465642C20636F6D6D22
:10DF0200616E6420686973746F7279206973206E20
:10DF12006F7420737570706F727465640A0D0020DF
:10DF22002020204D6178696D756D20457374696D8F
:10DF3200617465642043686172676520636F6E7304
:10DF4200756D656420627920746865206C6F616408
:10DF5200207768696C65206368617267696E673AE9
:10DF6200202573436F756C6F6D62731B5B4B0A0DDB
:10DF72001B5B4B0A0D00202020204D6178696D75D6
:10DF82006D20457374696D6174656420456E6572B8
:10DF9200677920636F6E73756D6564206279207492
:10DFA2006865206C6F6164207768696C65206368BE
:10DFB200617267696E673A2025734A6F756C657383
:10DFC2001B5B4B0A0D1B5B4B0A0D002020202045DA
:10DFD2007374696D6174656420636861726765203A
:10DFE200636F6E73756D6564206279207468652055
:10DFF2006C6F6164207768696C6520636861726721
:10E00200696E673A202573436F756C6F6D62731B7F
:10E012005B4B0A0D1B5B4B0A0D00202020202020A9
:10E02200202043757272656E74204275636B2043C3
:10E032006F6E76657274657220537769746368696E
:10E042006E67204672657175656E6379206D6561D4
:10E05200737572656420617320252B2E3166204D05
:10E06200487A1B5B4B0A0D002020202045737469FF
:10E072006D6174656420656E6572677920636F6E89
:10E0820073756D656420627920746865206C6F61B8
:10E0920064207768696C65206368617267696E677E
:10E0A2003A2025734A6F756C65731B5B4B0A0D1B17
:10E0B2005B4B0A0D0020202020202020204D696E7D
:10E0C200696D756D204D6963726F636F6E74726FE7
:10E0D2006C6C6572204469652054656D706572616F
:10E0E20074757265206D6561737572656D656E74A8
:10E0F2002077617320252B2E336620431B5B4B0A4E
:10E102000D0020202020202020204D6178696D758F
:10E112006D204D6963726F636F6E74726F6C6C65A4
:10E1220072204469652054656D7065726174757200
:10E1320065206D6561737572656D656E74207761BA
:10E142007320252B2E336620431B5B4B0A0D0020C8
:10E15200202020202020204D696E696D756D20578A
:10E162006972656C657373204F7574707574205095
:10E172006F7765722063616C63756C6174696F6E31
:10E182002077617320252B2E3366205761747473B8
:10E192001B5B4B0A0D1B5B4B0A0D0020202020202D
:10E1A2002020204D6178696D756D20576972656C0C
:10E1B200657373204F757470757420506F77657234
:10E1C2002063616C63756C6174696F6E2077617333
:10E1D20020252B2E33662057617474731B5B4B0A08
:10E1E2000D1B5B4B0A0D0020202020202020204DFB
:10E1F200696E696D756D20514920636F6E76657227
:10E202007465722063757272656E74206D656173D8
:10E212007572656D656E742077617320252B2E33C0
:10E222006620416D70731B5B4B0A0D1B5B4B0A0D25
:10E232000020202020202020204D6178696D756DFE
:10E2420020514920636F6E76657274657220637522
:10E252007272656E74206D6561737572656D656E3F
:10E26200742077617320252B2E336620416D7073E5
:10E272001B5B4B0A0D1B5B4B0A0D0020202020204C
:10E2820020204D696E696D756D2051492053776963
:10E29200746368696E67204672657175656E63792D
:10E2A200206D6561737572656D656E74207761733B
:10E2B20020252B2E3366206B487A1B5B4B0A0D1BE5
:10E2C2005B4B0A0D00202020202020204D61786920
:10E2D2006D756D20514920537769746368696E6763
:10E2E200204672657175656E6379206D656173751F
:10E2F20072656D656E742077617320252B2E3366EF
:10E30200206B487A1B5B4B0A0D1B5B4B0A0D0020EE
:10E3120020202020202020415653532028416E6186
:10E322006C6F672047726F756E6420526566657206
:10E33200656E636529206D65617375726564206120
:10E342007320252B2E336620566F6C74731B5B4B28
:10E352000A0D1B5B4B0A0D002020202020202020CC
:10E362004D696E696D756D204275636B20436F6EEA
:10E372007665727465722054656D7065726174752C
:10E382007265206D6561737572656D656E74207757
:10E39200617320252B2E336620431B5B4B0A0D0035
:10E3A20020202020202020204D6178696D756D206D
:10E3B2004275636B20436F6E76657274657220548A
:10E3C200656D7065726174757265206D65617375D6
:10E3D20072656D656E742077617320252B2E33660E
:10E3E20020431B5B4B0A0D002020202020202020F0
:10E3F2004D696E696D756D20456C656374726963F4
:10E40200616C20496E70757420506F77657220635D
:10E41200616C63756C6174696F6E2077617320251E
:10E422002B2E33662057617474731B5B4B0A0D00ED
:10E4320020202020202020204D6178696D756D20DC
:10E44200456C656374726963616C20496E707574A2
:10E4520020506F7765722063616C63756C617469BB
:10E462006F6E2077617320252B2E336620576174DF
:10E4720074731B5B4B0A0D002020202020202020DB
:10E4820043757272656E74205149205377697463C3
:10E4920068696E67204672657175656E6379206D75
:10E4A2006561737572656420617320252B2E336656
:10E4B200206B487A1B5B4B0A0D1B5B4B0A0D00203D
:10E4C200202020202020204D696E696D756D20412D
:10E4D2006D6269656E742054656D706572617475E4
:10E4E2007265206D6561737572656D656E742077F6
:10E4F200617320252B2E336620431B5B4B0A0D1BB9
:10E502005B4B0A0D0020202020202020204D617826
:10E51200696D756D20416D6269656E742054656D1B
:10E522007065726174757265206D6561737572656F
:10E532006D656E742077617320252B2E3366204320
:10E542001B5B4B0A0D1B5B4B0A0D00202020202079
:10E552002020204D696E696D756D20514920436FF1
:10E562006E7665727465722054656D706572617441
:10E57200757265206D6561737572656D656E742067
:10E5820077617320252B2E336620431B5B4B0A0DCC
:10E592000020202020202020204D6178696D756D9B
:10E5A20020514920436F6E766572746572205465FE
:10E5B2006D7065726174757265206D6561737572D7
:10E5C200656D656E742077617320252B2E3366206E
:10E5D200431B5B4B0A0D0020202020202020204ED0
:10E5E2006F206C6F61642070726573656E742C208D
:10E5F2006E6F2065666665637469766520776972F9
:10E60200656C657373206F757470757420706F77A5
:10E6120065721B5B4B0A0D0A0D0020202020202072
:10E622002020576972656C657373204F757470751D
:10E632007420506F7765722063616C63756C6174CE
:10E64200656420617320252B2E3366205761747414
:10E65200731B5B4B0A0D1B5B4B0A0D002020202015
:10E66200202020204D6963726F636F6E74726F6C2D
:10E672006C6572204469652054656D7065726174C1
:10E6820075726520657374696D6174656420617368
:10E6920020252B2E336620431B5B4B0A0D002020C6
:10E6A2002020514920776972656C65737320706F01
:10E6B20077657220636F6E76657274657220686129
:10E6C200732066756C6C792063686172676564207B
:10E6D2006C6F61641B5B4B0A0D1B5B4B0A0D0043A5
:10E6E2006C656172696E67206D6561737572656DC7
:10E6F200656E74206D696E696D756D7320616E64EF
:10E70200206D6178696D756D732066726F6D205230
:10E71200414D20616E6420454550524F4D0A0D0017
:10E7220020202020546865206361757365206F6620
:10E7320020746865206D6F737420726563656E74F2
:10E74200206D6963726F636F6E74726F6C6C657249
:10E75200207265736574207761733A2025730A0D00
:10E76200002020202043616C6C2027436C6561727D
:10E772002055415254204572726F72732720746F74
:10E7820020636C65617220636F6D6D756E69636184
:10E7920074696F6E73206572726F722873290A0D25
:10E7A200002020202043616C6C2027436C6561723D
:10E7B20020493243204572726F72732720746F2092
:10E7C200636C65617220636F6D6D756E69636174F0
:10E7D200696F6E73206572726F722873290A0D0059
:10E7E200202020204D696E696D756D204465766923
:10E7F200636520456666696369656E637920636156
:10E802006C63756C6174696F6E2077617320252E5D
:10E81200336625251B5B4B0A0D1B5B4B0A0D002043
:10E822002020204D6178696D756D2044657669639D
:10E832006520456666696369656E63792063616C0C
:10E8420063756C6174696F6E2077617320252E3356
:10E852006625251B5B4B0A0D1B5B4B0A0D00202016
:10E862002020202020204D696E696D756D202B358A
:10E8720056207261696C206D6561737572656D6594
:10E882006E742077617320252B2E336620566F6CB1
:10E8920074731B5B4B0A0D1B5B4B0A0D002020207F
:10E8A20020202020204D6178696D756D202B355612
:10E8B200207261696C206D6561737572656D656E3C
:10E8C200742077617320252B2E336620566F6C746B
:10E8D200731B5B4B0A0D1B5B4B0A0D002020202093
:10E8E200202020204D696E696D756D20496E70750E
:10E8F2007420766F6C74616765206D6561737572E3
:10E90200656D656E742077617320252B2E3366202A
:10E91200566F6C74731B5B4B0A0D00202020202065
:10E922002020204D6178696D756D20496E70757477
:10E9320020766F6C74616765206D656173757265B1
:10E942006D656E742077617320252B2E33662056F9
:10E952006F6C74731B5B4B0A0D002020202020205B
:10E962002020514920636F6E766572746572206350
:10E97200757272656E74206D65617375726564205F
:10E98200617320252B2E336620416D70731B5B4B08
:10E992000A0D1B5B4B0A0D00202020202020202086
:10E9A2004D696E696D756D20496E70757420637561
:10E9B2007272656E74206D6561737572656D656ED8
:10E9C200742077617320252B2E336620416D70737E
:10E9D2001B5B4B0A0D0020202020202020204D61AF
:10E9E20078696D756D20496E7075742063757272E9
:10E9F200656E74206D6561737572656D656E7420E8
:10EA020077617320252B2E336620416D70731B5B5B
:10EA12004B0A0D002020202020202020456C656319
:10EA220074726963616C20496E70757420506F77DF
:10EA320065722063616C63756C61746564206173D7
:10EA420020252B2E33662057617474731B5B4B0A8F
:10EA52000D00202020204465766963652073696C6F
:10EA620069636F6E207265766973696F6E204944BF
:10EA7200207265747269657665642066726F6D20B6
:10EA8200666C6173683A202563253033640A0D0091
:10EA920044657669636520706172616D6574657243
:10EAA2007320616E642061666669726D6174697655
:10EAB2006520726573706F6E736573206170706527
:10EAC200617220696E20677265656E0A0D00537966
:10EAD2007374656D20706172616D65746572732007
:10EAE200616E642061666669726D61746976652023
:10EAF200726573706F6E7365732061707065617299
:10EB020020696E20677265656E0A0D002020202044
:10EB120054686520666F6C6C6F77696E67205573F9
:10EB22006572204944732068617665206265656E6E
:10EB3200207265747269657665642066726F6D20F5
:10EB4200666C6173683A0A0D0046696E697368659E
:10EB5200642074657374206D6573736167652C201E
:10EB620074797065202748656C702720666F722063
:10EB72006C697374206F6620636F6D6D616E647370
:10EB82000A0D0A0D00202020205149207769726564
:10EB92006C65737320706F77657220636F6E766534
:10EBA2007274657220697320696E206572726F7269
:10EBB2002053746174651B5B4B0A0D1B5B4B0A0D82
:10EBC2000020202020202020204275636B20436FEC
:10EBD2006E7665727465722054656D7065726174CB
:10EBE200757265206D65617375726564206173204D
:10EBF200252B2E336620431B5B4B0A0D0020202061
:10EC020020202020205573657220494420576F72BE
:10EC1200642025642028466C6173682061646472F4
:10EC220065737320307832303030302558293A20DD
:10EC32003078253034580A0D002020202020202052
:10EC420020416D6269656E742054656D70657261F4
:10EC520074757265206D6561737572656420617388
:10EC620020252B2E336620431B5B4B0A0D1B5B4B6F
:10EC72000A0D0020202020514920776972656C65B9
:10EC8200737320706F77657220636F6E766572742E
:10EC920065722069732063757272656E746C792077
:10ECA20025731B5B4B0A0D1B5B4B0A0D00202020BA
:10ECB2002020202020514920436F6E7665727465B2
:10ECC200722054656D7065726174757265206D6530
:10ECD20061737572656420617320252B2E33662063
:10ECE200431B5B4B0A0D004D696E696D756D206D9E
:10ECF2006561737572656D656E7420726573756C8E
:10ED020074732061742074696D65206F6620636F6F
:10ED12006D6D616E642063616C6C3A0A0D0A0D00C0
:10ED22004D6178696D756D206D6561737572656D84
:10ED3200656E7420726573756C74732061742074CF
:10ED4200696D65206F6620636F6D6D616E6420630F
:10ED5200616C6C3A0A0D0A0D000A0D48656C702050
:10ED62006D6573736167657320616E64206E65758E
:10ED72007472616C20726573706F6E73657320615B
:10ED8200707065617220696E2079656C6C6F770AAC
:10ED92000D00202020204E6F206C6F616420707265
:10EDA2006573656E742C2073797374656D20656666
:10EDB20066696369656E637920697320302E30203D
:10EDC20025251B5B4B0A0D0A0D00202020204465DF
:10EDD2007669636520456666696369656E63792055
:10EDE20063616C63756C6174656420617320252EA8
:10EDF20033662025251B5B4B0A0D1B5B4B0A0D005E
:10EE0200514920436861726765722077697468208E
:10EE12004469676974616C204D6F6E69746F7269C1
:10EE22006E672C2062792044726577204D6161748F
:10EE32006D616E0A0D0020202020446576696365AD
:10EE420020686173206265656E206368617267691C
:10EE52006E672061206C6F616420666F722025737B
:10EE62001B5B4B0A0D1B5B4B0A0D0020202020432D
:10EE7200616C6C2027436C656172204144432045DC
:10EE820072726F72732720746F20636C65617220D7
:10EE9200414443206572726F722873290A0D005132
:10EEA20049204368617267657220776974682044FB
:10EEB20069676974616C204D6F6E69746F72696EF7
:10EEC200670A0D426F6F7420436F6D706C657465D5
:10EED2000A0D0020202020202020202B35562072D1
:10EEE20061696C206D656173757265642061732060
:10EEF200252B2E336620566F6C74731B5B4B0A0DE9
:10EF02001B5B4B0A0D002020202020202020496E70
:10EF120070757420766F6C74616765206D656173BE
:10EF22007572656420617320252B2E336620566F1F
:10EF32006C74731B5B4B0A0D00202020204D43553F
:10EF4200206F6E2074696D652073696E6365206C35
:10EF520061737420726573657420636F6E64697483
:10EF6200696F6E2069732025730A0D00202020200E
:10EF720044657669636520494420726574726965E7
:10EF82007665642066726F6D20666C6173683A20E4
:10EF920025732028307825303458290A0D00202086
:10EFA200202054686520666F6C6C6F77696E6720ED
:10EFB2006368616E6E656C7320636175736564204E
:10EFC200616E20414443206572726F723A0A0D00ED
:10EFD2002020202020202020496E70757420637527
:10EFE2007272656E74206D656173757265642061FD
:10EFF2007320252B2E336620416D70731B5B4B0AE9
:10F002000D002020202020202020514920436F6E17
:10F0120076657274657220697320696E204275721A
:10F022007374204D6F64651B5B4B0A0D1B5B4B0AAF
:10F032000D00202020204E6F206C6F6164207072C2
:10F042006573656E742C206E6F20636861726765EC
:10F0520020636F6E73756D65641B5B4B0A0D0A0D41
:10F0620000202020204E6F206C6F6164207072653A
:10F0720073656E742C206E6F20656E6572677920E1
:10F08200636F6E73756D65641B5B4B0A0D0A0D0031
:10F09200446576696365204D6561737572656D655A
:10F0A2006E74732061742074696D65206F662063CD
:10F0B2006F6D6D616E642063616C6C3A0A0D0020A5
:10F0C2002020204D696E696D756D204465766963F7
:10F0D2006520537769746368696E6720467265714B
:10F0E20075656E636965733A1B5B4B0A0D002020E0
:10F0F20020204D6178696D756D2044657669636580
:10F1020020537769746368696E672046726571750A
:10F11200656E636965733A1B5B4B0A0D000A0D430A
:10F12200616C6C202748656C702720666F72206CBA
:10F13200697374206F6620737570706F7274656482
:10F1420020636F6D6D616E64730A0D0020202020B4
:10F1520054686520666F6C6C6F77696E6720493200
:10F1620043204572726F7273207765726520646501
:10F172007465637465643A0A0D004572726F727346
:10F1820020616E64206E65676174697665207265C0
:10F1920073706F6E73657320617070656172206940
:10F1A2006E207265640A0D004469676974616C209F
:10F1B2004D6F6E69746F72696E67204D6963726F0D
:10F1C200636F6E74726F6C6C6572205374617475C8
:10F1D200733A0A0D00202020204D696E696D756D0D
:10F1E200204D6963726F636F6E74726F6C6C6572BF
:10F1F20020506172616D65746572733A1B5B4B0AD4
:10F202000D00202020204D6178696D756D204D69BB
:10F2120063726F636F6E74726F6C6C657220506193
:10F2220072616D65746572733A1B5B4B0A0D002047
:10F2320020202020202020504F533520436F6E760F
:10F24200657274657220697320696E2042757273EB
:10F2520074204D6F64651B5B4B0A0D00436175732F
:10F2620065206F66206D6F737420726563656E74BE
:10F2720020646576696365207265736574207761C1
:10F28200733A2025730A0D00202020204E6F206C37
:10F292006F61642070726573656E742C2073656192
:10F2A200726368696E672E2E2E1B5B4B0A0D0A0D68
:10F2B2000057696E646F77656420576174636820D4
:10F2C200446F672054696D65722056696F6C617472
:10F2D200696F6E2052657365740020202020202003
:10F2E200202049324320416D6269656E7420546565
:10F2F2006D702053656E736F72204572726F720A61
:10F302000D002020202044657669636520537769CB
:10F31200746368696E67204672657175656E6369AC
:10F3220065733A1B5B4B0A0D0051492057697265A0
:10F332006C65737320506F77657220436F6E7665CC
:10F342007273696F6E20456E61626C65640A0D00AE
:10F352004D6561737572656D656E7420726573704B
:10F362006F6E7365732061707065617220696E20C3
:10F372006379616E0A0D00202020204D696E696D4F
:10F38200756D204465766963652054656D7065729C
:10F392006174757265733A1B5B4B0A0D0020202065
:10F3A200204D6178696D756D2044657669636520CD
:10F3B20054656D7065726174757265733A1B5B4B4F
:10F3C2000A0D00546869732074657874206861734B
:10F3D2002061206D6167656E7461206261636B6795
:10F3E200726F756E640A0D00202020204D696372D1
:10F3F2006F636F6E74726F6C6C65722050617261B4
:10F402006D65746572733A1B5B4B0A0D00556E7322
:10F412007570706F72746564206F72206D69732DE0
:10F42200656E746572656420636F6D6D616E640AEA
:10F432000D00202020202020202049324320504F40
:10F4420053352054656D702053656E736F7220457D
:10F4520072726F720A0D0054686973207465787451
:10F462002068617320612079656C6C6F772062611E
:10F47200636B67726F756E640A0D0054686973205E
:10F482007465787420686173206120776869746597
:10F49200206261636B67726F756E640A0D00546857
:10F4A2006973207465787420686173206120626CCE
:10F4B20061636B206261636B67726F756E640A0DC4
:10F4C20000546869732074657874206861732061E0
:10F4D20020677265656E206261636B67726F756E1D
:10F4E200640A0D00202020202020202049324320C1
:10F4F20051492054656D702053656E736F722045BB
:10F5020072726F720A0D00546869732074657874A0
:10F5120020686173206120626C7565206261636B93
:10F5220067726F756E640A0D0054686973207465A2
:10F532007874206861732061206379616E20626152
:10F54200636B67726F756E640A0D00202020204D78
:10F55200696E696D756D20446576696365204375D2
:10F562007272656E74733A1B5B4B0A0D0020202089
:10F57200204D6178696D756D2044657669636520FB
:10F5820043757272656E74733A1B5B4B0A0D0050C1
:10F592007265737320656E746572206B6579207471
:10F5A2006F20657869741B5B4B0A0D1B5B4B0A0D60
:10F5B20000546869732074657874206861732061EF
:10F5C20020726564206261636B67726F756E640A94
:10F5D2000D004C697665206D6561737572656D65A8
:10F5E2006E7420666565642064697361626C65642B
:10F5F2000A0D002020202020202020493243204FC5
:10F602004C454420446973706C6179204572726F75
:10F61200720A0D00202020204E6F205541525420A6
:10F622006572726F722873292064657465637465EC
:10F63200640A0D00202020204D696E696D756D20D1
:10F6420044657669636520566F6C74616765733AC9
:10F652000A0D00202020204D6178696D756D2044CF
:10F66200657669636520566F6C74616765733A0AE3
:10F672000D00202020204D696E696D756D20446556
:10F682007669636520506F7765723A1B5B4B0A0D92
:10F6920000202020204D6178696D756D20446576CB
:10F6A20069636520506F7765723A1B5B4B0A0D00E8
:10F6B200202020204E6F20493243206572726F72E3
:10F6C2002873292064657465637465640A0D0020DB
:10F6D2002020204E6F20414443206572726F7228B1
:10F6E20073292064657465637465640A0D002020C3
:10F6F20020204465766963652054656D706572618A
:10F7020074757265733A1B5B4B0A0D002020202032
:10F712005553422055415254204572726F72204413
:10F72200657465637465640A0D00557365722069BA
:10F732006E707574206170706561727320696E20DD
:10F7420077686974650A0D00202020204144432017
:10F752006572726F722873292064657465637465BB
:10F7620064210A0D00456E61626C696E67206C69E6
:10F772007665206D6561737572656D656E74730A69
:10F782000D004C697665204D6561737572656D6516
:10F792006E74733A1B5B4B0A0D1B5B4B0A0D002008
:10F7A200202020202020204932432047656E6572A8
:10F7B200616C204572726F720A0D00202020202099
:10F7C20020202047656E6572616C204144432065AC
:10F7D20072726F720A0D0054657374696E672074D9
:10F7E20065787420617474726962757465733A0A1B
:10F7F2000D005468697320746578742069732075EC
:10F802006E64657273636F7265640A0D00436C65A2
:10F812006172204D6561737572656D656E74204508
:10F82200787472656D657300524553455420496E74
:10F83200737472756374696F6E204578656375744D
:10F842006564002020202044657669636520437545
:10F852007272656E74733A1B5B4B0A0D00456E61E2
:10F86200626C65204C697665204D656173757265C1
:10F872006D656E74730054686973207465787420C2
:10F882006973206E6F726D616C0A0D0A0D00546807
:10F892006973207465787420697320726576657265
:10F8A2007365640A0D005468697320746578742066
:10F8B200697320626C696E6B696E670A0D0055414F
:10F8C2005254206572726F7228732920636C6561CD
:10F8D2007265640A0D005468697320746578742037
:10F8E2006973206D6167656E74610A0D00202020C6
:10F8F2002044657669636520566F6C746167657331
:10F902003A0A0D0020202020446576696365205064
:10F912006F7765723A1B5B4B0A0D004144432045E9
:10F9220072726F7228732920636C65617265640A52
:10F932000D00493243206572726F72287329206369
:10F942006C65617265640A0D0054686973207465A0
:10F9520078742069732079656C6C6F770A0D0041A9
:10F962007661696C61626C6520436F6D6D616E6476
:10F97200733A0A0D0043757272656E74204D6561AB
:10F98200737572656D656E74733F00537461636B5A
:10F9920020556E646572666C6F772052657365746C
:10F9A2000054686973207465787420697320626CEE
:10F9B20061636B0A0D005468697320746578742062
:10F9C200697320677265656E0A0D00537461636B1B
:10F9D200204F766572666C6F77205265736574008E
:10F9E20054686973207465787420697320626F6C3F
:10F9F200640A0D0054686973207465787420697311
:10FA020020626C75650A0D0054686973207465780C
:10FA120074206973206379616E0A0D0054686973FA
:10FA22002074657874206973207265640A0D004D34
:10FA3200617374657220436C6561722052657365EF
:10FA42007400555342205541525420546573740A30
:10FA52000D0A0D004D696E204D6561737572656DFD
:10FA6200656E74733F004D6178204D6561737572E8
:10FA7200656D656E74733F00436C6561722055411C
:10FA82005254204572726F72730030313233343502
:10FA92003637383941424344454600436C6561720A
:10FAA20020493243204572726F727300436C656164
:10FAB2007220414443204572726F7273004D435568
:10FAC200205265766973696F6E2049443A007669FF
:10FAD20061205553422C202748656C702700434F04
:10FAE2004D20506F72742053657475703A004361F3
:10FAF200757365206F662052657365743A004469B8
:10FB0200676974616C204D6F6E69746F7200386240
:10FB120069742C206E6F2070617269747900556E61
:10FB2200646566696E65642052657365740042722D
:10FB32006F776E204F7574205265736574004D4364
:10FB420055204465766963652049443A00496E70E0
:10FB5200757420566F6C746167653A004275636B09
:10FB62002053772E20467265713A004368617267AE
:10FB720065205374617475733A00496E7075742010
:10FB820043757272656E743A00457374696D61747F
:10FB92006564204C6F61640031207374702C206E98
:10FBA2006F20666C6F770052455345542045786547
:10FBB200637574656400506F776572204F6E2052D2
:10FBC2006573657400202020202020202046565294
:10FBD2000A0D004572726F72205374617475733F1F
:10FBE200004D696E3A20252B2E3366202525004DC7
:10FBF20061783A20252B2E33662025250051492095
:10FC02004368617267657220772F00416D62696592
:10FC12006E742054656D703A004F7574707574205F
:10FC2200506F7765723A00426F6F7420436F6D7048
:10FC32006C657465004D6F72652053657474696EEE
:10FC42006773004361757365206F66206C6173741E
:10FC52000046756C6C792043686172676564006662
:10FC6200756C6C792063686172676564002B355628
:10FC720020566F6C746167653A004368617267650C
:10FC82002054696D653A004D4355204F6E205469EA
:10FC92006D653A0051492053772E20467265713ABC
:10FCA20000496E70757420506F7765723A004D6925
:10FCB2006E3A20252B2E33662041004D61783A2082
:10FCC200252B2E33662041004D696E3A20252B2EBE
:10FCD20033662043004D61783A20252B2E3366206F
:10FCE20043004D696E3A20252B2E33662056004D77
:10FCF20061783A20252B2E33662056004D696E3AE4
:10FD020020252B2E33662057004D61783A20252B73
:10FD12002E33662057004E6F742043686172676904
:10FD22006E670044726577204D6161746D616E008B
:10FD32002564206D696E757465732C2000504943EB
:10FD420031384C4632374B34300050494331384C0D
:10FD52004634374B34300050494331384C463637FD
:10FD62004B3430004D4355205374617475733F001A
:10FD7200537072696E672032303139005149204325
:10FD8200757272656E743A00456666696369656E7E
:10FD920063793A002564206D696E7574652C2000C4
:10FDA20050494331384632374B34300050494331A1
:10FDB200384634374B3430005049433138463637B1
:10FDC2004B343000256C752E25362E366C75001B93
:10FDD2005B303B33373B34306D004275636B2054EC
:10FDE200656D703A004D43552052657365743A0053
:10FDF200514920456E61626C65640042757273748C
:10FE0200204D6F6465002575207365636F6E6473A2
:10FE1200002575206D696E757465730025642079FF
:10FE2200656172732C2000256420686F7572732CD3
:10FE320020002564207365636F6E64730053544F12
:10FE420046205265736574005354554620526573BB
:10FE52006574004D434C52205265736574005757C8
:10FE62004454205265736574004D43552054656DAA
:10FE7200703A003131352E32206B6273004D696E5B
:10FE82003A202573487A004D61783A202573487AE2
:10FE920000256420796561722C2000256420686F3A
:10FEA20075722C2000256420646179732C20002552
:10FEB20064207365636F6E6400424F522052657313
:10FEC200657400504F5220526573657400556E641C
:10FED2006566696E656400756E646566696E656403
:10FEE2000051492054656D703A004D61783A2025E1
:10FEF2007343004D61783A2025734A0025752079B5
:10FF02006561727300257520686F757273002B32FC
:10FF12002E35204D487A002564206461792C20001A
:10FF22006368617267696E67004368617267653A08
:10FF320000456E657267793A0025752064617973B0
:10FF420000286E756C6C2900252E3366204700252B
:10FF52002E3366204D00252E3366206B00252E336E
:10FF620066206D00252E3366206E00252E33662016
:10FF7200750025632530336400252E336620002A60
:10FF820049444E3F00436C656172004572726F7264
:10FF9200006572726F7200302E3020001B5B324A95
:10FFA2000048656C7000307825580049646C650023
:10FFB20069646C65001B5B73001B5B75001B5B480F
:10FFC200001B5B4B003330003331003431003332DD
:10FFD200003432003333003433003334003434001D
:10FFE20033350034350033360034360033370034CD
:0DFFF20037001B5B0025730038003B00004A
:020000040001F9
:100000006FEF8BF0250E8B19D8B436D020EE02F0AE
:100010005451D9265551DA22DE50DE10DE10D8B404
:1000200014D020EE02F05451D9265551DA2202D8CC
:100030006FEF8BF00500FA6EDE50FD6EDE50FE6E47
:10004000DE50FF6EFA508B51120054C2D9FF55C2D8
:10005000DAFFDECF5AF2DDCF5BF25AC2D9FF5BC2C4
:10006000DAFF8BC2DFFF54C2D9FF55C2DAFFDE2AA6
:10007000000EDD226FEF8BF0000E866F000E856F95
:10008000000E8A6F000E896F0AD00201898105D0A7
:100090000201898302D002018985564B572B56C233
:1000A000F6FF57C2F7FF000EF86E0E0EF76403D08E
:1000B0000800F55005D0F6CFE9FFF7CFEAFFEF5083
:1000C000200AD8B4E2D70B0AD8B4E2D71B0AD8B4B6
:1000D000E2D7020189B3899156C2F6FF57C2F7FFF2
:1000E000000EF86E0E0EF76403D00800F55005D030
:1000F000F6CFE9FFF7CFEAFFEF501BECF4F0D8A002
:100100004CD0000E0201866F000E856F85C200F292
:1001100086C201F2000E0201036F0A0E026F5DEC4F
:10012000F3F000C285F201C286F2D00E02015A6FCE
:10013000FF0E5B6F56C2F6FF57C2F7FF000EF86E58
:100140000E0EF76403D00800F55005D0F6CFE9FF96
:10015000F7CFEAFFEF5002015C6F5D6B5A515C27ED
:100160005B515D235C5185275D518623564B572B90
:1001700056C2F6FF57C2F7FF000EF86E0E0EF76478
:1001800003D00800F55005D0F6CFE9FFF7CFEAFF1E
:10019000EF501BECF4F0D8B0B9D756C2F6FF57C2F7
:1001A000F7FF000EF86E0E0EF76403D00800F5504E
:1001B00005D0F6CFE9FFF7CFEAFFEF502E0AD8A41B
:1001C00049D002018A8D564B572B000E886F000EC6
:1001D000876F2AD087C200F288C201F2000E0201A6
:1001E000036F0A0E026F5DECF3F056C2F6FF57C2C2
:1001F000F7FF000EF86E0E0EF76403D00800F550FE
:1002000005D0F6CFE9FFF7CFEAFFEF5002015A6FB2
:100210005A510027000E0123D00E0025876FFF0ED4
:100220000121886F564B572B56C2F6FF57C2F7FF76
:10023000000EF86E0E0EF76403D00800F55005D0DE
:10024000F6CFE9FFF7CFEAFFEF501BECF4F0D8A0B0
:100250002AD1C0D7000E0201886F000E876F8A89ED
:1002600022D1898920D18A8559D1898F57D158C205
:10027000D9FF59C2DAFFDFCF5AF2020EDE26DFCFF6
:100280005BF2000EDD225AC2D9FF5BC2DAFFDECF7D
:1002900073F2DDCF74F273517411D8A404D0430EFD
:1002A000736FFF0E746F000E766F000E756F03D0C4
:1002B0000201754B762B755173255A6F7651742157
:1002C0005B6F5AC2F6FF5BC2F7FF000EF86E0E0EB0
:1002D000F76403D00800F55005D0F6CFE9FFF7CF5B
:1002E000EAFFEF500009D8A4E3D702018751881133
:1002F000D8B40AD07551875D76518859D8B004D0EA
:1003000087C275F288C276F28551755D865176593D
:10031000D8B005D07551855F7651865B38D0000E18
:10032000866F000E856F33D020EE02F05451D9262F
:100330005551DA22DE50DE10DE10D8B413D020EE94
:1003400002F05451D9265551DA2201D820D00500A7
:10035000FA6EDE50FD6EDE50FE6EDE50FF6EFA501D
:10036000200E120054C2D9FF55C2DAFFDECF5AF276
:10037000DDCF5BF25AC2D9FF5BC2DAFF200EDF6E1F
:1003800054C2D9FF55C2DAFFDE2A000EDD22020177
:100390008507D8A086078529C7E18629D8B45BD010
:1003A000C3D720EE02F05451D9265551DA22DE503F
:1003B000DE10DE10D8B427D020EE02F05451D9263A
:1003C0005551DA2201D81BD00500FA6EDE50FD6EC1
:1003D000DE50FE6EDE50FF6EFA5073C2F6FF74C23E
:1003E000F7FF000EF86E0E0EF76403D00800F5500C
:1003F00005D0F6CFE9FFF7CFEAFFEF501200020178
:10040000734B742B28D073C2F6FF74C2F7FF000E33
:10041000F86E54C2D9FF55C2DAFFDECF5AF2DDCFF3
:100420005BF25AC2D9FF5BC2DAFF0E0EF76403D04B
:100430000800F55005D0F6CFE9FFF7CFEAFFEF50FF
:10044000DF6E0201734B742B54C2D9FF55C2DAFF21
:10045000DE2A000EDD227507D8A076077529A1E1F6
:100460007629D8B46FEF8BF09CD758C2D9FF59C208
:10047000DAFFDFCF5AF2020EDE26DFCF5BF2000E8C
:10048000DD225AC2D9FF5BC2DAFFDF508B6F8B0EC1
:10049000736F020E746F000E766F010E756F25D7A5
:1004A000C00E89133BD0020156515A6F57515B6FF2
:1004B000564B572B5AC2F6FF5BC2F7FF000EF86E81
:1004C0000E0EF76403D00800F55005D0F6CFE9FF13
:1004D000F7CFEAFFEF5002018B6F8B51000AD8B4BF
:1004E0008DEF8BF0580AD8B4C0D63B0AD8B4BDD72C
:1004F000070AD8B413D0020AD8B4B5D60F0AD8B4B4
:100500000DD0050AD8B4ADD61F0AD8B4B0D6060AA5
:10051000D8B4C6D70D0AD8B4A8D6B9D7070E8A154D
:10052000D8B40FEF88F08AA904D0000E886F060EA9
:10053000876F58C2D9FF59C2DAFFDFCF5AF2040ED3
:10054000DE26DFCF5BF2000EDD225AC2D9FF5BC28E
:10055000DAFFDECF7DF2DECF7EF2DECF7FF2DECFBE
:1005600080F280AF15D07DC200F27EC201F27FC260
:1005700002F280C203F2AFECF2F000C27DF201C2DF
:100580007EF202C27FF203C280F2030E02018913DF
:10059000000E786F000E776F7DC200F27EC201F20E
:1005A0007FC202F280C203F2000E046F000E056FDC
:1005B000000E066F000E076FFDECE8F00201D8B0E8
:1005C00084D07F358035820F776F786BFF0E78236C
:1005D0007707D8A0780777C200F278C201F2000E40
:1005E000036F030E026F5DECF3F000C277F201C2FD
:1005F00078F277C206F278C207F2000E0201096FA4
:100600000A0E086F88ECE9F006C277F207C278F2AA
:10061000020178AF03D07707D8A078077751000898
:10062000CCECB3F027C279F228C27AF229C27BF26D
:100630002AC27CF279C20EF27AC20FF27BC210F2A9
:100640007CC211F27DC212F27EC213F27FC214F29A
:1006500080C215F282ECBDF00EC279F20FC27AF2BE
:1006600010C27BF211C27CF279C20CF27AC20DF296
:100670007BC20EF27CC20FF2000E0201106F000E60
:10068000116F800E126F3F0E136F2EECE4F002011B
:10069000D8B004D07707D8A0780717D079C20CF269
:1006A0007AC20DF27BC20EF27CC20FF2000E106F06
:1006B000000E116F200E126F410E136F2EECE4F03E
:1006C0000201D8A002D0774B782B88BF06D0885182
:1006D00021E10D0E875DD8B01DD07DC234F27EC2FF
:1006E00035F27FC236F280C237F2875114ECCDF07A
:1006F00027C238F228C239F229C23AF22AC23BF2A2
:100700008DECC5F034C27DF235C27EF236C27FF286
:1007100037C280F2020178BF06D0785131E10A0E6B
:10072000775DD8B02DD07DC200F27EC201F27FC2CB
:1007300002F280C203F2000E046F000E056F000E7D
:10074000066F000E076FFDECE8F00201D8B062D032
:100750007DC230F27EC231F27FC232F280C233F209
:10076000CAECE5F002013051311132113311D8B425
:1007700078BF50D0785104E1020E775DD8A04AD0FE
:1007800079C20CF27AC20DF27BC20EF27CC20FF279
:100790005F0E106F700E116F890E126F400E136F87
:1007A0002EECE4F00201D8B002D0F70E01D0F80E22
:1007B0007727FF0E78237751CCECB3F027C279F27C
:1007C00028C27AF229C27BF22AC27CF27DC200F2F0
:1007D0007EC201F27FC202F280C203F279C204F249
:1007E0007AC205F27BC206F27CC207F2D3ECE1F0DA
:1007F00000C281F201C282F202C283F203C284F219
:10080000000E02017D6F000E7E6F000E7F6F000EE6
:10081000806F3CD07DC230F27EC231F27FC232F2B4
:1008200080C233F2CAECE5F030C281F231C282F20A
:1008300032C283F233C284F27DC24CF27EC24DF2E8
:100840007FC24EF280C24FF281C23EF282C23FF2BC
:1008500083C240F284C241F2000EC1ECDDF03EC220
:1008600050F23FC251F240C252F241C253F21EEC6A
:10087000EFF04CC27DF24DC27EF24EC27FF24FC20B
:1008800080F2000E0201786F000E776F010E8B6F01
:100890000A0E8B19D8B41BD08B51040D8B0EF32488
:1008A000F66EDA0EF420F76EF86A000EF8220900F0
:1008B000F550815D0900F55082590900F5508359C2
:1008C0000900F5508459D8A002D08B2BE1D78B5169
:1008D00087255A6F000E88215B6F77515A27785110
:1008E0005B235A51855F5B51865B87518811D8B471
:1008F00003D08507D8A08607030E89155A6F000E0E
:100900008A155B6F5A515B11D8B403D08507D8A004
:10091000860789A5F0D089A341D020EE02F054517A
:10092000D9265551DA22DE50DE10DE10D8B41DD0A3
:1009300089B104D0000E646F2B0E03D0000E646FDB
:100940002D0E636F20EE02F05451D9265551DA2254
:1009500001D891D00500FA6EDE50FD6EDE50FE6EBD
:10096000DE50FF6EFA506351120089B104D0000EC0
:10097000666F2B0E03D0000E666F2D0E656F54C28E
:10098000D9FF55C2DAFFDECF5AF2DDCF5BF25AC291
:10099000D9FF5BC2DAFF65C2DFFF2ED089A16BD021
:1009A00020EE02F05451D9265551DA22DE50DE10E5
:1009B000DE10D8B413D020EE02F05451D926555190
:1009C000DA2201D858D00500FA6EDE50FD6EDE50F6
:1009D000FE6EDE50FF6EFA50200E120054C2D9FF98
:1009E00055C2DAFFDECF5AF2DDCF5BF25AC2D9FF31
:1009F0005BC2DAFF200EDF6E54C2D9FF55C2DAFFA8
:100A0000DE2A000EDD2237D020EE02F05451D92626
:100A10005551DA22DE50DE10DE10D8B413D020EEAD
:100A200002F05451D9265551DA2201D820D00500C0
:100A3000FA6EDE50FD6EDE50FE6EDE50FF6EFA5036
:100A4000300E120054C2D9FF55C2DAFFDECF5AF27F
:100A5000DDCF5BF25AC2D9FF5BC2DAFF300EDF6E28
:100A600054C2D9FF55C2DAFFDE2A000EDD22020190
:100A70008507D8A08607020186BF2FD18651C4E121
:100A80008505D8A02AD1C0D720EE02F05451D9262E
:100A90005551DA22DE50DE10DE10D8B413D020EE2D
:100AA00002F05451D9265551DA2201D820D0050040
:100AB000FA6EDE50FD6EDE50FE6EDE50FF6EFA50B6
:100AC000200E120054C2D9FF55C2DAFFDECF5AF20F
:100AD000DDCF5BF25AC2D9FF5BC2DAFF200EDF6EB8
:100AE00054C2D9FF55C2DAFFDE2A000EDD22020110
:100AF0008507D8A0860786BF05D08651C5E1850544
:100B0000D8B0C2D789A341D020EE02F05451D926E3
:100B10005551DA22DE50DE10DE10D8B41DD089B176
:100B200004D0000E686F2B0E03D0000E686F2D0EE0
:100B3000676F20EE02F05451D9265551DA2201D8C0
:100B4000CCD00500FA6EDE50FD6EDE50FE6EDE503B
:100B5000FF6EFA506751120089B104D0000E6A6F1F
:100B60002B0E03D0000E6A6F2D0E696F54C2D9FF91
:100B700055C2DAFFDECF5AF2DDCF5BF25AC2D9FF9F
:100B80005BC2DAFF69C2DFFFA1D089A1A6D020EE47
:100B900002F05451D9265551DA22DE50DE10DE1013
:100BA000D8B413D020EE02F05451D9265551DA2290
:100BB00001D893D00500FA6EDE50FD6EDE50FE6E59
:100BC000DE50FF6EFA50200E120054C2D9FF55C2FB
:100BD000DAFFDECF5AF2DDCF5BF25AC2D9FF5BC239
:100BE000DAFF200E72D081C200F282C201F283C20B
:100BF00002F284C203F28B51040D8B0EF324F66EC5
:100C0000DA0EF420F76EF86A000EF8220900F5CF2C
:100C100004F20900F5CF05F20900F5CF06F20A004B
:100C2000F5CF07F2CBECE9F000C279F201C27AF21B
:100C300002C27BF203C27CF279C20DF27AC20EF2DA
:100C40007BC20FF27CC210F20A0E0201116F000E7D
:100C5000126F000E136F000E146F3AECEBF00DC222
:100C600079F20EC27AF20FC27BF210C27CF202015C
:100C700020EE02F05451D9265551DA22DE50DE1012
:100C8000DE10D8B414D020EE02F05451D9265551BC
:100C9000DA2201D822D00500FA6EDE50FD6EDE5059
:100CA000FE6EDE50FF6EFA507951300F120079510E
:100CB000300F54C2D9FF55C2DAFFDECF5AF2DDCF72
:100CC0005BF25AC2D9FF5BC2DAFFDF6E54C2D9FFB2
:100CD00055C2DAFFDE2A000EDD2202018B078B29C6
:100CE000D8B438D080D720EE02F05451D9265551CF
:100CF000DA22DE50DE10DE10D8B413D020EE02F07F
:100D00005451D9265551DA2201D820D00500FA6E67
:100D1000DE50FD6EDE50FE6EDE50FF6EFA50300E7D
:100D2000120054C2D9FF55C2DAFFDECF5AF2DDCF2E
:100D30005BF25AC2D9FF5BC2DAFF300EDF6E54C2DB
:100D4000D9FF55C2DAFFDE2A000EDD220201770745
:100D5000D8A0780778BF05D07851C5E17705D8B01D
:100D6000C2D788BF09D0885104E1090E875DD8A099
:100D700003D0080E8B6F02D087C28BF28B51875F36
:100D8000000E885B8B51D8B433D020EE02F0545162
:100D9000D9265551DA22DE50DE10DE10D8B413D039
:100DA00020EE02F05451D9265551DA2201D820D034
:100DB0000500FA6EDE50FD6EDE50FE6EDE50FF6EF8
:100DC000FA502E0E120054C2D9FF55C2DAFFDECF00
:100DD0005AF2DDCF5BF25AC2D9FF5BC2DAFF2E0EA8
:100DE000DF6E54C2D9FF55C2DAFFDE2A000EDD22C3
:100DF00002018B51CCECB3F027C25EF228C25FF245
:100E000029C260F22AC261F27DC212F27EC213F2DE
:100E10007FC214F280C215F25EC20EF25FC20FF200
:100E200060C210F261C211F282ECBDF00EC230F26B
:100E30000FC231F210C232F211C233F2CAECE5F045
:100E400030C281F231C282F232C283F233C284F202
:100E5000A4D081C200F282C201F283C202F284C233
:100E600003F28B51040D8B0EF324F66EDA0EF42090
:100E7000F76EF86A000EF8220900F5CF04F20900B7
:100E8000F5CF05F20900F5CF06F20A00F5CF07F21B
:100E9000CBECE9F000C279F201C27AF202C27BF235
:100EA00003C27CF279C20DF27AC20EF27BC20FF25B
:100EB0007CC210F20A0E0201116F000E126F000EBA
:100EC000136F000E146F3AECEBF00DC279F20EC204
:100ED0007AF20FC27BF210C27CF2020120EE02F025
:100EE0005451D9265551DA22DE50DE10DE10D8B426
:100EF00014D020EE02F05451D9265551DA2201D8EF
:100F000022D00500FA6EDE50FD6EDE50FE6EDE5021
:100F1000FF6EFA507951300F12007951300F54C2E0
:100F2000D9FF55C2DAFFDECF5AF2DDCF5BF25AC2EB
:100F3000D9FF5BC2DAFFDF6E54C2D9FF55C2DAFFB8
:100F4000DE2A000EDD2281C20DF282C20EF283C2C1
:100F50000FF284C210F202018B51040D8B0EF324A8
:100F6000F66EDA0EF420F76EF86A000EF822090029
:100F7000F5CF11F20900F5CF12F20900F5CF13F207
:100F80000A00F5CF14F23AECEBF00DC281F20EC27A
:100F900082F20FC283F210C284F202018B078B2906
:100FA000D8B438D056D720EE02F05451D926555136
:100FB000DA22DE50DE10DE10D8B413D020EE02F0BC
:100FC0005451D9265551DA2201D820D00500FA6EA5
:100FD000DE50FD6EDE50FE6EDE50FF6EFA50300EBB
:100FE000120054C2D9FF55C2DAFFDECF5AF2DDCF6C
:100FF0005BF25AC2D9FF5BC2DAFF300EDF6E54C219
:10100000D9FF55C2DAFFDE2A000EDD220201870772
:10101000D8A0880787518811D8B461D3C4D7C00E2F
:1010200089155A6F000E8A155B6F5A515B11D8A44F
:1010300041D089A919D058C2D9FF59C2DAFFDFCFF0
:101040005AF2040EDE26DFCF5BF2000EDD225AC21A
:10105000D9FF5BC2DAFFDECF81F2DECF82F2DECFD4
:1010600083F2DECF84F219D058C2D9FF59C2DAFF19
:10107000DFCF5AF2020EDE26DFCF5BF2000EDD225A
:101080005AC2D9FF5BC2DAFFDECF81F2DDCF82F236
:10109000000E82BFFF0E836F846F84AF40D0030EBB
:1010A0008913841F831F821F816D000E8223832377
:1010B000842335D089A919D058C2D9FF59C2DAFF83
:1010C000DFCF5AF2040EDE26DFCF5BF2000EDD2208
:1010D0005AC2D9FF5BC2DAFFDECF81F2DECF82F2E5
:1010E000DECF83F2DECF84F21AD058C2D9FF59C2C4
:1010F000DAFFDFCF5AF2020EDE26DFCF5BF2000E00
:10110000DD225AC2D9FF5BC2DAFFDECF5CF2DDCF4F
:101110005DF25CC281F25DC282F2836B846B8751A7
:101120008811D8A44BD08151821183118411D8A485
:1011300045D0874B882B42D0010E8B6F0A0E8B193E
:10114000D8B447D08B51040D8B0EF324F66EDA0E13
:10115000F420F76EF86A000EF8220900F550815D60
:101160000900F55082590900F55083590900F550DE
:101170008459D8A02ED08B2BE1D7010E8B6F080E8F
:101180008B19D8B426D08B51040D6B0EF324F66E58
:10119000D70EF420F76EF86A000EF8220900F55019
:1011A000815D0900F55082590900F5508359090005
:1011B000F5508459D8A00DD08B2BE1D78951C00BA5
:1011C000000AD8B4B9D7800AD8B4D7D7400AD8B45F
:1011D000B3D78B515A6F5B6B87515A5D5B51800A55
:1011E0005C6F8851800A5C59D8B003D087C28BF2FB
:1011F00010D08B515A6F5B6B5A51875D8851800AB2
:101200005C6F5B51800A5C59D8B003D08BC287F207
:10121000886B85518611D8B40DD0030E89155A6F8D
:10122000000E8A155B6F5A515B11D8B403D0850745
:10123000D8A086078AAD13D08551875D8851800A72
:101240005A6F8651800A5A59D8B005D08751855FA8
:101250008851865B04D0000E866F000E856F8B511F
:101260005A6F5B6B85515A5D5B51800A5C6F86518A
:10127000800A5C59D8B005D08B51855F000E865B23
:1012800004D0000E866F000E856F89A5B5D089A3A6
:1012900041D020EE02F05451D9265551DA22DE50C9
:1012A000DE10DE10D8B41DD089B104D0000E6C6FF2
:1012B0002B0E03D0000E6C6F2D0E6B6F20EE02F024
:1012C0005451D9265551DA2201D859D00500FA6E69
:1012D000DE50FD6EDE50FE6EDE50FF6EFA506B513A
:1012E000120089B104D0000E6E6F2B0E03D0000ED9
:1012F0006E6F2D0E6D6F54C2D9FF55C2DAFFDECF6F
:101300005AF2DDCF5BF25AC2D9FF5BC2DAFF6DC27F
:10131000DFFF2ED089A133D020EE02F05451D92620
:101320005551DA22DE50DE10DE10D8B413D020EE94
:1013300002F05451D9265551DA2201D820D00500A7
:10134000FA6EDE50FD6EDE50FE6EDE50FF6EFA501D
:10135000200E120054C2D9FF55C2DAFFDECF5AF276
:10136000DDCF5BF25AC2D9FF5BC2DAFF200EDF6E1F
:1013700054C2D9FF55C2DAFFDE2A000EDD22020177
:1013800085518611D8B4A2D120EE02F05451D9264D
:101390005551DA22DE50DE10DE10D8B413D020EE24
:1013A00002F05451D9265551DA2201D820D0050037
:1013B000FA6EDE50FD6EDE50FE6EDE50FF6EFA50AD
:1013C000300E120054C2D9FF55C2DAFFDECF5AF2F6
:1013D000DDCF5BF25AC2D9FF5BC2DAFF300EDF6E9F
:1013E00054C2D9FF55C2DAFFDE2A000EDD22020107
:1013F0008507D8A08607C4D785518611D8B43BD0BD
:1014000020EE02F05451D9265551DA22DE50DE107A
:10141000DE10D8B413D020EE02F05451D926555125
:10142000DA2201D820D00500FA6EDE50FD6EDE50C3
:10143000FE6EDE50FF6EFA50200E120054C2D9FF2D
:1014400055C2DAFFDECF5AF2DDCF5BF25AC2D9FFC6
:101450005BC2DAFF200EDF6E54C2D9FF55C2DAFF3D
:10146000DE2A000EDD2202018507D8A086078551FD
:101470008611D8A4C5D789A341D020EE02F05451DB
:10148000D9265551DA22DE50DE10DE10D8B41DD038
:1014900089B104D0000E706F2B0E03D0000E706F58
:1014A0002D0E6F6F20EE02F05451D9265551DA22DD
:1014B00001D80CD10500FA6EDE50FD6EDE50FE6ED6
:1014C000DE50FF6EFA506F51120089B104D0000E49
:1014D000726F2B0E03D0000E726F2D0E716F54C2FF
:1014E000D9FF55C2DAFFDECF5AF2DDCF5BF25AC226
:1014F000D9FF5BC2DAFF71C2DFFFE1D089A1E6D07C
:1015000020EE02F05451D9265551DA22DE50DE1079
:10151000DE10D8B413D020EE02F05451D926555124
:10152000DA2201D8D3D00500FA6EDE50FD6EDE500F
:10153000FE6EDE50FF6EFA50200E120054C2D9FF2C
:1015400055C2DAFFDECF5AF2DDCF5BF25AC2D9FFC5
:101550005BC2DAFF200EDF6EB2D087C25AF288C2B9
:101560005BF2D8905A375B37D8905A375B378B0E7F
:101570005A25F66EDA0E5B21F76EF86A000EF82235
:101580000900F5CF04F20900F5CF05F20900F5CF07
:1015900006F20A00F5CF07F281C200F282C201F220
:1015A00083C202F284C203F2CBECE9F000C20DF276
:1015B00001C20EF202C20FF203C210F20A0E0201C1
:1015C000116F000E126F000E136F000E146F3AECC5
:1015D000EBF002010D51300F8B6F45D081C200F24C
:1015E00082C201F283C202F284C203F287C25AF2BB
:1015F00088C25BF2D8905A375B37D8905A375B373E
:101600006B0E5A25F66ED70E5B21F76EF86A000E48
:10161000F8220900F5CF04F20900F5CF05F2090020
:10162000F5CF06F20A00F5CF07F2CBECE9F00201A4
:1016300000510F0B626F8C0E6225F66EF76AFA0E80
:10164000F722F86A000EF8220800F5CF8BF20BD0D3
:101650008951C00B000AD8B480D7800AD8B4BED74D
:10166000400AD8B47AD720EE02F05451D926555109
:10167000DA22DE50DE10DE10D8B413D020EE02F0F5
:101680005451D9265551DA2201D820D00500FA6EDE
:10169000DE50FD6EDE50FE6EDE50FF6EFA508B5156
:1016A000120054C2D9FF55C2DAFFDECF5AF2DDCFA5
:1016B0005BF25AC2D9FF5BC2DAFF8BC2DFFF54C2B2
:1016C000D9FF55C2DAFFDE2A000EDD2202018707AC
:1016D000D8A088078729BCE18829D8A4B9D70201F6
:1016E00056515A6F57515B6F564B572B5AC2F6FFE4
:1016F0005BC2F7FF000EF86E0E0EF76403D0080011
:10170000F55005D0F6CFE9FFF7CFEAFFEF50020121
:101710008B6F8B51D8A402EF80F0000E556F000E36
:10172000546F1200FBEF96F0250EA319D8B436D0F3
:1017300020EE02F06C51D9266D51DA22DE50DE1017
:10174000DE10D8B414D020EE02F06C51D9266D51C1
:10175000DA2202D8FBEF96F00500FA6EDE50FD6E3D
:10176000DE50FE6EDE50FF6EFA50A35112006CC0C8
:10177000D9FF6DC0DAFFDECF72F0DDCF73F072C03B
:10178000D9FF73C0DAFFA3C0DFFF6CC0D9FF6DC003
:10179000DAFFDE2A000EDD22FBEF96F0000E9E6FD0
:1017A000000E9D6F000EA26F000EA16F0AD0000107
:1017B000A18105D00001A18302D00001A1856E4B5B
:1017C0006F2B6EC0F6FF6FC0F7FF000EF86E0E0EA7
:1017D000F76403D00800F55005D0F6CFE9FFF7CF46
:1017E000EAFFEF50200AD8B4E2D70B0AD8B4E2D708
:1017F0001B0AD8B4E2D70001A1B3A1916EC0F6FFD5
:101800006FC0F7FF000EF86E0E0EF76403D00800ED
:10181000F55005D0F6CFE9FFF7CFEAFFEF509CEC8B
:10182000F4F0D8A04BD0000E00019E6F000E9D6F0B
:101830009DC001F09EC002F0000E046E0A0E036E01
:10184000C0ECF3F001C09DF002C09EF0D00E00018C
:10185000726FFF0E736F6EC0F6FF6FC0F7FF000E62
:10186000F86E0E0EF76403D00800F55005D0F6CFE1
:10187000E9FFF7CFEAFFEF500001746F756B72510B
:1018800074277351752374519D2775519E236E4B98
:101890006F2B6EC0F6FF6FC0F7FF000EF86E0E0ED6
:1018A000F76403D00800F55005D0F6CFE9FFF7CF75
:1018B000EAFFEF509CECF4F0D8B0BAD76EC0F6FF58
:1018C0006FC0F7FF000EF86E0E0EF76403D008002D
:1018D000F55005D0F6CFE9FFF7CFEAFFEF502E0A1B
:1018E000D8A448D00001A28D6E4B6F2B000EA06FC4
:1018F000000E9F6F29D09FC001F0A0C002F0000E23
:10190000046E0A0E036EC0ECF3F06EC0F6FF6FC0FB
:10191000F7FF000EF86E0E0EF76403D00800F550C6
:1019200005D0F6CFE9FFF7CFEAFFEF500001726F65
:1019300072510126000E0222D00E01249F6FFF0E6D
:101940000220A06F6E4B6F2B6EC0F6FF6FC0F7FFCB
:10195000000EF86E0E0EF76403D00800F55005D0A7
:10196000F6CFE9FFF7CFEAFFEF509CECF4F0D8A0F8
:101970002AD1C1D7000E0001A06F000E9F6FA2896F
:1019800022D1A18920D1A28559D1A18F57D170C070
:10199000D9FF71C0DAFFDFCF72F0020EDE26DFCF93
:1019A00073F0000EDD2272C0D9FF73C0DAFFDECF04
:1019B0008BF0DDCF8CF08B518C11D8A404D0430E6A
:1019C0008B6FFF0E8C6F000E8E6F000E8D6F03D02D
:1019D00000018D4B8E2B8D518B25726F8E518C217A
:1019E000736F72C0F6FF73C0F7FF000EF86E0E0E35
:1019F000F76403D00800F55005D0F6CFE9FFF7CF24
:101A0000EAFFEF500009D8A4E3D700019F51A011CD
:101A1000D8B40AD08D519F5D8E51A059D8B004D052
:101A20009FC08DF0A0C08EF09D518D5D9E518E594E
:101A3000D8B005D08D519D5F8E519E5B38D0000E81
:101A40009E6F000E9D6F33D020EE02F06C51D926B0
:101A50006D51DA22DE50DE10DE10D8B413D020EE45
:101A600002F06C51D9266D51DA2201D820D0050040
:101A7000FA6EDE50FD6EDE50FE6EDE50FF6EFA50E6
:101A8000200E12006CC0D9FF6DC0DAFFDECF72F0FD
:101A9000DDCF73F072C0D9FF73C0DAFF200EDF6EA6
:101AA0006CC0D9FF6DC0DAFFDE2A000EDD22000116
:101AB0009D07D8A09E079D29C7E19E29D8B45BD079
:101AC000C3D720EE02F06C51D9266D51DA22DE50D8
:101AD000DE10DE10D8B427D020EE02F06C51D926EB
:101AE0006D51DA2201D81BD00500FA6EDE50FD6E72
:101AF000DE50FE6EDE50FF6EFA508BC0F6FF8CC0DB
:101B0000F7FF000EF86E0E0EF76403D00800F550D4
:101B100005D0F6CFE9FFF7CFEAFFEF501200000142
:101B20008B4B8C2B28D08BC0F6FF8CC0F7FF000EA0
:101B3000F86E6CC0D9FF6DC0DAFFDECF72F0DDCF7A
:101B400073F072C0D9FF73C0DAFF0E0EF76403D0D2
:101B50000800F55005D0F6CFE9FFF7CFEAFFEF50C8
:101B6000DF6E00018B4B8C2B6CC0D9FF6DC0DAFF90
:101B7000DE2A000EDD228D07D8A08E078D29A1E177
:101B80008E29D8B4FBEF96F09CD770C0D9FF71C0F6
:101B9000DAFFDFCF72F0020EDE26DFCF73F0000E29
:101BA000DD2272C0D9FF73C0DAFFDF50A36FA30E2E
:101BB0008B6F000E8C6F000E8E6F010E8D6F25D710
:101BC000C00EA1133BD000016E51726F6F51736F45
:101BD0006E4B6F2B72C0F6FF73C0F7FF000EF86EEE
:101BE0000E0EF76403D00800F55005D0F6CFE9FFDC
:101BF000F7CFEAFFEF500001A36FA351000AD8B45A
:101C000019EF97F0580AD8B4C0D63B0AD8B4BDD75C
:101C1000070AD8B413D0020AD8B4B5D60F0AD8B47C
:101C20000DD0050AD8B4ADD61F0AD8B4B0D6060A6E
:101C3000D8B4C6D70D0AD8B4A8D6B9D7070EA215FE
:101C4000D8B49CEF93F0A2A904D0000EA06F060EAA
:101C50009F6F70C0D9FF71C0DAFFDFCF72F0040E42
:101C6000DE26DFCF73F0000EDD2272C0D9FF73C015
:101C7000DAFFDECF95F0DECF96F0DECF97F0DECF45
:101C800098F098AF15D095C001F096C002F097C0BB
:101C900003F098C004F0DEECF2F001C095F002C051
:101CA00096F003C097F004C098F0030E0001A11352
:101CB000000E906F000E8F6F95C001F096C002F07D
:101CC00097C003F098C004F0000E056E000E066E7B
:101CD000000E076E000E086E43ECE9F0D8B083D01A
:101CE000000197359835820F8F6F906BFF0E902310
:101CF0008F07D8A090078FC001F090C002F0000EAF
:101D0000046E030E036EC0ECF3F001C08FF002C04E
:101D100090F08FC007F090C008F0000E0A6E0A0E17
:101D2000096E0DECEAF007C08FF008C090F00001DA
:101D300090AF03D08F07D8A090078F510008E6EC32
:101D4000B5F045C091F046C092F047C093F048C04E
:101D500094F091C02CF092C02DF093C02EF094C05E
:101D60002FF095C030F096C031F097C032F098C097
:101D700033F0D6ECC0F02CC091F02DC092F02EC004
:101D800093F02FC094F091C001F092C002F093C084
:101D900003F094C004F0000E056E000E066E800E77
:101DA000076E3F0E086E00ECE5F0D8B005D00001DC
:101DB0008F07D8A0900717D091C001F092C002F011
:101DC00093C003F094C004F0000E056E000E066E82
:101DD000200E076E410E086E00ECE5F0D8A003D08F
:101DE00000018F4B902B0001A0BF06D0A05121E134
:101DF0000D0E9F5DD8B01DD095C052F096C053F027
:101E000097C054F098C055F09F5175ECCEF045C086
:101E100056F046C057F047C058F048C059F09BEC08
:101E2000C8F052C095F053C096F054C097F055C01A
:101E300098F0000190BF06D0905131E10A0E8F5DFD
:101E4000D8B02DD095C001F096C002F097C003F035
:101E500098C004F0000E056E000E066E000E076EB0
:101E6000000E086E43ECE9F0D8B064D095C04EF097
:101E700096C04FF097C050F098C051F028ECE6F0B3
:101E80004E504F1050105110D8A454D0000190BFA4
:101E900051D0905104E1020E8F5DD8A04BD091C07B
:101EA00001F092C002F093C003F094C004F05F0E02
:101EB000056E700E066E890E076E400E086E00EC01
:101EC000E5F0D8B003D00001F70E02D00001F80E03
:101ED0008F27FF0E90238F51E6ECB5F045C091F0AF
:101EE00046C092F047C093F048C094F095C001F00E
:101EF00096C002F097C003F098C004F091C005F0BE
:101F000092C006F093C007F094C008F0C8ECE2F06D
:101F100001C099F002C09AF003C09BF004C09CF08D
:101F2000000E0001956F000E966F000E976F000E69
:101F3000986F3CD095C04EF096C04FF097C050F0CF
:101F400098C051F028ECE6F04EC099F04FC09AF0DE
:101F500050C09BF051C09CF095C064F096C065F0F5
:101F600097C066F098C067F099C005F09AC006F077
:101F70009BC007F09CC008F0000E05ECDFF005C028
:101F800068F006C069F007C06AF008C06BF042EC68
:101F9000EFF064C095F065C096F066C097F067C03A
:101FA00098F0000E0001906F000E8F6F010EA36F6E
:101FB000A351040D8B0EF324F66EDA0EF420F76EA7
:101FC000F86A000EF8220900F550995D0900F550F5
:101FD0009A590900F5509B590900F5509C59D8A011
:101FE00005D0A32B0A0EA319D8A4E2D7A3519F258D
:101FF000726F000EA021736F8F517227905173235F
:1020000072519D5F73519E5B9F51A011D8B403D054
:102010009D07D8A09E07030EA115726F000EA21592
:10202000736F72517311D8B403D09D07D8A09E0767
:10203000A1A5F0D0A1A341D020EE02F06C51D92689
:102040006D51DA22DE50DE10DE10D8B41DD0A1B101
:1020500004D0000E7C6F2B0E03D0000E7C6F2D0E73
:102060007B6F20EE02F06C51D9266D51DA2201D837
:1020700091D00500FA6EDE50FD6EDE50FE6EDE5031
:10208000FF6EFA507B511200A1B104D0000E7E6F9A
:102090002B0E03D0000E7E6F2D0E7D6F6CC0D9FF0E
:1020A0006DC0DAFFDECF72F0DDCF73F072C0D9FF02
:1020B00073C0DAFF7DC0DFFF2ED0A1A16BD020EE70
:1020C00002F06C51D9266D51DA22DE50DE10DE109E
:1020D000D8B413D020EE02F06C51D9266D51DA221B
:1020E00001D858D00500FA6EDE50FD6EDE50FE6E4F
:1020F000DE50FF6EFA50200E12006CC0D9FF6DC08A
:10210000DAFFDECF72F0DDCF73F072C0D9FF73C09B
:10211000DAFF200EDF6E6CC0D9FF6DC0DAFFDE2A59
:10212000000EDD2237D020EE02F06C51D9266D5121
:10213000DA22DE50DE10DE10D8B413D020EE02F02A
:102140006C51D9266D51DA2201D820D00500FA6EE3
:10215000DE50FD6EDE50FE6EDE50FF6EFA50300E29
:1021600012006CC0D9FF6DC0DAFFDECF72F0DDCF98
:1021700073F072C0D9FF73C0DAFF300EDF6E6CC02F
:10218000D9FF6DC0DAFFDE2A000EDD2200019D07B7
:10219000D8A09E0700019EBF2ED19E51C4E19D058F
:1021A000D8A029D1C0D720EE02F06C51D9266D51AC
:1021B000DA22DE50DE10DE10D8B413D020EE02F0AA
:1021C0006C51D9266D51DA2201D820D00500FA6E63
:1021D000DE50FD6EDE50FE6EDE50FF6EFA50200EB9
:1021E00012006CC0D9FF6DC0DAFFDECF72F0DDCF18
:1021F00073F072C0D9FF73C0DAFF200EDF6E6CC0BF
:10220000D9FF6DC0DAFFDE2A000EDD2200019D0736
:10221000D8A09E079EBF05D09E51C5E19D05D8B0B0
:10222000C2D7A1A341D020EE02F06C51D9266D5146
:10223000DA22DE50DE10DE10D8B41DD0A1B104D0F9
:10224000000E806F2B0E03D0000E806F2D0E7F6F5F
:1022500020EE02F06C51D9266D51DA2201D8CBD094
:102260000500FA6EDE50FD6EDE50FE6EDE50FF6E33
:10227000FA507F511200A1B104D0000E826F2B0ED4
:1022800003D0000E826F2D0E816F6CC0D9FF6DC020
:10229000DAFFDECF72F0DDCF73F072C0D9FF73C00A
:1022A000DAFF81C0DFFFA0D0A1A1A5D020EE02F00F
:1022B0006C51D9266D51DA22DE50DE10DE10D8B412
:1022C00013D020EE02F06C51D9266D51DA2201D8DC
:1022D00092D00500FA6EDE50FD6EDE50FE6EDE50CE
:1022E000FF6EFA50200E12006CC0D9FF6DC0DAFFED
:1022F000DECF72F0DDCF73F072C0D9FF73C0DAFFAA
:10230000200E71D099C001F09AC002F09BC003F07A
:102310009CC004F0A351040D8B0EF324F66EDA0E6C
:10232000F420F76EF86A000EF8220900F5CF05F0E8
:102330000900F5CF06F00900F5CF07F00A00F5CF48
:1023400008F04FECEAF001C091F002C092F003C037
:1023500093F004C094F091C00EF092C00FF093C0BF
:1023600010F094C011F00A0E126E000E136E000EE3
:10237000146E000E156ED4ECEBF00EC091F00FC091
:1023800092F010C093F011C094F0000120EE02F022
:102390006C51D9266D51DA22DE50DE10DE10D8B431
:1023A00014D020EE02F06C51D9266D51DA2201D8FA
:1023B00022D00500FA6EDE50FD6EDE50FE6EDE505D
:1023C000FF6EFA509151300F12009151300F6CC0D6
:1023D000D9FF6DC0DAFFDECF72F0DDCF73F072C0CF
:1023E000D9FF73C0DAFFDF6E6CC0D9FF6DC0DAFFB2
:1023F000DE2A000EDD220001A307A329D8B438D0BD
:1024000081D720EE02F06C51D9266D51DA22DE50D0
:10241000DE10DE10D8B413D020EE02F06C51D926B5
:102420006D51DA2201D820D00500FA6EDE50FD6E23
:10243000DE50FE6EDE50FF6EFA50300E12006CC0A1
:10244000D9FF6DC0DAFFDECF72F0DDCF73F072C05E
:10245000D9FF73C0DAFF300EDF6E6CC0D9FF6DC0DC
:10246000DAFFDE2A000EDD2200018F07D8A09007D8
:1024700090BF05D09051C5E18F05D8B0C2D7A0BF9D
:1024800009D0A05104E1090E9F5DD8A003D0080E29
:10249000A36F02D09FC0A3F0A3519F5F000EA05B6B
:1024A000A351D8B433D020EE02F06C51D9266D512F
:1024B000DA22DE50DE10DE10D8B413D020EE02F0A7
:1024C0006C51D9266D51DA2201D820D00500FA6E60
:1024D000DE50FD6EDE50FE6EDE50FF6EFA502E0EA8
:1024E00012006CC0D9FF6DC0DAFFDECF72F0DDCF15
:1024F00073F072C0D9FF73C0DAFF2E0EDF6E6CC0AE
:10250000D9FF6DC0DAFFDE2A000EDD220001A351E3
:10251000E6ECB5F045C076F046C077F047C078F0FD
:1025200048C079F095C030F096C031F097C032F0D5
:1025300098C033F076C02CF077C02DF078C02EF024
:1025400079C02FF0D6ECC0F02CC04EF02DC04FF06B
:102550002EC050F02FC051F028ECE6F04EC099F09C
:102560004FC09AF050C09BF051C09CF0A3D099C0CE
:1025700001F09AC002F09BC003F09CC004F0A3518C
:10258000040D8B0EF324F66EDA0EF420F76EF86A63
:10259000000EF8220900F5CF05F00900F5CF06F08E
:1025A0000900F5CF07F00A00F5CF08F04FECEAF08C
:1025B00001C091F002C092F003C093F004C094F007
:1025C00091C00EF092C00FF093C010F094C011F0C3
:1025D0000A0E126E000E136E000E146E000E156EB3
:1025E000D4ECEBF00EC091F00FC092F010C093F05D
:1025F00011C094F0000120EE02F06C51D9266D510B
:10260000DA22DE50DE10DE10D8B414D020EE02F054
:102610006C51D9266D51DA2201D822D00500FA6E0C
:10262000DE50FD6EDE50FE6EDE50FF6EFA509151B0
:10263000300F12009151300F6CC0D9FF6DC0DAFF1E
:10264000DECF72F0DDCF73F072C0D9FF73C0DAFF56
:10265000DF6E6CC0D9FF6DC0DAFFDE2A000EDD220E
:1026600099C00EF09AC00FF09BC010F09CC011F002
:102670000001A351040D8B0EF324F66EDA0EF42044
:10268000F76EF86A000EF8220900F5CF12F0090083
:10269000F5CF13F00900F5CF14F00A00F5CF15F0CF
:1026A000D4ECEBF00EC099F00FC09AF010C09BF084
:1026B00011C09CF00001A307A329D8B438D057D784
:1026C00020EE02F06C51D9266D51DA22DE50DE1078
:1026D000DE10D8B413D020EE02F06C51D9266D5123
:1026E000DA2201D820D00500FA6EDE50FD6EDE50F1
:1026F000FE6EDE50FF6EFA50300E12006CC0D9FF35
:102700006DC0DAFFDECF72F0DDCF73F072C0D9FF9B
:1027100073C0DAFF300EDF6E6CC0D9FF6DC0DAFF18
:10272000DE2A000EDD2200019F07D8A0A0079F51DE
:10273000A011D8B460D3C4D7C00EA115726F000E1B
:10274000A215736F72517311D8A441D0A1A919D0E9
:1027500070C0D9FF71C0DAFFDFCF72F0040EDE2641
:10276000DFCF73F0000EDD2272C0D9FF73C0DAFF35
:10277000DECF99F0DECF9AF0DECF9BF0DECF9CF07B
:1027800019D070C0D9FF71C0DAFFDFCF72F0020E2E
:10279000DE26DFCF73F0000EDD2272C0D9FF73C0DA
:1027A000DAFFDECF99F0DDCF9AF0000E9ABFFF0E70
:1027B0009B6F9C6F9CAF40D0030EA1139C1F9B1F6F
:1027C0009A1F996D000E9A239B239C2335D0A1A9B3
:1027D00019D070C0D9FF71C0DAFFDFCF72F0040EDC
:1027E000DE26DFCF73F0000EDD2272C0D9FF73C08A
:1027F000DAFFDECF99F0DECF9AF0DECF9BF0DECFAE
:102800009CF01AD070C0D9FF71C0DAFFDFCF72F030
:10281000020EDE26DFCF73F0000EDD2272C0D9FF7C
:1028200073C0DAFFDECF74F0DDCF75F074C099F0BD
:1028300075C09AF09B6B9C6B9F51A011D8A44BD094
:1028400099519A119B119C11D8A445D09F4BA02B54
:1028500042D0010EA36FA351040D8B0EF324F66E2C
:10286000DA0EF420F76EF86A000EF8220900F5502F
:10287000995D0900F5509A590900F5509B590900D6
:10288000F5509C59D8A032D0A32B0A0EA319D8B466
:102890002DD0E1D7010EA36FA351040D6B0EF324CD
:1028A000F66ED70EF420F76EF86A000EF8220900D3
:1028B000F550995D0900F5509A590900F5509B595A
:1028C0000900F5509C59D8A011D0A32B080EA319CC
:1028D000D8B40CD0E1D7A151C00B000AD8B4B9D7F5
:1028E000800AD8B4D7D7400AD8B4B3D7A351726FEF
:1028F000736B9F51725D7351800A746FA051800A8F
:102900007459D8B003D09FC0A3F010D0A351726FF8
:10291000736B72519F5DA051800A746F7351800A6E
:102920007459D8B003D0A3C09FF0A06B9D519E11E5
:10293000D8B40DD0030EA115726F000EA215736FDF
:1029400072517311D8B403D09D07D8A09E07A2ADD1
:1029500013D09D519F5DA051800A726F9E51800AD5
:102960007259D8B005D09F519D5FA0519E5B04D095
:10297000000E9E6F000E9D6FA351726F736B9D5181
:10298000725D7351800A746F9E51800A7459D8B079
:1029900005D0A3519D5F000E9E5B04D0000E9E6F7C
:1029A000000E9D6FA1A5B5D0A1A341D020EE02F0ED
:1029B0006C51D9266D51DA22DE50DE10DE10D8B40B
:1029C0001DD0A1B104D0000E846F2B0E03D0000ED9
:1029D000846F2D0E836F20EE02F06C51D9266D515D
:1029E000DA2201D859D00500FA6EDE50FD6EDE50B5
:1029F000FE6EDE50FF6EFA5083511200A1B104D07A
:102A0000000E866F2B0E03D0000E866F2D0E856F85
:102A10006CC0D9FF6DC0DAFFDECF72F0DDCF73F08E
:102A200072C0D9FF73C0DAFF85C0DFFF2ED0A1A12D
:102A300033D020EE02F06C51D9266D51DA22DE50EF
:102A4000DE10DE10D8B413D020EE02F06C51D9267F
:102A50006D51DA2201D820D00500FA6EDE50FD6EED
:102A6000DE50FE6EDE50FF6EFA50200E12006CC07B
:102A7000D9FF6DC0DAFFDECF72F0DDCF73F072C028
:102A8000D9FF73C0DAFF200EDF6E6CC0D9FF6DC0B6
:102A9000DAFFDE2A000EDD2200019D519E11D8B41E
:102AA000A1D120EE02F06C51D9266D51DA22DE5010
:102AB000DE10DE10D8B413D020EE02F06C51D9260F
:102AC0006D51DA2201D820D00500FA6EDE50FD6E7D
:102AD000DE50FE6EDE50FF6EFA50300E12006CC0FB
:102AE000D9FF6DC0DAFFDECF72F0DDCF73F072C0B8
:102AF000D9FF73C0DAFF300EDF6E6CC0D9FF6DC036
:102B0000DAFFDE2A000EDD2200019D07D8A09E0715
:102B1000C4D79D519E11D8B43BD020EE02F06C5129
:102B2000D9266D51DA22DE50DE10DE10D8B413D073
:102B300020EE02F06C51D9266D51DA2201D820D056
:102B40000500FA6EDE50FD6EDE50FE6EDE50FF6E4A
:102B5000FA50200E12006CC0D9FF6DC0DAFFDECF34
:102B600072F0DDCF73F072C0D9FF73C0DAFF200EB0
:102B7000DF6E6CC0D9FF6DC0DAFFDE2A000EDD22E9
:102B800000019D07D8A09E079D519E11D8A4C5D7CE
:102B9000A1A341D020EE02F06C51D9266D51DA226A
:102BA000DE50DE10DE10D8B41DD0A1B104D0000E6E
:102BB000886F2B0E03D0000E886F2D0E876F20EECE
:102BC00002F06C51D9266D51DA2201D80BD10500E3
:102BD000FA6EDE50FD6EDE50FE6EDE50FF6EFA5075
:102BE00087511200A1B104D0000E8A6F2B0E03D0C2
:102BF000000E8A6F2D0E896F6CC0D9FF6DC0DAFF91
:102C0000DECF72F0DDCF73F072C0D9FF73C0DAFF90
:102C100089C0DFFFE0D0A1A1E5D020EE02F06C5129
:102C2000D9266D51DA22DE50DE10DE10D8B413D072
:102C300020EE02F06C51D9266D51DA2201D8D2D0A3
:102C40000500FA6EDE50FD6EDE50FE6EDE50FF6E49
:102C5000FA50200E12006CC0D9FF6DC0DAFFDECF33
:102C600072F0DDCF73F072C0D9FF73C0DAFF200EAF
:102C7000DF6EB1D09FC072F0A0C073F0D8907237F1
:102C80007337D890723773378B0E7225F66EDA0E63
:102C90007321F76EF86A000EF8220900F5CF05F0EF
:102CA0000900F5CF06F00900F5CF07F00A00F5CFCF
:102CB00008F099C001F09AC002F09BC003F09CC0DC
:102CC00004F04FECEAF001C00EF002C00FF003C0B8
:102CD00010F004C011F00A0E126E000E136E000EFA
:102CE000146E000E156ED4ECEBF00E50300F000198
:102CF000A36F45D099C001F09AC002F09BC003F0C9
:102D00009CC004F09FC072F0A0C073F0D8907237DE
:102D10007337D890723773376B0E7225F66ED70EF5
:102D20007321F76EF86A000EF8220900F5CF05F05E
:102D30000900F5CF06F00900F5CF07F00A00F5CF3E
:102D400008F04FECEAF001500F0B00017A6F8C0E87
:102D50007A25F66EF76AFA0EF722F86A000EF82264
:102D60000800F5CFA3F00BD0A151C00B000AD8B4D6
:102D700081D7800AD8B4BED7400AD8B47BD720EE1A
:102D800002F06C51D9266D51DA22DE50DE10DE10D1
:102D9000D8B413D020EE02F06C51D9266D51DA224E
:102DA00001D820D00500FA6EDE50FD6EDE50FE6EBA
:102DB000DE50FF6EFA50A35112006CC0D9FF6DC0F7
:102DC000DAFFDECF72F0DDCF73F072C0D9FF73C0CF
:102DD000DAFFA3C0DFFF6CC0D9FF6DC0DAFFDE2AC7
:102DE000000EDD2200019F07D8A0A0079F29BCE1AB
:102DF000A029D8A4B9D700016E51726F6F51736FBB
:102E00006E4B6F2B72C0F6FF73C0F7FF000EF86EAB
:102E10000E0EF76403D00800F55005D0F6CFE9FF99
:102E2000F7CFEAFFEF500001A36FA351D8A494EFAE
:102E30008BF0000E6D6F000E6C6F1200AFEFA0F004
:102E4000000EE86F680E036F030E046FFF0E056F30
:102E5000FB0E066FD6ECEEF0790E0201036F030E47
:102E6000046F000E056FFB0E066FD6ECEEF08A0EB7
:102E70000201036F030E046FF00E056FFA0E066F6A
:102E8000D6ECEEF09B0E0201036F030E046FFF51B0
:102E900097ECF2F000C205F201C206F2D6ECEEF0B9
:102EA00043ECE0F0010E0201E96F030EE26F120045
:102EB000000EE86F680E036F030E046F440E056F7B
:102EC000FB0E066FD6ECEEF0400E02018C6F050E85
:102ED0008D6FA80E8E6FFF0E8F6F6CECF4F00BC22F
:102EE00090F20CC291F2FAECEEF0790E0201036F4F
:102EF000030E046F400E056F050E066FD6ECEEF064
:102F00008A0E0201036F030E046FC30E056FFA0EE3
:102F1000066FD6ECEEF0510E02018C6F050E8D6F30
:102F2000740E8E6FFF0E8F6F6FECF1F00201AD6FBC
:102F3000410EAD25906F916B000E9123ADECF3F037
:102F40000201AE6FAE51926F936BFAECEEF09B0EF6
:102F50000201036F030E046F510E056F050E066F1D
:102F6000D6ECEEF043ECE0F0020E9DD7000EE86FD9
:102F7000680E036F030E046FE00E056FFA0E066F06
:102F8000D6ECEEF0790E0201036F030E046F750E9E
:102F9000056FFE0E066FD6ECEEF08A0E0201036F8F
:102FA000030E046F100E056FFB0E066FD6ECEEF0ED
:102FB0009B0E0201036F030E046F9A0E056FFB0E4A
:102FC000066FD6ECEEF043ECE0F0030E6CD7000E8B
:102FD000E86F680E036F030E046F290E056FFC0E79
:102FE000066FD6ECEEF0790E0201036F030E046F4C
:102FF000F20E056FFD0E066FD6ECEEF08A0E0201A2
:10300000036F030E046F370E056FFC0E066FD6ECD0
:10301000EEF09B0E0201036F030E046FD00E056FDE
:10302000FA0E066FD6ECEEF043ECE0F0040E3BD760
:10303000000EE86F680E036F030E046F6D0E056FD0
:10304000FB0E066FD6ECEEF0790E0201036F030E55
:10305000046FA00E056FFD0E066FD6ECEEF08A0E23
:103060000201036F030E046F94ECECF000C205F252
:1030700001C206F2D6ECEEF09B0E0201036F030EC6
:10308000046FA00E056FFD0E066FD6ECEEF043EC5C
:10309000E0F0040E0201E96F010EE26F1200000E73
:1030A000E86F680E036F030E046F4F0E056FFB0E83
:1030B000066FD6ECEEF0790E02018C6F030E8D6F69
:1030C000E90E8E6FFC0E8F6FEDC090F2EEC091F2A4
:1030D000EFC092F2F0C093F2FAECEEF08A0E020129
:1030E0008C6F030E8D6FF10E8E6FFC0E8F6F00C311
:1030F00090F201C391F202C392F203C393F2FAEC8D
:10310000EEF09B0E02018C6F030E8D6FE40E8E6F3E
:10311000FC0E8F6F04C390F205C391F206C392F2C6
:1031200007C393F2FAECEEF043ECE0F0050EB2D7F1
:10313000000EE86F680E036F030E046F6F0E056FCD
