:020000040000FA
:0400000060EF00F0BD
:060008005E8288EFC5F0E6
:100018005E80D8CF05F1E8CF06F1E0CF07F1FACF3F
:1000280008F1FBCF09F1D9CF0AF1DACF0BF10E01B4
:10003800C6B3CEA303D027ECD1F02ED0C2B3CAA347
:1000480003D07BECD3F028D0C2B5CAA503D076EC98
:10005800D3F022D0C5B7CDA703D065ECD3F01CD020
:10006800C5B5CDA503D07BECBAF016D0C6B5CEA5E4
:1000780003D0D0ECCFF010D0C5BDCDAD0DD001D898
:100088000BD00500FA6E02012551FD6E2651FE6E59
:100098002751FF6EFA5012000BC1DAFF0AC1D9FFCF
:1000A80009C1FBFF08C1FAFF07C1E0FF06C1E8FF6D
:0C00B80005C1D8FF5E90100065EFC7F096
:10E2CA00000000803F000020410000C84200007AA0
:10E2DA004400401C460050C34700247449809618E5
:10E2EA004B20BCBE4C286B6E4EF9021550EC78AD33
:10E2FA0060CAF249710000803FCDCCCC3D0AD723D9
:10E30A003C6F12833A17B7D138ACC52737BD378669
:10E31A003595BFD63377CC2B325F708930FFE6DB79
:10E32A002E08E53C1E6042A20D010000001000000C
:10E33A0000000100000010000000000100000010B1
:10E34A0000000000010000001000000000000000B2
:10E35A000000005F00000000000000070007000046
:10E36A000000147F147F14000000242A7F2A120060
:10E37A000000231308646200000036495522500049
:10E38A00000000050300000000001C2241000000FC
:10E39A00000041221C0000000000082A1C2A080074
:10E3AA00000008083E0808000000A0600000000005
:10E3BA00000008080808080000006060000000006B
:10E3CA00000020100804020000003E5149453E00AA
:10E3DA00000000427F4000000000625149494600A7
:10E3EA00000022414949360000001814127F10002B
:10E3FA00000027454545390000003C4A494930009C
:10E40A000000017109050300000036494949360038
:10E41A000000064949291E000000003636000000A7
:10E42A00000000AC6C00000000000814224100004B
:10E43A0000001414141414000000412214080000EF
:10E44A0000000201510906000000324979413E00EC
:10E45A0000007E0909097E0000007F49494936000B
:10E46A0000003E414141220000007F4141221C0040
:10E47A0000007F494949410000007F09090901005C
:10E48A0000003E414151720000007F0808087F00E9
:10E49A000000417F4100000000002040413F010090
:10E4AA0000007F081422410000007F4040404000E5
:10E4BA0000007F020C027F0000007F0408107F002A
:10E4CA0000003E4141413E0000007F090909060063
:10E4DA0000003E4151215E0000007F0919294600D3
:10E4EA000000264949493200000001017F0101006C
:10E4FA0000003F4040403F0000001F2040201F0016
:10E50A0000003F4038403F000000631408146300D5
:10E51A0000000304780403000000615149454300E8
:10E52A0000007F41410000000000020408102000A2
:10E53A00000041417F0000000000040201020400C3
:10E54A00000080808080800000000102040000003A
:10E55A00000020545454780000007F484444380096
:10E56A0000003844442800000000384444487F0032
:10E57A0000003854545418000000087E09020000B4
:10E58A00000018A4A4A47C0000007F0804047800FA
:10E59A000000007D00000000000080847D00000073
:10E5AA0000007F10284400000000417F4000000066
:10E5BA0000007C041804780000007C08047C000039
:10E5CA0000003844443800000000FC2424180000ED
:10E5DA000000182424FC00000000007C080400004D
:10E5EA0000004854542400000000047F4400000046
:10E5FA0000003C40407C000000001C2040201C0021
:10E60A0000003C4030403C000000442810284400F0
:10E61A0000001CA0A07C000000004464544C44008C
:10E62A0000000836410000000000007F00000000E2
:10E63A00000041360800000000000201010201004A
:10E64A00000002050502000000010000000A0000A7
:10E65A000064000000E803000010270000A0860103
:10E66A000040420F008096980000E1F50500CA9A22
:10E67A003BB80EDA432020202048656C703A204CC3
:10E68A006973747320617661696C61626C65206379
:10E69A006F6D6D616E64730A0D202020202A494433
:10E6AA004E3F3A205072696E7473206964656E74C5
:10E6BA00696669636174696F6E20737472696E67E3
:10E6CA000A0D2020202052657365743A204578652A
:10E6DA00637574657320736F6674776172652072EF
:10E6EA006573657420696E737472756374696F6E8D
:10E6FA000A0D20202020436C6561723A20436C6524
:10E70A0061727320746865207669727475616C2011
:10E71A00434F4D20706F7274207465726D696E611B
:10E72A006C0A0D202020204361757365206F6620D6
:10E73A0052657365743F3A205072696E747320741F
:10E74A006865206361757365206F6620746865204B
:10E75A006D6F737420726563656E74206465766983
:10E76A0063652072657365740A0D20202020446554
:10E77A00766963652049443F3A205072696E747322
:10E78A0020746865206D6963726F636869702064BC
:10E79A0065766963652049440A0D20202020526568
:10E7AA00766973696F6E2049443F3A205072696EE8
:10E7BA00747320746865206D6963726F6368697029
:10E7CA002073696C69636F6E207265766973696F0D
:10E7DA006E2049440A0D2020202055736572204975
:10E7EA0044733F3A205072696E74732061206C69D9
:10E7FA007374206F662055736572204944732073C1
:10E80A006176656420696E20466C6173680A0D2022
:10E81A00202020446576696365204F6E2054696D17
:10E82A00653F3A205072696E74732074686520647B
:10E83A006576696365206F6E2074696D65207369FA
:10E84A006E6365206C617374206465766963652004
:10E85A0072657365740A0D20202020456E61626C12
:10E86A00652051493A20456E61626C6564205149C0
:10E87A0020776972656C65737320706F7765722093
:10E88A00636F6E76657273696F6E0A0D20202020A1
:10E89A0044697361626C652051493A204469736125
:10E8AA00626C657320514920776972656C65737370
:10E8BA0020706F77657220636F6E76657273696F09
:10E8CA006E0A0D2020202043686172676520537408
:10E8DA00617475733F3A205072696E74732074685C
:10E8EA006520636861726765207374617465206F5F
:10E8FA00662074686520514920776972656C657372
:10E90A007320706F77657220636F6E7665727465B7
:10E91A00720A0D202020204D6561737572652050A2
:10E92A004F53353F3A205072696E7473207468658C
:10E93A002041444320636F6E76657273696F6E205F
:10E94A00726573756C7420666F7220746865202B0B
:10E95A003556207261696C0A0D202020204D6561B0
:10E96A007375726520504F5331323F3A20507269A5
:10E97A006E7473207468652041444320636F6E7619
:10E98A00657273696F6E20726573756C7420666F39
:10E99A007220746865202B313256207261696C0AC4
:10E9AA000D202020204D65617375726520504F53EC
:10E9BA0031322043757272656E743F3A2050726923
:10E9CA006E7473207468652041444320636F6E76C9
:10E9DA00657273696F6E20726573756C7420666FE9
:10E9EA007220746865202B31325620696E707574F6
:10E9FA002063757272656E740A0D202020204D65A1
:10EA0A0061737572652051492043757272656E741F
:10EA1A003F3A205072696E747320746865204144CD
:10EA2A004320636F6E76657273696F6E20726573C9
:10EA3A00756C7420666F7220746865205149206372
:10EA4A006F6E7665727465722063757272656E7424
:10EA5A000A0D202020204D65617375726520496E6C
:10EA6A0070757420506F7765723F3A205072696EE4
:10EA7A007473207468652063616C63756C61746576
:10EA8A006420656C656374726963616C20696E7079
:10EA9A00757420706F776572206261736564206F88
:10EAAA006E20414443206D6561737572656D656EB4
:10EABA0074730A0D202020204D65617375726520DC
:10EACA004F757470757420506F7765723F3A205095
:10EADA0072696E7473207468652063616C63756C07
:10EAEA006174656420776972656C657373206F75EC
:10EAFA007470757420706F776572206261736564D3
:10EB0A00206F6E20414443206D6561737572656D97
:10EB1A00656E74730A0D202020204D65617375722D
:10EB2A006520456666696369656E63793F3A205078
:10EB3A0072696E7473207468652063616C63756CA6
:10EB4A00617465642073797374656D20656666699E
:10EB5A006369656E6379206261736564206F6E20F4
:10EB6A00414443206D6561737572656D656E74739A
:10EB7A000A0D202020204D6561737572652041566B
:10EB8A0053533F3A205072696E747320746865203B
:10EB9A0041444320636F6E76657273696F6E2072AB
:10EBAA006573756C7420666F7220415653530A0D53
:10EBBA00202020204D656173757265204656523FAC
:10EBCA003A205072696E7473207468652041444318
:10EBDA0020636F6E76657273696F6E2072657375E6
:10EBEA006C7420666F722074686520666978656443
:10EBFA0020766F6C74616765207265666572656EF2
:10EC0A0063650A0D202020204D65617375726520A9
:10EC1A004469652054656D703F3A205072696E747C
:10EC2A0073207468652041444320636F6E76657271
:10EC3A0073696F6E20726573756C7420666F7220CB
:10EC4A00746865206D6963726F636F6E74726F6C3E
:10EC5A006C6572206469652074656D706572617493
:10EC6A007572650A0D202020204D656173757265E5
:10EC7A002051492054656D703F3A205072696E7474
:10EC8A007320746865206469676974616C207465AF
:10EC9A006D70657261747572652073656E736F72DB
:10ECAA0020726573756C7420666F722074686520B3
:10ECBA00514920636F6E7665727465720A0D202061
:10ECCA0020204D65617375726520504F533520546D
:10ECDA00656D703F3A205072696E7473207468656E
:10ECEA00206469676974616C2074656D706572610E
:10ECFA00747572652073656E736F722072657375B1
:10ED0A006C7420666F7220746865202B35562063F8
:10ED1A006F6E7665727465720A0D202020204D652B
:10ED2A00617375726520416D6269656E7420546500
:10ED3A006D703F3A205072696E7473207468652052
:10ED4A006469676974616C2074656D706572617459
:10ED5A007572652073656E736F7220726573756C58
:10ED6A007420666F7220616D6269656E7420656ECB
:10ED7A007669726F6E6D656E740A0D2020202045CB
:10ED8A0072726F72205374617475733F2050726986
:10ED9A006E747320696620616E7920737973746565
:10EDAA006D206661756C7473206861766520626592
:10EDBA00656E2064657465637465640A0D2020209D
:10EDCA0020436C6561722055415254204572726F1E
:10EDDA0072733A20436C6561727320554152542014
:10EDEA006572726F7220666C6167730A0D2020204B
:10EDFA0020436C65617220493243204572726F72FA
:10EE0A00733A20436C6561727320493243206572FC
:10EE1A00726F7220666C6167730A0D20202020438E
:10EE2A006C65617220414443204572726F72733A75
:10EE3A0020436C6561727320414443206572726F8E
:10EE4A007220666C6167730A0D00436F6D6D616EA7
:10EE5A0064732061726520636173652073656E73E4
:10EE6A0069746976652C206261636B73706163658E
:10EE7A0020697320737570706F727465642C2063D7
:10EE8A006F6D6D616E6420686973746F7279206941
:10EE9A0073206E6F7420737570706F727465640A74
:10EEAA000D00466978656420566F6C746167652049
:10EEBA005265666572656E6365204275666665723F
:10EECA002031206D65617375726564206173202538
:10EEDA002B2E336620566F6C74732C2063616C6919
:10EEEA0062726174656420666F72202B342E303929
:10EEFA003620566F6C74730A0D0054686520666F6D
:10EF0A006C6C6F77696E672055736572204944731C
:10EF1A002068617665206265656E20726574726923
:10EF2A00657665642066726F6D20666C6173682011
:10EF3A006D656D6F72793A0A0D0053797374656D58
:10EF4A0020706172616D657465727320616E6420F0
:10EF5A0061666669726D617469766520726573703F
:10EF6A006F6E7365732061707065617220696E20BF
:10EF7A00677265656E0A0D0046696E697368656435
:10EF8A002074657374206D6573736167652C2074D2
:10EF9A00797065202748656C702720666F72206C2F
:10EFAA00697374206F6620636F6D6D616E64730A96
:10EFBA000D0A0D0043616C6C2027436C6561722059
:10EFCA0055415254204572726F72732720746F2014
:10EFDA00636C65617220636F6D6D756E69636174D0
:10EFEA00696F6E73206572726F722873290A0D0039
:10EFFA0043616C6C2027436C65617220493243205F
:10F00A004572726F72732720746F20636C65617228
:10F01A0020636F6D6D756E69636174696F6E7320BD
:10F02A006572726F722873290A0D004465766963E6
:10F03A00652073696C69636F6E207265766973699E
:10F04A006F6E2049442061732073746F7265642067
:10F05A00696E20466C6173682069733A20256325BE
:10F06A003033640A0D000A0D48656C70206D6573B3
:10F07A00736167657320616E64206E657574726171
:10F08A006C20726573706F6E736573206170706542
:10F09A00617220696E2079656C6C6F770A0D0020A9
:10F0AA002020205573657220494420576F726420CE
:10F0BA0025642028466C61736820616464726573F4
:10F0CA007320307832303030302558293A20307861
:10F0DA00253034580A0D004D6963726F636F6E7480
:10F0EA00726F6C6C6572204469652054656D706539
:10F0FA00726174757265206D6561737572656420DD
:10F10A00617320252B2E336620430A0D00514920B6
:10F11A00776972656C65737320706F7765722063A7
:10F12A006F6E766572746572206861732066756C9D
:10F13A006C7920636861726765642070686F6E65B8
:10F14A000A0D005149204368617267657220776928
:10F15A007468204469676974616C204D6F6E6974C4
:10F16A006F72696E672C2062792044726577204D30
:10F17A006161746D616E0A0D005468652063617582
:10F18A007365206F6620746865206D6F73742072D2
:10F19A006563656E7420646576696365207265735C
:10F1AA006574207761733A2025730A0D005149204E
:10F1BA004368617267657220776974682044696779
:10F1CA006974616C204D6F6E69746F72696E670A3B
:10F1DA000D426F6F7420436F6D706C6574650A0D14
:10F1EA0000446576696365206F6E2074696D6520D9
:10F1FA0073696E6365206C617374207265736574DC
:10F20A0020636F6E646974696F6E2069733A202592
:10F21A00730A0D00456C656374726963616C2049F9
:10F22A006E70757420506F7765722063616C6375B8
:10F23A006C6174656420617320252B2E3366205718
:10F24A00617474730A0D00576972656C6573732073
:10F25A004F757470757420506F7765722063616C96
:10F26A0063756C6174656420617320252B2E336687
:10F27A002057617474730A0D0043616C6C20274334
:10F28A006C65617220414443204572726F72732724
:10F29A0020746F20636C656172204144432065725B
:10F2AA00726F722873290A0D002B355620436F6E30
:10F2BA007665727465722054656D706572617475D5
:10F2CA007265206D656173757265642061732025AE
:10F2DA002B2E336620430A0D00514920436F6E7668
:10F2EA0065727465722054656D70657261747572A9
:10F2FA0065206D6561737572656420617320252BC5
:10F30A002E336620430A0D000A0D43616C6C2027D8
:10F31A0048656C702720666F72206C697374206F61
:10F32A006620737570706F7274656420636F6D6D9B
:10F33A00616E64730A0D0054686520666F6C6C6FA9
:10F34A0077696E67206368616E6E656C73206361AE
:10F35A007573656420616E20414443206572726F43
:10F36A00723A0A0D00514920636F6E7665727465B0
:10F37A00722063757272656E74206D656173757241
:10F38A00656420617320252B2E336620416D7073CE
:10F39A000A0D004572726F727320616E64206E6589
:10F3AA0067617469766520726573706F6E736573D1
:10F3BA002061707065617220696E207265640A0D41
:10F3CA00004465766963652049442073746F7265E9
:10F3DA006420696E20466C6173682069733A20253F
:10F3EA00732028307825303458290A0D002B313201
:10F3FA005620696E7075742063757272656E74201A
:10F40A006D6561737572656420617320252B2E33D7
:10F41A006620416D70730A0D004361757365206F34
:10F42A0066206D6F737420726563656E74206465FF
:10F43A0076696365207265736574207761733A2013
:10F44A0025730A0D0054686520666F6C6C6F7769C6
:10F45A006E6720493243204572726F727320776556
:10F46A0072652064657465637465643A0A0D0041C7
:10F47A006D6269656E742054656D7065726174752C
:10F48A007265206D656173757265642061732025EC
:10F49A002B2E336620430A0D0053797374656D2051
:10F4AA00456666696369656E63792063616C637535
:10F4BA006C6174656420617320252E336625250AE4
:10F4CA000D0057696E646F776564205761746368CD
:10F4DA0020446F672054696D65722056696F6C61AC
:10F4EA0074696F6E205265736574005149205769BB
:10F4FA0072656C65737320506F77657220436F6E07
:10F50A0076657273696F6E2044697361626C6564B3
:10F51A000A0D00514920576972656C657373205052
:10F52A006F77657220436F6E76657273696F6E20AE
:10F53A00456E61626C65640A0D004D656173757292
:10F54A00656D656E7420726573706F6E7365732076
:10F55A0061707065617220696E206379616E0A0D4F
:10F56A000054686973207465787420686173206137
:10F57A00206D6167656E7461206261636B67726F8B
:10F58A00756E640A0D00556E737570706F727465CE
:10F59A0064206F72206D69732D656E74657265647F
:10F5AA0020636F6D6D616E640A0D00546869732083
:10F5BA00746578742068617320612079656C6C6F5A
:10F5CA0077206261636B67726F756E640A0D002043
:10F5DA0020202049324320416D6269656E742054AF
:10F5EA00656D702053656E736F72204572726F720B
:10F5FA000A0D00514920776972656C657373207032
:10F60A006F77657220636F6E7665727465722069B2
:10F61A00732025730A0D002B313256207261696CF2
:10F62A00206D6561737572656420617320252B2EC8
:10F63A00336620566F6C74730A0D00546869732020
:10F64A0074657874206861732061207768697465CD
:10F65A00206261636B67726F756E640A0D0054688D
:10F66A006973207465787420686173206120626C04
:10F67A0061636B206261636B67726F756E640A0DFA
:10F68A000054686973207465787420686173206116
:10F69A0020677265656E206261636B67726F756E53
:10F6AA00640A0D002B3556207261696C206D656104
:10F6BA00737572656420617320252B2E336620567C
:10F6CA006F6C74730A0D00546869732074657874DA
:10F6DA0020686173206120626C7565206261636BCA
:10F6EA0067726F756E640A0D0054686973207465D9
:10F6FA007874206861732061206379616E20626189
:10F70A00636B67726F756E640A0D005468697320C3
:10F71A007465787420686173206120726564206260
:10F72A0061636B67726F756E640A0D00202020207A
:10F73A0049324320504F53352054656D702053652C
:10F74A006E736F72204572726F720A0D00514920F2
:10F75A004368617267657220697320696E20457219
:10F76A00726F722053746174650A0D002020202084
:10F77A004932432051492054656D702053656E7398
:10F78A006F72204572726F720A0D004156535320F0
:10F79A006D6561737572656420617320252B2E3344
:10F7AA006620566F6C74730A0D0055736572206972
:10F7BA006E707574206170706561727320696E2055
:10F7CA0077686974650A0D00202020204932432099
:10F7DA004F4C454420446973706C617920457272BC
:10F7EA006F720A0D004E6F20554152542065727295
:10F7FA006F722873292064657465637465640A0DE1
:10F80A000054657374696E67207465787420617436
:10F81A0074726962757465733A0A0D005468697383
:10F82A00207465787420697320756E6465727363D9
:10F83A006F7265640A0D004E6F204932432065726B
:10F84A00726F722873292064657465637465640A2B
:10F85A000D004E6F20414443206572726F72287307
:10F86A00292064657465637465640A0D0052455302
:10F87A00455420496E737472756374696F6E2045BE
:10F88A007865637574656400555342205541525436
:10F89A00204572726F722044657465637465640AE8
:10F8AA000D00414443206572726F722873292064E7
:10F8BA0065746563746564210A0D00546869732070
:10F8CA0074657874206973206E6F726D616C0A0DAD
:10F8DA000A0D00546869732074657874206973206E
:10F8EA0072657665727365640A0D005468697320DF
:10F8FA007465787420697320626C696E6B696E67CF
:10F90A000A0D0055415254206572726F722873298C
:10F91A0020636C65617265640A0D0020202020490D
:10F92A0032432047656E6572616C204572726F7250
:10F93A000A0D002020202047656E6572616C204107
:10F94A004443206572726F720A0D0054686973200D
:10F95A0074657874206973206D6167656E74610AD5
:10F96A000D00414443204572726F72287329206347
:10F97A006C65617265640A0D0049324320657272D2
:10F98A006F7228732920636C65617265640A0D00C1
:10F99A004D65617375726520504F5331322043753E
:10F9AA007272656E743F0054686973207465787466
:10F9BA002069732079656C6C6F770A0D0041766156
:10F9CA00696C61626C6520436F6D6D616E64733A38
:10F9DA000A0D004D65617375726520416D62696536
:10F9EA006E742054656D703F004D65617375726564
:10F9FA00204F757470757420506F7765723F00538D
:10FA0A007461636B20556E646572666C6F77205201
:10FA1A006573657400546869732074657874206925
:10FA2A007320626C61636B0A0D00546869732074F9
:10FA3A0065787420697320677265656E0A0D004DDA
:10FA4A0065617375726520496E70757420506F77A1
:10FA5A0065723F00537461636B204F766572666C02
:10FA6A006F772052657365740054686973207465F2
:10FA7A00787420697320626F6C640A0D0054686997
:10FA8A0073207465787420697320626C75650A0D39
:10FA9A0000546869732074657874206973206379E7
:10FAAA00616E0A0D004D65617375726520514920BA
:10FABA0043757272656E743F004D65617375726548
:10FACA0020456666696369656E63793F00546869B3
:10FADA00732074657874206973207265640A0D0056
:10FAEA004D65617375726520504F53352054656DAD
:10FAFA00703F004D617374657220436C65617220BA
:10FB0A00526573657400555342205541525420542E
:10FB1A006573740A0D0A0D004D656173757265206F
:10FB2A004469652054656D703F00436C65617220BD
:10FB3A0055415254204572726F727300303132331C
:10FB4A00343536373839414243444546004D6561BC
:10FB5A00737572652051492054656D703F00436C7E
:10FB6A0065617220493243204572726F7273004395
:10FB7A006C65617220414443204572726F72730052
:10FB8A00446576696365204F6E2054696D653F0050
:10FB9A004361757365206F662052657365743F0013
:10FBAA00766961205553422C202748656C702700DE
:10FBBA00434F4D20506F72742053657475703A002C
:10FBCA004361757365206F662052657365743A00E8
:10FBDA004469676974616C204D6F6E69746F720055
:10FBEA00386269742C206E6F2070617269747900B2
:10FBFA00556E646566696E65642052657365740046
:10FC0A0042726F776E204F75742052657365740067
:10FC1A004D65617375726520504F5331323F004311
:10FC2A006861726765205374617475733F00436835
:10FC3A0061726765205374617475733A0031207379
:10FC4A0074702C206E6F20666C6F77005245534596
:10FC5A005420457865637574656400506F776572E2
:10FC6A00204F6E205265736574004D65617375721D
:10FC7A006520504F53353F004D656173757265209D
:10FC8A00415653533F004572726F72205374617428
:10FC9A0075733F0051492043686172676572207726
:10FCAA002F002B31325620566F6C746167653A000B
:10FCBA00416D6269656E742054656D703A002B352A
:10FCCA00562053772E20467265713A004F7574702C
:10FCDA00757420506F7765723A002B313256204383
:10FCEA00757272656E743A00426F6F7420436F6D5D
:10FCFA00706C657465004D6F726520536574746924
:10FD0A006E67730046756C6C79204368617267652B
:10FD1A00640066756C6C792063686172676564005B
:10FD2A005265766973696F6E2049443F004D65617B
:10FD3A0073757265204656523F005265766973693B
:10FD4A006F6E2049443A002B355620566F6C746109
:10FD5A0067653A0051492053772E20467265713AF9
:10FD6A0000496E70757420506F7765723A0044725C
:10FD7A006577204D6161746D616E002564206D693F
:10FD8A006E757465732C200050494331384C4632E5
:10FD9A00374B34300050494331384C4634374B34B2
:10FDAA00300050494331384C4636374B34300053D3
:10FDBA007072696E672032303139004D6963726F33
:10FDCA002054656D703A0051492043757272656E10
:10FDDA00743A00456666696369656E63793A002517
:10FDEA0064206D696E7574652C2000504943313862
:10FDFA004632374B34300050494331384634374B5A
:10FE0A0034300050494331384636374B34300025B8
:10FE1A006C752E25362E366C75001B5B303B3337DE
:10FE2A003B34306D004465766963652049443F0080
:10FE3A0044697361626C652051490044657669635F
:10FE4A00652049443A00514920456E61626C6564F7
:10FE5A000025642079656172732C2000256420686E
:10FE6A006F7572732C20002564207365636F6E644E
:10FE7A00730053544F4620526573657400535455AA
:10FE8A0046205265736574004D434C522052657387
:10FE9A0065740057574454205265736574002020D6
:10FEAA0020204656520A0D00557365722049447344
:10FEBA003F00456E61626C65205149002B35562022
:10FECA0054656D703A003131352E32206B62730001
:10FEDA00256420796561722C2000256420686F757D
:10FEEA00722C2000256420646179732C200025641B
:10FEFA00207365636F6E6400424F522052657365CA
:10FF0A007400504F5220526573657400556E6465D3
:10FF1A0066696E656400756E646566696E6564001F
:10FF2A004F6E2054696D653A0051492054656D70D1
:10FF3A003A002564206461792C2000436861726765
:10FF4A00696E67006368617267696E6700252B2EA8
:10FF5A003366252500286E756C6C2900252B2E33F7
:10FF6A00664100252B2E33664300252B2E33665619
:10FF7A0000252B2E33665700256325303364002A6B
:10FF8A0049444E3F00436C656172004572726F725C
:10FF9A00006572726F72001B5B324A0048656C70B2
:10FFAA0000307825580049646C650069646C650006
:10FFBA001B5B73001B5B75001B5B48001B5B4B00E4
:10FFCA0033300033310034310033320034320033FD
:10FFDA0033003433003334003434003335003435DD
:10FFEA00003336003436003337003437001B5B00E9
:05FFFA0038003B00008F
:020000040001F9
:100000006FEF8BF0250E8F19D8B436D020EE02F0AA
:100010005851D9265951DA22DE50DE10DE10D8B4FC
:1000200014D020EE02F05851D9265951DA2202D8C4
:100030006FEF8BF00500FA6EDE50FD6EDE50FE6E47
:10004000DE50FF6EFA508F51120058C1D9FF59C1CE
:10005000DAFFDECF5EF1DDCF5FF15EC1D9FF5FC1B8
:10006000DAFF8FC1DFFF58C1D9FF59C1DAFFDE2A9D
:10007000000EDD226FEF8BF0000E8A6F000E896F8D
:10008000000E8E6F000E8D6F0AD001018D8105D09C
:1000900001018D8302D001018D855A4B5B2B5AC122
:1000A000F6FF5BC1F7FF000EF86E0E0EF76403D08B
:1000B0000800F55005D0F6CFE9FFF7CFEAFFEF5083
:1000C000200AD8B4E2D70B0AD8B4E2D71B0AD8B4B6
:1000D000E2D701018DB38D915AC1F6FF5BC1F7FFE5
:1000E000000EF86E0E0EF76403D00800F55005D030
:1000F000F6CFE9FFF7CFEAFFEF50BFECD1F0D8A081
:100100004CD0000E01018A6F000E896F89C10CF17D
:100110008AC10DF1000E01010F6F0A0E0E6F13EC74
:10012000D1F00CC189F10DC18AF1D00E01015E6FD1
:10013000FF0E5F6F5AC1F6FF5BC1F7FF000EF86E4E
:100140000E0EF76403D00800F55005D0F6CFE9FF96
:10015000F7CFEAFFEF500101606F616B5E516027DE
:100160005F5161236051892761518A235A4B5B2B70
:100170005AC1F6FF5BC1F7FF000EF86E0E0EF76472
:1001800003D00800F55005D0F6CFE9FFF7CFEAFF1E
:10019000EF50BFECD1F0D8B0B9D75AC1F6FF5BC170
:1001A000F7FF000EF86E0E0EF76403D00800F5504E
:1001B00005D0F6CFE9FFF7CFEAFFEF502E0AD8A41B
:1001C00049D001018E8D5A4B5B2B000E8C6F000EB7
:1001D0008B6F2AD08BC10CF18CC10DF1000E010187
:1001E0000F6F0A0E0E6F13ECD1F05AC1F6FF5BC110
:1001F000F7FF000EF86E0E0EF76403D00800F550FE
:1002000005D0F6CFE9FFF7CFEAFFEF5001015E6FAF
:100210005E510C27000E0D23D00E0C258B6FFF0EA8
:100220000D218C6F5A4B5B2B5AC1F6FF5BC1F7FF58
:10023000000EF86E0E0EF76403D00800F55005D0DE
:10024000F6CFE9FFF7CFEAFFEF50BFECD1F0D8A02F
:100250002AD1C0D7000E01018C6F000E8B6F8E89E2
:1002600022D18D8920D18E8559D18D8F57D15CC1F6
:10027000D9FF5DC1DAFFDFCF5EF1020EDE26DFCFF0
:100280005FF1000EDD225EC1D9FF5FC1DAFFDECF74
:1002900077F1DDCF78F177517811D8A404D05F0ED3
:1002A000776FFF0E786F000E7A6F000E796F03D0B4
:1002B0000101794B7A2B795177255E6F7A5178213C
:1002C0005F6F5EC1F6FF5FC1F7FF000EF86E0E0EA6
:1002D000F76403D00800F55005D0F6CFE9FFF7CF5B
:1002E000EAFFEF500009D8A4E3D701018B518C112C
:1002F000D8B40AD079518B5D7A518C59D8B004D0DA
:100300008BC179F18CC17AF18951795D8A517A5921
:10031000D8B005D07951895F7A518A5B38D0000E08
:100320008A6F000E896F33D020EE02F05851D92623
:100330005951DA22DE50DE10DE10D8B413D020EE90
:1003400002F05851D9265951DA2201D820D005009F
:10035000FA6EDE50FD6EDE50FE6EDE50FF6EFA501D
:10036000200E120058C1D9FF59C1DAFFDECF5EF16D
:10037000DDCF5FF15EC1D9FF5FC1DAFF200EDF6E16
:1003800058C1D9FF59C1DAFFDE2A000EDD22010172
:100390008907D8A08A078929C7E18A29D8B45BD000
:1003A000C3D720EE02F05851D9265951DA22DE5037
:1003B000DE10DE10D8B427D020EE02F05851D92636
:1003C0005951DA2201D81BD00500FA6EDE50FD6EBD
:1003D000DE50FE6EDE50FF6EFA5077C1F6FF78C138
:1003E000F7FF000EF86E0E0EF76403D00800F5500C
:1003F00005D0F6CFE9FFF7CFEAFFEF501200010179
:10040000774B782B28D077C1F6FF78C1F7FF000E25
:10041000F86E58C1D9FF59C1DAFFDECF5EF1DDCFEA
:100420005FF15EC1D9FF5FC1DAFF0E0EF76403D042
:100430000800F55005D0F6CFE9FFF7CFEAFFEF50FF
:10044000DF6E0101774B782B58C1D9FF59C1DAFF14
:10045000DE2A000EDD227907D8A07A077929A1E1EA
:100460007A29D8B46FEF8BF09CD75CC1D9FF5DC1FE
:10047000DAFFDFCF5EF1020EDE26DFCF5FF1000E86
:10048000DD225EC1D9FF5FC1DAFFDF508F6F8F0EB3
:10049000776F010E786F000E7A6F010E796F25D796
:1004A000C00E8D133BD001015A515E6F5B515F6FDF
:1004B0005A4B5B2B5EC1F6FF5FC1F7FF000EF86E73
:1004C0000E0EF76403D00800F55005D0F6CFE9FF13
:1004D000F7CFEAFFEF5001018F6F8F51000AD8B4B8
:1004E0008DEF8BF0580AD8B4C0D63B0AD8B4BDD72C
:1004F000070AD8B413D0020AD8B4B5D60F0AD8B4B4
:100500000DD0050AD8B4ADD61F0AD8B4B0D6060AA5
:10051000D8B4C6D70D0AD8B4A8D6B9D7070E8E1549
:10052000D8B40FEF88F08EA904D0000E8C6F060EA1
:100530008B6F5CC1D9FF5DC1DAFFDFCF5EF1040EC6
:10054000DE26DFCF5FF1000EDD225EC1D9FF5FC185
:10055000DAFFDECF81F1DECF82F1DECF83F1DECFB5
:1005600084F184AF15D081C10CF182C10DF183C13A
:100570000EF184C10FF14DECD0F00CC181F10DC131
:1005800082F10EC183F10FC184F1030E01018D13BD
:10059000000E7C6F000E7B6F81C10CF182C10DF1EA
:1005A00083C10EF184C10FF1000E106F000E116FA8
:1005B000000E126F000E136FB0ECC7F00101D8B03F
:1005C00084D083358435820F7B6F7C6BFF0E7C2358
:1005D0007B07D8A07C077BC10CF17CC10DF1000E1C
:1005E0000F6F030E0E6F13ECD1F00CC17BF10DC138
:1005F0007CF17BC112F17CC113F1000E0101156F7A
:100600000A0E146F3BECC8F012C17BF113C17CF1F0
:1006100001017CAF03D07B07D8A07C077B51000889
:100620003AECA7F033C17DF134C17EF135C17FF1E1
:1006300036C180F17DC11AF17EC11BF17FC11CF171
:1006400080C11DF181C11EF182C11FF183C120F162
:1006500084C121F1D0ECAEF01AC17DF11BC17EF155
:100660001CC17FF11DC180F17DC10CF17EC10DF176
:100670007FC10EF180C10FF1000E0101106F000E5D
:10068000116F800E126F3F0E136F43ECC3F0010128
:10069000D8B004D07B07D8A07C0717D07DC10CF15F
:1006A0007EC10DF17FC10EF180C10FF1000E106F00
:1006B000000E116F200E126F410E136F43ECC3F04A
:1006C0000101D8A002D07B4B7C2B8CBF06D08C5173
:1006D00021E10D0E8B5DD8B01DD081C140F182C1EA
:1006E00041F183C142F184C143F18B5131ECB5F04A
:1006F00033C144F134C145F135C146F136C147F14A
:1007000023ECB2F040C181F141C182F142C183F1D9
:1007100043C184F101017CBF06D07C5131E10A0E56
:100720007B5DD8B02DD081C10CF182C10DF183C1A8
:100730000EF184C10FF1000E106F000E116F000E4C
:10074000126F000E136FB0ECC7F00101D8B062D089
:1007500081C13CF182C13DF183C13EF184C13FF1D1
:1007600076ECC4F001013C513D113E113F11D8B46B
:100770007CBF50D07C5104E1020E7B5DD8A04AD0F2
:100780007DC10CF17EC10DF17FC10EF180C10FF171
:100790005F0E106F700E116F890E126F400E136F87
:1007A00043ECC3F00101D8B002D0F70E01D0F80E2F
:1007B0007B27FF0E7C237B513AECA7F033C17DF100
:1007C00034C17EF135C17FF136C180F181C10CF1B8
:1007D00082C10DF183C10EF184C10FF17DC110F111
:1007E0007EC111F17FC112F180C113F1D9ECC1F0CA
:1007F0000CC185F10DC186F10EC187F10FC188F1E1
:10080000000E0101816F000E826F000E836F000EDB
:10081000846F3CD081C13CF182C13DF183C13EF186
:1008200084C13FF176ECC4F03CC185F13DC186F155
:100830003EC187F13FC188F181C150F182C151F1C0
:1008400083C152F184C153F185C10CF186C10DF110
:1008500087C10EF188C10FF1000E07ECBFF00CC18B
:1008600054F10DC155F10EC156F10FC157F152ECC3
:10087000CDF050C181F151C182F152C183F153C118
:1008800084F1000E01017C6F000E7B6F010E8F6FF3
:100890000A0E8F19D8B41BD08F51040D530EF324B8
:1008A000F66EE60EF420F76EF86A000EF8220900E4
:1008B000F550855D0900F55086590900F5508759B6
:1008C0000900F5508859D8A002D08F2BE1D78F515D
:1008D0008B255E6F000E8C215F6F7B515E277C51F4
:1008E0005F235E51895F5F518A5B8B518C11D8B455
:1008F00003D08907D8A08A07030E8D155E6F000EFE
:100900008E155F6F5E515F11D8B403D08907D8A0F0
:100910008A078DA5F0D08DA341D020EE02F058516A
:10092000D9265951DA22DE50DE10DE10D8B41DD09F
:100930008DB104D0000E686F2B0E03D0000E686FCF
:100940002D0E676F20EE02F05851D9265951DA2248
:1009500001D891D00500FA6EDE50FD6EDE50FE6EBD
:10096000DE50FF6EFA50675112008DB104D0000EB8
:100970006A6F2B0E03D0000E6A6F2D0E696F58C17F
:10098000D9FF59C1DAFFDECF5EF1DDCF5FF15EC185
:10099000D9FF5FC1DAFF69C1DFFF2ED08DA16BD017
:1009A00020EE02F05851D9265951DA22DE50DE10DD
:1009B000DE10D8B413D020EE02F05851D926595188
:1009C000DA2201D858D00500FA6EDE50FD6EDE50F6
:1009D000FE6EDE50FF6EFA50200E120058C1D9FF95
:1009E00059C1DAFFDECF5EF1DDCF5FF15EC1D9FF25
:1009F0005FC1DAFF200EDF6E58C1D9FF59C1DAFF9F
:100A0000DE2A000EDD2237D020EE02F05851D92622
:100A10005951DA22DE50DE10DE10D8B413D020EEA9
:100A200002F05851D9265951DA2201D820D00500B8
:100A3000FA6EDE50FD6EDE50FE6EDE50FF6EFA5036
:100A4000300E120058C1D9FF59C1DAFFDECF5EF176
:100A5000DDCF5FF15EC1D9FF5FC1DAFF300EDF6E1F
:100A600058C1D9FF59C1DAFFDE2A000EDD2201018B
:100A70008907D8A08A0701018ABF2FD18A51C4E112
:100A80008905D8A02AD1C0D720EE02F05851D92626
:100A90005951DA22DE50DE10DE10D8B413D020EE29
:100AA00002F05851D9265951DA2201D820D0050038
:100AB000FA6EDE50FD6EDE50FE6EDE50FF6EFA50B6
:100AC000200E120058C1D9FF59C1DAFFDECF5EF106
:100AD000DDCF5FF15EC1D9FF5FC1DAFF200EDF6EAF
:100AE00058C1D9FF59C1DAFFDE2A000EDD2201010B
:100AF0008907D8A08A078ABF05D08A51C5E1890530
:100B0000D8B0C2D78DA341D020EE02F05851D926DB
:100B10005951DA22DE50DE10DE10D8B41DD08DB16E
:100B200004D0000E6C6F2B0E03D0000E6C6F2D0ED8
:100B30006B6F20EE02F05851D9265951DA2201D8B4
:100B4000CCD00500FA6EDE50FD6EDE50FE6EDE503B
:100B5000FF6EFA506B5112008DB104D0000E6E6F13
:100B60002B0E03D0000E6E6F2D0E6D6F58C1D9FF86
:100B700059C1DAFFDECF5EF1DDCF5FF15EC1D9FF93
:100B80005FC1DAFF6DC1DFFFA1D08DA1A6D020EE3D
:100B900002F05851D9265951DA22DE50DE10DE100B
:100BA000D8B413D020EE02F05851D9265951DA2288
:100BB00001D893D00500FA6EDE50FD6EDE50FE6E59
:100BC000DE50FF6EFA50200E120058C1D9FF59C1F5
:100BD000DAFFDECF5EF1DDCF5FF15EC1D9FF5FC12D
:100BE000DAFF200E72D085C10CF186C10DF187C1EC
:100BF0000EF188C10FF18F51040D530EF324F66EE0
:100C0000E60EF420F76EF86A000EF8220900F5CF20
:100C100010F10900F5CF11F10900F5CF12F10A002A
:100C2000F5CF13F17EECC8F00CC17DF10DC17EF162
:100C30000EC17FF10FC180F17DC119F17EC11AF1A2
:100C40007FC11BF180C11CF10A0E01011D6F000E56
:100C50001E6F000E1F6F000E206FB4ECC9F019C19B
:100C60007DF11AC17EF11BC17FF11CC180F1010130
:100C700020EE02F05851D9265951DA22DE50DE100A
:100C8000DE10D8B414D020EE02F05851D9265951B4
:100C9000DA2201D822D00500FA6EDE50FD6EDE5059
:100CA000FE6EDE50FF6EFA507D51300F12007D5106
:100CB000300F58C1D9FF59C1DAFFDECF5EF1DDCF69
:100CC0005FF15EC1D9FF5FC1DAFFDF6E58C1D9FFA6
:100CD00059C1DAFFDE2A000EDD2201018F078F29BC
:100CE000D8B438D080D720EE02F05851D9265951C7
:100CF000DA22DE50DE10DE10D8B413D020EE02F07F
:100D00005851D9265951DA2201D820D00500FA6E5F
:100D1000DE50FD6EDE50FE6EDE50FF6EFA50300E7D
:100D2000120058C1D9FF59C1DAFFDECF5EF1DDCF25
:100D30005FF15EC1D9FF5FC1DAFF300EDF6E58C1CF
:100D4000D9FF59C1DAFFDE2A000EDD2201017B073F
:100D5000D8A07C077CBF05D07C51C5E17B05D8B00D
:100D6000C2D78CBF09D08C5104E1090E8B5DD8A08D
:100D700003D0080E8F6F02D08BC18FF18F518B5F24
:100D8000000E8C5B8F51D8B433D020EE02F0585156
:100D9000D9265951DA22DE50DE10DE10D8B413D035
:100DA00020EE02F05851D9265951DA2201D820D02C
:100DB0000500FA6EDE50FD6EDE50FE6EDE50FF6EF8
:100DC000FA502E0E120058C1D9FF59C1DAFFDECFFA
:100DD0005EF1DDCF5FF15EC1D9FF5FC1DAFF2E0E9C
:100DE000DF6E58C1D9FF59C1DAFFDE2A000EDD22BD
:100DF00001018F513AECA7F033C162F134C163F1C4
:100E000035C164F136C165F181C11EF182C11FF1A6
:100E100083C120F184C121F162C11AF163C11BF1C8
:100E200064C11CF165C11DF1D0ECAEF01AC13CF1FA
:100E30001BC13DF11CC13EF11DC13FF176ECC4F078
:100E40003CC185F13DC186F13EC187F13FC188F1CA
:100E5000A4D085C10CF186C10DF187C10EF188C106
:100E60000FF18F51040D530EF324F66EE60EF420AD
:100E7000F76EF86A000EF8220900F5CF10F10900AC
:100E8000F5CF11F10900F5CF12F10A00F5CF13F1FA
:100E90007EECC8F00CC17DF10DC17EF10EC17FF179
:100EA0000FC180F17DC119F17EC11AF17FC11BF123
:100EB00080C11CF10A0E01011D6F000E1E6F000E95
:100EC0001F6F000E206FB4ECC9F019C17DF11AC17B
:100ED0007EF11BC17FF11CC180F1010120EE02F007
:100EE0005851D9265951DA22DE50DE10DE10D8B41E
:100EF00014D020EE02F05851D9265951DA2201D8E7
:100F000022D00500FA6EDE50FD6EDE50FE6EDE5021
:100F1000FF6EFA507D51300F12007D51300F58C1D5
:100F2000D9FF59C1DAFFDECF5EF1DDCF5FF15EC1DF
:100F3000D9FF5FC1DAFFDF6E58C1D9FF59C1DAFFAF
:100F4000DE2A000EDD2285C119F186C11AF187C1A2
:100F50001BF188C11CF101018F51040D530EF324C4
:100F6000F66EE60EF420F76EF86A000EF82209001D
:100F7000F5CF1DF10900F5CF1EF10900F5CF1FF1E6
:100F80000A00F5CF20F1B4ECC9F019C185F11AC1FE
:100F900086F11BC187F11CC188F101018F078F29E0
:100FA000D8B438D056D720EE02F05851D92659512E
:100FB000DA22DE50DE10DE10D8B413D020EE02F0BC
:100FC0005851D9265951DA2201D820D00500FA6E9D
:100FD000DE50FD6EDE50FE6EDE50FF6EFA50300EBB
:100FE000120058C1D9FF59C1DAFFDECF5EF1DDCF63
:100FF0005FF15EC1D9FF5FC1DAFF300EDF6E58C10D
:10100000D9FF59C1DAFFDE2A000EDD2201018B076C
:10101000D8A08C078B518C11D8B461D3C4D7C00E23
:101020008D155E6F000E8E155F6F5E515F11D8A437
:1010300041D08DA919D05CC1D9FF5DC1DAFFDFCFE6
:101040005EF1040EDE26DFCF5FF1000EDD225EC111
:10105000D9FF5FC1DAFFDECF85F1DECF86F1DECFCB
:1010600087F1DECF88F119D05CC1D9FF5DC1DAFF0D
:10107000DFCF5EF1020EDE26DFCF5FF1000EDD2254
:101080005EC1D9FF5FC1DAFFDECF85F1DDCF86F12A
:10109000000E86BFFF0E876F886F88AF40D0030EAB
:1010A0008D13881F871F861F856D000E862387235B
:1010B000882335D08DA919D05CC1D9FF5DC1DAFF75
:1010C000DFCF5EF1040EDE26DFCF5FF1000EDD2202
:1010D0005EC1D9FF5FC1DAFFDECF85F1DECF86F1D9
:1010E000DECF87F1DECF88F11AD05CC1D9FF5DC1B8
:1010F000DAFFDFCF5EF1020EDE26DFCF5FF1000EFA
:10110000DD225EC1D9FF5FC1DAFFDECF60F1DDCF46
:1011100061F160C185F161C186F1876B886B8B518C
:101120008C11D8A44BD08551861187118811D8A471
:1011300045D08B4B8C2B42D0010E8F6F0A0E8F192E
:10114000D8B447D08F51040D530EF324F66EE60E3B
:10115000F420F76EF86A000EF8220900F550855D5C
:101160000900F55086590900F55087590900F550D6
:101170008859D8A02ED08F2BE1D7010E8F6F080E83
:101180008F19D8B426D08F51040D330EF324F66E88
:10119000E30EF420F76EF86A000EF8220900F5500D
:1011A000855D0900F55086590900F55087590900F9
:1011B000F5508859D8A00DD08F2BE1D78D51C00B99
:1011C000000AD8B4B9D7800AD8B4D7D7400AD8B45F
:1011D000B3D78F515E6F5F6B8B515E5D5F51800A3D
:1011E000606F8C51800A6059D8B003D08BC18FF1E9
:1011F00010D08F515E6F5F6B5E518B5D8C51800A9A
:10120000606F5F51800A6059D8B003D08FC18BF1F5
:101210008C6B89518A11D8B40DD0030E8D155E6F79
:10122000000E8E155F6F5E515F11D8B403D0890731
:10123000D8A08A078EAD13D089518B5D8C51800A5E
:101240005E6F8A51800A5E59D8B005D08B51895F94
:101250008C518A5B04D0000E8A6F000E896F8F510B
:101260005E6F5F6B89515E5D5F51800A606F8A516E
:10127000800A6059D8B005D08F51895F000E8A5B13
:1012800004D0000E8A6F000E896F8DA5B5D08DA396
:1012900041D020EE02F05851D9265951DA22DE50C1
:1012A000DE10DE10D8B41DD08DB104D0000E706FEA
:1012B0002B0E03D0000E706F2D0E6F6F20EE02F01C
:1012C0005851D9265951DA2201D859D00500FA6E61
:1012D000DE50FD6EDE50FE6EDE50FF6EFA506F5136
:1012E00012008DB104D0000E726F2B0E03D0000ED1
:1012F000726F2D0E716F58C1D9FF59C1DAFFDECF61
:101300005EF1DDCF5FF15EC1D9FF5FC1DAFF71C170
:10131000DFFF2ED08DA133D020EE02F05851D92618
:101320005951DA22DE50DE10DE10D8B413D020EE90
:1013300002F05851D9265951DA2201D820D005009F
:10134000FA6EDE50FD6EDE50FE6EDE50FF6EFA501D
:10135000200E120058C1D9FF59C1DAFFDECF5EF16D
:10136000DDCF5FF15EC1D9FF5FC1DAFF200EDF6E16
:1013700058C1D9FF59C1DAFFDE2A000EDD22010172
:1013800089518A11D8B4A2D120EE02F05851D92641
:101390005951DA22DE50DE10DE10D8B413D020EE20
:1013A00002F05851D9265951DA2201D820D005002F
:1013B000FA6EDE50FD6EDE50FE6EDE50FF6EFA50AD
:1013C000300E120058C1D9FF59C1DAFFDECF5EF1ED
:1013D000DDCF5FF15EC1D9FF5FC1DAFF300EDF6E96
:1013E00058C1D9FF59C1DAFFDE2A000EDD22010102
:1013F0008907D8A08A07C4D789518A11D8B43BD0AD
:1014000020EE02F05851D9265951DA22DE50DE1072
:10141000DE10D8B413D020EE02F05851D92659511D
:10142000DA2201D820D00500FA6EDE50FD6EDE50C3
:10143000FE6EDE50FF6EFA50200E120058C1D9FF2A
:1014400059C1DAFFDECF5EF1DDCF5FF15EC1D9FFBA
:101450005FC1DAFF200EDF6E58C1D9FF59C1DAFF34
:10146000DE2A000EDD2201018907D8A08A078951F2
:101470008A11D8A4C5D78DA341D020EE02F05851CF
:10148000D9265951DA22DE50DE10DE10D8B41DD034
:101490008DB104D0000E746F2B0E03D0000E746F4C
:1014A0002D0E736F20EE02F05851D9265951DA22D1
:1014B00001D80CD10500FA6EDE50FD6EDE50FE6ED6
:1014C000DE50FF6EFA50735112008DB104D0000E41
:1014D000766F2B0E03D0000E766F2D0E756F58C1F0
:1014E000D9FF59C1DAFFDECF5EF1DDCF5FF15EC11A
:1014F000D9FF5FC1DAFF75C1DFFFE1D08DA1E6D072
:1015000020EE02F05851D9265951DA22DE50DE1071
:10151000DE10D8B413D020EE02F05851D92659511C
:10152000DA2201D8D3D00500FA6EDE50FD6EDE500F
:10153000FE6EDE50FF6EFA50200E120058C1D9FF29
:1015400059C1DAFFDECF5EF1DDCF5FF15EC1D9FFB9
:101550005FC1DAFF200EDF6EB2D08BC15EF18CC1AD
:101560005FF1D8905E375F37D8905E375F37530EA4
:101570005E25F66EE60E5F21F76EF86A000EF82221
:101580000900F5CF10F10900F5CF11F10900F5CFF1
:1015900012F10A00F5CF13F185C10CF186C10DF1EE
:1015A00087C10EF188C10FF17EECC8F00CC119F1B2
:1015B0000DC11AF10EC11BF10FC11CF10A0E010180
:1015C0001D6F000E1E6F000E1F6F000E206FB4EC1B
:1015D000C9F001011951300F8F6F45D085C10CF151
:1015E00086C10DF187C10EF188C10FF18BC15EF18B
:1015F0008CC15FF1D8905E375F37D8905E375F3728
:10160000330E5E25F66EE30E5F21F76EF86A000E6C
:10161000F8220900F5CF10F10900F5CF11F109000A
:10162000F5CF12F10A00F5CF13F17EECC8F00101FD
:101630000C510F0B666F460E6625F66EF76AFB0EB1
:10164000F722F86A000EF8220800F5CF8FF10BD0D0
:101650008D51C00B000AD8B480D7800AD8B4BED749
:10166000400AD8B47AD720EE02F05851D926595101
:10167000DA22DE50DE10DE10D8B413D020EE02F0F5
:101680005851D9265951DA2201D820D00500FA6ED6
:10169000DE50FD6EDE50FE6EDE50FF6EFA508F5152
:1016A000120058C1D9FF59C1DAFFDECF5EF1DDCF9C
:1016B0005FF15EC1D9FF5FC1DAFF8FC1DFFF58C1A3
:1016C000D9FF59C1DAFFDE2A000EDD2201018B07A6
:1016D000D8A08C078B29BCE18C29D8A4B9D70101EB
:1016E0005A515E6F5B515F6F5A4B5B2B5EC1F6FFC9
:1016F0005FC1F7FF000EF86E0E0EF76403D008000E
:10170000F55005D0F6CFE9FFF7CFEAFFEF50010122
:101710008F6F8F51D8A402EF80F0000E596F000E2A
:10172000586F1200FBEF96F0250EA319D8B436D0EF
:1017300020EE02F06C51D9266D51DA22DE50DE1017
:10174000DE10D8B414D020EE02F06C51D9266D51C1
:10175000DA2202D8FBEF96F00500FA6EDE50FD6E3D
:10176000DE50FE6EDE50FF6EFA50A35112006CC0C8
:10177000D9FF6DC0DAFFDECF72F0DDCF73F072C03B
:10178000D9FF73C0DAFFA3C0DFFF6CC0D9FF6DC003
:10179000DAFFDE2A000EDD22FBEF96F0000E9E6FD0
:1017A000000E9D6F000EA26F000EA16F0AD0000107
:1017B000A18105D00001A18302D00001A1856E4B5B
:1017C0006F2B6EC0F6FF6FC0F7FF000EF86E0E0EA7
:1017D000F76403D00800F55005D0F6CFE9FFF7CF46
:1017E000EAFFEF50200AD8B4E2D70B0AD8B4E2D708
:1017F0001B0AD8B4E2D70001A1B3A1916EC0F6FFD5
:101800006FC0F7FF000EF86E0E0EF76403D00800ED
:10181000F55005D0F6CFE9FFF7CFEAFFEF5000EC27
:10182000D2F0D8A04BD0000E00019E6F000E9D6F2D
:101830009DC001F09EC002F0000E046E0A0E036E01
:1018400076ECD1F001C09DF002C09EF0D00E0001F8
:10185000726FFF0E736F6EC0F6FF6FC0F7FF000E62
:10186000F86E0E0EF76403D00800F55005D0F6CFE1
:10187000E9FFF7CFEAFFEF500001746F756B72510B
:1018800074277351752374519D2775519E236E4B98
:101890006F2B6EC0F6FF6FC0F7FF000EF86E0E0ED6
:1018A000F76403D00800F55005D0F6CFE9FFF7CF75
:1018B000EAFFEF5000ECD2F0D8B0BAD76EC0F6FF16
:1018C0006FC0F7FF000EF86E0E0EF76403D008002D
:1018D000F55005D0F6CFE9FFF7CFEAFFEF502E0A1B
:1018E000D8A448D00001A28D6E4B6F2B000EA06FC4
:1018F000000E9F6F29D09FC001F0A0C002F0000E23
:10190000046E0A0E036E76ECD1F06EC0F6FF6FC067
:10191000F7FF000EF86E0E0EF76403D00800F550C6
:1019200005D0F6CFE9FFF7CFEAFFEF500001726F65
:1019300072510126000E0222D00E01249F6FFF0E6D
:101940000220A06F6E4B6F2B6EC0F6FF6FC0F7FFCB
:10195000000EF86E0E0EF76403D00800F55005D0A7
:10196000F6CFE9FFF7CFEAFFEF5000ECD2F0D8A0B6
:101970002AD1C1D7000E0001A06F000E9F6FA2896F
:1019800022D1A18920D1A28559D1A18F57D170C070
:10199000D9FF71C0DAFFDFCF72F0020EDE26DFCF93
:1019A00073F0000EDD2272C0D9FF73C0DAFFDECF04
:1019B0008BF0DDCF8CF08B518C11D8A404D05F0E4E
:1019C0008B6FFF0E8C6F000E8E6F000E8D6F03D02D
:1019D00000018D4B8E2B8D518B25726F8E518C217A
:1019E000736F72C0F6FF73C0F7FF000EF86E0E0E35
:1019F000F76403D00800F55005D0F6CFE9FFF7CF24
:101A0000EAFFEF500009D8A4E3D700019F51A011CD
:101A1000D8B40AD08D519F5D8E51A059D8B004D052
:101A20009FC08DF0A0C08EF09D518D5D9E518E594E
:101A3000D8B005D08D519D5F8E519E5B38D0000E81
:101A40009E6F000E9D6F33D020EE02F06C51D926B0
:101A50006D51DA22DE50DE10DE10D8B413D020EE45
:101A600002F06C51D9266D51DA2201D820D0050040
:101A7000FA6EDE50FD6EDE50FE6EDE50FF6EFA50E6
:101A8000200E12006CC0D9FF6DC0DAFFDECF72F0FD
:101A9000DDCF73F072C0D9FF73C0DAFF200EDF6EA6
:101AA0006CC0D9FF6DC0DAFFDE2A000EDD22000116
:101AB0009D07D8A09E079D29C7E19E29D8B45BD079
:101AC000C3D720EE02F06C51D9266D51DA22DE50D8
:101AD000DE10DE10D8B427D020EE02F06C51D926EB
:101AE0006D51DA2201D81BD00500FA6EDE50FD6E72
:101AF000DE50FE6EDE50FF6EFA508BC0F6FF8CC0DB
:101B0000F7FF000EF86E0E0EF76403D00800F550D4
:101B100005D0F6CFE9FFF7CFEAFFEF501200000142
:101B20008B4B8C2B28D08BC0F6FF8CC0F7FF000EA0
:101B3000F86E6CC0D9FF6DC0DAFFDECF72F0DDCF7A
:101B400073F072C0D9FF73C0DAFF0E0EF76403D0D2
:101B50000800F55005D0F6CFE9FFF7CFEAFFEF50C8
:101B6000DF6E00018B4B8C2B6CC0D9FF6DC0DAFF90
:101B7000DE2A000EDD228D07D8A08E078D29A1E177
:101B80008E29D8B4FBEF96F09CD770C0D9FF71C0F6
:101B9000DAFFDFCF72F0020EDE26DFCF73F0000E29
:101BA000DD2272C0D9FF73C0DAFFDF50A36FA30E2E
:101BB0008B6F000E8C6F000E8E6F010E8D6F25D710
:101BC000C00EA1133BD000016E51726F6F51736F45
:101BD0006E4B6F2B72C0F6FF73C0F7FF000EF86EEE
:101BE0000E0EF76403D00800F55005D0F6CFE9FFDC
:101BF000F7CFEAFFEF500001A36FA351000AD8B45A
:101C000019EF97F0580AD8B4C0D63B0AD8B4BDD75C
:101C1000070AD8B413D0020AD8B4B5D60F0AD8B47C
:101C20000DD0050AD8B4ADD61F0AD8B4B0D6060A6E
:101C3000D8B4C6D70D0AD8B4A8D6B9D7070EA215FE
:101C4000D8B49CEF93F0A2A904D0000EA06F060EAA
:101C50009F6F70C0D9FF71C0DAFFDFCF72F0040E42
:101C6000DE26DFCF73F0000EDD2272C0D9FF73C015
:101C7000DAFFDECF95F0DECF96F0DECF97F0DECF45
:101C800098F098AF15D095C001F096C002F097C0BB
:101C900003F098C004F094ECD0F001C095F002C0BD
:101CA00096F003C097F004C098F0030E0001A11352
:101CB000000E906F000E8F6F95C001F096C002F07D
:101CC00097C003F098C004F0000E056E000E066E7B
:101CD000000E076E000E086EF6ECC7F0D8B083D089
:101CE000000197359835820F8F6F906BFF0E902310
:101CF0008F07D8A090078FC001F090C002F0000EAF
:101D0000046E030E036E76ECD1F001C08FF002C0BA
:101D100090F08FC007F090C008F0000E0A6E0A0E17
:101D2000096EC0ECC8F007C08FF008C090F0000149
:101D300090AF03D08F07D8A090078F51000854ECC4
:101D4000A9F045C091F046C092F047C093F048C05A
:101D500094F091C02CF092C02DF093C02EF094C05E
:101D60002FF095C030F096C031F097C032F098C097
:101D700033F07AECB0F02CC091F02DC092F02EC070
:101D800093F02FC094F091C001F092C002F093C084
:101D900003F094C004F0000E056E000E066E800E77
:101DA000076E3F0E086EACECC3F0D8B005D0000152
:101DB0008F07D8A0900717D091C001F092C002F011
:101DC00093C003F094C004F0000E056E000E066E82
:101DD000200E076E410E086EACECC3F0D8A003D005
:101DE00000018F4B902B0001A0BF06D0A05121E134
:101DF0000D0E9F5DD8B01DD095C052F096C053F027
:101E000097C054F098C055F09F5192ECB6F045C081
:101E100056F046C057F047C058F048C059F0AAECF9
:101E2000B3F052C095F053C096F054C097F055C02F
:101E300098F0000190BF06D0905131E10A0E8F5DFD
:101E4000D8B02DD095C001F096C002F097C003F035
:101E500098C004F0000E056E000E066E000E076EB0
:101E6000000E086EF6ECC7F0D8B064D095C04EF006
:101E700096C04FF097C050F098C051F0D4ECC4F029
:101E80004E504F1050105110D8A454D0000190BFA4
:101E900051D0905104E1020E8F5DD8A04BD091C07B
:101EA00001F092C002F093C003F094C004F05F0E02
:101EB000056E700E066E890E076E400E086EACEC55
:101EC000C3F0D8B003D00001F70E02D00001F80E25
:101ED0008F27FF0E90238F5154ECA9F045C091F04D
:101EE00046C092F047C093F048C094F095C001F00E
:101EF00096C002F097C003F098C004F091C005F0BE
:101F000092C006F093C007F094C008F054ECC2F001
:101F100001C099F002C09AF003C09BF004C09CF08D
:101F2000000E0001956F000E966F000E976F000E69
:101F3000986F3CD095C04EF096C04FF097C050F0CF
:101F400098C051F0D4ECC4F04EC099F04FC09AF054
:101F500050C09BF051C09CF095C064F096C065F0F5
:101F600097C066F098C067F099C005F09AC006F077
:101F70009BC007F09CC008F0000EA9ECBFF005C0A4
:101F800068F006C069F007C06AF008C06BF076EC34
:101F9000CDF064C095F065C096F066C097F067C05C
:101FA00098F0000E0001906F000E8F6F010EA36F6E
:101FB000A351040D530EF324F66EE60EF420F76ED3
:101FC000F86A000EF8220900F550995D0900F550F5
:101FD0009A590900F5509B590900F5509C59D8A011
:101FE00005D0A32B0A0EA319D8A4E2D7A3519F258D
:101FF000726F000EA021736F8F517227905173235F
:1020000072519D5F73519E5B9F51A011D8B403D054
:102010009D07D8A09E07030EA115726F000EA21592
:10202000736F72517311D8B403D09D07D8A09E0767
:10203000A1A5F0D0A1A341D020EE02F06C51D92689
:102040006D51DA22DE50DE10DE10D8B41DD0A1B101
:1020500004D0000E7C6F2B0E03D0000E7C6F2D0E73
:102060007B6F20EE02F06C51D9266D51DA2201D837
:1020700091D00500FA6EDE50FD6EDE50FE6EDE5031
:10208000FF6EFA507B511200A1B104D0000E7E6F9A
:102090002B0E03D0000E7E6F2D0E7D6F6CC0D9FF0E
:1020A0006DC0DAFFDECF72F0DDCF73F072C0D9FF02
:1020B00073C0DAFF7DC0DFFF2ED0A1A16BD020EE70
:1020C00002F06C51D9266D51DA22DE50DE10DE109E
:1020D000D8B413D020EE02F06C51D9266D51DA221B
:1020E00001D858D00500FA6EDE50FD6EDE50FE6E4F
:1020F000DE50FF6EFA50200E12006CC0D9FF6DC08A
:10210000DAFFDECF72F0DDCF73F072C0D9FF73C09B
:10211000DAFF200EDF6E6CC0D9FF6DC0DAFFDE2A59
:10212000000EDD2237D020EE02F06C51D9266D5121
:10213000DA22DE50DE10DE10D8B413D020EE02F02A
:102140006C51D9266D51DA2201D820D00500FA6EE3
:10215000DE50FD6EDE50FE6EDE50FF6EFA50300E29
:1021600012006CC0D9FF6DC0DAFFDECF72F0DDCF98
:1021700073F072C0D9FF73C0DAFF300EDF6E6CC02F
:10218000D9FF6DC0DAFFDE2A000EDD2200019D07B7
:10219000D8A09E0700019EBF2ED19E51C4E19D058F
:1021A000D8A029D1C0D720EE02F06C51D9266D51AC
:1021B000DA22DE50DE10DE10D8B413D020EE02F0AA
:1021C0006C51D9266D51DA2201D820D00500FA6E63
:1021D000DE50FD6EDE50FE6EDE50FF6EFA50200EB9
:1021E00012006CC0D9FF6DC0DAFFDECF72F0DDCF18
:1021F00073F072C0D9FF73C0DAFF200EDF6E6CC0BF
:10220000D9FF6DC0DAFFDE2A000EDD2200019D0736
:10221000D8A09E079EBF05D09E51C5E19D05D8B0B0
:10222000C2D7A1A341D020EE02F06C51D9266D5146
:10223000DA22DE50DE10DE10D8B41DD0A1B104D0F9
:10224000000E806F2B0E03D0000E806F2D0E7F6F5F
:1022500020EE02F06C51D9266D51DA2201D8CBD094
:102260000500FA6EDE50FD6EDE50FE6EDE50FF6E33
:10227000FA507F511200A1B104D0000E826F2B0ED4
:1022800003D0000E826F2D0E816F6CC0D9FF6DC020
:10229000DAFFDECF72F0DDCF73F072C0D9FF73C00A
:1022A000DAFF81C0DFFFA0D0A1A1A5D020EE02F00F
:1022B0006C51D9266D51DA22DE50DE10DE10D8B412
:1022C00013D020EE02F06C51D9266D51DA2201D8DC
:1022D00092D00500FA6EDE50FD6EDE50FE6EDE50CE
:1022E000FF6EFA50200E12006CC0D9FF6DC0DAFFED
:1022F000DECF72F0DDCF73F072C0D9FF73C0DAFFAA
:10230000200E71D099C001F09AC002F09BC003F07A
:102310009CC004F0A351040D530EF324F66EE60E98
:10232000F420F76EF86A000EF8220900F5CF05F0E8
:102330000900F5CF06F00900F5CF07F00A00F5CF48
:1023400008F002ECC9F001C091F002C092F003C0A5
:1023500093F004C094F091C00EF092C00FF093C0BF
:1023600010F094C011F00A0E126E000E136E000EE3
:10237000146E000E156EB4ECCAF00EC091F00FC0D2
:1023800092F010C093F011C094F0000120EE02F022
:102390006C51D9266D51DA22DE50DE10DE10D8B431
:1023A00014D020EE02F06C51D9266D51DA2201D8FA
:1023B00022D00500FA6EDE50FD6EDE50FE6EDE505D
:1023C000FF6EFA509151300F12009151300F6CC0D6
:1023D000D9FF6DC0DAFFDECF72F0DDCF73F072C0CF
:1023E000D9FF73C0DAFFDF6E6CC0D9FF6DC0DAFFB2
:1023F000DE2A000EDD220001A307A329D8B438D0BD
:1024000081D720EE02F06C51D9266D51DA22DE50D0
:10241000DE10DE10D8B413D020EE02F06C51D926B5
:102420006D51DA2201D820D00500FA6EDE50FD6E23
:10243000DE50FE6EDE50FF6EFA50300E12006CC0A1
:10244000D9FF6DC0DAFFDECF72F0DDCF73F072C05E
:10245000D9FF73C0DAFF300EDF6E6CC0D9FF6DC0DC
:10246000DAFFDE2A000EDD2200018F07D8A09007D8
:1024700090BF05D09051C5E18F05D8B0C2D7A0BF9D
:1024800009D0A05104E1090E9F5DD8A003D0080E29
:10249000A36F02D09FC0A3F0A3519F5F000EA05B6B
:1024A000A351D8B433D020EE02F06C51D9266D512F
:1024B000DA22DE50DE10DE10D8B413D020EE02F0A7
:1024C0006C51D9266D51DA2201D820D00500FA6E60
:1024D000DE50FD6EDE50FE6EDE50FF6EFA502E0EA8
:1024E00012006CC0D9FF6DC0DAFFDECF72F0DDCF15
:1024F00073F072C0D9FF73C0DAFF2E0EDF6E6CC0AE
:10250000D9FF6DC0DAFFDE2A000EDD220001A351E3
:1025100054ECA9F045C076F046C077F047C078F09B
:1025200048C079F095C030F096C031F097C032F0D5
:1025300098C033F076C02CF077C02DF078C02EF024
:1025400079C02FF07AECB0F02CC04EF02DC04FF0D7
:102550002EC050F02FC051F0D4ECC4F04EC099F012
:102560004FC09AF050C09BF051C09CF0A3D099C0CE
:1025700001F09AC002F09BC003F09CC004F0A3518C
:10258000040D530EF324F66EE60EF420F76EF86A8F
:10259000000EF8220900F5CF05F00900F5CF06F08E
:1025A0000900F5CF07F00A00F5CF08F002ECC9F0FA
:1025B00001C091F002C092F003C093F004C094F007
:1025C00091C00EF092C00FF093C010F094C011F0C3
:1025D0000A0E126E000E136E000E146E000E156EB3
:1025E000B4ECCAF00EC091F00FC092F010C093F09E
:1025F00011C094F0000120EE02F06C51D9266D510B
:10260000DA22DE50DE10DE10D8B414D020EE02F054
:102610006C51D9266D51DA2201D822D00500FA6E0C
:10262000DE50FD6EDE50FE6EDE50FF6EFA509151B0
:10263000300F12009151300F6CC0D9FF6DC0DAFF1E
:10264000DECF72F0DDCF73F072C0D9FF73C0DAFF56
:10265000DF6E6CC0D9FF6DC0DAFFDE2A000EDD220E
:1026600099C00EF09AC00FF09BC010F09CC011F002
:102670000001A351040D530EF324F66EE60EF42070
:10268000F76EF86A000EF8220900F5CF12F0090083
:10269000F5CF13F00900F5CF14F00A00F5CF15F0CF
:1026A000B4ECCAF00EC099F00FC09AF010C09BF0C5
:1026B00011C09CF00001A307A329D8B438D057D784
:1026C00020EE02F06C51D9266D51DA22DE50DE1078
:1026D000DE10D8B413D020EE02F06C51D9266D5123
:1026E000DA2201D820D00500FA6EDE50FD6EDE50F1
:1026F000FE6EDE50FF6EFA50300E12006CC0D9FF35
:102700006DC0DAFFDECF72F0DDCF73F072C0D9FF9B
:1027100073C0DAFF300EDF6E6CC0D9FF6DC0DAFF18
:10272000DE2A000EDD2200019F07D8A0A0079F51DE
:10273000A011D8B460D3C4D7C00EA115726F000E1B
:10274000A215736F72517311D8A441D0A1A919D0E9
:1027500070C0D9FF71C0DAFFDFCF72F0040EDE2641
:10276000DFCF73F0000EDD2272C0D9FF73C0DAFF35
:10277000DECF99F0DECF9AF0DECF9BF0DECF9CF07B
:1027800019D070C0D9FF71C0DAFFDFCF72F0020E2E
:10279000DE26DFCF73F0000EDD2272C0D9FF73C0DA
:1027A000DAFFDECF99F0DDCF9AF0000E9ABFFF0E70
:1027B0009B6F9C6F9CAF40D0030EA1139C1F9B1F6F
:1027C0009A1F996D000E9A239B239C2335D0A1A9B3
:1027D00019D070C0D9FF71C0DAFFDFCF72F0040EDC
:1027E000DE26DFCF73F0000EDD2272C0D9FF73C08A
:1027F000DAFFDECF99F0DECF9AF0DECF9BF0DECFAE
:102800009CF01AD070C0D9FF71C0DAFFDFCF72F030
:10281000020EDE26DFCF73F0000EDD2272C0D9FF7C
:1028200073C0DAFFDECF74F0DDCF75F074C099F0BD
:1028300075C09AF09B6B9C6B9F51A011D8A44BD094
:1028400099519A119B119C11D8A445D09F4BA02B54
:1028500042D0010EA36FA351040D530EF324F66E64
:10286000E60EF420F76EF86A000EF8220900F55023
:10287000995D0900F5509A590900F5509B590900D6
:10288000F5509C59D8A032D0A32B0A0EA319D8B466
:102890002DD0E1D7010EA36FA351040D330EF32405
:1028A000F66EE30EF420F76EF86A000EF8220900C7
:1028B000F550995D0900F5509A590900F5509B595A
:1028C0000900F5509C59D8A011D0A32B080EA319CC
:1028D000D8B40CD0E1D7A151C00B000AD8B4B9D7F5
:1028E000800AD8B4D7D7400AD8B4B3D7A351726FEF
:1028F000736B9F51725D7351800A746FA051800A8F
:102900007459D8B003D09FC0A3F010D0A351726FF8
:10291000736B72519F5DA051800A746F7351800A6E
:102920007459D8B003D0A3C09FF0A06B9D519E11E5
:10293000D8B40DD0030EA115726F000EA215736FDF
:1029400072517311D8B403D09D07D8A09E07A2ADD1
:1029500013D09D519F5DA051800A726F9E51800AD5
:102960007259D8B005D09F519D5FA0519E5B04D095
:10297000000E9E6F000E9D6FA351726F736B9D5181
:10298000725D7351800A746F9E51800A7459D8B079
:1029900005D0A3519D5F000E9E5B04D0000E9E6F7C
:1029A000000E9D6FA1A5B5D0A1A341D020EE02F0ED
:1029B0006C51D9266D51DA22DE50DE10DE10D8B40B
:1029C0001DD0A1B104D0000E846F2B0E03D0000ED9
:1029D000846F2D0E836F20EE02F06C51D9266D515D
:1029E000DA2201D859D00500FA6EDE50FD6EDE50B5
:1029F000FE6EDE50FF6EFA5083511200A1B104D07A
:102A0000000E866F2B0E03D0000E866F2D0E856F85
:102A10006CC0D9FF6DC0DAFFDECF72F0DDCF73F08E
:102A200072C0D9FF73C0DAFF85C0DFFF2ED0A1A12D
:102A300033D020EE02F06C51D9266D51DA22DE50EF
:102A4000DE10DE10D8B413D020EE02F06C51D9267F
:102A50006D51DA2201D820D00500FA6EDE50FD6EED
:102A6000DE50FE6EDE50FF6EFA50200E12006CC07B
:102A7000D9FF6DC0DAFFDECF72F0DDCF73F072C028
:102A8000D9FF73C0DAFF200EDF6E6CC0D9FF6DC0B6
:102A9000DAFFDE2A000EDD2200019D519E11D8B41E
:102AA000A1D120EE02F06C51D9266D51DA22DE5010
:102AB000DE10DE10D8B413D020EE02F06C51D9260F
:102AC0006D51DA2201D820D00500FA6EDE50FD6E7D
:102AD000DE50FE6EDE50FF6EFA50300E12006CC0FB
:102AE000D9FF6DC0DAFFDECF72F0DDCF73F072C0B8
:102AF000D9FF73C0DAFF300EDF6E6CC0D9FF6DC036
:102B0000DAFFDE2A000EDD2200019D07D8A09E0715
:102B1000C4D79D519E11D8B43BD020EE02F06C5129
:102B2000D9266D51DA22DE50DE10DE10D8B413D073
:102B300020EE02F06C51D9266D51DA2201D820D056
:102B40000500FA6EDE50FD6EDE50FE6EDE50FF6E4A
:102B5000FA50200E12006CC0D9FF6DC0DAFFDECF34
:102B600072F0DDCF73F072C0D9FF73C0DAFF200EB0
:102B7000DF6E6CC0D9FF6DC0DAFFDE2A000EDD22E9
:102B800000019D07D8A09E079D519E11D8A4C5D7CE
:102B9000A1A341D020EE02F06C51D9266D51DA226A
:102BA000DE50DE10DE10D8B41DD0A1B104D0000E6E
:102BB000886F2B0E03D0000E886F2D0E876F20EECE
:102BC00002F06C51D9266D51DA2201D80BD10500E3
:102BD000FA6EDE50FD6EDE50FE6EDE50FF6EFA5075
:102BE00087511200A1B104D0000E8A6F2B0E03D0C2
:102BF000000E8A6F2D0E896F6CC0D9FF6DC0DAFF91
:102C0000DECF72F0DDCF73F072C0D9FF73C0DAFF90
:102C100089C0DFFFE0D0A1A1E5D020EE02F06C5129
:102C2000D9266D51DA22DE50DE10DE10D8B413D072
:102C300020EE02F06C51D9266D51DA2201D8D2D0A3
:102C40000500FA6EDE50FD6EDE50FE6EDE50FF6E49
:102C5000FA50200E12006CC0D9FF6DC0DAFFDECF33
:102C600072F0DDCF73F072C0D9FF73C0DAFF200EAF
:102C7000DF6EB1D09FC072F0A0C073F0D8907237F1
:102C80007337D89072377337530E7225F66EE60E8F
:102C90007321F76EF86A000EF8220900F5CF05F0EF
:102CA0000900F5CF06F00900F5CF07F00A00F5CFCF
:102CB00008F099C001F09AC002F09BC003F09CC0DC
:102CC00004F002ECC9F001C00EF002C00FF003C026
:102CD00010F004C011F00A0E126E000E136E000EFA
:102CE000146E000E156EB4ECCAF00E50300F0001D9
:102CF000A36F45D099C001F09AC002F09BC003F0C9
:102D00009CC004F09FC072F0A0C073F0D8907237DE
:102D10007337D89072377337330E7225F66EE30E21
:102D20007321F76EF86A000EF8220900F5CF05F05E
:102D30000900F5CF06F00900F5CF07F00A00F5CF3E
:102D400008F002ECC9F001500F0B00017A6F460E3B
:102D50007A25F66EF76AFB0EF722F86A000EF82263
:102D60000800F5CFA3F00BD0A151C00B000AD8B4D6
:102D700081D7800AD8B4BED7400AD8B47BD720EE1A
:102D800002F06C51D9266D51DA22DE50DE10DE10D1
:102D9000D8B413D020EE02F06C51D9266D51DA224E
:102DA00001D820D00500FA6EDE50FD6EDE50FE6EBA
:102DB000DE50FF6EFA50A35112006CC0D9FF6DC0F7
:102DC000DAFFDECF72F0DDCF73F072C0D9FF73C0CF
:102DD000DAFFA3C0DFFF6CC0D9FF6DC0DAFFDE2AC7
:102DE000000EDD2200019F07D8A0A0079F29BCE1AB
:102DF000A029D8A4B9D700016E51726F6F51736FBB
:102E00006E4B6F2B72C0F6FF73C0F7FF000EF86EAB
:102E10000E0EF76403D00800F55005D0F6CFE9FF99
:102E2000F7CFEAFFEF500001A36FA351D8A494EFAE
:102E30008BF0000E6D6F000E6C6F1200D6C10CF19E
:102E4000D7C10DF1810E01010E6FFE0E0F6F6DECFB
:102E5000CCF001010C510D11D8A40FD0A10EC56FFB
:102E6000FF0EC66FEAECCEF0C20E0101C56FFF0E79
:102E7000C66FEAECCEF0FF001200D6C10CF1D7C14C
:102E80000DF18F0E0E6FFF0E0F6F6DECCCF0010188
:102E90000C510D11D8A40ED0A10EC56FFF0EC66F38
:102EA000EAECCEF0C20E0101C56FFF0EC66FEAEC70
:102EB000CEF01200D6C10CF1D7C10DF19A0E0E6FF3
:102EC000FB0E0F6F6DECCCF001010C510D11D8A46D
:102ED00019D0000ED46F000ED56F020E1DECADF0B0
:102EE000830E0101C56FF10EC66F0001FD5135EC77
:102EF000D0F00CC1C7F10DC1C8F1EAECCEF0CFECB7
:102F0000D2F01200D6C10CF1D7C10DF1890E0E6FAF
:102F1000FF0E0F6F6DECCCF001010C510D11D8A418
:102F200011D0000ED46F000ED56F020E1DECADF067
:102F30004D0E0101C56FF10EC66FEAECCEF0CFEC7D
:102F4000D2F01200D6C10CF1D7C10DF12F0E0E6FC9
:102F5000FE0E0F6F6DECCCF001010C510D11D8A4D9
:102F600023D0000ED46F000ED56F020E1DECADF015
:102F7000CB0E0101C56FF30EC66FE0ECD1F017C1A7
:102F800019F118C11AF1CDECC6F019C1C7F11AC177
:102F9000C8F1E0ECD1F017C1C9F118C1CAF1EAECEF
:102FA000CEF0CFECD2F01200D6C10CF1D7C10DF1AA
:102FB0002A0E0E6FFD0E0F6F6DECCCF001010C515F
:102FC0000D11D8A422D0000ED46F000ED56F020EC2
:102FD0001DECADF0350E0101C56FF00EC66F08ECAB
:102FE000CFF00101D86F410ED825C76FC86B000E16
:102FF000C82363ECD1F00101D96FD951C96FCA6BF5
:10300000EAECCEF0CFECD2F01200D6C10CF1D7C171
:103010000DF1B20E0E6FFE0E0F6F6DECCCF00101D4
:103020000C510D11D8A437D0000ED46F000ED56FFF
:10303000020E1DECADF0040E0101C56FEF0EC66F60
:10304000EAECCEF0000E0101DB6F000EDA6FA90E84
:10305000C56FF00EC66FDAC1C7F1DBC1C8F1D890F9
:10306000DA35C96FDB35CA6FDA51B6ECCFF017C16C
:10307000CBF118C1CCF1EAECCEF00101DA4BDB2B3D
:10308000DBBFE5D7DB5104E1080EDA5DD8A0DFD75E
:10309000CFECD2F01200D6C10CF1D7C10DF18A0EDF
:1030A0000E6FFB0E0F6F6DECCCF001010C510D118A
:1030B000D8A41FD0000ED46F000ED56F020E1DECE9
:1030C000ADF0EB0E0101C56FF10EC66F0CC2A3F19E
:1030D0000DC2A4F10EC2A5F10FC2A6F160ECABF0D7
:1030E000A3C1C7F1A4C1C8F1EAECCEF0CFECD2F095
:1030F0001200D6C10CF1D7C10DF1BC0E0E6FFE0E41
:103100000F6F6DECCCF001010C510D11D8A412D051
:103110008594000ED46F000ED56F020E1DECADF03D
:103120001D0E0101C56FF50EC66FEAECCEF0CFECB7
:10313000D2F01200D6C10CF1D7C10DF13A0E0E6FCC
:10314000FE0E0F6F6DECCCF001010C510D11D8A4E7
:1031500012D08584000ED46F000ED56F010E1DECC9
:10316000ADF0F50E0101C56FF40EC66FEAECCEF0BE
:10317000CFECD2F01200D6C10CF1D7C10DF1790E0F
:103180000E6FFB0E0F6F6DECCCF001010C510D11A9
:10319000D8A412D0D7ECD2F0000E0101D46F000EEB
:1031A000D56F020E1DECADF06C0E0101C56FF90E6E
:1031B000C66FEAECCEF06CD7D6C10CF1D7C10DF1D9
:1031C000680E0E6FFB0E0F6F6DECCCF001010C5111
:1031D0000D11D8A412D00FECD2F0000E0101D46F63
:1031E000000ED56F020E1DECADF0830E0101C56F10
:1031F000F90EC66FEAECCEF04BD7D6C10CF1D7C1B1
:103200000DF1340E0E6FFB0E0F6F6DECCCF0010163
:103210000C510D11D8A412D059ECD3F0000E0101BD
:10322000D46F000ED56F020E1DECADF00D0E010136
:10323000C56FF90EC66FEAECCEF02AD7D6C10CF1F5
:10324000D7C10DF1900E0E6FFC0E0F6F6DECCCF030
:1032500001010C510D11D8A4FAD086ECD2F000096E
:10326000D8B43ED0000E0101D46F000ED56F010E10
:103270001DECADF0AC0E0101C56FF80EC66FEAECA7
:10328000CEF0410E0101C56FF30EC66FEAECCEF031
:103290000001BA51D8B407D03D0E0101C56FF90E37
:1032A000C66FEAECCEF00001B951D8B407D0A80E31
:1032B0000101C56FFE0EC66FEAECCEF0000E0101F3
:1032C000D46F000ED56F030E1DECADF0830E01011F
:1032D000C56FF20EC66FEAECCEF0CFECD2F011D093
:1032E000000E0101D46F000ED56F020E1DECADF083
:1032F0005C0E0101C56FF80EC66FEAECCEF0CFECA4
:10330000D2F0FFECD0F00009D8B458D0000E010183
:10331000D46F000ED56F010E1DECADF04F0E010104
:10332000C56FF40EC66FEAECCEF00001BB51D8B405
:1033300007D0250E0101C56FF90EC66FEAECCEF07D
:103340000001BF51D8B407D0D90E0101C56FF50EE9
:10335000C66FEAECCEF00001BE51D8B407D0360EED
:103360000101C56FF70EC66FEAECCEF00001BD514A
:10337000D8B407D0760E0101C56FF70EC66FEAEC20
:10338000CEF00001BC51D8B407D0D20E0101C56FF8
:10339000F70EC66FEAECCEF0000E0101D46F000EFE
:1033A000D56F030E1DECADF0FA0E0101C56FEF0EE7
:1033B000C66FEAECCEF0CFECD2F011D0000E0101D6
:1033C000D46F000ED56F020E1DECADF0410E010161
:1033D000C56FF80EC66FEAECCEF0CFECD2F089ECF8
:1033E000D3F00009D8B421D0000E0101D46F000E33
:1033F000D56F010E1DECADF0920E0101C56FF80EF8
:10340000C66FEAECCEF0000E0101D46F000ED56F4E
:10341000030E1DECADF0BE0E0101C56FEF0EC66FC1
:10342000EAECCEF0CFECD2F01200000E0101D46F26
:10343000000ED56F020E1DECADF0EF0E0101C56F51
:10344000F70EC66FEAECCEF0CFECD2F01200D6C188
:103450000CF1D7C10DF1740E0E6FFC0E0F6F6DECF9
:10346000CCF001010C510D11D8A419D0000ED46F6D
:10347000000ED56F060E1DECADF0AE0E0101C56F4E
:10348000F60EC66FE7C0C7F1E8C0C8F1E9C0C9F1E0
:10349000EAC0CAF1EAECCEF0CFECD2F01200D6C10D
:1034A0000CF1D7C10DF11A0E0E6FFC0E0F6F6DEC03
:1034B000CCF001010C510D11D8A419D0000ED46F1D
:1034C000000ED56F060E1DECADF0210E0101C56F8B
:1034D000F60EC66FEBC0C7F1ECC0C8F1EDC0C9F184
:1034E000EEC0CAF1EAECCEF0CFECD2F01200D6C1B9
:1034F0000CF1D7C10DF1220E0E6FFB0E0F6F6DECAC
:10350000CCF001010C510D11D8A419D0000ED46FCC
:10351000000ED56F060E1DECADF0E10E0101C56F7A
:10352000F00EC66FF7C0C7F1F8C0C8F1F9C0C9F115
:10353000FAC0CAF1EAECCEF0CFECD2F01200D6C15C
:103540000CF1D7C10DF19A0E0E6FF90E0F6F6DECE5
:10355000CCF001010C510D11D8A419D0000ED46F7C
:10356000000ED56F060E1DECADF0F70E0101C56F14
:10357000F30EC66FEFC0C7F1F0C0C8F1F1C0C9F1DA
:10358000F2C0CAF1EAECCEF0CFECD2F01200D6C114
:103590000CF1D7C10DF1AF0E0E6FFA0E0F6F6DEC7F
:1035A000CCF001010C510D11D8A419D0000ED46F2C
:1035B000000ED56F060E1DECADF06F0E0101C56F4C
:1035C000F30EC66FF3C0C7F1F4C0C8F1F5C0C9F17E
:1035D000F6C0CAF1EAECCEF0CFECD2F01200D6C1C0
:1035E0000CF1D7C10DF1370E0E6FFD0E0F6F6DECA4
:1035F000CCF001010C510D11D8A419D0000ED46FDC
:10360000000ED56F060E1DECADF0AC0E0101C56FBE
:10361000EE0EC66FE3C0C7F1E4C0C8F1E5C0C9F162
:10362000E6C0CAF1EAECCEF0CFECD2F01200D6C17F
:103630000CF1D7C10DF1820E0E6FFC0E0F6F6DEC09
:10364000CCF001010C510D11D8A419D0000ED46F8B
:10365000000ED56F060E1DECADF0950E0101C56F85
:10366000F70EC66FDFC0C7F1E0C0C8F1E1C0C9F115
:10367000E2C0CAF1EAECCEF0CFECD2F01200D6C133
:103680000CF1D7C10DF1490E0E6FFA0E0F6F6DECF4
:10369000CCF001010C510D11D8A419D0000ED46F3B
:1036A000000ED56F060E1DECADF01E0E0101C56FAC
:1036B000F20EC66F00C2C7F101C2C8F102C2C9F161
:1036C00003C2CAF1EAECCEF0CFECD2F01200D6C1C0
:1036D0000CF1D7C10DF1F30E0E6FF90E0F6F6DECFB
:1036E000CCF001010C510D11D8A419D0000ED46FEB
:1036F000000ED56F060E1DECADF0510E0101C56F29
:10370000F20EC66F04C2C7F105C2C8F106C2C9F104
:1037100007C2CAF1EAECCEF0CFECD2F01200D6C16B
:103720000CF1D7C10DF1C30E0E6FFA0E0F6F6DECD9
:10373000CCF001010C510D11D8A419D0000ED46F9A
:10374000000ED56F060E1DECADF0A30E0101C56F86
:10375000F40EC66F08C2C7F109C2C8F10AC2C9F1A6
:103760000BC2CAF1EAECCEF0CFECD2F01200D6C117
:103770000CF1D7C10DF1570E0E6FFB0E0F6F6DECF4
:10378000CCF001010C510D11D8A419D0000ED46F4A
:10379000000ED56F060E1DECADF0E30E0101C56FF6
:1037A000F20EC66F94C2C7F195C2C8F196C2C9F1B4
:1037B00097C2CAF1EAECCEF0CFECD2F01200D6C13B
:1037C0000CF1D7C10DF1EA0E0E6FFA0E0F6F6DEC12
:1037D000CCF001010C510D11D8A419D0000ED46FFA
:1037E000000ED56F060E1DECADF0B30E0101C56FD6
:1037F000F20EC66F98C2C7F199C2C8F19AC2C9F158
:103800009BC2CAF1EAECCEF0CFECD2F01200D6C1E6
:103810000CF1D7C10DF1DD0E0E6FF90E0F6F6DECCF
:10382000CCF001010C510D11D8A419D0000ED46FA9
:10383000000ED56F060E1DECADF0790E0101C56FBF
:10384000F40EC66F9CC2C7F19DC2C8F19EC2C9F1F9
:103850009FC2CAF1EAECCEF0CFECD2F01200D6C192
:103860000CF1D7C10DF1290E0E6FFC0E0F6F6DEC30
:10387000CCF001010C510D11D8A441D0030EE9196F
:10388000D8A411D0000ED46F000ED56F010E1DEC20
:10389000ADF0570E0101C56FF70EC66FEAECCEF022
:1038A000CFECD2F01200020EE919D8A411D0000E0C
:1038B000D46F000ED56F020E1DECADF0170E010196
:1038C000C56FF10EC66FEAECCEF0CFECD2F012006D
:1038D000000ED46F000ED56F020E1DECADF0FD0E84
:1038E0000101C56FF50EC66FC9ECCBF00CC1C7F175
:1038F0000DC1C8F1EAECCEF0CFECD2F01200D6C187
:103900000CF1D7C10DF1A60E0E6FFF0E0F6F6DEC0F
:10391000CCF001010C510D11D8A453D0000ED46F7E
:10392000000ED56F030E1DECADF0C70E0101C56F83
:10393000F90EC66FEAECCEF07F0E0101C56FE60E00
:10394000C66FEAECCEF0700E0101C56FF00EC66FC7
:10395000EAECCEF0000E0101D46F000ED56F020E1E
:103960001DECADF0440E0101C56FEF0EC66FEAEC21
:10397000CEF0000E0101D46F000ED56F060E1DECC7
:10398000ADF0440E0101C56FF50EC66FEAECCEF046
:10399000000E0101D46F000ED56F010E1DECADF0CD
:1039A0009D0E0101C56FF30EC66FEAECCEF0CFECB1
:1039B000D2F0B40E0101C56FF70EC66FEAECCEF07F
:1039C0001200D6C10CF1D7C10DF17DECD0F0010190
:1039D0000C510D11D8B41200000ED46F000ED56F2B
:1039E000010E1DECADF0900E0101C56FF50EC66F16
:1039F000EAECCEF0000E0101D46F000ED56F030E7D
:103A00001DECADF0540E0101C56FEE0EC66FEAEC71
:103A1000CEF0140E0101C56FF30EC66FEAECCEF0C6
:103A2000CFECD2F012004CEFA2F0000EE76F280EA0
:103A30000F6F020E106F9E0E116FFC0E126F0AECCC
:103A4000CDF0390E01010F6F020E106FDA0E116FFB
:103A5000FB0E126F0AECCDF04A0E01010F6F020E41
:103A6000106FCA0E116FFB0E126F0AECCDF05B0ED9
:103A700001010F6F020E106F0001FD5165ECD0F0D7
:103A80000CC111F10DC112F10AECCDF049ECC0F0FE
:103A9000010E0101E86F030EF16F1200000EE76FD7
:103AA000280E0F6F020E106F450E116FFE0E126F73
:103AB0000AECCDF0A50E0101906F010E916FAB0ED7
:103AC000926FFF0E936FE0ECD1F017C194F118C123
:103AD00095F12EECCDF0390E01010F6F020E106F33
:103AE000A50E116F010E126F0AECCDF04A0E010106
:103AF0000F6F020E106F440E116FFD0E126F0AEC65
:103B0000CDF0B60E0101906F010E916F820E926F93
:103B1000FF0E936F08ECCFF00101A36F410EA325B8
:103B2000946F956B000E952363ECD1F00101A46FA7
:103B3000A451966F976B2EECCDF05B0E01010F6FC9
:103B4000020E106FB60E116F010E126F0AECCDF05F
:103B500049ECC0F0020E9DD7000EE76F280E0F6FE4
:103B6000020E106FBA0E116FFB0E126F0AECCDF041
:103B7000390E01010F6F020E106FD00E116FFE0E85
:103B8000126F0AECCDF04A0E01010F6F020E106F9A
:103B9000EA0E116FFB0E126F0AECCDF05B0E010105
:103BA0000F6F020E106F470E116FFC0E126F0AECB2
:103BB000CDF049ECC0F0030E6CD7000EE76F280E75
:103BC0000F6F020E106FF20E116FFC0E126F0AECE7
:103BD000CDF0390E01010F6F020E106F500E116FF4
:103BE000FE0E126F0AECCDF04A0E01010F6F020EAD
:103BF000106F000E116FFD0E126F0AECCDF05B0E10
:103C000001010F6F020E106FAA0E116FFB0E126FE3
:103C10000AECCDF049ECC0F0040E3BD7000EE76F84
:103C2000280E0F6F020E106F380E116FFC0E126F00
:103C30000AECCDF0390E01010F6F020E106FF30E7A
:103C4000116FFD0E126F0AECCDF04A0E01010F6FDD
:103C5000020E106FF2ECCBF00CC111F10DC112F19C
:103C60000AECCDF05B0E01010F6F020E106FF30E28
:103C7000116FFD0E126F0AECCDF049ECC0F0040E8E
:103C80000101E86F020EF16F1200000EE76F280EBF
:103C90000F6F020E106FAC0E116FFC0E126F0AEC5C
:103CA000CDF0390E0101906F020E916F740E926F7C
:103CB000FF0E936FEBC094F1ECC095F1EDC096F15F
:103CC000EEC097F12EECCDF04A0E01010F6F020EFF
:103CD000106FF30E116FFD0E126F0AECCDF05B0E3C
