:020000040000FA
:0400000051EF00F0CC
:060008005F82D9EFD3F086
:100018005F80D8CF58F1E8CF59F1E0CF5AF1FACF45
:100028005BF1FBCF5CF1D9CF5DF1DACF5EF1F3CFB5
:100038005FF1F4CF60F10E01C6B3CEA303D011EC8B
:10004800E3F017D0C5B7CDA703D0D1ECE5F011D0B8
:10005800C5B5CDA503D004ECC8F00BD0C6B5CEA568
:1000680003D0A1ECE1F005D0C8B3D0A302D0A5EC31
:10007800E4F060C1F4FF5FC1F3FF5EC1DAFF5DC168
:10008800D9FF5CC1FBFF5BC1FAFF5AC1E0FF59C150
:0E009800E8FF58C1D8FF5F901000F7EFD6F0D8
:10E4DA00000000803F000020410000C84200007A8E
:10E4EA004400401C460050C34700247449809618D3
:10E4FA004B20BCBE4C286B6E4EF9021550EC78AD21
:10E50A0060CAF249710000803FCDCCCC3D0AD723C6
:10E51A003C6F12833A17B7D138ACC52737BD378657
:10E52A003595BFD63377CC2B325F708930FFE6DB67
:10E53A002E08E53C1E6042A20D01000000100000FA
:10E54A00000001000000100000000001000000109F
:10E55A0000000000010000001000000000000000A0
:10E56A000000005F00000000000000070007000034
:10E57A000000147F147F14000000242A7F2A12004E
:10E58A000000231308646200000036495522500037
:10E59A00000000050300000000001C2241000000EA
:10E5AA00000041221C0000000000082A1C2A080062
:10E5BA00000008083E0808000000A06000000000F3
:10E5CA000000080808080800000060600000000059
:10E5DA00000020100804020000003E5149453E0098
:10E5EA00000000427F400000000062514949460095
:10E5FA00000022414949360000001814127F100019
:10E60A00000027454545390000003C4A4949300089
:10E61A000000017109050300000036494949360026
:10E62A000000064949291E00000000363600000095
:10E63A00000000AC6C000000000008142241000039
:10E64A0000001414141414000000412214080000DD
:10E65A0000000201510906000000324979413E00DA
:10E66A0000007E0909097E0000007F4949493600F9
:10E67A0000003E414141220000007F4141221C002E
:10E68A0000007F494949410000007F09090901004A
:10E69A0000003E414151720000007F0808087F00D7
:10E6AA000000417F4100000000002040413F01007E
:10E6BA0000007F081422410000007F4040404000D3
:10E6CA0000007F020C027F0000007F0408107F0018
:10E6DA0000003E4141413E0000007F090909060051
:10E6EA0000003E4151215E0000007F0919294600C1
:10E6FA000000264949493200000001017F0101005A
:10E70A0000003F4040403F0000001F2040201F0003
:10E71A0000003F4038403F000000631408146300C3
:10E72A0000000304780403000000615149454300D6
:10E73A0000007F4141000000000002040810200090
:10E74A00000041417F0000000000040201020400B1
:10E75A000000808080808000000001020400000028
:10E76A00000020545454780000007F484444380084
:10E77A0000003844442800000000384444487F0020
:10E78A0000003854545418000000087E09020000A2
:10E79A00000018A4A4A47C0000007F0804047800E8
:10E7AA000000007D00000000000080847D00000061
:10E7BA0000007F10284400000000417F4000000054
:10E7CA0000007C041804780000007C08047C000027
:10E7DA0000003844443800000000FC2424180000DB
:10E7EA000000182424FC00000000007C080400003B
:10E7FA0000004854542400000000047F4400000034
:10E80A0000003C40407C000000001C2040201C000E
:10E81A0000003C4030403C000000442810284400DE
:10E82A0000001CA0A07C000000004464544C44007A
:10E83A0000000836410000000000007F00000000D0
:10E84A000000413608000000000002010102010038
:10E85A00000002050502000000010000000A000095
:10E86A000064000000E803000010270000A08601F1
:10E87A000040420F008096980000E1F50500CA9A10
:10E88A003BB80EBC43202020202A49444E3F3A2060
:10E89A005072696E7473206964656E74696669631F
:10E8AA006174696F6E20737472696E670A0D202035
:10E8BA00202052657365743A2045786563757465DE
:10E8CA007320736F667477617265207265736574FD
:10E8DA0020696E737472756374696F6E0A0D2020F5
:10E8EA002020436C6561723A20436C656172732023
:10E8FA00746865207669727475616C20434F4D2087
:10E90A00706F7274207465726D696E616C0A0D2085
:10E91A0020202043757272656E74204D656173758F
:10E92A0072656D656E74733F3A205072696E7473C6
:10E93A0020696E7374616E74616E656F757320738E
:10E94A00797374656D206C6576656C20656C65639A
:10E95A0074726963616C206D6561737572656D654A
:10E96A006E74730A0D20202020456E61626C65204A
:10E97A004C697665204D6561737572656D656E7457
:10E98A00733A205072696E7473206120636F6E74DB
:10E99A00696E756F75732073747265616D206F6629
:10E9AA00206D6561737572656D656E74206461743E
:10E9BA006120746F20746865207465726D696E6178
:10E9CA006C0A0D2020202044657669636520537403
:10E9DA00617475733F3A205072696E74732064696A
:10E9EA00676974616C206D6F6E69746F72696E67A6
:10E9FA00206D6963726F636F6E74726F6C6C65728F
:10EA0A0020646576696365207374617475730A0D91
:10EA1A00202020204572726F7220537461747573BE
:10EA2A003F205072696E747320696620616E792086
:10EA3A0073797374656D206661756C74732068618F
:10EA4A007665206265656E206465746563746564C5
:10EA5A000A0D20202020436C6561722055415254D2
:10EA6A00204572726F72733A20436C65617273202B
:10EA7A0055415254206572726F7220666C616773D9
:10EA8A000A0D20202020436C656172204932432000
:10EA9A004572726F72733A20436C656172732049D2
:10EAAA003243206572726F7220666C6167730A0D59
:10EABA0020202020436C6561722041444320457226
:10EACA00726F72733A20436C6561727320414443DA
:10EADA00206572726F7220666C6167730A0D20205E
:10EAEA00202048656C703A204C69737473206176F3
:10EAFA0061696C61626C6520636F6D6D616E6473D0
:10EB0A0020287468697320636F6D6D616E64290AC9
:10EB1A000D002020202020202020466978656420CE
:10EB2A00566F6C74616765205265666572656E63BF
:10EB3A0065204275666665722031206D6561737560
:10EB4A0072656420617320252B2E336620566F6C04
:10EB5A0074732C2063616C696272617465642066E7
:10EB6A006F72202B342E30393620566F6C74730A2C
:10EB7A000D00436F6D6D616E647320617265206371
:10EB8A006173652073656E7369746976652C20629A
:10EB9A0061636B737061636520697320737570704C
:10EBAA006F727465642C20636F6D6D616E6420688A
:10EBBA006973746F7279206973206E6F742073752C
:10EBCA0070706F727465640A0D0020202020436102
:10EBDA006C6C2027436C6561722055415254204564
:10EBEA0072726F72732720746F20636C6561722072
:10EBFA00636F6D6D756E69636174696F6E7320659D
:10EC0A0072726F722873290A0D0020202020436136
:10EC1A006C6C2027436C656172204932432045722F
:10EC2A00726F72732720746F20636C656172206340
:10EC3A006F6D6D756E69636174696F6E732065724D
:10EC4A00726F722873290A0D0020202020202020AC
:10EC5A002043757272656E74202B3556205377697E
:10EC6A00746368696E67204672657175656E63794B
:10EC7A00206D6561737572656420617320252E317C
:10EC8A0066204D487A0A0D002020202020202020CE
:10EC9A004D6963726F636F6E74726F6C6C6572200C
:10ECAA004469652054656D7065726174757265207A
:10ECBA006D6561737572656420617320252B2E332F
:10ECCA006620430A0D00202020204465766963658A
:10ECDA002073696C69636F6E207265766973696FF8
:10ECEA006E2049442072657472696576656420668F
:10ECFA00726F6D20666C6173683A20256325303324
:10ED0A00640A0D0053797374656D20706172616DC8
:10ED1A00657465727320616E642061666669726DDE
:10ED2A00617469766520726573706F6E736573209E
:10ED3A0061707065617220696E20677265656E0A1E
:10ED4A000D002020202054686520666F6C6C6F7758
:10ED5A00696E67205573657220494473206861762D
:10ED6A0065206265656E2072657472696576656490
:10ED7A002066726F6D20666C6173683A0A0D002016
:10ED8A0020202043686172676520636F6E73756D1A
:10ED9A00656420627920746865206C6F61642077ED
:10EDAA0068696C65206368617267696E673A2025D5
:10EDBA0073436F756C6F6D62730A0D0046696E69F5
:10EDCA00736865642074657374206D657373616715
:10EDDA00652C2074797065202748656C7027206639
:10EDEA006F72206C697374206F6620636F6D6D613A
:10EDFA006E64730A0D0A0D00202020202020202096
:10EE0A005573657220494420576F72642025642027
:10EE1A0028466C617368206164647265737320307C
:10EE2A007832303030302558293A2030782530343D
:10EE3A00580A0D0020202020456E657267792063EC
:10EE4A006F6E73756D656420627920746865206CD5
:10EE5A006F6164207768696C6520636861726769AD
:10EE6A006E673A2025734A6F756C65730A0D002028
:10EE7A0020202020202020456C656374726963611C
:10EE8A006C20496E70757420506F776572206361CB
:10EE9A006C63756C6174656420617320252B2E3355
:10EEAA00662057617474730A0D002020202051498E
:10EEBA0020776972656C65737320706F776572204D
:10EECA00636F6E7665727465722068617320667509
:10EEDA006C6C7920636861726765642070686F6E14
:10EEEA00650A0D0020202020202020205769726505
:10EEFA006C657373204F757470757420506F7765E5
:10EF0A00722063616C63756C61746564206173203F
:10EF1A00252B2E33662057617474730A0D00202046
:10EF2A0020202020202043757272656E742051497A
:10EF3A0020537769746368696E67204672657175D4
:10EF4A00656E6379206D656173757265642061739E
:10EF5A00202573487A0A0D000A0D48656C70206DE9
:10EF6A006573736167657320616E64206E6575747D
:10EF7A0072616C20726573706F6E73657320617055
:10EF8A007065617220696E2079656C6C6F770A0D05
:10EF9A000020202020202020202B355620436F6E71
:10EFAA007665727465722054656D706572617475E8
:10EFBA007265206D656173757265642061732025C1
:10EFCA002B2E336620430A0D00202020205468652A
:10EFDA00206361757365206F6620746865206D6FA4
:10EFEA00737420726563656E7420646576696365FF
:10EFFA00207265736574207761733A2025730A0D50
:10F00A00002020202020202020514920436F6E76A6
:10F01A0065727465722054656D706572617475727B
:10F02A0065206D6561737572656420617320252B97
:10F03A002E336620430A0D005149204368617267E6
:10F04A0065722077697468204469676974616C2005
:10F05A004D6F6E69746F72696E672C2062792044F5
:10F06A00726577204D6161746D616E0A0D00202012
:10F07A002020446576696365206F6E2074696D652A
:10F08A002073696E6365206C6173742072657365A1
:10F09A007420636F6E646974696F6E2069732025CA
:10F0AA00730A0D00202020202020202051492063AF
:10F0BA006F6E7665727465722063757272656E74AE
:10F0CA00206D6561737572656420617320252B2E2E
:10F0DA00336620416D70730A0D00202020204361A1
:10F0EA006C6C2027436C6561722041444320457251
:10F0FA00726F72732720746F20636C65617220418E
:10F10A004443206572726F722873290A0D00202009
:10F11A002020202020202B31325620696E707574F1
:10F12A002063757272656E74206D656173757265A0
:10F13A006420617320252B2E336620416D70730A7B
:10F14A000D005149204368617267657220776974BE
:10F15A0068204469676974616C204D6F6E69746FC9
:10F16A0072696E670A0D426F6F7420436F6D706C1F
:10F17A006574650A0D002020202044657669636560
:10F18A0020494420726574726965766564206672E6
:10F19A006F6D20666C6173683A2025732028307879
:10F1AA0025303458290A0D00202020205468652073
:10F1BA00666F6C6C6F77696E67206368616E6E65E7
:10F1CA006C732063617573656420616E20414443EA
:10F1DA00206572726F723A0A0D00202020202020CA
:10F1EA002020416D6269656E742054656D70657288
:10F1FA006174757265206D656173757265642061ED
:10F20A007320252B2E336620430A0D002020202050
:10F21A00514920776972656C65737320706F7765E1
:10F22A007220636F6E7665727465722069732063EB
:10F23A00757272656E746C792025730A0D00202030
:10F24A00202053797374656D206861732062656547
:10F25A006E206368617267696E6720612070686FEB
:10F26A006E6520666F722025730A0D0A0D005379A8
:10F27A007374656D204D6561737572656D656E7425
:10F28A00732061742074696D65206F6620636F6DE9
:10F29A006D616E642063616C6C3A0A0D000A0D435D
:10F2AA00616C6C202748656C702720666F72206C31
:10F2BA00697374206F6620737570706F72746564F9
:10F2CA0020636F6D6D616E64730A0D00202020202B
:10F2DA0054686520666F6C6C6F77696E6720493277
:10F2EA0043204572726F7273207765726520646578
:10F2FA007465637465643A0A0D004572726F7273BD
:10F30A0020616E64206E6567617469766520726536
:10F31A0073706F6E736573206170706561722069B6
:10F32A006E207265640A0D002020202053797374C0
:10F33A00656D20456666696369656E6379206361F8
:10F34A006C63756C6174656420617320252E336665
:10F35A0025250A0D004469676974616C204D6F6E3A
:10F36A0069746F72696E67204D6963726F636F6E3D
:10F37A0074726F6C6C6572205374617475733A0A97
:10F38A000D0020202020202020202B3132562072F0
:10F39A0061696C206D6561737572656420617320A3
:10F3AA00252B2E336620566F6C74730A0D00436149
:10F3BA00757365206F66206D6F737420726563655F
:10F3CA006E7420646576696365207265736574205E
:10F3DA007761733A2025730A0D002020202020200F
:10F3EA0020202B3556207261696C206D656173751A
:10F3FA0072656420617320252B2E336620566F6C4C
:10F40A0074730A0D002020202020202020504F5302
:10F41A003520436F6E766572746572206973206950
:10F42A006E204275727374204D6F64650A0D005721
:10F43A00696E646F77656420576174636820446FEE
:10F44A00672054696D65722056696F6C6174696FC3
:10F45A006E20526573657400202020202020202011
:10F46A00514920436F6E7665727465722069732004
:10F47A00696E204275727374204D6F64650A0D00BF
:10F48A00202020202020202049324320416D62691B
:10F49A00656E742054656D702053656E736F7220AB
:10F4AA004572726F720A0D00202020202020202031
:10F4BA0041565353206D656173757265642061739B
:10F4CA0020252B2E336620566F6C74730A0D00515B
:10F4DA004920576972656C65737320506F7765723E
:10F4EA0020436F6E76657273696F6E20456E616236
:10F4FA006C65640A0D004D6561737572656D656EA4
:10F50A007420726573706F6E7365732061707065B5
:10F51A00617220696E206379616E0A0D0054686910
:10F52A00732074657874206861732061206D616747
:10F53A00656E7461206261636B67726F756E640ACF
:10F54A000D00556E737570706F72746564206F72FA
:10F55A00206D69732D656E746572656420636F6DC5
:10F56A006D616E640A0D0020202020202020204991
:10F57A00324320504F53352054656D702053656EC9
:10F58A00736F72204572726F720A0D005468697344
:10F59A0020746578742068617320612079656C6CC9
:10F5AA006F77206261636B67726F756E640A0D0014
:10F5BA002020202053797374656D20537769746312
:10F5CA0068696E67204672657175656E63696573F1
:10F5DA003A0A0D004C697665206D6561737572652E
:10F5EA006D656E74207570646174657320646973E7
:10F5FA0061626C65640A0D005468697320746578E9
:10F60A00742068617320612077686974652062617B
:10F61A00636B67726F756E640A0D005468697320B4
:10F62A007465787420686173206120626C61636B11
:10F63A00206261636B67726F756E640A0D005468AD
:10F64A006973207465787420686173206120677219
:10F65A0065656E206261636B67726F756E640A0D11
:10F66A00002020202051492043686172676572207A
:10F67A00697320696E204572726F722053746174C7
:10F68A00650A0D0020202020202020204932432016
:10F69A0051492054656D702053656E736F72204511
:10F6AA0072726F720A0D00546869732074657874F7
:10F6BA0020686173206120626C7565206261636BEA
:10F6CA0067726F756E640A0D0054686973207465F9
:10F6DA007874206861732061206379616E206261A9
:10F6EA00636B67726F756E640A0D00202020204DCF
:10F6FA006963726F636F6E74726F6C6C657220509F
:10F70A006172616D65746572733A0A0D00546869B5
:10F71A00732074657874206861732061207265644F
:10F72A00206261636B67726F756E640A0D00202038
:10F73A00202020202020493243204F4C4544204499
:10F74A006973706C6179204572726F720A0D0020BC
:10F75A002020204E6F2055415254206572726F72DC
:10F76A002873292064657465637465640A0D002032
:10F77A002020204E6F20493243206572726F722812
:10F78A0073292064657465637465640A0D0020201A
:10F79A0020204E6F20414443206572726F72287395
:10F7AA00292064657465637465640A0D002020204D
:10F7BA00205553422055415254204572726F72208F
:10F7CA0044657465637465640A0D00557365722037
:10F7DA00696E707574206170706561727320696EEC
:10F7EA002077686974650A0D00202020204144436F
:10F7FA00206572726F722873292064657465637458
:10F80A006564210A0D00456E61626C696E67206C41
:10F81A00697665206D6561737572656D656E747361
:10F82A000A0D002020202020202020493243204792
:10F83A00656E6572616C204572726F720A0D0020E6
:10F84A002020202020202047656E6572616C2041AF
:10F85A004443206572726F720A0D005465737469AD
:10F86A006E67207465787420617474726962757445
:10F87A0065733A0A0D0054686973207465787420B8
:10F88A00697320756E64657273636F7265640A0DBD
:10F89A00002020202053797374656D2054656D70A3
:10F8AA0065726174757265733A0A0D005245534563
:10F8BA005420496E737472756374696F6E2045784B
:10F8CA0065637574656400507265737320656E7440
:10F8DA006572206B657920746F20657869740A0DEA
:10F8EA0000456E61626C65204C697665204D6561E4
:10F8FA00737572656D656E747300546869732074EC
:10F90A00657874206973206E6F726D616C0A0D0AD6
:10F91A000D005468697320746578742069732072C5
:10F92A00657665727365640A0D005468697320749C
:10F93A0065787420697320626C696E6B696E670AF8
:10F94A000D0055415254206572726F722873292036
:10F95A00636C65617265640A0D005468697320748A
:10F96A00657874206973206D6167656E74610A0D2C
:10F97A00002020202053797374656D20566F6C74B3
:10F98A00616765733A0A0D00202020205379737449
:10F99A00656D2043757272656E74733A0A0D004183
:10F9AA004443204572726F7228732920636C656123
:10F9BA007265640A0D00493243206572726F7228BB
:10F9CA00732920636C65617265640A0D004C69765F
:10F9DA0065204D6561737572656D656E74733A0A5B
:10F9EA000D0A0D0054686973207465787420697370
:10F9FA002079656C6C6F770A0D00417661696C61DC
:10FA0A00626C6520436F6D6D616E64733A0A0D0016
:10FA1A0043757272656E74204D6561737572656D9A
:10FA2A00656E74733F00537461636B20556E646531
:10FA3A0072666C6F772052657365740054686973D7
:10FA4A00207465787420697320626C61636B0A0D97
:10FA5A00005468697320746578742069732067722A
:10FA6A0065656E0A0D00537461636B204F7665728B
:10FA7A00666C6F77205265736574005468697320E9
:10FA8A007465787420697320626F6C640A0D00547F
:10FA9A00686973207465787420697320626C75656F
:10FAAA000A0D00546869732074657874206973209C
:10FABA006379616E0A0D00202020205379737465E2
:10FACA006D20506F7765723A0A0D00546869732089
:10FADA0074657874206973207265640A0D004D613B
:10FAEA007374657220436C65617220526573657424
:10FAFA0000555342205541525420546573740A0DDF
:10FB0A000A0D00436C6561722055415254204572BA
:10FB1A00726F7273003031323334353637383941C7
:10FB2A00424344454600436C656172204932432092
:10FB3A004572726F727300436C656172204144436F
:10FB4A00204572726F727300766961205553422C98
:10FB5A00202748656C702700434F4D20506F727400
:10FB6A002053657475703A004361757365206F663A
:10FB7A002052657365743A004469676974616C2040
:10FB8A004D6F6E69746F7200386269742C206E6FE3
:10FB9A002070617269747900556E646566696E6574
:10FBAA00642052657365740042726F776E204F75D8
:10FBBA0074205265736574004465766963652053E1
:10FBCA0074617475733F004F75747075742043685F
:10FBDA00617267653A0043686172676520537461B0
:10FBEA007475733A004F757470757420456E65723A
:10FBFA0067793A0031207374702C206E6F20666C1E
:10FC0A006F7700524553455420457865637574658E
:10FC1A006400506F776572204F6E20526573657469
:10FC2A000020202020202020204656520A0D004580
:10FC3A0072726F72205374617475733F0051492058
:10FC4A004368617267657220772F002B3132562024
:10FC5A00566F6C746167653A004465762E204F6E64
:10FC6A002054696D653A00416D6269656E7420546D
:10FC7A00656D703A002B35562053772E20467265F3
:10FC8A00713A004F757470757420506F7765723AC7
:10FC9A00002B3132562043757272656E743A0042F7
:10FCAA006F6F7420436F6D706C657465004D6F7271
:10FCBA00652053657474696E67730046756C6C7958
:10FCCA0020436861726765640066756C6C792063AD
:10FCDA00686172676564005265766973696F6E2040
:10FCEA0049443A002B355620566F6C746167653A61
:10FCFA00004368617267652054696D653A0051492D
:10FD0A002053772E20467265713A00496E707574D9
:10FD1A0020506F7765723A004E6F742043686172A3
:10FD2A0067696E670044726577204D6161746D6121
:10FD3A006E002564206D696E757465732C20005001
:10FD4A00494331384C4632374B34300050494331FD
:10FD5A00384C4634374B34300050494331384C46DE
:10FD6A0036374B343000537072696E672032303147
:10FD7A0039004D6963726F2054656D703A005149BC
:10FD8A002043757272656E743A00456666696369E6
:10FD9A00656E63793A002564206D696E7574652C09
:10FDAA00200050494331384632374B3430005049ED
:10FDBA004331384634374B343000504943313846A2
:10FDCA0036374B343000256C752E25362E366C7539
:10FDDA00001B5B303B33373B34306D00446576693A
:10FDEA0063652049443A00514920456E61626C6559
:10FDFA0064004275727374204D6F64650025752026
:10FE0A007365636F6E6473002575206D696E757412
:10FE1A0065730025642079656172732C200025645E
:10FE2A0020686F7572732C20002564207365636FD8
:10FE3A006E64730053544F462052657365740053C1
:10FE4A00545546205265736574004D434C522052F6
:10FE5A00657365740057574454205265736574007E
:10FE6A002B35562054656D703A003131352E3220CB
:10FE7A006B627300256420796561722C2000256409
:10FE8A0020686F75722C2000256420646179732CB8
:10FE9A0020002564207365636F6E6400424F522010
:10FEAA00526573657400504F522052657365740031
:10FEBA00556E646566696E656400756E646566692B
:10FECA006E6564002B25302E3366204D002B2530BD
:10FEDA002E3366206B002B25302E3366206D002BC7
:10FEEA0025302E3366206E002B25302E3366207582
:10FEFA0000252B2E33662025250051492054656D97
:10FF0A00703A00257520796561727300257520683D
:10FF1A006F757273002B322E35204D487A00256496
:10FF2A00206461792C20006368617267696E6700DA
:10FF3A002B25302E33662000252B2E3366204100D8
:10FF4A00252B2E3366204300252B2E3366205600A0
:10FF5A00252B2E336620570025752064617973009E
:10FF6A00286E756C6C2900256325303364002A4994
:10FF7A00444E3F00436C656172004572726F7200B5
:10FF8A006572726F7200302E3020001B5B324A009D
:10FF9A0048656C700030782558002573487A004906
:10FFAA00646C650069646C65001B5B73001B5B75A0
:10FFBA00001B5B48002573430025734A001B5B4BFB
:10FFCA000033300033310034310033320034320030
:10FFDA0033330034330033340034340033350034DF
:10FFEA0035003336003436003337003437001B5BB4
:06FFFA000038003B00008E
:020000040001F9
:100000006FEF8BF0250E8F19D8B436D020EE02F0AA
:100010005851D9265951DA22DE50DE10DE10D8B4FC
:1000200014D020EE02F05851D9265951DA2202D8C4
:100030006FEF8BF00500FA6EDE50FD6EDE50FE6E47
:10004000DE50FF6EFA508F51120058C2D9FF59C2CC
:10005000DAFFDECF5EF2DDCF5FF25EC2D9FF5FC2B4
:10006000DAFF8FC2DFFF58C2D9FF59C2DAFFDE2A9A
:10007000000EDD226FEF8BF0000E8A6F000E896F8D
:10008000000E8E6F000E8D6F0AD002018D8105D09B
:1000900002018D8302D002018D855A4B5B2B5AC21F
:1000A000F6FF5BC2F7FF000EF86E0E0EF76403D08A
:1000B0000800F55005D0F6CFE9FFF7CFEAFFEF5083
:1000C000200AD8B4E2D70B0AD8B4E2D71B0AD8B4B6
:1000D000E2D702018DB38D915AC2F6FF5BC2F7FFE2
:1000E000000EF86E0E0EF76403D00800F55005D030
:1000F000F6CFE9FFF7CFEAFFEF50A8ECE3F0D8A086
:100100004CD0000E02018A6F000E896F89C200F286
:100110008AC201F2000E0201036F0A0E026FFDECAB
:10012000E2F000C289F201C28AF2D00E02015E6FD3
:10013000FF0E5F6F5AC2F6FF5BC2F7FF000EF86E4C
:100140000E0EF76403D00800F55005D0F6CFE9FF96
:10015000F7CFEAFFEF500201606F616B5E516027DD
:100160005F5161236051892761518A235A4B5B2B70
:100170005AC2F6FF5BC2F7FF000EF86E0E0EF76470
:1001800003D00800F55005D0F6CFE9FFF7CFEAFF1E
:10019000EF50A8ECE3F0D8B0B9D75AC2F6FF5BC273
:1001A000F7FF000EF86E0E0EF76403D00800F5504E
:1001B00005D0F6CFE9FFF7CFEAFFEF502E0AD8A41B
:1001C00049D002018E8D5A4B5B2B000E8C6F000EB6
:1001D0008B6F2AD08BC200F28CC201F2000E02019A
:1001E000036F0A0E026FFDECE2F05AC2F6FF5BC22B
:1001F000F7FF000EF86E0E0EF76403D00800F550FE
:1002000005D0F6CFE9FFF7CFEAFFEF5002015E6FAE
:100210005E510027000E0123D00E00258B6FFF0ECC
:1002200001218C6F5A4B5B2B5AC2F6FF5BC2F7FF62
:10023000000EF86E0E0EF76403D00800F55005D0DE
:10024000F6CFE9FFF7CFEAFFEF50A8ECE3F0D8A034
:100250002AD1C0D7000E02018C6F000E8B6F8E89E1
:1002600022D18D8920D18E8559D18D8F57D15CC2F5
:10027000D9FF5DC2DAFFDFCF5EF2020EDE26DFCFEE
:100280005FF2000EDD225EC2D9FF5FC2DAFFDECF71
:1002900077F2DDCF78F277517811D8A404D06A0EC6
:1002A000776FFF0E786F000E7A6F000E796F03D0B4
:1002B0000201794B7A2B795177255E6F7A5178213B
:1002C0005F6F5EC2F6FF5FC2F7FF000EF86E0E0EA4
:1002D000F76403D00800F55005D0F6CFE9FFF7CF5B
:1002E000EAFFEF500009D8A4E3D702018B518C112B
:1002F000D8B40AD079518B5D7A518C59D8B004D0DA
:100300008BC279F28CC27AF28951795D8A517A591D
:10031000D8B005D07951895F7A518A5B38D0000E08
:100320008A6F000E896F33D020EE02F05851D92623
:100330005951DA22DE50DE10DE10D8B413D020EE90
:1003400002F05851D9265951DA2201D820D005009F
:10035000FA6EDE50FD6EDE50FE6EDE50FF6EFA501D
:10036000200E120058C2D9FF59C2DAFFDECF5EF26A
:10037000DDCF5FF25EC2D9FF5FC2DAFF200EDF6E13
:1003800058C2D9FF59C2DAFFDE2A000EDD2202016F
:100390008907D8A08A078929C7E18A29D8B45BD000
:1003A000C3D720EE02F05851D9265951DA22DE5037
:1003B000DE10DE10D8B427D020EE02F05851D92636
:1003C0005951DA2201D81BD00500FA6EDE50FD6EBD
:1003D000DE50FE6EDE50FF6EFA5077C2F6FF78C236
:1003E000F7FF000EF86E0E0EF76403D00800F5500C
:1003F00005D0F6CFE9FFF7CFEAFFEF501200020178
:10040000774B782B28D077C2F6FF78C2F7FF000E23
:10041000F86E58C2D9FF59C2DAFFDECF5EF2DDCFE7
:100420005FF25EC2D9FF5FC2DAFF0E0EF76403D03F
:100430000800F55005D0F6CFE9FFF7CFEAFFEF50FF
:10044000DF6E0201774B782B58C2D9FF59C2DAFF11
:10045000DE2A000EDD227907D8A07A077929A1E1EA
:100460007A29D8B46FEF8BF09CD75CC2D9FF5DC2FC
:10047000DAFFDFCF5EF2020EDE26DFCF5FF2000E84
:10048000DD225EC2D9FF5FC2DAFFDF508F6F8F0EB1
:10049000776F020E786F000E7A6F010E796F25D795
:1004A000C00E8D133BD002015A515E6F5B515F6FDE
:1004B0005A4B5B2B5EC2F6FF5FC2F7FF000EF86E71
:1004C0000E0EF76403D00800F55005D0F6CFE9FF13
:1004D000F7CFEAFFEF5002018F6F8F51000AD8B4B7
:1004E0008DEF8BF0580AD8B4C0D63B0AD8B4BDD72C
:1004F000070AD8B413D0020AD8B4B5D60F0AD8B4B4
:100500000DD0050AD8B4ADD61F0AD8B4B0D6060AA5
:10051000D8B4C6D70D0AD8B4A8D6B9D7070E8E1549
:10052000D8B40FEF88F08EA904D0000E8C6F060EA1
:100530008B6F5CC2D9FF5DC2DAFFDFCF5EF2040EC3
:10054000DE26DFCF5FF2000EDD225EC2D9FF5FC282
:10055000DAFFDECF81F2DECF82F2DECF83F2DECFB2
:1005600084F284AF15D081C200F282C201F283C24C
:1005700002F284C203F24FECE2F000C281F201C247
:1005800082F202C283F203C284F2030E02018D13CF
:10059000000E7C6F000E7B6F81C200F282C201F2FE
:1005A00083C202F284C203F2000E046F000E056FD4
:1005B000000E066F000E076F1FECD9F00201D8B0D5
:1005C00084D083358435820F7B6F7C6BFF0E7C2358
:1005D0007B07D8A07C077BC200F27CC201F2000E30
:1005E000036F030E026FFDECE2F000C27BF201C26A
:1005F0007CF27BC206F27CC207F2000E0201096F98
:100600000A0E086FAAECD9F006C27BF207C27CF290
:1006100002017CAF03D07B07D8A07C077B51000888
:1006200094ECADF027C27DF228C27EF229C27FF29F
:100630002AC280F27DC20EF27EC20FF27FC210F299
:1006400080C211F281C212F282C213F283C214F28A
:1006500084C215F240ECB5F00EC27DF20FC27EF2FC
:1006600010C27FF211C280F27DC24CF27EC24DF206
:100670007FC24EF280C24FF2000E0201506F000E98
:10068000516F800E526F3F0E536F4DECD4F002014C
:10069000D8B004D07B07D8A07C0717D07DC24CF21D
:1006A0007EC24DF27FC24EF280C24FF2000E506FFA
:1006B000000E516F200E526F410E536F4DECD4F06F
:1006C0000201D8A002D07B4B7C2B8CBF06D08C5172
:1006D00021E10D0E8B5DD8B01DD081C234F282C2F3
:1006E00035F283C236F284C237F28B513CECC0F053
:1006F00027C238F228C239F229C23AF22AC23BF2A2
:100700003DECBAF034C281F235C282F236C283F2D5
:1007100037C284F202017CBF06D07C5131E10A0E5F
:100720007B5DD8B02DD081C200F282C201F283C2BB
:1007300002F284C203F2000E046F000E056F000E79
:10074000066F000E076F1FECD9F00201D8B062D01F
:1007500081C230F282C231F283C232F284C233F2F9
:10076000E5ECD5F002013051311132113311D8B41A
:100770007CBF50D07C5104E1020E7B5DD8A04AD0F2
:100780007DC24CF27EC24DF27FC24EF280C24FF269
:100790005F0E506F700E516F890E526F400E536F87
:1007A0004DECD4F00201D8B002D0F70E01D0F80E13
:1007B0007B27FF0E7C237B5194ECADF027C27DF2AA
:1007C00028C27EF229C27FF22AC280F281C200F2E0
:1007D00082C201F283C202F284C203F27DC204F239
:1007E0007EC205F27FC206F280C207F2F3ECD1F0BE
:1007F00000C285F201C286F202C287F203C288F209
:10080000000E0201816F000E826F000E836F000EDA
:10081000846F3CD081C230F282C231F283C232F2A4
:1008200084C233F2E5ECD5F030C285F231C286F2F3
:1008300032C287F233C288F281C24CF282C24DF2D8
:1008400083C24EF284C24FF285C23EF286C23FF2AC
:1008500087C240F288C241F2000E7FECCEF03EC269
:1008600050F23FC251F240C252F241C253F2C3ECC5
:10087000DEF04CC281F24DC282F24EC283F24FC210
:1008800084F2000E02017C6F000E7B6F010E8F6FF1
:100890000A0E8F19D8B41BD08F51040D630EF324A8
:1008A000F66EE80EF420F76EF86A000EF8220900E2
:1008B000F550855D0900F55086590900F5508759B6
:1008C0000900F5508859D8A002D08F2BE1D78F515D
:1008D0008B255E6F000E8C215F6F7B515E277C51F4
:1008E0005F235E51895F5F518A5B8B518C11D8B455
:1008F00003D08907D8A08A07030E8D155E6F000EFE
:100900008E155F6F5E515F11D8B403D08907D8A0F0
:100910008A078DA5F0D08DA341D020EE02F058516A
:10092000D9265951DA22DE50DE10DE10D8B41DD09F
:100930008DB104D0000E686F2B0E03D0000E686FCF
:100940002D0E676F20EE02F05851D9265951DA2248
:1009500001D891D00500FA6EDE50FD6EDE50FE6EBD
:10096000DE50FF6EFA50675112008DB104D0000EB8
:100970006A6F2B0E03D0000E6A6F2D0E696F58C27E
:10098000D9FF59C2DAFFDECF5EF2DDCF5FF25EC281
:10099000D9FF5FC2DAFF69C2DFFF2ED08DA16BD015
:1009A00020EE02F05851D9265951DA22DE50DE10DD
:1009B000DE10D8B413D020EE02F05851D926595188
:1009C000DA2201D858D00500FA6EDE50FD6EDE50F6
:1009D000FE6EDE50FF6EFA50200E120058C2D9FF94
:1009E00059C2DAFFDECF5EF2DDCF5FF25EC2D9FF21
:1009F0005FC2DAFF200EDF6E58C2D9FF59C2DAFF9C
:100A0000DE2A000EDD2237D020EE02F05851D92622
:100A10005951DA22DE50DE10DE10D8B413D020EEA9
:100A200002F05851D9265951DA2201D820D00500B8
:100A3000FA6EDE50FD6EDE50FE6EDE50FF6EFA5036
:100A4000300E120058C2D9FF59C2DAFFDECF5EF273
:100A5000DDCF5FF25EC2D9FF5FC2DAFF300EDF6E1C
:100A600058C2D9FF59C2DAFFDE2A000EDD22020188
:100A70008907D8A08A0702018ABF2FD18A51C4E111
:100A80008905D8A02AD1C0D720EE02F05851D92626
:100A90005951DA22DE50DE10DE10D8B413D020EE29
:100AA00002F05851D9265951DA2201D820D0050038
:100AB000FA6EDE50FD6EDE50FE6EDE50FF6EFA50B6
:100AC000200E120058C2D9FF59C2DAFFDECF5EF203
:100AD000DDCF5FF25EC2D9FF5FC2DAFF200EDF6EAC
:100AE00058C2D9FF59C2DAFFDE2A000EDD22020108
:100AF0008907D8A08A078ABF05D08A51C5E1890530
:100B0000D8B0C2D78DA341D020EE02F05851D926DB
:100B10005951DA22DE50DE10DE10D8B41DD08DB16E
:100B200004D0000E6C6F2B0E03D0000E6C6F2D0ED8
:100B30006B6F20EE02F05851D9265951DA2201D8B4
:100B4000CCD00500FA6EDE50FD6EDE50FE6EDE503B
:100B5000FF6EFA506B5112008DB104D0000E6E6F13
:100B60002B0E03D0000E6E6F2D0E6D6F58C2D9FF85
:100B700059C2DAFFDECF5EF2DDCF5FF25EC2D9FF8F
:100B80005FC2DAFF6DC2DFFFA1D08DA1A6D020EE3B
:100B900002F05851D9265951DA22DE50DE10DE100B
:100BA000D8B413D020EE02F05851D9265951DA2288
:100BB00001D893D00500FA6EDE50FD6EDE50FE6E59
:100BC000DE50FF6EFA50200E120058C2D9FF59C2F3
:100BD000DAFFDECF5EF2DDCF5FF25EC2D9FF5FC229
:100BE000DAFF200E72D085C200F286C201F287C2FF
:100BF00002F288C203F28F51040D630EF324F66EE5
:100C0000E80EF420F76EF86A000EF8220900F5CF1E
:100C100004F20900F5CF05F20900F5CF06F20A004B
:100C2000F5CF07F2EDECD9F000C27DF201C27EF201
:100C300002C27FF203C280F27DC20DF27EC20EF2CA
:100C40007FC20FF280C210F20A0E0201116F000E75
:100C5000126F000E136F000E146F23ECDBF00DC249
:100C60007DF20EC27EF20FC27FF210C280F202014C
:100C700020EE02F05851D9265951DA22DE50DE100A
:100C8000DE10D8B414D020EE02F05851D9265951B4
:100C9000DA2201D822D00500FA6EDE50FD6EDE5059
:100CA000FE6EDE50FF6EFA507D51300F12007D5106
:100CB000300F58C2D9FF59C2DAFFDECF5EF2DDCF66
:100CC0005FF25EC2D9FF5FC2DAFFDF6E58C2D9FFA2
:100CD00059C2DAFFDE2A000EDD2202018F078F29BA
:100CE000D8B438D080D720EE02F05851D9265951C7
:100CF000DA22DE50DE10DE10D8B413D020EE02F07F
:100D00005851D9265951DA2201D820D00500FA6E5F
:100D1000DE50FD6EDE50FE6EDE50FF6EFA50300E7D
:100D2000120058C2D9FF59C2DAFFDECF5EF2DDCF22
:100D30005FF25EC2D9FF5FC2DAFF300EDF6E58C2CB
:100D4000D9FF59C2DAFFDE2A000EDD2202017B073D
:100D5000D8A07C077CBF05D07C51C5E17B05D8B00D
:100D6000C2D78CBF09D08C5104E1090E8B5DD8A08D
:100D700003D0080E8F6F02D08BC28FF28F518B5F22
:100D8000000E8C5B8F51D8B433D020EE02F0585156
:100D9000D9265951DA22DE50DE10DE10D8B413D035
:100DA00020EE02F05851D9265951DA2201D820D02C
:100DB0000500FA6EDE50FD6EDE50FE6EDE50FF6EF8
:100DC000FA502E0E120058C2D9FF59C2DAFFDECFF8
:100DD0005EF2DDCF5FF25EC2D9FF5FC2DAFF2E0E98
:100DE000DF6E58C2D9FF59C2DAFFDE2A000EDD22BB
:100DF00002018F5194ECADF027C262F228C263F277
:100E000029C264F22AC265F281C212F282C213F2CE
:100E100083C214F284C215F262C20EF263C20FF2F0
:100E200064C210F265C211F240ECB5F00EC230F2AD
:100E30000FC231F210C232F211C233F2E5ECD5F03A
:100E400030C285F231C286F232C287F233C288F2F2
:100E5000A4D085C200F286C201F287C202F288C223
:100E600003F28F51040D630EF324F66EE80EF420A6
:100E7000F76EF86A000EF8220900F5CF04F20900B7
:100E8000F5CF05F20900F5CF06F20A00F5CF07F21B
:100E9000EDECD9F000C27DF201C27EF202C27FF217
:100EA00003C280F27DC20DF27EC20EF27FC20FF24B
:100EB00080C210F20A0E0201116F000E126F000EB6
:100EC000136F000E146F23ECDBF00DC27DF20EC227
:100ED0007EF20FC27FF210C280F2020120EE02F019
:100EE0005851D9265951DA22DE50DE10DE10D8B41E
:100EF00014D020EE02F05851D9265951DA2201D8E7
:100F000022D00500FA6EDE50FD6EDE50FE6EDE5021
:100F1000FF6EFA507D51300F12007D51300F58C2D4
:100F2000D9FF59C2DAFFDECF5EF2DDCF5FF25EC2DB
:100F3000D9FF5FC2DAFFDF6E58C2D9FF59C2DAFFAC
:100F4000DE2A000EDD2285C20DF286C20EF287C2B5
:100F50000FF288C210F202018F51040D630EF324C8
:100F6000F66EE80EF420F76EF86A000EF82209001B
:100F7000F5CF11F20900F5CF12F20900F5CF13F207
:100F80000A00F5CF14F223ECDBF00DC285F20EC29D
:100F900086F20FC287F210C288F202018F078F29F2
:100FA000D8B438D056D720EE02F05851D92659512E
:100FB000DA22DE50DE10DE10D8B413D020EE02F0BC
:100FC0005851D9265951DA2201D820D00500FA6E9D
:100FD000DE50FD6EDE50FE6EDE50FF6EFA50300EBB
:100FE000120058C2D9FF59C2DAFFDECF5EF2DDCF60
:100FF0005FF25EC2D9FF5FC2DAFF300EDF6E58C209
:10100000D9FF59C2DAFFDE2A000EDD2202018B076A
:10101000D8A08C078B518C11D8B461D3C4D7C00E23
:101020008D155E6F000E8E155F6F5E515F11D8A437
:1010300041D08DA919D05CC2D9FF5DC2DAFFDFCFE4
:101040005EF2040EDE26DFCF5FF2000EDD225EC20E
:10105000D9FF5FC2DAFFDECF85F2DECF86F2DECFC8
:1010600087F2DECF88F219D05CC2D9FF5DC2DAFF09
:10107000DFCF5EF2020EDE26DFCF5FF2000EDD2252
:101080005EC2D9FF5FC2DAFFDECF85F2DDCF86F226
:10109000000E86BFFF0E876F886F88AF40D0030EAB
:1010A0008D13881F871F861F856D000E862387235B
:1010B000882335D08DA919D05CC2D9FF5DC2DAFF73
:1010C000DFCF5EF2040EDE26DFCF5FF2000EDD2200
:1010D0005EC2D9FF5FC2DAFFDECF85F2DECF86F2D5
:1010E000DECF87F2DECF88F21AD05CC2D9FF5DC2B4
:1010F000DAFFDFCF5EF2020EDE26DFCF5FF2000EF8
:10110000DD225EC2D9FF5FC2DAFFDECF60F2DDCF43
:1011100061F260C285F261C286F2876B886B8B5187
:101120008C11D8A44BD08551861187118811D8A471
:1011300045D08B4B8C2B42D0010E8F6F0A0E8F192E
:10114000D8B447D08F51040D630EF324F66EE80E29
:10115000F420F76EF86A000EF8220900F550855D5C
:101160000900F55086590900F55087590900F550D6
:101170008859D8A02ED08F2BE1D7010E8F6F080E83
:101180008F19D8B426D08F51040D430EF324F66E78
:10119000E50EF420F76EF86A000EF8220900F5500B
:1011A000855D0900F55086590900F55087590900F9
:1011B000F5508859D8A00DD08F2BE1D78D51C00B99
:1011C000000AD8B4B9D7800AD8B4D7D7400AD8B45F
:1011D000B3D78F515E6F5F6B8B515E5D5F51800A3D
:1011E000606F8C51800A6059D8B003D08BC28FF2E7
:1011F00010D08F515E6F5F6B5E518B5D8C51800A9A
:10120000606F5F51800A6059D8B003D08FC28BF2F3
:101210008C6B89518A11D8B40DD0030E8D155E6F79
:10122000000E8E155F6F5E515F11D8B403D0890731
:10123000D8A08A078EAD13D089518B5D8C51800A5E
:101240005E6F8A51800A5E59D8B005D08B51895F94
:101250008C518A5B04D0000E8A6F000E896F8F510B
:101260005E6F5F6B89515E5D5F51800A606F8A516E
:10127000800A6059D8B005D08F51895F000E8A5B13
:1012800004D0000E8A6F000E896F8DA5B5D08DA396
:1012900041D020EE02F05851D9265951DA22DE50C1
:1012A000DE10DE10D8B41DD08DB104D0000E706FEA
:1012B0002B0E03D0000E706F2D0E6F6F20EE02F01C
:1012C0005851D9265951DA2201D859D00500FA6E61
:1012D000DE50FD6EDE50FE6EDE50FF6EFA506F5136
:1012E00012008DB104D0000E726F2B0E03D0000ED1
:1012F000726F2D0E716F58C2D9FF59C2DAFFDECF5F
:101300005EF2DDCF5FF25EC2D9FF5FC2DAFF71C26B
:10131000DFFF2ED08DA133D020EE02F05851D92618
:101320005951DA22DE50DE10DE10D8B413D020EE90
:1013300002F05851D9265951DA2201D820D005009F
:10134000FA6EDE50FD6EDE50FE6EDE50FF6EFA501D
:10135000200E120058C2D9FF59C2DAFFDECF5EF26A
:10136000DDCF5FF25EC2D9FF5FC2DAFF200EDF6E13
:1013700058C2D9FF59C2DAFFDE2A000EDD2202016F
:1013800089518A11D8B4A2D120EE02F05851D92641
:101390005951DA22DE50DE10DE10D8B413D020EE20
:1013A00002F05851D9265951DA2201D820D005002F
:1013B000FA6EDE50FD6EDE50FE6EDE50FF6EFA50AD
:1013C000300E120058C2D9FF59C2DAFFDECF5EF2EA
:1013D000DDCF5FF25EC2D9FF5FC2DAFF300EDF6E93
:1013E00058C2D9FF59C2DAFFDE2A000EDD220201FF
:1013F0008907D8A08A07C4D789518A11D8B43BD0AD
:1014000020EE02F05851D9265951DA22DE50DE1072
:10141000DE10D8B413D020EE02F05851D92659511D
:10142000DA2201D820D00500FA6EDE50FD6EDE50C3
:10143000FE6EDE50FF6EFA50200E120058C2D9FF29
:1014400059C2DAFFDECF5EF2DDCF5FF25EC2D9FFB6
:101450005FC2DAFF200EDF6E58C2D9FF59C2DAFF31
:10146000DE2A000EDD2202018907D8A08A078951F1
:101470008A11D8A4C5D78DA341D020EE02F05851CF
:10148000D9265951DA22DE50DE10DE10D8B41DD034
:101490008DB104D0000E746F2B0E03D0000E746F4C
:1014A0002D0E736F20EE02F05851D9265951DA22D1
:1014B00001D80CD10500FA6EDE50FD6EDE50FE6ED6
:1014C000DE50FF6EFA50735112008DB104D0000E41
:1014D000766F2B0E03D0000E766F2D0E756F58C2EF
:1014E000D9FF59C2DAFFDECF5EF2DDCF5FF25EC216
:1014F000D9FF5FC2DAFF75C2DFFFE1D08DA1E6D070
:1015000020EE02F05851D9265951DA22DE50DE1071
:10151000DE10D8B413D020EE02F05851D92659511C
:10152000DA2201D8D3D00500FA6EDE50FD6EDE500F
:10153000FE6EDE50FF6EFA50200E120058C2D9FF28
:1015400059C2DAFFDECF5EF2DDCF5FF25EC2D9FFB5
:101550005FC2DAFF200EDF6EB2D08BC25EF28CC2A9
:101560005FF2D8905E375F37D8905E375F37630E93
:101570005E25F66EE80E5F21F76EF86A000EF8221F
:101580000900F5CF04F20900F5CF05F20900F5CF07
:1015900006F20A00F5CF07F285C200F286C201F218
:1015A00087C202F288C203F2EDECD9F000C20DF25C
:1015B00001C20EF202C20FF203C210F20A0E0201C1
:1015C000116F000E126F000E136F000E146F23ECDC
:1015D000DBF002010D51300F8F6F45D085C200F254
:1015E00086C201F287C202F288C203F28BC25EF2A7
:1015F0008CC25FF2D8905E375F37D8905E375F3726
:10160000430E5E25F66EE50E5F21F76EF86A000E5A
:10161000F8220900F5CF04F20900F5CF05F2090020
:10162000F5CF06F20A00F5CF07F2EDECD9F0020192
:1016300000510F0B666F1F0E6625F66EF76AFB0EE4
:10164000F722F86A000EF8220800F5CF8FF20BD0CF
:101650008D51C00B000AD8B480D7800AD8B4BED749
:10166000400AD8B47AD720EE02F05851D926595101
:10167000DA22DE50DE10DE10D8B413D020EE02F0F5
:101680005851D9265951DA2201D820D00500FA6ED6
:10169000DE50FD6EDE50FE6EDE50FF6EFA508F5152
:1016A000120058C2D9FF59C2DAFFDECF5EF2DDCF99
:1016B0005FF25EC2D9FF5FC2DAFF8FC2DFFF58C29E
:1016C000D9FF59C2DAFFDE2A000EDD2202018B07A4
:1016D000D8A08C078B29BCE18C29D8A4B9D70201EA
:1016E0005A515E6F5B515F6F5A4B5B2B5EC2F6FFC8
:1016F0005FC2F7FF000EF86E0E0EF76403D008000D
:10170000F55005D0F6CFE9FFF7CFEAFFEF50020121
:101710008F6F8F51D8A402EF80F0000E596F000E2A
:10172000586F1200FBEF96F0250EA319D8B436D0EF
:1017300020EE02F06C51D9266D51DA22DE50DE1017
:10174000DE10D8B414D020EE02F06C51D9266D51C1
:10175000DA2202D8FBEF96F00500FA6EDE50FD6E3D
:10176000DE50FE6EDE50FF6EFA50A35112006CC0C8
:10177000D9FF6DC0DAFFDECF72F0DDCF73F072C03B
:10178000D9FF73C0DAFFA3C0DFFF6CC0D9FF6DC003
:10179000DAFFDE2A000EDD22FBEF96F0000E9E6FD0
:1017A000000E9D6F000EA26F000EA16F0AD0000107
:1017B000A18105D00001A18302D00001A1856E4B5B
:1017C0006F2B6EC0F6FF6FC0F7FF000EF86E0E0EA7
:1017D000F76403D00800F55005D0F6CFE9FFF7CF46
:1017E000EAFFEF50200AD8B4E2D70B0AD8B4E2D708
:1017F0001B0AD8B4E2D70001A1B3A1916EC0F6FFD5
:101800006FC0F7FF000EF86E0E0EF76403D00800ED
:10181000F55005D0F6CFE9FFF7CFEAFFEF5029ECFE
:10182000E4F0D8A04BD0000E00019E6F000E9D6F1B
:101830009DC001F09EC002F0000E046E0A0E036E01
:1018400060ECE3F001C09DF002C09EF0D00E0001FC
:10185000726FFF0E736F6EC0F6FF6FC0F7FF000E62
:10186000F86E0E0EF76403D00800F55005D0F6CFE1
:10187000E9FFF7CFEAFFEF500001746F756B72510B
:1018800074277351752374519D2775519E236E4B98
:101890006F2B6EC0F6FF6FC0F7FF000EF86E0E0ED6
:1018A000F76403D00800F55005D0F6CFE9FFF7CF75
:1018B000EAFFEF5029ECE4F0D8B0BAD76EC0F6FFDB
:1018C0006FC0F7FF000EF86E0E0EF76403D008002D
:1018D000F55005D0F6CFE9FFF7CFEAFFEF502E0A1B
:1018E000D8A448D00001A28D6E4B6F2B000EA06FC4
:1018F000000E9F6F29D09FC001F0A0C002F0000E23
:10190000046E0A0E036E60ECE3F06EC0F6FF6FC06B
:10191000F7FF000EF86E0E0EF76403D00800F550C6
:1019200005D0F6CFE9FFF7CFEAFFEF500001726F65
:1019300072510126000E0222D00E01249F6FFF0E6D
:101940000220A06F6E4B6F2B6EC0F6FF6FC0F7FFCB
:10195000000EF86E0E0EF76403D00800F55005D0A7
:10196000F6CFE9FFF7CFEAFFEF5029ECE4F0D8A07B
:101970002AD1C1D7000E0001A06F000E9F6FA2896F
:1019800022D1A18920D1A28559D1A18F57D170C070
:10199000D9FF71C0DAFFDFCF72F0020EDE26DFCF93
:1019A00073F0000EDD2272C0D9FF73C0DAFFDECF04
:1019B0008BF0DDCF8CF08B518C11D8A404D06A0E43
:1019C0008B6FFF0E8C6F000E8E6F000E8D6F03D02D
:1019D00000018D4B8E2B8D518B25726F8E518C217A
:1019E000736F72C0F6FF73C0F7FF000EF86E0E0E35
:1019F000F76403D00800F55005D0F6CFE9FFF7CF24
:101A0000EAFFEF500009D8A4E3D700019F51A011CD
:101A1000D8B40AD08D519F5D8E51A059D8B004D052
:101A20009FC08DF0A0C08EF09D518D5D9E518E594E
:101A3000D8B005D08D519D5F8E519E5B38D0000E81
:101A40009E6F000E9D6F33D020EE02F06C51D926B0
:101A50006D51DA22DE50DE10DE10D8B413D020EE45
:101A600002F06C51D9266D51DA2201D820D0050040
:101A7000FA6EDE50FD6EDE50FE6EDE50FF6EFA50E6
:101A8000200E12006CC0D9FF6DC0DAFFDECF72F0FD
:101A9000DDCF73F072C0D9FF73C0DAFF200EDF6EA6
:101AA0006CC0D9FF6DC0DAFFDE2A000EDD22000116
:101AB0009D07D8A09E079D29C7E19E29D8B45BD079
:101AC000C3D720EE02F06C51D9266D51DA22DE50D8
:101AD000DE10DE10D8B427D020EE02F06C51D926EB
:101AE0006D51DA2201D81BD00500FA6EDE50FD6E72
:101AF000DE50FE6EDE50FF6EFA508BC0F6FF8CC0DB
:101B0000F7FF000EF86E0E0EF76403D00800F550D4
:101B100005D0F6CFE9FFF7CFEAFFEF501200000142
:101B20008B4B8C2B28D08BC0F6FF8CC0F7FF000EA0
:101B3000F86E6CC0D9FF6DC0DAFFDECF72F0DDCF7A
:101B400073F072C0D9FF73C0DAFF0E0EF76403D0D2
:101B50000800F55005D0F6CFE9FFF7CFEAFFEF50C8
:101B6000DF6E00018B4B8C2B6CC0D9FF6DC0DAFF90
:101B7000DE2A000EDD228D07D8A08E078D29A1E177
:101B80008E29D8B4FBEF96F09CD770C0D9FF71C0F6
:101B9000DAFFDFCF72F0020EDE26DFCF73F0000E29
:101BA000DD2272C0D9FF73C0DAFFDF50A36FA30E2E
:101BB0008B6F000E8C6F000E8E6F010E8D6F25D710
:101BC000C00EA1133BD000016E51726F6F51736F45
:101BD0006E4B6F2B72C0F6FF73C0F7FF000EF86EEE
:101BE0000E0EF76403D00800F55005D0F6CFE9FFDC
:101BF000F7CFEAFFEF500001A36FA351000AD8B45A
:101C000019EF97F0580AD8B4C0D63B0AD8B4BDD75C
:101C1000070AD8B413D0020AD8B4B5D60F0AD8B47C
:101C20000DD0050AD8B4ADD61F0AD8B4B0D6060A6E
:101C3000D8B4C6D70D0AD8B4A8D6B9D7070EA215FE
:101C4000D8B49CEF93F0A2A904D0000EA06F060EAA
:101C50009F6F70C0D9FF71C0DAFFDFCF72F0040E42
:101C6000DE26DFCF73F0000EDD2272C0D9FF73C015
:101C7000DAFFDECF95F0DECF96F0DECF97F0DECF45
:101C800098F098AF15D095C001F096C002F097C0BB
:101C900003F098C004F07EECE2F001C095F002C0C1
:101CA00096F003C097F004C098F0030E0001A11352
:101CB000000E906F000E8F6F95C001F096C002F07D
:101CC00097C003F098C004F0000E056E000E066E7B
:101CD000000E076E000E086E65ECD9F0D8B083D008
:101CE000000197359835820F8F6F906BFF0E902310
:101CF0008F07D8A090078FC001F090C002F0000EAF
:101D0000046E030E036E60ECE3F001C08FF002C0BE
:101D100090F08FC007F090C008F0000E0A6E0A0E17
:101D2000096E2FECDAF007C08FF008C090F00001C8
:101D300090AF03D08F07D8A090078F510008AEEC6A
:101D4000AFF045C091F046C092F047C093F048C054
:101D500094F091C02CF092C02DF093C02EF094C05E
:101D60002FF095C030F096C031F097C032F098C097
:101D700033F094ECB8F02CC091F02DC092F02EC04E
:101D800093F02FC094F091C001F092C002F093C084
:101D900003F094C004F0000E056E000E066E800E77
:101DA000076E3F0E086EB6ECD4F0D8B005D0000137
:101DB0008F07D8A0900717D091C001F092C002F011
:101DC00093C003F094C004F0000E056E000E066E82
:101DD000200E076E410E086EB6ECD4F0D8A003D0EA
:101DE00000018F4B902B0001A0BF06D0A05121E134
:101DF0000D0E9F5DD8B01DD095C052F096C053F027
:101E000097C054F098C055F09F519DECC1F045C06B
:101E100056F046C057F047C058F048C059F04BEC58
:101E2000BDF052C095F053C096F054C097F055C025
:101E300098F0000190BF06D0905131E10A0E8F5DFD
:101E4000D8B02DD095C001F096C002F097C003F035
:101E500098C004F0000E056E000E066E000E076EB0
:101E6000000E086E65ECD9F0D8B064D095C04EF085
:101E700096C04FF097C050F098C051F043ECD6F0A8
:101E80004E504F1050105110D8A454D0000190BFA4
:101E900051D0905104E1020E8F5DD8A04BD091C07B
:101EA00001F092C002F093C003F094C004F05F0E02
:101EB000056E700E066E890E076E400E086EB6EC4B
:101EC000D4F0D8B003D00001F70E02D00001F80E14
:101ED0008F27FF0E90238F51AEECAFF045C091F0ED
:101EE00046C092F047C093F048C094F095C001F00E
:101EF00096C002F097C003F098C004F091C005F0BE
:101F000092C006F093C007F094C008F06EECD2F0D7
:101F100001C099F002C09AF003C09BF004C09CF08D
:101F2000000E0001956F000E966F000E976F000E69
:101F3000986F3CD095C04EF096C04FF097C050F0CF
:101F400098C051F043ECD6F04EC099F04FC09AF0D3
:101F500050C09BF051C09CF095C064F096C065F0F5
:101F600097C066F098C067F099C005F09AC006F077
:101F70009BC007F09CC008F0000EC3ECCFF005C07A
:101F800068F006C069F007C06AF008C06BF0E7ECC3
:101F9000DEF064C095F065C096F066C097F067C04B
:101FA00098F0000E0001906F000E8F6F010EA36F6E
:101FB000A351040D630EF324F66EE80EF420F76EC1
:101FC000F86A000EF8220900F550995D0900F550F5
:101FD0009A590900F5509B590900F5509C59D8A011
:101FE00005D0A32B0A0EA319D8A4E2D7A3519F258D
:101FF000726F000EA021736F8F517227905173235F
:1020000072519D5F73519E5B9F51A011D8B403D054
:102010009D07D8A09E07030EA115726F000EA21592
:10202000736F72517311D8B403D09D07D8A09E0767
:10203000A1A5F0D0A1A341D020EE02F06C51D92689
:102040006D51DA22DE50DE10DE10D8B41DD0A1B101
:1020500004D0000E7C6F2B0E03D0000E7C6F2D0E73
:102060007B6F20EE02F06C51D9266D51DA2201D837
:1020700091D00500FA6EDE50FD6EDE50FE6EDE5031
:10208000FF6EFA507B511200A1B104D0000E7E6F9A
:102090002B0E03D0000E7E6F2D0E7D6F6CC0D9FF0E
:1020A0006DC0DAFFDECF72F0DDCF73F072C0D9FF02
:1020B00073C0DAFF7DC0DFFF2ED0A1A16BD020EE70
:1020C00002F06C51D9266D51DA22DE50DE10DE109E
:1020D000D8B413D020EE02F06C51D9266D51DA221B
:1020E00001D858D00500FA6EDE50FD6EDE50FE6E4F
:1020F000DE50FF6EFA50200E12006CC0D9FF6DC08A
:10210000DAFFDECF72F0DDCF73F072C0D9FF73C09B
:10211000DAFF200EDF6E6CC0D9FF6DC0DAFFDE2A59
:10212000000EDD2237D020EE02F06C51D9266D5121
:10213000DA22DE50DE10DE10D8B413D020EE02F02A
:102140006C51D9266D51DA2201D820D00500FA6EE3
:10215000DE50FD6EDE50FE6EDE50FF6EFA50300E29
:1021600012006CC0D9FF6DC0DAFFDECF72F0DDCF98
:1021700073F072C0D9FF73C0DAFF300EDF6E6CC02F
:10218000D9FF6DC0DAFFDE2A000EDD2200019D07B7
:10219000D8A09E0700019EBF2ED19E51C4E19D058F
:1021A000D8A029D1C0D720EE02F06C51D9266D51AC
:1021B000DA22DE50DE10DE10D8B413D020EE02F0AA
:1021C0006C51D9266D51DA2201D820D00500FA6E63
:1021D000DE50FD6EDE50FE6EDE50FF6EFA50200EB9
:1021E00012006CC0D9FF6DC0DAFFDECF72F0DDCF18
:1021F00073F072C0D9FF73C0DAFF200EDF6E6CC0BF
:10220000D9FF6DC0DAFFDE2A000EDD2200019D0736
:10221000D8A09E079EBF05D09E51C5E19D05D8B0B0
:10222000C2D7A1A341D020EE02F06C51D9266D5146
:10223000DA22DE50DE10DE10D8B41DD0A1B104D0F9
:10224000000E806F2B0E03D0000E806F2D0E7F6F5F
:1022500020EE02F06C51D9266D51DA2201D8CBD094
:102260000500FA6EDE50FD6EDE50FE6EDE50FF6E33
:10227000FA507F511200A1B104D0000E826F2B0ED4
:1022800003D0000E826F2D0E816F6CC0D9FF6DC020
:10229000DAFFDECF72F0DDCF73F072C0D9FF73C00A
:1022A000DAFF81C0DFFFA0D0A1A1A5D020EE02F00F
:1022B0006C51D9266D51DA22DE50DE10DE10D8B412
:1022C00013D020EE02F06C51D9266D51DA2201D8DC
:1022D00092D00500FA6EDE50FD6EDE50FE6EDE50CE
:1022E000FF6EFA50200E12006CC0D9FF6DC0DAFFED
:1022F000DECF72F0DDCF73F072C0D9FF73C0DAFFAA
:10230000200E71D099C001F09AC002F09BC003F07A
:102310009CC004F0A351040D630EF324F66EE80E86
:10232000F420F76EF86A000EF8220900F5CF05F0E8
:102330000900F5CF06F00900F5CF07F00A00F5CF48
:1023400008F071ECDAF001C091F002C092F003C025
:1023500093F004C094F091C00EF092C00FF093C0BF
:1023600010F094C011F00A0E126E000E136E000EE3
:10237000146E000E156EF0ECDBF00EC091F00FC085
:1023800092F010C093F011C094F0000120EE02F022
:102390006C51D9266D51DA22DE50DE10DE10D8B431
:1023A00014D020EE02F06C51D9266D51DA2201D8FA
:1023B00022D00500FA6EDE50FD6EDE50FE6EDE505D
:1023C000FF6EFA509151300F12009151300F6CC0D6
:1023D000D9FF6DC0DAFFDECF72F0DDCF73F072C0CF
:1023E000D9FF73C0DAFFDF6E6CC0D9FF6DC0DAFFB2
:1023F000DE2A000EDD220001A307A329D8B438D0BD
:1024000081D720EE02F06C51D9266D51DA22DE50D0
:10241000DE10DE10D8B413D020EE02F06C51D926B5
:102420006D51DA2201D820D00500FA6EDE50FD6E23
:10243000DE50FE6EDE50FF6EFA50300E12006CC0A1
:10244000D9FF6DC0DAFFDECF72F0DDCF73F072C05E
:10245000D9FF73C0DAFF300EDF6E6CC0D9FF6DC0DC
:10246000DAFFDE2A000EDD2200018F07D8A09007D8
:1024700090BF05D09051C5E18F05D8B0C2D7A0BF9D
:1024800009D0A05104E1090E9F5DD8A003D0080E29
:10249000A36F02D09FC0A3F0A3519F5F000EA05B6B
:1024A000A351D8B433D020EE02F06C51D9266D512F
:1024B000DA22DE50DE10DE10D8B413D020EE02F0A7
:1024C0006C51D9266D51DA2201D820D00500FA6E60
:1024D000DE50FD6EDE50FE6EDE50FF6EFA502E0EA8
:1024E00012006CC0D9FF6DC0DAFFDECF72F0DDCF15
:1024F00073F072C0D9FF73C0DAFF2E0EDF6E6CC0AE
:10250000D9FF6DC0DAFFDE2A000EDD220001A351E3
:10251000AEECAFF045C076F046C077F047C078F03B
:1025200048C079F095C030F096C031F097C032F0D5
:1025300098C033F076C02CF077C02DF078C02EF024
:1025400079C02FF094ECB8F02CC04EF02DC04FF0B5
:102550002EC050F02FC051F043ECD6F04EC099F091
:102560004FC09AF050C09BF051C09CF0A3D099C0CE
:1025700001F09AC002F09BC003F09CC004F0A3518C
:10258000040D630EF324F66EE80EF420F76EF86A7D
:10259000000EF8220900F5CF05F00900F5CF06F08E
:1025A0000900F5CF07F00A00F5CF08F071ECDAF07A
:1025B00001C091F002C092F003C093F004C094F007
:1025C00091C00EF092C00FF093C010F094C011F0C3
:1025D0000A0E126E000E136E000E146E000E156EB3
:1025E000F0ECDBF00EC091F00FC092F010C093F051
:1025F00011C094F0000120EE02F06C51D9266D510B
:10260000DA22DE50DE10DE10D8B414D020EE02F054
:102610006C51D9266D51DA2201D822D00500FA6E0C
:10262000DE50FD6EDE50FE6EDE50FF6EFA509151B0
:10263000300F12009151300F6CC0D9FF6DC0DAFF1E
:10264000DECF72F0DDCF73F072C0D9FF73C0DAFF56
:10265000DF6E6CC0D9FF6DC0DAFFDE2A000EDD220E
:1026600099C00EF09AC00FF09BC010F09CC011F002
:102670000001A351040D630EF324F66EE80EF4205E
:10268000F76EF86A000EF8220900F5CF12F0090083
:10269000F5CF13F00900F5CF14F00A00F5CF15F0CF
:1026A000F0ECDBF00EC099F00FC09AF010C09BF078
:1026B00011C09CF00001A307A329D8B438D057D784
:1026C00020EE02F06C51D9266D51DA22DE50DE1078
:1026D000DE10D8B413D020EE02F06C51D9266D5123
:1026E000DA2201D820D00500FA6EDE50FD6EDE50F1
:1026F000FE6EDE50FF6EFA50300E12006CC0D9FF35
:102700006DC0DAFFDECF72F0DDCF73F072C0D9FF9B
:1027100073C0DAFF300EDF6E6CC0D9FF6DC0DAFF18
:10272000DE2A000EDD2200019F07D8A0A0079F51DE
:10273000A011D8B460D3C4D7C00EA115726F000E1B
:10274000A215736F72517311D8A441D0A1A919D0E9
:1027500070C0D9FF71C0DAFFDFCF72F0040EDE2641
:10276000DFCF73F0000EDD2272C0D9FF73C0DAFF35
:10277000DECF99F0DECF9AF0DECF9BF0DECF9CF07B
:1027800019D070C0D9FF71C0DAFFDFCF72F0020E2E
:10279000DE26DFCF73F0000EDD2272C0D9FF73C0DA
:1027A000DAFFDECF99F0DDCF9AF0000E9ABFFF0E70
:1027B0009B6F9C6F9CAF40D0030EA1139C1F9B1F6F
:1027C0009A1F996D000E9A239B239C2335D0A1A9B3
:1027D00019D070C0D9FF71C0DAFFDFCF72F0040EDC
:1027E000DE26DFCF73F0000EDD2272C0D9FF73C08A
:1027F000DAFFDECF99F0DECF9AF0DECF9BF0DECFAE
:102800009CF01AD070C0D9FF71C0DAFFDFCF72F030
:10281000020EDE26DFCF73F0000EDD2272C0D9FF7C
:1028200073C0DAFFDECF74F0DDCF75F074C099F0BD
:1028300075C09AF09B6B9C6B9F51A011D8A44BD094
:1028400099519A119B119C11D8A445D09F4BA02B54
:1028500042D0010EA36FA351040D630EF324F66E54
:10286000E80EF420F76EF86A000EF8220900F55021
:10287000995D0900F5509A590900F5509B590900D6
:10288000F5509C59D8A032D0A32B0A0EA319D8B466
:102890002DD0E1D7010EA36FA351040D430EF324F5
:1028A000F66EE50EF420F76EF86A000EF8220900C5
:1028B000F550995D0900F5509A590900F5509B595A
:1028C0000900F5509C59D8A011D0A32B080EA319CC
:1028D000D8B40CD0E1D7A151C00B000AD8B4B9D7F5
:1028E000800AD8B4D7D7400AD8B4B3D7A351726FEF
:1028F000736B9F51725D7351800A746FA051800A8F
:102900007459D8B003D09FC0A3F010D0A351726FF8
:10291000736B72519F5DA051800A746F7351800A6E
:102920007459D8B003D0A3C09FF0A06B9D519E11E5
:10293000D8B40DD0030EA115726F000EA215736FDF
:1029400072517311D8B403D09D07D8A09E07A2ADD1
:1029500013D09D519F5DA051800A726F9E51800AD5
:102960007259D8B005D09F519D5FA0519E5B04D095
:10297000000E9E6F000E9D6FA351726F736B9D5181
:10298000725D7351800A746F9E51800A7459D8B079
:1029900005D0A3519D5F000E9E5B04D0000E9E6F7C
:1029A000000E9D6FA1A5B5D0A1A341D020EE02F0ED
:1029B0006C51D9266D51DA22DE50DE10DE10D8B40B
:1029C0001DD0A1B104D0000E846F2B0E03D0000ED9
:1029D000846F2D0E836F20EE02F06C51D9266D515D
:1029E000DA2201D859D00500FA6EDE50FD6EDE50B5
:1029F000FE6EDE50FF6EFA5083511200A1B104D07A
:102A0000000E866F2B0E03D0000E866F2D0E856F85
:102A10006CC0D9FF6DC0DAFFDECF72F0DDCF73F08E
:102A200072C0D9FF73C0DAFF85C0DFFF2ED0A1A12D
:102A300033D020EE02F06C51D9266D51DA22DE50EF
:102A4000DE10DE10D8B413D020EE02F06C51D9267F
:102A50006D51DA2201D820D00500FA6EDE50FD6EED
:102A6000DE50FE6EDE50FF6EFA50200E12006CC07B
:102A7000D9FF6DC0DAFFDECF72F0DDCF73F072C028
:102A8000D9FF73C0DAFF200EDF6E6CC0D9FF6DC0B6
:102A9000DAFFDE2A000EDD2200019D519E11D8B41E
:102AA000A1D120EE02F06C51D9266D51DA22DE5010
:102AB000DE10DE10D8B413D020EE02F06C51D9260F
:102AC0006D51DA2201D820D00500FA6EDE50FD6E7D
:102AD000DE50FE6EDE50FF6EFA50300E12006CC0FB
:102AE000D9FF6DC0DAFFDECF72F0DDCF73F072C0B8
:102AF000D9FF73C0DAFF300EDF6E6CC0D9FF6DC036
:102B0000DAFFDE2A000EDD2200019D07D8A09E0715
:102B1000C4D79D519E11D8B43BD020EE02F06C5129
:102B2000D9266D51DA22DE50DE10DE10D8B413D073
:102B300020EE02F06C51D9266D51DA2201D820D056
:102B40000500FA6EDE50FD6EDE50FE6EDE50FF6E4A
:102B5000FA50200E12006CC0D9FF6DC0DAFFDECF34
:102B600072F0DDCF73F072C0D9FF73C0DAFF200EB0
:102B7000DF6E6CC0D9FF6DC0DAFFDE2A000EDD22E9
:102B800000019D07D8A09E079D519E11D8A4C5D7CE
:102B9000A1A341D020EE02F06C51D9266D51DA226A
:102BA000DE50DE10DE10D8B41DD0A1B104D0000E6E
:102BB000886F2B0E03D0000E886F2D0E876F20EECE
:102BC00002F06C51D9266D51DA2201D80BD10500E3
:102BD000FA6EDE50FD6EDE50FE6EDE50FF6EFA5075
:102BE00087511200A1B104D0000E8A6F2B0E03D0C2
:102BF000000E8A6F2D0E896F6CC0D9FF6DC0DAFF91
:102C0000DECF72F0DDCF73F072C0D9FF73C0DAFF90
:102C100089C0DFFFE0D0A1A1E5D020EE02F06C5129
:102C2000D9266D51DA22DE50DE10DE10D8B413D072
:102C300020EE02F06C51D9266D51DA2201D8D2D0A3
:102C40000500FA6EDE50FD6EDE50FE6EDE50FF6E49
:102C5000FA50200E12006CC0D9FF6DC0DAFFDECF33
:102C600072F0DDCF73F072C0D9FF73C0DAFF200EAF
:102C7000DF6EB1D09FC072F0A0C073F0D8907237F1
:102C80007337D89072377337630E7225F66EE80E7D
:102C90007321F76EF86A000EF8220900F5CF05F0EF
:102CA0000900F5CF06F00900F5CF07F00A00F5CFCF
:102CB00008F099C001F09AC002F09BC003F09CC0DC
:102CC00004F071ECDAF001C00EF002C00FF003C0A6
:102CD00010F004C011F00A0E126E000E136E000EFA
:102CE000146E000E156EF0ECDBF00E50300F00018C
:102CF000A36F45D099C001F09AC002F09BC003F0C9
:102D00009CC004F09FC072F0A0C073F0D8907237DE
:102D10007337D89072377337430E7225F66EE50E0F
:102D20007321F76EF86A000EF8220900F5CF05F05E
:102D30000900F5CF06F00900F5CF07F00A00F5CF3E
:102D400008F071ECDAF001500F0B00017A6F1F0EE2
:102D50007A25F66EF76AFB0EF722F86A000EF82263
:102D60000800F5CFA3F00BD0A151C00B000AD8B4D6
:102D700081D7800AD8B4BED7400AD8B47BD720EE1A
:102D800002F06C51D9266D51DA22DE50DE10DE10D1
:102D9000D8B413D020EE02F06C51D9266D51DA224E
:102DA00001D820D00500FA6EDE50FD6EDE50FE6EBA
:102DB000DE50FF6EFA50A35112006CC0D9FF6DC0F7
:102DC000DAFFDECF72F0DDCF73F072C0D9FF73C0CF
:102DD000DAFFA3C0DFFF6CC0D9FF6DC0DAFFDE2AC7
:102DE000000EDD2200019F07D8A0A0079F29BCE1AB
:102DF000A029D8A4B9D700016E51726F6F51736FBB
:102E00006E4B6F2B72C0F6FF73C0F7FF000EF86EAB
:102E10000E0EF76403D00800F55005D0F6CFE9FF99
:102E2000F7CFEAFFEF500001A36FA351D8A494EFAE
:102E30008BF0000E6D6F000E6C6F1200DAEF9FF0DA
:102E4000000ED66F000E036F030E046F470E056F62
:102E5000FC0E066F7BECDEF0110E0201036F030E19
:102E6000046F820E056FFB0E066F7BECDEF0220E08
:102E70000201036F030E046F720E056FFB0E066FE7
:102E80007BECDEF0330E0201036F030E046FFF5183
:102E900037ECE2F000C205F201C206F27BECDEF094
:102EA00063ECD0F0010E0201D76F030E0001FB6F3F
:102EB0001200000ED66F000E036F030E046FE60EB5
:102EC000056FFD0E066F7BECDEF0D10E0201906FF8
:102ED000030E916F9F0E926FFF0E936FF9ECE3F06C
:102EE0000BC294F20CC295F29FECDEF0110E0201BF
:102EF000036F030E046FD10E056F030E066F7BEC9C
:102F0000DEF0220E0201036F030E046FE10E056F67
:102F1000FC0E066F7BECDEF0E20E0201906F030EFA
:102F2000916F710E926FFF0E936FF6ECE0F002015D
:102F3000B96F410EB925946F956B000E95234DEC3A
:102F4000E3F00201BA6FBA51966F976B9FECDEF017
:102F5000330E0201036F030E046FE20E056F030EC2
:102F6000066F7BECDEF063ECD0F0020E9CD7000E17
:102F7000D66F000E036F030E046F620E056FFB0E1B
:102F8000066F7BECDEF0110E0201036F030E046F7F
:102F9000740E056FFE0E066F7BECDEF0220E020152
:102FA000036F030E046F920E056FFB0E066F7BEC32
:102FB000DEF0330E0201036F030E046FFE0E056F89
:102FC000FB0E066F7BECDEF063ECD0F0030E6BD7EC
:102FD000000ED66F000E036F030E046FA90E056F6F
:102FE000FC0E066F7BECDEF0110E0201036F030E88
:102FF000046FF10E056FFD0E066F7BECDEF0220E06
:103000000201036F030E046FB70E056FFC0E066F0F
:103010007BECDEF0330E0201036F030E046F520EE1
:10302000056FFB0E066F7BECDEF063ECD0F0040E58
:103030003AD7000ED66F000E036F030E046FE00E3A
:10304000056FFB0E066F7BECDEF0110E0201036FC5
:10305000030E046FAA0E056FFD0E066F7BECDEF00B
:10306000220E0201036F030E046FB0ECDCF000C20D
:1030700005F201C206F27BECDEF0330E0201036FB3
:10308000030E046FAA0E056FFD0E066F7BECDEF0DB
:1030900063ECD0F0040E0201D76F010E0001FB6F4C
:1030A0001200000ED66F000E036F030E046F550E54
:1030B000056FFC0E066F7BECDEF0110E0201906FC7
:1030C000030E916F520E926FFF0E936FE9C094F250
:1030D000EAC095F2EBC096F2ECC097F29FECDEF0FE
:1030E000220E0201036F030E046FAA0E056FFD0E80
:1030F000066F7BECDEF0330E0201036F030E046FEC
:10310000AA0E056FFD0E066F7BECDEF063ECD0F0CF
:10311000050EC1D7000ED66F000E036F030E046FAD
:10312000EE0E056FFC0E066F7BECDEF0110E020159
:10313000906F030E916F520E926FFF0E936FE5C06A
:1031400094F2E6C095F2E7C096F2E8C097F29FECE1
:10315000DEF0220E0201036F030E046FAA0E056F4C
:10316000FD0E066F7BECDEF0330E0201036F030EE3
:10317000046FAA0E056FFD0E066F7BECDEF063ECAC
:10318000D0F0060E88D7000ED66F000E036F030E28
:10319000046F9B0E056FFC0E066F7BECDEF0110ECC
:1031A0000201906F030E916F420E926FFF0E936FAC
:1031B000EDC094F2EEC095F2EFC096F2F0C097F237
:1031C0009FECDEF0220E0201036F030E046FAA0EC5
:1031D000056FFD0E066F7BECDEF0330E0201036F10
:1031E000030E046FAA0E056FFD0E066F7BECDEF07A
:1031F00063ECD0F0070E4FD7000ED66F000E036FB2
:10320000030E046F880E056FFD0E066F7BECDEF07B
:103210000201D251D311D411D511D8A40BD0110E63
:10322000036F030E046F220E056FFD0E066F7BEC1D
:10323000DEF012D0110E906F030E916F420E926F5E
:10324000FF0E936FF1C094F2F2C095F2F3C096F2C4
:10325000F4C097F29FECDEF0220E0201036F030E22
:10326000046FAA0E056FFD0E066F7BECDEF0330EC9
:103270000201036F030E046FAA0E056FFD0E066FA9
:103280007BECDEF063ECD0F0080E05D7000ED66FB5
:10329000000E036F030E046F150E056FFD0E066F13
:1032A0007BECDEF0110E0201906F030E916F5A0E4F
:1032B000926FFF0E936FBEC294F2BFC295F2C0C26E
:1032C00096F2C1C297F29FECDEF0220E0201036F6C
:1032D000030E046FAA0E056FFD0E066F7BECDEF089
:1032E000330E0201036F030E046FAA0E056FFD0E6D
:1032F000066F7BECDEF063ECD0F0090ECCD6000E4E
:10330000D66F000E036F030E046F8D0E056FFC0E5B
:10331000066F7BECDEF00201D251D311D411D5112E
:10332000D8A40BD0110E036F030E046F220E056F8D
:10333000FD0E066F7BECDEF012D0110E906F030EC7
:10334000916F5A0E926FFF0E936FC2C294F2C3C276
:1033500095F2C4C296F2C5C297F29FECDEF0220E3F
:103360000201036F030E046FAA0E056FFD0E066FB8
:103370007BECDEF0330E0201036F030E046FAA0E26
:10338000056FFD0E066F7BECDEF063ECD0F00A0EED
:1033900082D6000ED66F000E036F030E046F940EDC
:1033A000056FFD0E066F7BECDEF00201D251D311EA
:1033B000D411D511D8A40BD0110E036F030E046FD6
:1033C000220E056FFD0E066F7BECDEF012D0110EA3
:1033D000906F030E916FFB0E926FFE0E936FC6C23D
:1033E00094F2C7C295F2C8C296F2C9C297F29FEC96
:1033F000DEF0220E0201036F030E046FAA0E056FAA
:10340000FD0E066F7BECDEF0330E0201036F030E40
:10341000046FAA0E056FFD0E066F7BECDEF063EC09
:10342000D0F00B0E38D6000ED66F000E036F030ED1
:10343000046F040E056FFF0E066F7BECDEF0110EBD
:103440000201906F030E916F4A0E926FFF0E936F01
:10345000DBC294F2DCC295F2DDC296F2DEC297F2D4
:103460009FECDEF0220E0201036F030E046FAA0E22
:10347000056FFD0E066F7BECDEF0330E0201036F6D
:10348000030E046FAA0E056FFD0E066F7BECDEF0D7
:1034900063ECD0F00F0EFFD5000ED66F000E036F59
:1034A000030E046F6A0E056FFE0E066F7BECDEF0F6
:1034B000110E0201906F030E916F4A0E926FFF0E74
:1034C000936FDFC294F2E0C295F2E1C296F2E2C2DB
:1034D00097F29FECDEF0220E0201036F030E046FE1
:1034E000AA0E056FFD0E066F7BECDEF0330E0201B7
:1034F000036F030E046FAA0E056FFD0E066F7BECC3
:10350000DEF063ECD0F0100EC6D5000ED66F000EC4
:10351000036F030E046F710E056FFC0E066F7BECDC
:10352000DEF0110E0201906F030E916F4A0E926F42
:10353000FF0E936FE3C294F2E4C295F2E5C296F2F5
:10354000E6C297F29FECDEF0220E0201036F030E3B
:10355000046FAA0E056FFD0E066F7BECDEF0330ED6
:103560000201036F030E046FAA0E056FFD0E066FB6
:103570007BECDEF063ECD0F0110E8DD5000ED66F33
:10358000000E036F030E046F7C0E056FFD0E066FB9
:103590007BECDEF0110E0201906F030E916F4A0E6C
:1035A000926FFF0E936FF5C094F2F6C095F2F7C0DC
:1035B00096F2F8C097F29FECDEF0220E0201036F44
:1035C000030E046FAA0E056FFD0E066F7BECDEF096
:1035D000330E0201036F030E046FAA0E056FFD0E7A
:1035E000066F7BECDEF063ECD0F0120E54D5000ECB
:1035F000D66F000E036F030E046F7F0E056FFC0E77
:10360000066F7BECDEF001018F51D8B404D0030EBD
:103610008F19D8A40CD0110E0201036F030E046F92
:10362000FC0E056FFD0E066F7BECDEF00BD0110E6D
:103630000201036F030E046F1F0E056FFF0E066F6E
:103640007BECDEF0220E0201036F030E046FAA0E64
:10365000056FFD0E066F7BECDEF0330E0201036F8B
:10366000030E046FAA0E056FFD0E066F7BECDEF0F5
:1036700063ECD0F0130E0FD5000ED66F000E036F63
:10368000030E046F080E056FFD0E066F7BECDEF077
:1036900001018F51D8B404D0030E8F19D8A40CD0D7
:1036A000110E0201036F030E046FFC0E056FFD0E79
:1036B000066F7BECDEF01DD068C1A3F269C1A4F2F5
:1036C0006AC1A5F26BC1A6F2FBECA4F0A3C2F3F3AE
:1036D000A4C2F4F3110E0201906F030E916FA40EB9
:1036E000926FFF0E936FF3C394F2F4C395F29FECC5
:1036F000DEF0220E0201036F030E046FAA0E056FA7
:10370000FD0E066F7BECDEF0330E0201036F030E3D
:10371000046FAA0E056FFD0E066F7BECDEF063EC06
:10372000D0F0140EB8D4000ED66F000E036F030E47
:10373000046F630E056FFC0E066F7BECDEF0800EEF
:103740000001C55D330EC659E10EC759010EC859B7
:10375000D8A04FD0110E0201906F030E916F0D0E85
:10376000926FFF0E936FC5C00DF2C6C00EF2C7C0B8
:103770000FF2C8C010F21FECE2F00201B96FB951AC
:10378000946F956B9FECDEF0220E0201906F030E9A
:10379000916F620E926FFF0E936FC5C00DF2C6C09F
:1037A0000EF2C7C00FF2C8C010F2D7ECD8F0020179
:1037B000B96FB951946F956B9FECDEF0330E020137
:1037C000906F030E916F160E926FFF0E936FC5C030
:1037D0000DF2C6C00EF2C7C00FF2C8C010F261EC05
:1037E000D3F00201B96FB951946F956B9FECDEF085
:1037F00029D1C85108E1800EC55D510EC659010E90
:10380000C759D8A04FD0110E0201906F030E916FCF
:10381000620E926FFF0E936FC5C00DF2C6C00EF21E
:10382000C7C00FF2C8C010F2D7ECD8F00201B96FD0
:10383000B951946F956B9FECDEF0220E0201906FF0
:10384000030E916F160E926FFF0E936FC5C00DF2AF
:10385000C6C00EF2C7C00FF2C8C010F261ECD3F0C0
:103860000201B96FB951946F956B9FECDEF0330E86
:103870000201906F030E916F120E926FFE0E936F06
:10388000C5C00DF2C6C00EF2C7C00FF2C8C010F21C
:10389000D7ECCDF00201B96FB951946F956B9FECE5
:1038A000DEF0D0D0C851C71106E1100EC55D0E0E76
:1038B000C659D8A04FD0110E0201906F030E916F20
:1038C000160E926FFF0E936FC5C00DF2C6C00EF2BA
:1038D000C7C00FF2C8C010F261ECD3F00201B96F9B
:1038E000B951946F956B9FECDEF0220E0201906F40
:1038F000030E916F120E926FFE0E936FC5C00DF204
:10390000C6C00EF2C7C00FF2C8C010F2D7ECCDF09F
:103910000201B96FB951946F956B9FECDEF0330ED5
:103920000201906F030E916F070E926FFE0E936F60
:10393000C5C00DF2C6C00EF2C7C00FF2C8C010F26B
:103940006BECCCF00201B96FB951946F956B9FECA1
:10395000DEF078D0C851C711C61104E13C0EC55D38
:10396000D8A040D0110E0201906F030E916F120E7D
:10397000926FFE0E936FC5C00DF2C6C00EF2C7C0A7
:103980000FF2C8C010F2D7ECCDF00201B96FB951F7
:10399000946F956B9FECDEF0220E0201906F030E88
:1039A000916F070E926FFE0E936FC5C00DF2C6C0E9
:1039B0000EF2C7C00FF2C8C010F26BECCCF00201DF
:1039C000B96FB951946F956B9FECDEF0330E020125
:1039D000036F030E046FAA0E056FFD0E066F7BECDE
:1039E000DEF030D0110E0201906F030E916F070EC2
:1039F000926FFE0E936FC5C00DF2C6C00EF2C7C027
:103A00000FF2C8C010F26BECCCF00201B96FB951E3
:103A1000946F956B9FECDEF0220E0201036F030E94
:103A2000046FAA0E056FFD0E066F7BECDEF0330E01
:103A30000201036F030E046FAA0E056FFD0E066FE1
:103A40007BECDEF063ECD0F0150E4BEF98F0000E3F
:103A5000D66F000E036F030E046FFB0E056FFC0E96
:103A6000066F7BECDEF00201D551D41106E1100E99
:103A7000D25D0E0ED359D8A04ED0110E906F030E0A
:103A8000916F160E926FFF0E936FD2C20DF2D3C2DA
:103A90000EF2D4C20FF2D5C210F261ECD3F00201E3
:103AA000B96FB951946F956B9FECDEF0220E020155
:103AB000906F030E916F120E926FFE0E936FD2C233
:103AC0000DF2D3C20EF2D4C20FF2D5C210F2D7EC6F
:103AD000CDF00201B96FB951946F956B9FECDEF098
:103AE000330E0201906F030E916F070E926FFE0E60
:103AF000936FD2C20DF2D3C20EF2D4C20FF2D5C26E
:103B000010F26BECCCF00201B96FB951946F956B68
:103B10009FECDEF09DD0D551D411D31104E13C0EC1
:103B2000D25DD8A03FD0110E906F030E916F120E90
:103B3000926FFE0E936FD2C20DF2D3C20EF2D4C2B8
:103B40000FF2D5C210F2D7ECCDF00201B96FB95126
:103B5000946F956B9FECDEF0220E0201906F030EC6
:103B6000916F070E926FFE0E936FD2C20DF2D3C209
:103B70000EF2D4C20FF2D5C210F26BECCCF00201FF
:103B8000B96FB951946F956B9FECDEF0330E020163
:103B9000036F030E046FAA0E056FFD0E066F7BEC1C
:103BA000DEF056D0D251D311D411D511D8A421D0E2
:103BB000110E036F030E046F220E056FFD0E066FCC
:103BC0007BECDEF0220E0201036F030E046FAA0EDF
:103BD000056FFD0E066F7BECDEF0330E0201036F06
:103BE000030E046FAA0E056FFD0E066F7BECDEF070
:103BF0002FD0110E906F030E916F070E926FFE0E75
:103C0000936FD2C20DF2D3C20EF2D4C20FF2D5C25C
:103C100010F26BECCCF00201B96FB951946F956B57
:103C20009FECDEF0220E0201036F030E046FAA0E5A
:103C3000056FFD0E066F7BECDEF0330E0201036FA5
:103C4000030E046FAA0E056FFD0E066F7BECDEF00F
:103C500063ECD0F00C0E4BEF98F0000ED66F000E18
:103C6000036F030E046FD10E056FFB0E066F7BEC26
:103C7000DEF00201D251D311D411D511D8A40BD04A
:103C8000110E036F030E046F220E056FFD0E066FFB
:103C90007BECDEF01DD0CAC2A3F2CBC2A4F2CCC230
:103CA000A5F2CDC2A6F2FBECA4F0A3C2F3F3A4C22A
:103CB000F4F3110E0201906F030E916FBF0E926F1D
:103CC000FF0E936FF3C394F2F4C395F29FECDEF012
:103CD000220E0201036F030E046FAA0E056FFD0E84
:103CE000066F7BECDEF0330E0201036F030E046FF0
:103CF000AA0E056FFD0E066F7BECDEF063ECD0F0D4
:103D00000D0E4BEF98F0000ED66F000E036F030EF2
:103D1000046FEF0E056FFB0E066F7BECDEF0020109
:103D2000D251D311D411D511D8A40BD0110E036FD9
:103D3000030E046F220E056FFD0E066F7BECDEF0A6
:103D40001DD0CEC2A3F2CFC2A4F2D0C2A5F2D1C27E
:103D5000A6F2FBECA4F0A3C2F3F3A4C2F4F3110E99
:103D60000201906F030E916FC30E926FFF0E936F5F
:103D7000F3C394F2F4C395F29FECDEF0220E02013D
:103D8000036F030E046FAA0E056FFD0E066F7BEC2A
:103D9000DEF0330E0201036F030E046FAA0E056FEF
:103DA000FD0E066F7BECDEF063ECD0F00E0E4BEFF9
:103DB00098F0000ED66F000E036F030E046F720EA4
:103DC000056FFB0E066F7BECDEF0110E0201036F38
:103DD000030E046FAA0E056FFD0E066F7BECDEF07E
:103DE000220E0201036F030E046FFF5137ECE2F065
:103DF00000C205F201C206F27BECDEF0330E0201D6
:103E0000036F030E046FAA0E056FFD0E066F7BECA9
:103E1000DEF063ECD0F0160E0201D76F0001FB69F3
:103E20001200000ED66F000E036F030E046FE60E35
:103E3000056FFD0E066F7BECDEF0D10E0201906F78
:103E4000030E916F9F0E926FFF0E936FF9ECE3F0EC
:103E50000BC294F20CC295F29FECDEF0110E02013F
:103E6000036F030E046FD10E056F030E066F7BEC1C
:103E7000DEF0220E0201036F030E046FE10E056FE8
:103E8000FC0E066F7BECDEF0E20E0201906F030E7B
:103E9000916F710E926FFF0E936FF6ECE0F00201DE
:103EA000B96F410EB925946F956B000E95234DECBB
:103EB000E3F00201BA6FBA51966F976B9FECDEF098
:103EC000330E0201036F030E046FE20E056F030E43
:103ED000066F7BECDEF063ECD0F0170E9DD7000E82
:103EE000D66F000E036F030E046F620E056FFB0E9C
:103EF000066F7BECDEF0110E0201036F030E046F00
:103F0000740E056FFE0E066F7BECDEF0220E0201D2
