:020000040000FA
:0400000051EF00F0CC
:060008005F82B2EFE3F09D
:100018005F80D8CF5CF1E8CF5DF1E0CF5EF1FACF39
:100028005FF1FBCF60F1D9CF61F1DACF62F1F3CFA5
:1000380063F1F4CF64F10E01C6B3CEA303D069EC2B
:10004800F3F017D0C5B7CDA703D038ECF6F011D030
:10005800C5B5CDA503D04BECD6F00BD0C6B5CEA513
:1000680003D012ECF2F005D0C8B3D0A302D01EEC36
:10007800F5F064C1F4FF63C1F3FF62C1DAFF61C147
:10008800D9FF60C1FBFF5FC1FAFF5EC1E0FF5DC140
:0E009800E8FF5CC1D8FF5F901000C7EFE7F0F3
:10D77800000000803F000020410000C84200007AFD
:10D788004400401C460050C3470024744980961842
:10D798004B20BCBE4C286B6E4EF9021550EC78AD90
:10D7A80060CAF249710000803FCDCCCC3D0AD72336
:10D7B8003C6F12833A17B7D138ACC52737BD3786C7
:10D7C8003595BFD63377CC2B325F708930FFE6DBD7
:10D7D8002E08E53C1E6042A20D010000001000006A
:10D7E800000001000000100000000001000000100F
:10D7F8000000000001000000100000000000000010
:10D808000000005F000000000000000700070000A3
:10D818000000147F147F14000000242A7F2A1200BD
:10D8280000002313086462000000364955225000A6
:10D83800000000050300000000001C224100000059
:10D84800000041221C0000000000082A1C2A0800D1
:10D85800000008083E0808000000A0600000000062
:10D8680000000808080808000000606000000000C8
:10D87800000020100804020000003E5149453E0007
:10D88800000000427F400000000062514949460004
:10D89800000022414949360000001814127F100088
:10D8A800000027454545390000003C4A49493000F9
:10D8B8000000017109050300000036494949360096
:10D8C8000000064949291E00000000363600000005
:10D8D800000000AC6C0000000000081422410000A9
:10D8E800000014141414140000004122140800004D
:10D8F80000000201510906000000324979413E004A
:10D9080000007E0909097E0000007F494949360068
:10D9180000003E414141220000007F4141221C009D
:10D9280000007F494949410000007F0909090100B9
:10D9380000003E414151720000007F0808087F0046
:10D948000000417F4100000000002040413F0100ED
:10D9580000007F081422410000007F404040400042
:10D9680000007F020C027F0000007F0408107F0087
:10D9780000003E4141413E0000007F0909090600C0
:10D9880000003E4151215E0000007F091929460030
:10D998000000264949493200000001017F010100C9
:10D9A80000003F4040403F0000001F2040201F0073
:10D9B80000003F4038403F00000063140814630033
:10D9C8000000030478040300000061514945430046
:10D9D80000007F4141000000000002040810200000
:10D9E800000041417F000000000004020102040021
:10D9F8000000808080808000000001020400000098
:10DA0800000020545454780000007F4844443800F3
:10DA180000003844442800000000384444487F008F
:10DA280000003854545418000000087E0902000011
:10DA3800000018A4A4A47C0000007F080404780057
:10DA48000000007D00000000000080847D000000D0
:10DA580000007F10284400000000417F40000000C3
:10DA680000007C041804780000007C08047C000096
:10DA780000003844443800000000FC24241800004A
:10DA88000000182424FC00000000007C08040000AA
:10DA980000004854542400000000047F44000000A3
:10DAA80000003C40407C000000001C2040201C007E
:10DAB80000003C4030403C0000004428102844004E
:10DAC80000001CA0A07C000000004464544C4400EA
:10DAD80000000836410000000000007F0000000040
:10DAE80000004136080000000000020101020100A8
:10DAF800000002050502000000010000000A000005
:10DB08000064000000E803000010270000A0860160
:10DB18000040420F008096980000E1F50500CA9A7F
:10DB28003BB80EBC43202020202A49444E3F3A20CF
:10DB38005072696E7473206964656E74696669638E
:10DB48006174696F6E20737472696E670A0D2020A4
:10DB5800202052657365743A20457865637574654D
:10DB68007320736F6674776172652072657365746C
:10DB780020696E737472756374696F6E0A0D202064
:10DB88002020436C6561723A20436C656172732092
:10DB9800746865207669727475616C20434F4D20F6
:10DBA800706F7274207465726D696E616C0A0D20F5
:10DBB80020202043757272656E74204D65617375FF
:10DBC80072656D656E74733F3A205072696E747336
:10DBD80020696E7374616E74616E656F75732073FE
:10DBE800797374656D206C6576656C20656C65630A
:10DBF80074726963616C206D6561737572656D65BA
:10DC08006E74730A0D202020204D6178204D6561C7
:10DC1800737572656D656E74733F3A205072696EE4
:10DC2800747320746865206D6178696D756D2072F4
:10DC380065636F726465642073797374656D206CB5
:10DC48006576656C20656C656374726963616C20C8
:10DC58006D6561737572656D656E74730A0D20204C
:10DC680020204D696E204D6561737572656D656E16
:10DC780074733F3A205072696E747320746865201B
:10DC88006D696E696D756D207265636F7264656428
:10DC98002073797374656D206C6576656C20656C8E
:10DCA800656374726963616C206D65617375726513
:10DCB8006D656E74730A0D20202020436C656172B7
:10DCC800204D6561737572656D656E742045787455
:10DCD80072656D65733A20636C65617273206D655A
:10DCE80061737572656D656E74206D696E20616E05
:10DCF80064206D61782076616C7565732C20616E87
:10DD080064207265736574732076616C7565732021
:10DD1800696E20454550524F4D0A0D202020204560
:10DD28006E61626C65204C697665204D656173751E
:10DD380072656D656E74733A205072696E747320E3
:10DD48006120636F6E74696E756F7573207374727A
:10DD580065616D206F66206D6561737572656D65AF
:10DD68006E74206461746120746F20746865207417
:10DD780065726D696E616C0A0D202020204D435537
:10DD8800205374617475733F3A205072696E7473CE
:10DD9800206469676974616C206D6F6E69746F7255
:10DDA800696E67206D6963726F636F6E74726F6CF2
:10DDB8006C65722064657669636520737461747537
:10DDC800730A0D202020204572726F7220537461EF
:10DDD8007475733F205072696E7473206966206190
:10DDE8006E792073797374656D206661756C7473D0
:10DDF8002068617665206265656E20646574656378
:10DE08007465640A0D20202020436C6561722055DA
:10DE1800415254204572726F72733A20436C6561A7
:10DE280072732055415254206572726F7220666C6D
:10DE38006167730A0D20202020436C6561722049B8
:10DE48003243204572726F72733A20436C65617277
:10DE58007320493243206572726F7220666C616765
:10DE6800730A0D20202020436C65617220414443D1
:10DE7800204572726F72733A20436C656172732029
:10DE8800414443206572726F7220666C6167730A41
:10DE98000D2020202048656C703A204C69737473FB
:10DEA80020617661696C61626C6520636F6D6D617C
:10DEB8006E647320287468697320636F6D6D616E7A
:10DEC80064290A0D002020202020202020496E747B
:10DED80065726E616C20466978656420566F6C7453
:10DEE800616765205265666572656E6365202846C0
:10DEF800565229204275666665722031206D65612B
:10DF0800737572656420617320252B2E3366205645
:10DF18006F6C74732C2063616C69627261746564E0
:10DF280020666F72202B342E30393620566F6C7471
:10DF3800731B5B4B0A0D00202020204E6F206C6F56
:10DF480061642070726573656E742C2070726576DA
:10DF5800696F75736C79207265636F72646564208C
:10DF68006D6178696D756D2063686172676520639E
:10DF78006F6E73756D65642062792061206C6F61C6
:10DF880064206973202573436F756C6F6D62731B12
:10DF98005B4B0A0D0A0D00202020204E6F206C6F6D
:10DFA80061642070726573656E742C20707265767A
:10DFB800696F75736C79207265636F72646564202C
:10DFC8006D6178696D756D20656E6572677920631E
:10DFD8006F6E73756D65642062792061206C6F6166
:10DFE800642069732025734A6F756C65731B5B4BDE
:10DFF8000A0D0A0D00436F6D6D616E6473206172C6
:10E008006520636173652073656E736974697665ED
:10E018002C206261636B7370616365206973207380
:10E028007570706F727465642C20636F6D6D616EAE
:10E038006420686973746F7279206973206E6F74D5
:10E0480020737570706F727465640A0D002020204B
:10E05800204D6178696D756D204368617267652030
:10E06800636F6E73756D65642062792074686520CE
:10E078006C6F6164207768696C652063686172679A
:10E08800696E673A202573436F756C6F6D62731BF9
:10E098005B4B0A0D1B5B4B0A0D00202020204D61B5
:10E0A80078696D756D20456E6572677920636F6E4E
:10E0B80073756D656420627920746865206C6F6182
:10E0C80064207768696C65206368617267696E6748
:10E0D8003A2025734A6F756C65731B5B4B0A0D1BE1
:10E0E8005B4B0A0D0020202020202020204D696E47
:10E0F800696D756D20576972656C657373204F750E
:10E108007470757420506F7765722063616C6375E5
:10E118006C6174656420617320252B2E336620574B
:10E12800617474731B5B4B0A0D1B5B4B0A0D00205B
:10E13800202020202020204D6178696D756D2057A2
:10E148006972656C657373204F75747075742050AF
:10E158006F7765722063616C63756C6174656420A8
:10E16800617320252B2E33662057617474731B5BF3
:10E178004B0A0D1B5B4B0A0D00202020202020207D
:10E1880020415653532028416E616C6F67204772B7
:10E198006F756E64205265666572656E63652920C9
:10E1A8006D6561737572656420617320252B2E334C
:10E1B8006620566F6C74731B5B4B0A0D1B5B4B0A16
:10E1C8000D0020202020202020204D696E696D75CB
:10E1D8006D204D6963726F636F6E74726F6C6C65DE
:10E1E80072204469652054656D706572617475723A
:10E1F80065206D6561737572656420617320252BD8
:10E208002E336620431B5B4B0A0D00202020202064
:10E218002020204D6178696D756D204D6963726F9E
:10E22800636F6E74726F6C6C6572204469652054FC
:10E23800656D7065726174757265206D6561737561
:10E2480072656420617320252B2E336620431B5B87
:10E258004B0A0D00202020202020202043757272B8
:10E26800656E7420514920537769746368696E67D5
:10E27800204672657175656E6379206D6561737589
:10E2880072656420617320252B2E3366206B487AD3
:10E298001B5B4B0A0D1B5B4B0A0D00202020202026
:10E2A8002020204D696E696D756D20514920636F7E
:10E2B8006E7665727465722063757272656E74200D
:10E2C8006D6561737572656420617320252B2E332B
:10E2D8006620416D70731B5B4B0A0D1B5B4B0A0D6F
:10E2E8000020202020202020204D6178696D756D48
:10E2F80020514920636F6E7665727465722063756C
:10E308007272656E74206D656173757265642061E3
:10E318007320252B2E336620416D70731B5B4B0ACF
:10E328000D1B5B4B0A0D00202020202020204D696A
:10E338006E696D756D2051492053776974636869FA
:10E348006E67204672657175656E6379206D6561CB
:10E35800737572656420617320252B2E3366206BDC
:10E36800487A1B5B4B0A0D1B5B4B0A0D00202020D3
:10E37800202020204D6178696D756D20514920530A
:10E388007769746368696E67204672657175656E32
:10E398006379206D656173757265642061732025EA
:10E3A8002B2E3366206B487A1B5B4B0A0D1B5B4B8D
:10E3B8000A0D0020202020202020204D696E696D44
:10E3C800756D20456C656374726963616C20496E74
:10E3D80070757420506F7765722063616C63756C1B
:10E3E8006174656420617320252B2E336620576184
:10E3F8007474731B5B4B0A0D002020202020202002
:10E40800204D6178696D756D20456C65637472691E
:10E4180063616C20496E70757420506F7765722047
:10E4280063616C63756C6174656420617320252B6E
:10E438002E33662057617474731B5B4B0A0D0020E2
:10E4480020202043686172676520636F6E73756D65
:10E45800656420627920746865206C6F6164207738
:10E4680068696C65206368617267696E673A202520
:10E4780073436F756C6F6D62731B5B4B0A0D1B5B8F
:10E488004B0A0D0020202020202020204E6F206CD9
:10E498006F61642070726573656E742C206E6F20D6
:10E4A80065666665637469766520776972656C650B
:10E4B8007373206F757470757420706F7765721B35
:10E4C8005B4B0A0D0A0D0020202020456E657267FF
:10E4D8007920636F6E73756D656420627920746846
:10E4E80065206C6F6164207768696C65206368617A
:10E4F8007267696E673A2025734A6F756C65731B7E
:10E508005B4B0A0D1B5B4B0A0D00202020202020AE
:10E5180020204D696E696D756D202B355620436F2F
:10E528006E7665727465722054656D70657261747B
:10E53800757265206D6561737572656420617320FD
:10E54800252B2E336620431B5B4B0A0D0020202011
:10E5580020202020204D6178696D756D202B35565F
:10E5680020436F6E7665727465722054656D7065B0
:10E57800726174757265206D65617375726564206A
:10E58800617320252B2E336620431B5B4B0A0D003D
:10E59800202020202020202043757272656E742070
:10E5A8002B355620537769746368696E6720467205
:10E5B800657175656E6379206D65617375726564E3
:10E5C80020617320252B2E3166204D487A1B5B4B2A
:10E5D8000A0D0020202020202020204D696E696D22
:10E5E800756D20416D6269656E742054656D706546
:10E5F800726174757265206D6561737572656420EA
:10E60800617320252B2E336620431B5B4B0A0D1BA1
:10E618005B4B0A0D0020202020202020204D61780F
:10E62800696D756D20416D6269656E742054656D04
:10E638007065726174757265206D65617375726558
:10E648006420617320252B2E336620431B5B4B0A05
:10E658000D1B5B4B0A0D0020202020202020205776
:10E668006972656C657373204F757470757420508A
:10E678006F7765722063616C63756C617465642083
:10E68800617320252B2E33662057617474731B5BCE
:10E698004B0A0D1B5B4B0A0D002020202020202058
:10E6A800204D696E696D756D20514920436F6E76F6
:10E6B80065727465722054656D70657261747572E7
:10E6C80065206D6561737572656420617320252B03
:10E6D8002E336620431B5B4B0A0D00202020202090
:10E6E8002020204D6178696D756D20514920436F58
:10E6F8006E7665727465722054656D7065726174AA
:10E70800757265206D65617375726564206173202B
:10E71800252B2E336620431B5B4B0A0D002020203F
:10E7280020202020204D6963726F636F6E74726FB2
:10E738006C6C6572204469652054656D7065726102
:10E748007475726520657374696D617465642061A0
:10E758007320252B2E336620431B5B4B0A0D0020AC
:10E76800202020514920776972656C657373207089
:10E778006F77657220636F6E766572746572206854
:10E7880061732066756C6C79206368617267656473
:10E79800206C6F61641B5B4B0A0D1B5B4B0A0D0001
:10E7A800436C656172696E67206D6561737572652A
:10E7B8006D656E74206D696E696D756D7320616E1F
:10E7C80064206D6178696D756D732066726F6D2058
:10E7D80052414D20616E6420454550524F4D0A0DFF
:10E7E8000020202020546865206361757365206FC0
:10E7F8006620746865206D6F737420726563656E3A
:10E8080074206D6963726F636F6E74726F6C6C6580
:10E8180072207265736574207761733A2025730AD4
:10E828000D002020202043616C6C2027436C65611B
:10E83800722055415254204572726F7273272074AA
:10E848006F20636C65617220636F6D6D756E6963AF
:10E858006174696F6E73206572726F722873290A0A
:10E868000D002020202043616C6C2027436C6561DB
:10E878007220493243204572726F72732720746F79
:10E8880020636C65617220636F6D6D756E6963617D
:10E8980074696F6E73206572726F722873290A0D1E
:10E8A8000020202020202020204D696E696D756D84
:10E8B800202B31325620696E707574206375727220
:10E8C800656E74206D65617375726564206173206F
:10E8D800252B2E336620416D70731B5B4B0A0D0090
:10E8E80020202020202020204D6178696D756D2022
:10E8F8002B31325620696E7075742063757272659B
:10E908006E74206D6561737572656420617320256E
:10E918002B2E336620416D70731B5B4B0A0D002054
:10E9280020202020202020514920636F6E766572B8
:10E938007465722063757272656E74206D6561739B
:10E948007572656420617320252B2E336620416D16
:10E9580070731B5B4B0A0D1B5B4B0A0D00202020BC
:10E968002020202020456C656374726963616C20E7
:10E97800496E70757420506F7765722063616C639F
:10E98800756C6174656420617320252B2E336620B5
:10E9980057617474731B5B4B0A0D002020202044C0
:10E9A80065766963652073696C69636F6E2072654B
:10E9B800766973696F6E204944207265747269655F
:10E9C8007665642066726F6D20666C6173683A20A4
:10E9D8002563253033640A0D0053797374656D20FF
:10E9E800706172616D657465727320616E64206117
:10E9F800666669726D617469766520726573706F99
:10EA08006E7365732061707065617220696E20672E
:10EA18007265656E0A0D0020202020546865206606
:10EA28006F6C6C6F77696E67205573657220494407
:10EA3800732068617665206265656E207265747200
:10EA480069657665642066726F6D20666C617368AF
:10EA58003A0A0D00202020204D696E696D756D20E1
:10EA680053797374656D20456666696369656E637D
:10EA7800792063616C63756C6174656420617320CF
:10EA8800252E336625251B5B4B0A0D1B5B4B0A0D98
:10EA980000202020204D6178696D756D20537973B1
:10EAA80074656D20456666696369656E6379206380
:10EAB800616C63756C6174656420617320252E3305
:10EAC8006625251B5B4B0A0D1B5B4B0A0D0046692F
:10EAD8006E69736865642074657374206D657373FB
:10EAE8006167652C2074797065202748656C7027EC
:10EAF80020666F72206C697374206F6620636F6D77
:10EB08006D616E64730A0D0A0D00202020205149A2
:10EB180020776972656C65737320706F77657220F2
:10EB2800636F6E76657274657220697320696E20F2
:10EB38006572726F722053746174651B5B4B0A0DAA
:10EB48001B5B4B0A0D00202020202020202055731D
:10EB5800657220494420576F726420256420284636
:10EB68006C617368206164647265737320307832F5
:10EB7800303030302558293A203078253034580A3A
:10EB88000D0020202020202020204D696E696D7501
:10EB98006D202B3556207261696C206D6561737527
:10EBA80072656420617320252B2E336620566F6CA6
:10EBB80074731B5B4B0A0D1B5B4B0A0D0020202056
:10EBC80020202020204D6178696D756D202B3556E9
:10EBD800207261696C206D6561737572656420616E
:10EBE8007320252B2E336620566F6C74731B5B4B7A
:10EBF8000A0D1B5B4B0A0D0020202020202020201E
:10EC08002B355620436F6E76657274657220546595
:10EC18006D7065726174757265206D65617375726A
:10EC2800656420617320252B2E336620431B5B4BC4
:10EC38000A0D002020202020202020416D626965D7
:10EC48006E742054656D7065726174757265206D9F
:10EC58006561737572656420617320252B2E336698
:10EC680020431B5B4B0A0D1B5B4B0A0D0020202029
:10EC780020514920776972656C65737320706F77CE
:10EC8800657220636F6E7665727465722069732091
:10EC980063757272656E746C792025731B5B4B0A01
:10ECA8000D1B5B4B0A0D0020202020202020205126
:10ECB8004920436F6E7665727465722054656D7075
:10ECC80065726174757265206D65617375726564CE
:10ECD80020617320252B2E336620431B5B4B0A0DC6
:10ECE800004D696E696D756D206D6561737572652E
:10ECF8006D656E7420726573756C74732061742011
:10ED080074696D65206F6620636F6D6D616E642038
:10ED180063616C6C3A0A0D0A0D004D6178696D7576
:10ED28006D206D6561737572656D656E74207265B1
:10ED380073756C74732061742074696D65206F66D7
:10ED480020636F6D6D616E642063616C6C3A0A0DAF
:10ED58000A0D000A0D48656C70206D657373616754
:10ED6800657320616E64206E65757472616C2072C3
:10ED78006573706F6E736573206170706561722062
:10ED8800696E2079656C6C6F770A0D002020202051
:10ED98004E6F206C6F61642070726573656E742CA1
:10EDA8002073797374656D20656666696369656E3D
:10EDB800637920697320302E302025251B5B4B0A90
:10EDC8000D0A0D0020202020202020202B31325633
:10EDD80020696E7075742063757272656E74206D2B
:10EDE8006561737572656420617320252B2E336607
:10EDF80020416D70731B5B4B0A0D002020202020E2
:10EE08002020204D696E696D756D202B313256209A
:10EE18007261696C206D65617375726564206173D8
:10EE280020252B2E336620566F6C74731B5B4B0AA0
:10EE38000D0020202020202020204D6178696D754C
:10EE48006D202B313256207261696C206D656173BB
:10EE58007572656420617320252B2E336620566FEA
:10EE68006C74731B5B4B0A0D0020202020537973B0
:10EE780074656D20456666696369656E63792063AC
:10EE8800616C63756C6174656420617320252E3331
:10EE9800662025251B5B4B0A0D1B5B4B0A0D005199
:10EEA80049204368617267657220776974682044F5
:10EEB80069676974616C204D6F6E69746F72696EF1
:10EEC800672C2062792044726577204D6161746DEA
:10EED800616E0A0D002020202053797374656D201F
:10EEE800686173206265656E206368617267696E28
:10EEF800672061206C6F616420666F722025731B28
:10EF08005B4B0A0D1B5B4B0A0D0020202020436140
:10EF18006C6C2027436C6561722041444320457224
:10EF2800726F72732720746F20636C656172204161
:10EF38004443206572726F722873290A0D00514983
:10EF48002043686172676572207769746820446934
:10EF5800676974616C204D6F6E69746F72696E6752
:10EF68000A0D426F6F7420436F6D706C6574650A8B
:10EF78000D0020202020202020202B3556207261D3
:10EF8800696C206D656173757265642061732025F5
:10EF98002B2E336620566F6C74731B5B4B0A0D1B4C
:10EFA8005B4B0A0D00202020204D4355206F6E201A
:10EFB80074696D652073696E6365206C6173742074
:10EFC800726573657420636F6E646974696F6E200F
:10EFD80069732025730A0D00202020204465766976
:10EFE800636520494420726574726965766564209A
:10EFF80066726F6D20666C6173683A2025732028ED
:10F00800307825303458290A0D00202020205468F3
:10F018006520666F6C6C6F77696E67206368616ED8
:10F028006E656C732063617573656420616E204141
:10F038004443206572726F723A0A0D002020202026
:10F0480020202020514920436F6E766572746572C6
:10F0580020697320696E204275727374204D6F6445
:10F06800651B5B4B0A0D1B5B4B0A0D0053797374D0
:10F07800656D204D6561737572656D656E7473207D
:10F0880061742074696D65206F6620636F6D6D61B2
:10F098006E642063616C6C3A0A0D00202020204DBC
:10F0A800696E696D756D2053797374656D2053773A
:10F0B80069746368696E67204672657175656E6309
:10F0C8006965733A1B5B4B0A0D00202020204D61B7
:10F0D80078696D756D2053797374656D2053776900
:10F0E800746368696E67204672657175656E6369D9
:10F0F80065733A1B5B4B0A0D00202020202020203E
:10F10800202B313256207261696C206D65617375F0
:10F1180072656420617320252B2E336620566F6C30
:10F1280074731B5B4B0A0D000A0D43616C6C20273E
:10F1380048656C702720666F72206C697374206F45
:10F148006620737570706F7274656420636F6D6D7F
:10F15800616E64730A0D00202020205468652066C3
:10F168006F6C6C6F77696E67204932432045727205
:10F178006F72732077657265206465746563746562
:10F18800643A0A0D004572726F727320616E6420D2
:10F198006E6567617469766520726573706F6E73EA
:10F1A80065732061707065617220696E2072656494
:10F1B8000A0D004469676974616C204D6F6E69744B
:10F1C8006F72696E67204D6963726F636F6E7472D8
:10F1D8006F6C6C6572205374617475733A0A0D0014
:10F1E800202020204D696E696D756D204D69637210
:10F1F8006F636F6E74726F6C6C65722050617261B0
:10F208006D65746572733A1B5B4B0A0D00202020F4
:10F21800204D6178696D756D204D6963726F636FFC
:10F228006E74726F6C6C657220506172616D65747A
:10F238006572733A1B5B4B0A0D00202020202020AA
:10F248002020504F533520436F6E76657274657277
:10F2580020697320696E204275727374204D6F6443
:10F26800651B5B4B0A0D004361757365206F662053
:10F278006D6F737420726563656E7420646576695A
:10F288006365207265736574207761733A2025730E
:10F298000A0D00202020204E6F206C6F61642070C2
:10F2A800726573656E742C20736561726368696E2C
:10F2B800672E2E2E1B5B4B0A0D0A0D0057696E64D4
:10F2C8006F77656420576174636820446F672054C2
:10F2D800696D65722056696F6C6174696F6E205232
:10F2E80065736574002020202020202020493243A7
:10F2F80020416D6269656E742054656D7020536598
:10F308006E736F72204572726F720A0D0020202092
:10F318002053797374656D20537769746368696ED7
:10F3280067204672657175656E636965733A1B5B24
:10F338004B0A0D00514920576972656C657373203B
:10F34800506F77657220436F6E76657273696F6E62
:10F3580020456E61626C65640A0D004D65617375C8
:10F3680072656D656E7420726573706F6E73657308
:10F378002061707065617220696E206379616E0A20
:10F388000D00202020204D696E696D756D20537920
:10F398007374656D2054656D7065726174757265FE
:10F3A800733A1B5B4B0A0D00202020204D617869C1
:10F3B8006D756D2053797374656D2054656D706536
:10F3C800726174757265733A1B5B4B0A0D00546861
:10F3D80069732074657874206861732061206D6199
:10F3E80067656E7461206261636B67726F756E64C6
:10F3F8000A0D00202020204D6963726F636F6E74C0
:10F40800726F6C6C657220506172616D65746572A3
:10F41800733A1B5B4B0A0D00556E737570706F72F3
:10F42800746564206F72206D69732D656E746572E2
:10F43800656420636F6D6D616E640A0D0020202085
:10F44800202020202049324320504F533520546536
:10F458006D702053656E736F72204572726F720AF9
:10F468000D0054686973207465787420686173208E
:10F47800612079656C6C6F77206261636B67726F6E
:10F48800756E640A0D005468697320746578742079
:10F498006861732061207768697465206261636BB5
:10F4A80067726F756E640A0D00546869732074651D
:10F4B800787420686173206120626C61636B2062DC
:10F4C80061636B67726F756E640A0D0054686973C7
:10F4D800207465787420686173206120677265659F
:10F4E8006E206261636B67726F756E640A0D00202F
:10F4F80020202020202020493243205149205465D3
:10F508006D702053656E736F72204572726F720A48
:10F518000D005468697320746578742068617320DD
:10F528006120626C7565206261636B67726F756ECE
:10F53800640A0D00546869732074657874206861E2
:10F54800732061206379616E206261636B67726FFB
:10F55800756E640A0D00202020204D696E696D7556
:10F568006D2053797374656D2043757272656E747E
:10F57800733A1B5B4B0A0D00202020204D617869EF
:10F588006D756D2053797374656D2043757272655E
:10F598006E74733A1B5B4B0A0D00507265737320CF
:10F5A800656E746572206B657920746F2065786963
:10F5B800741B5B4B0A0D1B5B4B0A0D005468697387
:10F5C80020746578742068617320612072656420F6
:10F5D8006261636B67726F756E640A0D004C6976C1
:10F5E80065206D6561737572656D656E74206665FD
:10F5F80065642064697361626C65640A0D0020208B
:10F60800202020202020493243204F4C45442044CC
:10F618006973706C6179204572726F720A0D0020EF
:10F628002020204E6F2055415254206572726F720F
:10F638002873292064657465637465640A0D002065
:10F648002020204D696E696D756D2053797374653E
:10F658006D20566F6C74616765733A0A0D0020203F
:10F6680020204D6178696D756D2053797374656DCF
:10F6780020566F6C74616765733A0A0D002020206C
:10F68800204D696E696D756D2053797374656D20B1
:10F69800506F7765723A1B5B4B0A0D0020202020C3
:10F6A8004D6178696D756D2053797374656D20505F
:10F6B8006F7765723A1B5B4B0A0D00202020204EA5
:10F6C8006F20493243206572726F72287329206453
:10F6D800657465637465640A0D00202020204E6FF0
:10F6E80020414443206572726F7228732920646533
:10F6F8007465637465640A0D0020202020537973B3
:10F7080074656D2054656D7065726174757265738A
:10F718003A1B5B4B0A0D00202020205553422055F0
:10F72800415254204572726F722044657465637447
:10F7380065640A0D005573657220696E70757420D2
:10F748006170706561727320696E2077686974658D
:10F758000A0D0020202020414443206572726F72F8
:10F76800287329206465746563746564210A0D0033
:10F77800456E61626C696E67206C697665206D659F
:10F7880061737572656D656E74730A0D004C6976E8
:10F7980065204D6561737572656D656E74733A1B8E
:10F7A8005B4B0A0D1B5B4B0A0D00202020202020FC
:10F7B80020204932432047656E6572616C2045728E
:10F7C800726F720A0D00202020202020202047651B
:10F7D8006E6572616C20414443206572726F720AD3
:10F7E8000D0054657374696E6720746578742061C0
:10F7F8007474726962757465733A0A0D00546869A5
:10F8080073207465787420697320756E64657273EB
:10F81800636F7265640A0D00436C656172204D6503
:10F8280061737572656D656E742045787472656D67
:10F83800657300524553455420496E73747275635D
:10F8480074696F6E2045786563757465640020205F
:10F85800202053797374656D2043757272656E74D8
:10F86800733A1B5B4B0A0D00456E61626C65204C58
:10F87800697665204D6561737572656D656E747323
:10F8880000546869732074657874206973206E6FFA
:10F89800726D616C0A0D0A0D0054686973207465F5
:10F8A80078742069732072657665727365640A0DD1
:10F8B8000054686973207465787420697320626CD9
:10F8C800696E6B696E670A0D005541525420657266
:10F8D800726F7228732920636C65617265640A0D02
:10F8E80000546869732074657874206973206D61A9
:10F8F80067656E74610A0D002020202053797374A7
:10F90800656D20566F6C74616765733A0A0D002047
:10F9180020202053797374656D20506F7765723A93
:10F928001B5B4B0A0D00414443204572726F7228DD
:10F93800732920636C65617265640A0D004932435E
:10F94800206572726F7228732920636C6561726515
:10F95800640A0D00546869732074657874206973AB
:10F968002079656C6C6F770A0D00417661696C616E
:10F97800626C6520436F6D6D616E64733A0A0D00A9
:10F9880043757272656E74204D6561737572656D2D
:10F99800656E74733F00537461636B20556E6465C4
:10F9A80072666C6F7720526573657400546869736A
:10F9B800207465787420697320626C61636B0A0D2A
:10F9C80000546869732074657874206973206772BD
:10F9D80065656E0A0D00537461636B204F7665721E
:10F9E800666C6F772052657365740054686973207C
:10F9F8007465787420697320626F6C640A0D005412
:10FA0800686973207465787420697320626C756501
:10FA18000A0D00546869732074657874206973202E
:10FA28006379616E0A0D005468697320746578748F
:10FA3800206973207265640A0D004D6173746572E4
:10FA480020436C656172205265736574005553429A
:10FA5800205541525420546573740A0D0A0D004D07
:10FA6800696E204D6561737572656D656E74733F5F
:10FA7800004D6178204D6561737572656D656E74B2
:10FA8800733F00436C6561722055415254204572A2
:10FA9800726F72730030313233343536373839414A
:10FAA800424344454600436C656172204932432015
:10FAB8004572726F727300436C65617220414443F2
:10FAC800204572726F7273004D43552052657669F6
:10FAD80073696F6E2049443A007669612055534234
:10FAE8002C202748656C702700434F4D20506F72BB
:10FAF800742053657475703A004361757365206F9F
:10FB0800662052657365743A004469676974616C6C
:10FB1800204D6F6E69746F7200386269742C206EA4
:10FB28006F2070617269747900556E646566696EDC
:10FB380065642052657365740042726F776E204F5A
:10FB48007574205265736574004D4355204465767D
:10FB58006963652049443A004F7574707574204391
:10FB680068617267653A004368617267652053741B
:10FB7800617475733A004F757470757420456E65BD
:10FB88007267793A0031207374702C206E6F20668A
:10FB98006C6F7700524553455420457865637574FA
:10FBA800656400506F776572204F6E2052657365EB
:10FBB800740020202020202020204656520A0D00C4
:10FBC8004572726F72205374617475733F004D698A
:10FBD8006E3A20252B2E3366202525004D61783A74
:10FBE80020252B2E336620252500514920436861A6
:10FBF8007267657220772F002B31325620566F6C52
:10FC0800746167653A00416D6269656E7420546578
:10FC18006D703A002B35562053772E204672657149
:10FC28003A004F757470757420506F7765723A009A
:10FC38002B3132562043757272656E743A00426FEA
:10FC48006F7420436F6D706C657465004D6F7265DD
:10FC58002053657474696E67730046756C6C7920FF
:10FC6800436861726765640066756C6C79206368C7
:10FC78006172676564002B355620566F6C74616736
:10FC8800653A004368617267652054696D653A009A
:10FC98004D4355204F6E2054696D653A00514920F7
:10FCA80053772E20467265713A00496E707574203C
:10FCB800506F7765723A004D696E3A20252B2E33C6
:10FCC800662041004D61783A20252B2E336620416D
:10FCD800004D696E3A20252B2E33662043004D6176
:10FCE800783A20252B2E33662043004361757365CF
:10FCF800206F66204D4355004D696E3A20252B2E06
:10FD080033662056004D61783A20252B2E33662025
:10FD180056004D696E3A20252B2E33662057004D2C
:10FD280061783A20252B2E33662057004E6F7420B9
:10FD38004368617267696E670044726577204D6138
:10FD480061746D616E002564206D696E75746573EC
:10FD58002C200050494331384C4632374B34300060
:10FD680050494331384C4634374B343000504943BE
:10FD780031384C4636374B3430004D435520537498
:10FD8800617475733F00537072696E672032303149
:10FD9800390051492043757272656E743A004566A0
:10FDA80066696369656E63793A002564206D696EDA
:10FDB8007574652C200050494331384632374B342E
:10FDC800300050494331384634374B3430005049BD
:10FDD8004331384636374B343000256C752E25367E
:10FDE8002E366C75001B5B303B33373B34306D006F
:10FDF800514920456E61626C656400427572737486
:10FE0800204D6F6465002575207365636F6E64739C
:10FE1800002575206D696E757465730025642079F9
:10FE2800656172732C2000256420686F7572732CCD
:10FE380020002564207365636F6E64730053544F0C
:10FE480046205265736574005354554620526573B5
:10FE58006574004D434C52205265736574005757C2
:10FE68004454205265736574004D43552054656DA4
:10FE7800703A002B35562054656D703A0031313593
:10FE88002E32206B6273004D696E3A202573487AD2
:10FE9800004D61783A202573487A002564207965F9
:10FEA80061722C2000256420686F75722C20002553
:10FEB8006420646179732C20002564207365636F66
:10FEC8006E6400424F5220526573657400504F5261
:10FED80020526573657400556E646566696E656465
:10FEE80000756E646566696E6564005149205465E5
:10FEF8006D703A004D61783A20257343004D617862
:10FF08003A2025734A0025752079656172730025AA
:10FF18007520686F757273002B322E35204D487A24
:10FF2800002564206461792C200063686172676928
:10FF38006E67002575206461797300286E756C6C96
:10FF48002900252E3366204700252E3366204D00D4
:10FF5800252E3366206B00252E3366206D00252E56
:10FF68003366206E00252E33662075002563253004
:10FF7800336400252E336620002A49444E3F00434F
:10FF88006C656172004572726F72006572726F7291
:10FF980000302E3020001B5B324A0048656C700030
:10FFA800307825580049646C650069646C65001BED
:10FFB8005B73001B5B75001B5B48001B5B4B0033CE
:10FFC80030003331003431003332003432003333FF
:10FFD8000034330033340034340033350034350012
:10FFE8003336003436003337003437001B5B0025C6
:07FFF800730038003B00001C
:020000040001F9
:100000006FEF8BF0250E8B19D8B436D020EE02F0AE
:100010005451D9265551DA22DE50DE10DE10D8B404
:1000200014D020EE02F05451D9265551DA2202D8CC
:100030006FEF8BF00500FA6EDE50FD6EDE50FE6E47
:10004000DE50FF6EFA508B51120054C2D9FF55C2D8
:10005000DAFFDECF5AF2DDCF5BF25AC2D9FF5BC2C4
:10006000DAFF8BC2DFFF54C2D9FF55C2DAFFDE2AA6
:10007000000EDD226FEF8BF0000E866F000E856F95
:10008000000E8A6F000E896F0AD00201898105D0A7
:100090000201898302D002018985564B572B56C233
:1000A000F6FF57C2F7FF000EF86E0E0EF76403D08E
:1000B0000800F55005D0F6CFE9FFF7CFEAFFEF5083
:1000C000200AD8B4E2D70B0AD8B4E2D71B0AD8B4B6
:1000D000E2D7020189B3899156C2F6FF57C2F7FFF2
:1000E000000EF86E0E0EF76403D00800F55005D030
:1000F000F6CFE9FFF7CFEAFFEF5013ECF4F0D8A00A
:100100004CD0000E0201866F000E856F85C200F292
:1001100086C201F2000E0201036F0A0E026F55EC57
:10012000F3F000C285F201C286F2D00E02015A6FCE
:10013000FF0E5B6F56C2F6FF57C2F7FF000EF86E58
:100140000E0EF76403D00800F55005D0F6CFE9FF96
:10015000F7CFEAFFEF5002015C6F5D6B5A515C27ED
:100160005B515D235C5185275D518623564B572B90
:1001700056C2F6FF57C2F7FF000EF86E0E0EF76478
:1001800003D00800F55005D0F6CFE9FFF7CFEAFF1E
:10019000EF5013ECF4F0D8B0B9D756C2F6FF57C2FF
:1001A000F7FF000EF86E0E0EF76403D00800F5504E
:1001B00005D0F6CFE9FFF7CFEAFFEF502E0AD8A41B
:1001C00049D002018A8D564B572B000E886F000EC6
:1001D000876F2AD087C200F288C201F2000E0201A6
:1001E000036F0A0E026F55ECF3F056C2F6FF57C2CA
:1001F000F7FF000EF86E0E0EF76403D00800F550FE
:1002000005D0F6CFE9FFF7CFEAFFEF5002015A6FB2
:100210005A510027000E0123D00E0025876FFF0ED4
:100220000121886F564B572B56C2F6FF57C2F7FF76
:10023000000EF86E0E0EF76403D00800F55005D0DE
:10024000F6CFE9FFF7CFEAFFEF5013ECF4F0D8A0B8
:100250002AD1C0D7000E0201886F000E876F8A89ED
:1002600022D1898920D18A8559D1898F57D158C205
:10027000D9FF59C2DAFFDFCF5AF2020EDE26DFCFF6
:100280005BF2000EDD225AC2D9FF5BC2DAFFDECF7D
:1002900073F2DDCF74F273517411D8A404D0430EFD
:1002A000736FFF0E746F000E766F000E756F03D0C4
:1002B0000201754B762B755173255A6F7651742157
:1002C0005B6F5AC2F6FF5BC2F7FF000EF86E0E0EB0
:1002D000F76403D00800F55005D0F6CFE9FFF7CF5B
:1002E000EAFFEF500009D8A4E3D702018751881133
:1002F000D8B40AD07551875D76518859D8B004D0EA
:1003000087C275F288C276F28551755D865176593D
:10031000D8B005D07551855F7651865B38D0000E18
:10032000866F000E856F33D020EE02F05451D9262F
:100330005551DA22DE50DE10DE10D8B413D020EE94
:1003400002F05451D9265551DA2201D820D00500A7
:10035000FA6EDE50FD6EDE50FE6EDE50FF6EFA501D
:10036000200E120054C2D9FF55C2DAFFDECF5AF276
:10037000DDCF5BF25AC2D9FF5BC2DAFF200EDF6E1F
:1003800054C2D9FF55C2DAFFDE2A000EDD22020177
:100390008507D8A086078529C7E18629D8B45BD010
:1003A000C3D720EE02F05451D9265551DA22DE503F
:1003B000DE10DE10D8B427D020EE02F05451D9263A
:1003C0005551DA2201D81BD00500FA6EDE50FD6EC1
:1003D000DE50FE6EDE50FF6EFA5073C2F6FF74C23E
:1003E000F7FF000EF86E0E0EF76403D00800F5500C
:1003F00005D0F6CFE9FFF7CFEAFFEF501200020178
:10040000734B742B28D073C2F6FF74C2F7FF000E33
:10041000F86E54C2D9FF55C2DAFFDECF5AF2DDCFF3
:100420005BF25AC2D9FF5BC2DAFF0E0EF76403D04B
:100430000800F55005D0F6CFE9FFF7CFEAFFEF50FF
:10044000DF6E0201734B742B54C2D9FF55C2DAFF21
:10045000DE2A000EDD227507D8A076077529A1E1F6
:100460007629D8B46FEF8BF09CD758C2D9FF59C208
:10047000DAFFDFCF5AF2020EDE26DFCF5BF2000E8C
:10048000DD225AC2D9FF5BC2DAFFDF508B6F8B0EC1
:10049000736F020E746F000E766F010E756F25D7A5
:1004A000C00E89133BD0020156515A6F57515B6FF2
:1004B000564B572B5AC2F6FF5BC2F7FF000EF86E81
:1004C0000E0EF76403D00800F55005D0F6CFE9FF13
:1004D000F7CFEAFFEF5002018B6F8B51000AD8B4BF
:1004E0008DEF8BF0580AD8B4C0D63B0AD8B4BDD72C
:1004F000070AD8B413D0020AD8B4B5D60F0AD8B4B4
:100500000DD0050AD8B4ADD61F0AD8B4B0D6060AA5
:10051000D8B4C6D70D0AD8B4A8D6B9D7070E8A154D
:10052000D8B40FEF88F08AA904D0000E886F060EA9
:10053000876F58C2D9FF59C2DAFFDFCF5AF2040ED3
:10054000DE26DFCF5BF2000EDD225AC2D9FF5BC28E
:10055000DAFFDECF7DF2DECF7EF2DECF7FF2DECFBE
:1005600080F280AF15D07DC200F27EC201F27FC260
:1005700002F280C203F2A7ECF2F000C27DF201C2E7
:100580007EF202C27FF203C280F2030E02018913DF
:10059000000E786F000E776F7DC200F27EC201F20E
:1005A0007FC202F280C203F2000E046F000E056FDC
:1005B000000E066F000E076FF5ECE8F00201D8B0F0
:1005C00084D07F358035820F776F786BFF0E78236C
:1005D0007707D8A0780777C200F278C201F2000E40
:1005E000036F030E026F55ECF3F000C277F201C205
:1005F00078F277C206F278C207F2000E0201096FA4
:100600000A0E086F80ECE9F006C277F207C278F2B2
:10061000020178AF03D07707D8A078077751000898
:10062000E8ECB3F027C279F228C27AF229C27BF251
:100630002AC27CF279C20EF27AC20FF27BC210F2A9
:100640007CC211F27DC212F27EC213F27FC214F29A
:1006500080C215F29EECBDF00EC279F20FC27AF2A2
:1006600010C27BF211C27CF279C20CF27AC20DF296
:100670007BC20EF27CC20FF2000E0201106F000E60
:10068000116F800E126F3F0E136F26ECE4F0020123
:10069000D8B004D07707D8A0780717D079C20CF269
:1006A0007AC20DF27BC20EF27CC20FF2000E106F06
:1006B000000E116F200E126F410E136F26ECE4F046
:1006C0000201D8A002D0774B782B88BF06D0885182
:1006D00021E10D0E875DD8B01DD07DC234F27EC2FF
:1006E00035F27FC236F280C237F2875130ECCDF05E
:1006F00027C238F228C239F229C23AF22AC23BF2A2
:10070000A9ECC5F034C27DF235C27EF236C27FF26A
:1007100037C280F2020178BF06D0785131E10A0E6B
:10072000775DD8B02DD07DC200F27EC201F27FC2CB
:1007300002F280C203F2000E046F000E056F000E7D
:10074000066F000E076FF5ECE8F00201D8B062D03A
:100750007DC230F27EC231F27FC232F280C233F209
:10076000C2ECE5F002013051311132113311D8B42D
:1007700078BF50D0785104E1020E775DD8A04AD0FE
:1007800079C20CF27AC20DF27BC20EF27CC20FF279
:100790005F0E106F700E116F890E126F400E136F87
:1007A00026ECE4F00201D8B002D0F70E01D0F80E2A
:1007B0007727FF0E78237751E8ECB3F027C279F260
:1007C00028C27AF229C27BF22AC27CF27DC200F2F0
:1007D0007EC201F27FC202F280C203F279C204F249
:1007E0007AC205F27BC206F27CC207F2CBECE1F0E2
:1007F00000C281F201C282F202C283F203C284F219
:10080000000E02017D6F000E7E6F000E7F6F000EE6
:10081000806F3CD07DC230F27EC231F27FC232F2B4
:1008200080C233F2C2ECE5F030C281F231C282F212
:1008300032C283F233C284F27DC24CF27EC24DF2E8
:100840007FC24EF280C24FF281C23EF282C23FF2BC
:1008500083C240F284C241F2000EB9ECDDF03EC228
:1008600050F23FC251F240C252F241C253F216EC72
:10087000EFF04CC27DF24DC27EF24EC27FF24FC20B
:1008800080F2000E0201786F000E776F010E8B6F01
:100890000A0E8B19D8B41BD08B51040D010EF32412
:1008A000F66EDB0EF420F76EF86A000EF8220900EF
:1008B000F550815D0900F55082590900F5508359C2
:1008C0000900F5508459D8A002D08B2BE1D78B5169
:1008D00087255A6F000E88215B6F77515A27785110
:1008E0005B235A51855F5B51865B87518811D8B471
:1008F00003D08507D8A08607030E89155A6F000E0E
:100900008A155B6F5A515B11D8B403D08507D8A004
:10091000860789A5F0D089A341D020EE02F054517A
:10092000D9265551DA22DE50DE10DE10D8B41DD0A3
:1009300089B104D0000E646F2B0E03D0000E646FDB
:100940002D0E636F20EE02F05451D9265551DA2254
:1009500001D891D00500FA6EDE50FD6EDE50FE6EBD
:10096000DE50FF6EFA506351120089B104D0000EC0
:10097000666F2B0E03D0000E666F2D0E656F54C28E
:10098000D9FF55C2DAFFDECF5AF2DDCF5BF25AC291
:10099000D9FF5BC2DAFF65C2DFFF2ED089A16BD021
:1009A00020EE02F05451D9265551DA22DE50DE10E5
:1009B000DE10D8B413D020EE02F05451D926555190
:1009C000DA2201D858D00500FA6EDE50FD6EDE50F6
:1009D000FE6EDE50FF6EFA50200E120054C2D9FF98
:1009E00055C2DAFFDECF5AF2DDCF5BF25AC2D9FF31
:1009F0005BC2DAFF200EDF6E54C2D9FF55C2DAFFA8
:100A0000DE2A000EDD2237D020EE02F05451D92626
:100A10005551DA22DE50DE10DE10D8B413D020EEAD
:100A200002F05451D9265551DA2201D820D00500C0
:100A3000FA6EDE50FD6EDE50FE6EDE50FF6EFA5036
:100A4000300E120054C2D9FF55C2DAFFDECF5AF27F
:100A5000DDCF5BF25AC2D9FF5BC2DAFF300EDF6E28
:100A600054C2D9FF55C2DAFFDE2A000EDD22020190
:100A70008507D8A08607020186BF2FD18651C4E121
:100A80008505D8A02AD1C0D720EE02F05451D9262E
:100A90005551DA22DE50DE10DE10D8B413D020EE2D
:100AA00002F05451D9265551DA2201D820D0050040
:100AB000FA6EDE50FD6EDE50FE6EDE50FF6EFA50B6
:100AC000200E120054C2D9FF55C2DAFFDECF5AF20F
:100AD000DDCF5BF25AC2D9FF5BC2DAFF200EDF6EB8
:100AE00054C2D9FF55C2DAFFDE2A000EDD22020110
:100AF0008507D8A0860786BF05D08651C5E1850544
:100B0000D8B0C2D789A341D020EE02F05451D926E3
:100B10005551DA22DE50DE10DE10D8B41DD089B176
:100B200004D0000E686F2B0E03D0000E686F2D0EE0
:100B3000676F20EE02F05451D9265551DA2201D8C0
:100B4000CCD00500FA6EDE50FD6EDE50FE6EDE503B
:100B5000FF6EFA506751120089B104D0000E6A6F1F
:100B60002B0E03D0000E6A6F2D0E696F54C2D9FF91
:100B700055C2DAFFDECF5AF2DDCF5BF25AC2D9FF9F
:100B80005BC2DAFF69C2DFFFA1D089A1A6D020EE47
:100B900002F05451D9265551DA22DE50DE10DE1013
:100BA000D8B413D020EE02F05451D9265551DA2290
:100BB00001D893D00500FA6EDE50FD6EDE50FE6E59
:100BC000DE50FF6EFA50200E120054C2D9FF55C2FB
:100BD000DAFFDECF5AF2DDCF5BF25AC2D9FF5BC239
:100BE000DAFF200E72D081C200F282C201F283C20B
:100BF00002F284C203F28B51040D010EF324F66E4F
:100C0000DB0EF420F76EF86A000EF8220900F5CF2B
:100C100004F20900F5CF05F20900F5CF06F20A004B
:100C2000F5CF07F2C3ECE9F000C279F201C27AF223
:100C300002C27BF203C27CF279C20DF27AC20EF2DA
:100C40007BC20FF27CC210F20A0E0201116F000E7D
:100C5000126F000E136F000E146F32ECEBF00DC22A
:100C600079F20EC27AF20FC27BF210C27CF202015C
:100C700020EE02F05451D9265551DA22DE50DE1012
:100C8000DE10D8B414D020EE02F05451D9265551BC
:100C9000DA2201D822D00500FA6EDE50FD6EDE5059
:100CA000FE6EDE50FF6EFA507951300F120079510E
:100CB000300F54C2D9FF55C2DAFFDECF5AF2DDCF72
:100CC0005BF25AC2D9FF5BC2DAFFDF6E54C2D9FFB2
:100CD00055C2DAFFDE2A000EDD2202018B078B29C6
:100CE000D8B438D080D720EE02F05451D9265551CF
:100CF000DA22DE50DE10DE10D8B413D020EE02F07F
:100D00005451D9265551DA2201D820D00500FA6E67
:100D1000DE50FD6EDE50FE6EDE50FF6EFA50300E7D
:100D2000120054C2D9FF55C2DAFFDECF5AF2DDCF2E
:100D30005BF25AC2D9FF5BC2DAFF300EDF6E54C2DB
:100D4000D9FF55C2DAFFDE2A000EDD220201770745
:100D5000D8A0780778BF05D07851C5E17705D8B01D
:100D6000C2D788BF09D0885104E1090E875DD8A099
:100D700003D0080E8B6F02D087C28BF28B51875F36
:100D8000000E885B8B51D8B433D020EE02F0545162
:100D9000D9265551DA22DE50DE10DE10D8B413D039
:100DA00020EE02F05451D9265551DA2201D820D034
:100DB0000500FA6EDE50FD6EDE50FE6EDE50FF6EF8
:100DC000FA502E0E120054C2D9FF55C2DAFFDECF00
:100DD0005AF2DDCF5BF25AC2D9FF5BC2DAFF2E0EA8
:100DE000DF6E54C2D9FF55C2DAFFDE2A000EDD22C3
:100DF00002018B51E8ECB3F027C25EF228C25FF229
:100E000029C260F22AC261F27DC212F27EC213F2DE
:100E10007FC214F280C215F25EC20EF25FC20FF200
:100E200060C210F261C211F29EECBDF00EC230F24F
:100E30000FC231F210C232F211C233F2C2ECE5F04D
:100E400030C281F231C282F232C283F233C284F202
:100E5000A4D081C200F282C201F283C202F284C233
:100E600003F28B51040D010EF324F66EDB0EF42019
:100E7000F76EF86A000EF8220900F5CF04F20900B7
:100E8000F5CF05F20900F5CF06F20A00F5CF07F21B
:100E9000C3ECE9F000C279F201C27AF202C27BF23D
:100EA00003C27CF279C20DF27AC20EF27BC20FF25B
:100EB0007CC210F20A0E0201116F000E126F000EBA
:100EC000136F000E146F32ECEBF00DC279F20EC20C
:100ED0007AF20FC27BF210C27CF2020120EE02F025
:100EE0005451D9265551DA22DE50DE10DE10D8B426
:100EF00014D020EE02F05451D9265551DA2201D8EF
:100F000022D00500FA6EDE50FD6EDE50FE6EDE5021
:100F1000FF6EFA507951300F12007951300F54C2E0
:100F2000D9FF55C2DAFFDECF5AF2DDCF5BF25AC2EB
:100F3000D9FF5BC2DAFFDF6E54C2D9FF55C2DAFFB8
:100F4000DE2A000EDD2281C20DF282C20EF283C2C1
:100F50000FF284C210F202018B51040D010EF32432
:100F6000F66EDB0EF420F76EF86A000EF822090028
:100F7000F5CF11F20900F5CF12F20900F5CF13F207
:100F80000A00F5CF14F232ECEBF00DC281F20EC282
:100F900082F20FC283F210C284F202018B078B2906
:100FA000D8B438D056D720EE02F05451D926555136
:100FB000DA22DE50DE10DE10D8B413D020EE02F0BC
:100FC0005451D9265551DA2201D820D00500FA6EA5
:100FD000DE50FD6EDE50FE6EDE50FF6EFA50300EBB
:100FE000120054C2D9FF55C2DAFFDECF5AF2DDCF6C
:100FF0005BF25AC2D9FF5BC2DAFF300EDF6E54C219
:10100000D9FF55C2DAFFDE2A000EDD220201870772
:10101000D8A0880787518811D8B461D3C4D7C00E2F
:1010200089155A6F000E8A155B6F5A515B11D8A44F
:1010300041D089A919D058C2D9FF59C2DAFFDFCFF0
:101040005AF2040EDE26DFCF5BF2000EDD225AC21A
:10105000D9FF5BC2DAFFDECF81F2DECF82F2DECFD4
:1010600083F2DECF84F219D058C2D9FF59C2DAFF19
:10107000DFCF5AF2020EDE26DFCF5BF2000EDD225A
:101080005AC2D9FF5BC2DAFFDECF81F2DDCF82F236
:10109000000E82BFFF0E836F846F84AF40D0030EBB
:1010A0008913841F831F821F816D000E8223832377
:1010B000842335D089A919D058C2D9FF59C2DAFF83
:1010C000DFCF5AF2040EDE26DFCF5BF2000EDD2208
:1010D0005AC2D9FF5BC2DAFFDECF81F2DECF82F2E5
:1010E000DECF83F2DECF84F21AD058C2D9FF59C2C4
:1010F000DAFFDFCF5AF2020EDE26DFCF5BF2000E00
:10110000DD225AC2D9FF5BC2DAFFDECF5CF2DDCF4F
:101110005DF25CC281F25DC282F2836B846B8751A7
:101120008811D8A44BD08151821183118411D8A485
:1011300045D0874B882B42D0010E8B6F0A0E8B193E
:10114000D8B447D08B51040D010EF324F66EDB0E9C
:10115000F420F76EF86A000EF8220900F550815D60
:101160000900F55082590900F55083590900F550DE
:101170008459D8A02ED08B2BE1D7010E8B6F080E8F
:101180008B19D8B426D08B51040DE10EF324F66EE2
:10119000D70EF420F76EF86A000EF8220900F55019
:1011A000815D0900F55082590900F5508359090005
:1011B000F5508459D8A00DD08B2BE1D78951C00BA5
:1011C000000AD8B4B9D7800AD8B4D7D7400AD8B45F
:1011D000B3D78B515A6F5B6B87515A5D5B51800A55
:1011E0005C6F8851800A5C59D8B003D087C28BF2FB
:1011F00010D08B515A6F5B6B5A51875D8851800AB2
:101200005C6F5B51800A5C59D8B003D08BC287F207
:10121000886B85518611D8B40DD0030E89155A6F8D
:10122000000E8A155B6F5A515B11D8B403D0850745
:10123000D8A086078AAD13D08551875D8851800A72
:101240005A6F8651800A5A59D8B005D08751855FA8
:101250008851865B04D0000E866F000E856F8B511F
:101260005A6F5B6B85515A5D5B51800A5C6F86518A
:10127000800A5C59D8B005D08B51855F000E865B23
:1012800004D0000E866F000E856F89A5B5D089A3A6
:1012900041D020EE02F05451D9265551DA22DE50C9
:1012A000DE10DE10D8B41DD089B104D0000E6C6FF2
:1012B0002B0E03D0000E6C6F2D0E6B6F20EE02F024
:1012C0005451D9265551DA2201D859D00500FA6E69
:1012D000DE50FD6EDE50FE6EDE50FF6EFA506B513A
:1012E000120089B104D0000E6E6F2B0E03D0000ED9
:1012F0006E6F2D0E6D6F54C2D9FF55C2DAFFDECF6F
:101300005AF2DDCF5BF25AC2D9FF5BC2DAFF6DC27F
:10131000DFFF2ED089A133D020EE02F05451D92620
:101320005551DA22DE50DE10DE10D8B413D020EE94
:1013300002F05451D9265551DA2201D820D00500A7
:10134000FA6EDE50FD6EDE50FE6EDE50FF6EFA501D
:10135000200E120054C2D9FF55C2DAFFDECF5AF276
:10136000DDCF5BF25AC2D9FF5BC2DAFF200EDF6E1F
:1013700054C2D9FF55C2DAFFDE2A000EDD22020177
:1013800085518611D8B4A2D120EE02F05451D9264D
:101390005551DA22DE50DE10DE10D8B413D020EE24
:1013A00002F05451D9265551DA2201D820D0050037
:1013B000FA6EDE50FD6EDE50FE6EDE50FF6EFA50AD
:1013C000300E120054C2D9FF55C2DAFFDECF5AF2F6
:1013D000DDCF5BF25AC2D9FF5BC2DAFF300EDF6E9F
:1013E00054C2D9FF55C2DAFFDE2A000EDD22020107
:1013F0008507D8A08607C4D785518611D8B43BD0BD
:1014000020EE02F05451D9265551DA22DE50DE107A
:10141000DE10D8B413D020EE02F05451D926555125
:10142000DA2201D820D00500FA6EDE50FD6EDE50C3
:10143000FE6EDE50FF6EFA50200E120054C2D9FF2D
:1014400055C2DAFFDECF5AF2DDCF5BF25AC2D9FFC6
:101450005BC2DAFF200EDF6E54C2D9FF55C2DAFF3D
:10146000DE2A000EDD2202018507D8A086078551FD
:101470008611D8A4C5D789A341D020EE02F05451DB
:10148000D9265551DA22DE50DE10DE10D8B41DD038
:1014900089B104D0000E706F2B0E03D0000E706F58
:1014A0002D0E6F6F20EE02F05451D9265551DA22DD
:1014B00001D80CD10500FA6EDE50FD6EDE50FE6ED6
:1014C000DE50FF6EFA506F51120089B104D0000E49
:1014D000726F2B0E03D0000E726F2D0E716F54C2FF
:1014E000D9FF55C2DAFFDECF5AF2DDCF5BF25AC226
:1014F000D9FF5BC2DAFF71C2DFFFE1D089A1E6D07C
:1015000020EE02F05451D9265551DA22DE50DE1079
:10151000DE10D8B413D020EE02F05451D926555124
:10152000DA2201D8D3D00500FA6EDE50FD6EDE500F
:10153000FE6EDE50FF6EFA50200E120054C2D9FF2C
:1015400055C2DAFFDECF5AF2DDCF5BF25AC2D9FFC5
:101550005BC2DAFF200EDF6EB2D087C25AF288C2B9
:101560005BF2D8905A375B37D8905A375B37010E09
:101570005A25F66EDB0E5B21F76EF86A000EF82234
:101580000900F5CF04F20900F5CF05F20900F5CF07
:1015900006F20A00F5CF07F281C200F282C201F220
:1015A00083C202F284C203F2C3ECE9F000C20DF27E
:1015B00001C20EF202C20FF203C210F20A0E0201C1
:1015C000116F000E126F000E136F000E146F32ECCD
:1015D000EBF002010D51300F8B6F45D081C200F24C
:1015E00082C201F283C202F284C203F287C25AF2BB
:1015F00088C25BF2D8905A375B37D8905A375B373E
:10160000E10E5A25F66ED70E5B21F76EF86A000ED2
:10161000F8220900F5CF04F20900F5CF05F2090020
:10162000F5CF06F20A00F5CF07F2C3ECE9F00201AC
:1016300000510F0B626F9D0E6225F66EF76AFA0E6F
:10164000F722F86A000EF8220800F5CF8BF20BD0D3
:101650008951C00B000AD8B480D7800AD8B4BED74D
:10166000400AD8B47AD720EE02F05451D926555109
:10167000DA22DE50DE10DE10D8B413D020EE02F0F5
:101680005451D9265551DA2201D820D00500FA6EDE
:10169000DE50FD6EDE50FE6EDE50FF6EFA508B5156
:1016A000120054C2D9FF55C2DAFFDECF5AF2DDCFA5
:1016B0005BF25AC2D9FF5BC2DAFF8BC2DFFF54C2B2
:1016C000D9FF55C2DAFFDE2A000EDD2202018707AC
:1016D000D8A088078729BCE18829D8A4B9D70201F6
:1016E00056515A6F57515B6F564B572B5AC2F6FFE4
:1016F0005BC2F7FF000EF86E0E0EF76403D0080011
:10170000F55005D0F6CFE9FFF7CFEAFFEF50020121
:101710008B6F8B51D8A402EF80F0000E556F000E36
:10172000546F1200FBEF96F0250EA319D8B436D0F3
:1017300020EE02F06C51D9266D51DA22DE50DE1017
:10174000DE10D8B414D020EE02F06C51D9266D51C1
:10175000DA2202D8FBEF96F00500FA6EDE50FD6E3D
:10176000DE50FE6EDE50FF6EFA50A35112006CC0C8
:10177000D9FF6DC0DAFFDECF72F0DDCF73F072C03B
:10178000D9FF73C0DAFFA3C0DFFF6CC0D9FF6DC003
:10179000DAFFDE2A000EDD22FBEF96F0000E9E6FD0
:1017A000000E9D6F000EA26F000EA16F0AD0000107
:1017B000A18105D00001A18302D00001A1856E4B5B
:1017C0006F2B6EC0F6FF6FC0F7FF000EF86E0E0EA7
:1017D000F76403D00800F55005D0F6CFE9FFF7CF46
:1017E000EAFFEF50200AD8B4E2D70B0AD8B4E2D708
:1017F0001B0AD8B4E2D70001A1B3A1916EC0F6FFD5
:101800006FC0F7FF000EF86E0E0EF76403D00800ED
:10181000F55005D0F6CFE9FFF7CFEAFFEF5094EC93
:10182000F4F0D8A04BD0000E00019E6F000E9D6F0B
:101830009DC001F09EC002F0000E046E0A0E036E01
:10184000B8ECF3F001C09DF002C09EF0D00E000194
:10185000726FFF0E736F6EC0F6FF6FC0F7FF000E62
:10186000F86E0E0EF76403D00800F55005D0F6CFE1
:10187000E9FFF7CFEAFFEF500001746F756B72510B
:1018800074277351752374519D2775519E236E4B98
:101890006F2B6EC0F6FF6FC0F7FF000EF86E0E0ED6
:1018A000F76403D00800F55005D0F6CFE9FFF7CF75
:1018B000EAFFEF5094ECF4F0D8B0BAD76EC0F6FF60
:1018C0006FC0F7FF000EF86E0E0EF76403D008002D
:1018D000F55005D0F6CFE9FFF7CFEAFFEF502E0A1B
:1018E000D8A448D00001A28D6E4B6F2B000EA06FC4
:1018F000000E9F6F29D09FC001F0A0C002F0000E23
:10190000046E0A0E036EB8ECF3F06EC0F6FF6FC003
:10191000F7FF000EF86E0E0EF76403D00800F550C6
:1019200005D0F6CFE9FFF7CFEAFFEF500001726F65
:1019300072510126000E0222D00E01249F6FFF0E6D
:101940000220A06F6E4B6F2B6EC0F6FF6FC0F7FFCB
:10195000000EF86E0E0EF76403D00800F55005D0A7
:10196000F6CFE9FFF7CFEAFFEF5094ECF4F0D8A000
:101970002AD1C1D7000E0001A06F000E9F6FA2896F
:1019800022D1A18920D1A28559D1A18F57D170C070
:10199000D9FF71C0DAFFDFCF72F0020EDE26DFCF93
:1019A00073F0000EDD2272C0D9FF73C0DAFFDECF04
:1019B0008BF0DDCF8CF08B518C11D8A404D0430E6A
:1019C0008B6FFF0E8C6F000E8E6F000E8D6F03D02D
:1019D00000018D4B8E2B8D518B25726F8E518C217A
:1019E000736F72C0F6FF73C0F7FF000EF86E0E0E35
:1019F000F76403D00800F55005D0F6CFE9FFF7CF24
:101A0000EAFFEF500009D8A4E3D700019F51A011CD
:101A1000D8B40AD08D519F5D8E51A059D8B004D052
:101A20009FC08DF0A0C08EF09D518D5D9E518E594E
:101A3000D8B005D08D519D5F8E519E5B38D0000E81
:101A40009E6F000E9D6F33D020EE02F06C51D926B0
:101A50006D51DA22DE50DE10DE10D8B413D020EE45
:101A600002F06C51D9266D51DA2201D820D0050040
:101A7000FA6EDE50FD6EDE50FE6EDE50FF6EFA50E6
:101A8000200E12006CC0D9FF6DC0DAFFDECF72F0FD
:101A9000DDCF73F072C0D9FF73C0DAFF200EDF6EA6
:101AA0006CC0D9FF6DC0DAFFDE2A000EDD22000116
:101AB0009D07D8A09E079D29C7E19E29D8B45BD079
:101AC000C3D720EE02F06C51D9266D51DA22DE50D8
:101AD000DE10DE10D8B427D020EE02F06C51D926EB
:101AE0006D51DA2201D81BD00500FA6EDE50FD6E72
:101AF000DE50FE6EDE50FF6EFA508BC0F6FF8CC0DB
:101B0000F7FF000EF86E0E0EF76403D00800F550D4
:101B100005D0F6CFE9FFF7CFEAFFEF501200000142
:101B20008B4B8C2B28D08BC0F6FF8CC0F7FF000EA0
:101B3000F86E6CC0D9FF6DC0DAFFDECF72F0DDCF7A
:101B400073F072C0D9FF73C0DAFF0E0EF76403D0D2
:101B50000800F55005D0F6CFE9FFF7CFEAFFEF50C8
:101B6000DF6E00018B4B8C2B6CC0D9FF6DC0DAFF90
:101B7000DE2A000EDD228D07D8A08E078D29A1E177
:101B80008E29D8B4FBEF96F09CD770C0D9FF71C0F6
:101B9000DAFFDFCF72F0020EDE26DFCF73F0000E29
:101BA000DD2272C0D9FF73C0DAFFDF50A36FA30E2E
:101BB0008B6F000E8C6F000E8E6F010E8D6F25D710
:101BC000C00EA1133BD000016E51726F6F51736F45
:101BD0006E4B6F2B72C0F6FF73C0F7FF000EF86EEE
:101BE0000E0EF76403D00800F55005D0F6CFE9FFDC
:101BF000F7CFEAFFEF500001A36FA351000AD8B45A
:101C000019EF97F0580AD8B4C0D63B0AD8B4BDD75C
:101C1000070AD8B413D0020AD8B4B5D60F0AD8B47C
:101C20000DD0050AD8B4ADD61F0AD8B4B0D6060A6E
:101C3000D8B4C6D70D0AD8B4A8D6B9D7070EA215FE
:101C4000D8B49CEF93F0A2A904D0000EA06F060EAA
:101C50009F6F70C0D9FF71C0DAFFDFCF72F0040E42
:101C6000DE26DFCF73F0000EDD2272C0D9FF73C015
:101C7000DAFFDECF95F0DECF96F0DECF97F0DECF45
:101C800098F098AF15D095C001F096C002F097C0BB
:101C900003F098C004F0D6ECF2F001C095F002C059
:101CA00096F003C097F004C098F0030E0001A11352
:101CB000000E906F000E8F6F95C001F096C002F07D
:101CC00097C003F098C004F0000E056E000E066E7B
:101CD000000E076E000E086E3BECE9F0D8B083D022
:101CE000000197359835820F8F6F906BFF0E902310
:101CF0008F07D8A090078FC001F090C002F0000EAF
:101D0000046E030E036EB8ECF3F001C08FF002C056
:101D100090F08FC007F090C008F0000E0A6E0A0E17
:101D2000096E05ECEAF007C08FF008C090F00001E2
:101D300090AF03D08F07D8A090078F51000802EC16
:101D4000B6F045C091F046C092F047C093F048C04D
:101D500094F091C02CF092C02DF093C02EF094C05E
:101D60002FF095C030F096C031F097C032F098C097
:101D700033F0F2ECC0F02CC091F02DC092F02EC0E8
:101D800093F02FC094F091C001F092C002F093C084
:101D900003F094C004F0000E056E000E066E800E77
:101DA000076E3F0E086EF8ECE4F0D8B005D00001E5
:101DB0008F07D8A0900717D091C001F092C002F011
:101DC00093C003F094C004F0000E056E000E066E82
:101DD000200E076E410E086EF8ECE4F0D8A003D098
:101DE00000018F4B902B0001A0BF06D0A05121E134
:101DF0000D0E9F5DD8B01DD095C052F096C053F027
:101E000097C054F098C055F09F5191ECCEF045C06A
:101E100056F046C057F047C058F048C059F0B7ECEC
:101E2000C8F052C095F053C096F054C097F055C01A
:101E300098F0000190BF06D0905131E10A0E8F5DFD
:101E4000D8B02DD095C001F096C002F097C003F035
:101E500098C004F0000E056E000E066E000E076EB0
:101E6000000E086E3BECE9F0D8B064D095C04EF09F
:101E700096C04FF097C050F098C051F020ECE6F0BB
:101E80004E504F1050105110D8A454D0000190BFA4
:101E900051D0905104E1020E8F5DD8A04BD091C07B
:101EA00001F092C002F093C003F094C004F05F0E02
:101EB000056E700E066E890E076E400E086EF8EC09
:101EC000E4F0D8B003D00001F70E02D00001F80E04
:101ED0008F27FF0E90238F5102ECB6F045C091F092
:101EE00046C092F047C093F048C094F095C001F00E
:101EF00096C002F097C003F098C004F091C005F0BE
:101F000092C006F093C007F094C008F0C0ECE2F075
:101F100001C099F002C09AF003C09BF004C09CF08D
:101F2000000E0001956F000E966F000E976F000E69
:101F3000986F3CD095C04EF096C04FF097C050F0CF
:101F400098C051F020ECE6F04EC099F04FC09AF0E6
:101F500050C09BF051C09CF095C064F096C065F0F5
:101F600097C066F098C067F099C005F09AC006F077
:101F70009BC007F09CC008F0000EFDECDEF005C031
:101F800068F006C069F007C06AF008C06BF03AEC70
:101F9000EFF064C095F065C096F066C097F067C03A
:101FA00098F0000E0001906F000E8F6F010EA36F6E
:101FB000A351040D010EF324F66EDB0EF420F76E30
:101FC000F86A000EF8220900F550995D0900F550F5
:101FD0009A590900F5509B590900F5509C59D8A011
:101FE00005D0A32B0A0EA319D8A4E2D7A3519F258D
:101FF000726F000EA021736F8F517227905173235F
:1020000072519D5F73519E5B9F51A011D8B403D054
:102010009D07D8A09E07030EA115726F000EA21592
:10202000736F72517311D8B403D09D07D8A09E0767
:10203000A1A5F0D0A1A341D020EE02F06C51D92689
:102040006D51DA22DE50DE10DE10D8B41DD0A1B101
:1020500004D0000E7C6F2B0E03D0000E7C6F2D0E73
:102060007B6F20EE02F06C51D9266D51DA2201D837
:1020700091D00500FA6EDE50FD6EDE50FE6EDE5031
:10208000FF6EFA507B511200A1B104D0000E7E6F9A
:102090002B0E03D0000E7E6F2D0E7D6F6CC0D9FF0E
:1020A0006DC0DAFFDECF72F0DDCF73F072C0D9FF02
:1020B00073C0DAFF7DC0DFFF2ED0A1A16BD020EE70
:1020C00002F06C51D9266D51DA22DE50DE10DE109E
:1020D000D8B413D020EE02F06C51D9266D51DA221B
:1020E00001D858D00500FA6EDE50FD6EDE50FE6E4F
:1020F000DE50FF6EFA50200E12006CC0D9FF6DC08A
:10210000DAFFDECF72F0DDCF73F072C0D9FF73C09B
:10211000DAFF200EDF6E6CC0D9FF6DC0DAFFDE2A59
:10212000000EDD2237D020EE02F06C51D9266D5121
:10213000DA22DE50DE10DE10D8B413D020EE02F02A
:102140006C51D9266D51DA2201D820D00500FA6EE3
:10215000DE50FD6EDE50FE6EDE50FF6EFA50300E29
:1021600012006CC0D9FF6DC0DAFFDECF72F0DDCF98
:1021700073F072C0D9FF73C0DAFF300EDF6E6CC02F
:10218000D9FF6DC0DAFFDE2A000EDD2200019D07B7
:10219000D8A09E0700019EBF2ED19E51C4E19D058F
:1021A000D8A029D1C0D720EE02F06C51D9266D51AC
:1021B000DA22DE50DE10DE10D8B413D020EE02F0AA
:1021C0006C51D9266D51DA2201D820D00500FA6E63
:1021D000DE50FD6EDE50FE6EDE50FF6EFA50200EB9
:1021E00012006CC0D9FF6DC0DAFFDECF72F0DDCF18
:1021F00073F072C0D9FF73C0DAFF200EDF6E6CC0BF
:10220000D9FF6DC0DAFFDE2A000EDD2200019D0736
:10221000D8A09E079EBF05D09E51C5E19D05D8B0B0
:10222000C2D7A1A341D020EE02F06C51D9266D5146
:10223000DA22DE50DE10DE10D8B41DD0A1B104D0F9
:10224000000E806F2B0E03D0000E806F2D0E7F6F5F
:1022500020EE02F06C51D9266D51DA2201D8CBD094
:102260000500FA6EDE50FD6EDE50FE6EDE50FF6E33
:10227000FA507F511200A1B104D0000E826F2B0ED4
:1022800003D0000E826F2D0E816F6CC0D9FF6DC020
:10229000DAFFDECF72F0DDCF73F072C0D9FF73C00A
:1022A000DAFF81C0DFFFA0D0A1A1A5D020EE02F00F
:1022B0006C51D9266D51DA22DE50DE10DE10D8B412
:1022C00013D020EE02F06C51D9266D51DA2201D8DC
:1022D00092D00500FA6EDE50FD6EDE50FE6EDE50CE
:1022E000FF6EFA50200E12006CC0D9FF6DC0DAFFED
:1022F000DECF72F0DDCF73F072C0D9FF73C0DAFFAA
:10230000200E71D099C001F09AC002F09BC003F07A
:102310009CC004F0A351040D010EF324F66EDB0EF5
:10232000F420F76EF86A000EF8220900F5CF05F0E8
:102330000900F5CF06F00900F5CF07F00A00F5CF48
:1023400008F047ECEAF001C091F002C092F003C03F
:1023500093F004C094F091C00EF092C00FF093C0BF
:1023600010F094C011F00A0E126E000E136E000EE3
:10237000146E000E156ECCECEBF00EC091F00FC099
:1023800092F010C093F011C094F0000120EE02F022
:102390006C51D9266D51DA22DE50DE10DE10D8B431
:1023A00014D020EE02F06C51D9266D51DA2201D8FA
:1023B00022D00500FA6EDE50FD6EDE50FE6EDE505D
:1023C000FF6EFA509151300F12009151300F6CC0D6
:1023D000D9FF6DC0DAFFDECF72F0DDCF73F072C0CF
:1023E000D9FF73C0DAFFDF6E6CC0D9FF6DC0DAFFB2
:1023F000DE2A000EDD220001A307A329D8B438D0BD
:1024000081D720EE02F06C51D9266D51DA22DE50D0
:10241000DE10DE10D8B413D020EE02F06C51D926B5
:102420006D51DA2201D820D00500FA6EDE50FD6E23
:10243000DE50FE6EDE50FF6EFA50300E12006CC0A1
:10244000D9FF6DC0DAFFDECF72F0DDCF73F072C05E
:10245000D9FF73C0DAFF300EDF6E6CC0D9FF6DC0DC
:10246000DAFFDE2A000EDD2200018F07D8A09007D8
:1024700090BF05D09051C5E18F05D8B0C2D7A0BF9D
:1024800009D0A05104E1090E9F5DD8A003D0080E29
:10249000A36F02D09FC0A3F0A3519F5F000EA05B6B
:1024A000A351D8B433D020EE02F06C51D9266D512F
:1024B000DA22DE50DE10DE10D8B413D020EE02F0A7
:1024C0006C51D9266D51DA2201D820D00500FA6E60
:1024D000DE50FD6EDE50FE6EDE50FF6EFA502E0EA8
:1024E00012006CC0D9FF6DC0DAFFDECF72F0DDCF15
:1024F00073F072C0D9FF73C0DAFF2E0EDF6E6CC0AE
:10250000D9FF6DC0DAFFDE2A000EDD220001A351E3
:1025100002ECB6F045C076F046C077F047C078F0E0
:1025200048C079F095C030F096C031F097C032F0D5
:1025300098C033F076C02CF077C02DF078C02EF024
:1025400079C02FF0F2ECC0F02CC04EF02DC04FF04F
:102550002EC050F02FC051F020ECE6F04EC099F0A4
:102560004FC09AF050C09BF051C09CF0A3D099C0CE
:1025700001F09AC002F09BC003F09CC004F0A3518C
:10258000040D010EF324F66EDB0EF420F76EF86AEC
:10259000000EF8220900F5CF05F00900F5CF06F08E
:1025A0000900F5CF07F00A00F5CF08F047ECEAF094
:1025B00001C091F002C092F003C093F004C094F007
:1025C00091C00EF092C00FF093C010F094C011F0C3
:1025D0000A0E126E000E136E000E146E000E156EB3
:1025E000CCECEBF00EC091F00FC092F010C093F065
:1025F00011C094F0000120EE02F06C51D9266D510B
:10260000DA22DE50DE10DE10D8B414D020EE02F054
:102610006C51D9266D51DA2201D822D00500FA6E0C
:10262000DE50FD6EDE50FE6EDE50FF6EFA509151B0
:10263000300F12009151300F6CC0D9FF6DC0DAFF1E
:10264000DECF72F0DDCF73F072C0D9FF73C0DAFF56
:10265000DF6E6CC0D9FF6DC0DAFFDE2A000EDD220E
:1026600099C00EF09AC00FF09BC010F09CC011F002
:102670000001A351040D010EF324F66EDB0EF420CD
:10268000F76EF86A000EF8220900F5CF12F0090083
:10269000F5CF13F00900F5CF14F00A00F5CF15F0CF
:1026A000CCECEBF00EC099F00FC09AF010C09BF08C
:1026B00011C09CF00001A307A329D8B438D057D784
:1026C00020EE02F06C51D9266D51DA22DE50DE1078
:1026D000DE10D8B413D020EE02F06C51D9266D5123
:1026E000DA2201D820D00500FA6EDE50FD6EDE50F1
:1026F000FE6EDE50FF6EFA50300E12006CC0D9FF35
:102700006DC0DAFFDECF72F0DDCF73F072C0D9FF9B
:1027100073C0DAFF300EDF6E6CC0D9FF6DC0DAFF18
:10272000DE2A000EDD2200019F07D8A0A0079F51DE
:10273000A011D8B460D3C4D7C00EA115726F000E1B
:10274000A215736F72517311D8A441D0A1A919D0E9
:1027500070C0D9FF71C0DAFFDFCF72F0040EDE2641
:10276000DFCF73F0000EDD2272C0D9FF73C0DAFF35
:10277000DECF99F0DECF9AF0DECF9BF0DECF9CF07B
:1027800019D070C0D9FF71C0DAFFDFCF72F0020E2E
:10279000DE26DFCF73F0000EDD2272C0D9FF73C0DA
:1027A000DAFFDECF99F0DDCF9AF0000E9ABFFF0E70
:1027B0009B6F9C6F9CAF40D0030EA1139C1F9B1F6F
:1027C0009A1F996D000E9A239B239C2335D0A1A9B3
:1027D00019D070C0D9FF71C0DAFFDFCF72F0040EDC
:1027E000DE26DFCF73F0000EDD2272C0D9FF73C08A
:1027F000DAFFDECF99F0DECF9AF0DECF9BF0DECFAE
:102800009CF01AD070C0D9FF71C0DAFFDFCF72F030
:10281000020EDE26DFCF73F0000EDD2272C0D9FF7C
:1028200073C0DAFFDECF74F0DDCF75F074C099F0BD
:1028300075C09AF09B6B9C6B9F51A011D8A44BD094
:1028400099519A119B119C11D8A445D09F4BA02B54
:1028500042D0010EA36FA351040D010EF324F66EB6
:10286000DB0EF420F76EF86A000EF8220900F5502E
:10287000995D0900F5509A590900F5509B590900D6
:10288000F5509C59D8A032D0A32B0A0EA319D8B466
:102890002DD0E1D7010EA36FA351040DE10EF32457
:1028A000F66ED70EF420F76EF86A000EF8220900D3
:1028B000F550995D0900F5509A590900F5509B595A
:1028C0000900F5509C59D8A011D0A32B080EA319CC
:1028D000D8B40CD0E1D7A151C00B000AD8B4B9D7F5
:1028E000800AD8B4D7D7400AD8B4B3D7A351726FEF
:1028F000736B9F51725D7351800A746FA051800A8F
:102900007459D8B003D09FC0A3F010D0A351726FF8
:10291000736B72519F5DA051800A746F7351800A6E
:102920007459D8B003D0A3C09FF0A06B9D519E11E5
:10293000D8B40DD0030EA115726F000EA215736FDF
:1029400072517311D8B403D09D07D8A09E07A2ADD1
:1029500013D09D519F5DA051800A726F9E51800AD5
:102960007259D8B005D09F519D5FA0519E5B04D095
:10297000000E9E6F000E9D6FA351726F736B9D5181
:10298000725D7351800A746F9E51800A7459D8B079
:1029900005D0A3519D5F000E9E5B04D0000E9E6F7C
:1029A000000E9D6FA1A5B5D0A1A341D020EE02F0ED
:1029B0006C51D9266D51DA22DE50DE10DE10D8B40B
:1029C0001DD0A1B104D0000E846F2B0E03D0000ED9
:1029D000846F2D0E836F20EE02F06C51D9266D515D
:1029E000DA2201D859D00500FA6EDE50FD6EDE50B5
:1029F000FE6EDE50FF6EFA5083511200A1B104D07A
:102A0000000E866F2B0E03D0000E866F2D0E856F85
:102A10006CC0D9FF6DC0DAFFDECF72F0DDCF73F08E
:102A200072C0D9FF73C0DAFF85C0DFFF2ED0A1A12D
:102A300033D020EE02F06C51D9266D51DA22DE50EF
:102A4000DE10DE10D8B413D020EE02F06C51D9267F
:102A50006D51DA2201D820D00500FA6EDE50FD6EED
:102A6000DE50FE6EDE50FF6EFA50200E12006CC07B
:102A7000D9FF6DC0DAFFDECF72F0DDCF73F072C028
:102A8000D9FF73C0DAFF200EDF6E6CC0D9FF6DC0B6
:102A9000DAFFDE2A000EDD2200019D519E11D8B41E
:102AA000A1D120EE02F06C51D9266D51DA22DE5010
:102AB000DE10DE10D8B413D020EE02F06C51D9260F
:102AC0006D51DA2201D820D00500FA6EDE50FD6E7D
:102AD000DE50FE6EDE50FF6EFA50300E12006CC0FB
:102AE000D9FF6DC0DAFFDECF72F0DDCF73F072C0B8
:102AF000D9FF73C0DAFF300EDF6E6CC0D9FF6DC036
:102B0000DAFFDE2A000EDD2200019D07D8A09E0715
:102B1000C4D79D519E11D8B43BD020EE02F06C5129
:102B2000D9266D51DA22DE50DE10DE10D8B413D073
:102B300020EE02F06C51D9266D51DA2201D820D056
:102B40000500FA6EDE50FD6EDE50FE6EDE50FF6E4A
:102B5000FA50200E12006CC0D9FF6DC0DAFFDECF34
:102B600072F0DDCF73F072C0D9FF73C0DAFF200EB0
:102B7000DF6E6CC0D9FF6DC0DAFFDE2A000EDD22E9
:102B800000019D07D8A09E079D519E11D8A4C5D7CE
:102B9000A1A341D020EE02F06C51D9266D51DA226A
:102BA000DE50DE10DE10D8B41DD0A1B104D0000E6E
:102BB000886F2B0E03D0000E886F2D0E876F20EECE
:102BC00002F06C51D9266D51DA2201D80BD10500E3
:102BD000FA6EDE50FD6EDE50FE6EDE50FF6EFA5075
:102BE00087511200A1B104D0000E8A6F2B0E03D0C2
:102BF000000E8A6F2D0E896F6CC0D9FF6DC0DAFF91
:102C0000DECF72F0DDCF73F072C0D9FF73C0DAFF90
:102C100089C0DFFFE0D0A1A1E5D020EE02F06C5129
:102C2000D9266D51DA22DE50DE10DE10D8B413D072
:102C300020EE02F06C51D9266D51DA2201D8D2D0A3
:102C40000500FA6EDE50FD6EDE50FE6EDE50FF6E49
:102C5000FA50200E12006CC0D9FF6DC0DAFFDECF33
:102C600072F0DDCF73F072C0D9FF73C0DAFF200EAF
:102C7000DF6EB1D09FC072F0A0C073F0D8907237F1
:102C80007337D89072377337010E7225F66EDB0EEC
:102C90007321F76EF86A000EF8220900F5CF05F0EF
:102CA0000900F5CF06F00900F5CF07F00A00F5CFCF
:102CB00008F099C001F09AC002F09BC003F09CC0DC
:102CC00004F047ECEAF001C00EF002C00FF003C0C0
:102CD00010F004C011F00A0E126E000E136E000EFA
:102CE000146E000E156ECCECEBF00E50300F0001A0
:102CF000A36F45D099C001F09AC002F09BC003F0C9
:102D00009CC004F09FC072F0A0C073F0D8907237DE
:102D10007337D89072377337E10E7225F66ED70E7F
:102D20007321F76EF86A000EF8220900F5CF05F05E
:102D30000900F5CF06F00900F5CF07F00A00F5CF3E
:102D400008F047ECEAF001500F0B00017A6F9D0E7E
:102D50007A25F66EF76AFA0EF722F86A000EF82264
:102D60000800F5CFA3F00BD0A151C00B000AD8B4D6
:102D700081D7800AD8B4BED7400AD8B47BD720EE1A
:102D800002F06C51D9266D51DA22DE50DE10DE10D1
:102D9000D8B413D020EE02F06C51D9266D51DA224E
:102DA00001D820D00500FA6EDE50FD6EDE50FE6EBA
:102DB000DE50FF6EFA50A35112006CC0D9FF6DC0F7
:102DC000DAFFDECF72F0DDCF73F072C0D9FF73C0CF
:102DD000DAFFA3C0DFFF6CC0D9FF6DC0DAFFDE2AC7
:102DE000000EDD2200019F07D8A0A0079F29BCE1AB
:102DF000A029D8A4B9D700016E51726F6F51736FBB
:102E00006E4B6F2B72C0F6FF73C0F7FF000EF86EAB
:102E10000E0EF76403D00800F55005D0F6CFE9FF99
:102E2000F7CFEAFFEF500001A36FA351D8A494EFAE
:102E30008BF0000E6D6F000E6C6F1200AFEFA0F004
:102E4000000EE86F680E036F030E046FF20E056F3D
:102E5000FB0E066FCEECEEF0790E0201036F030E4F
:102E6000046F110E056FFB0E066FCEECEEF08A0EAE
:102E70000201036F030E046F010E056FFB0E066F58
:102E8000CEECEEF09B0E0201036F030E046FFF51B8
:102E90008FECF2F000C205F201C206F2CEECEEF0C9
:102EA0003BECE0F0010E0201E96F030EE26F12004D
:102EB000000EE86F680E036F030E046F550E056F6A
:102EC000FB0E066FCEECEEF0400E02018C6F050E8D
:102ED0008D6FA80E8E6FFF0E8F6F64ECF4F00BC237
:102EE00090F20CC291F2F2ECEEF0790E0201036F57
:102EF000030E046F400E056F050E066FCEECEEF06C
:102F00008A0E0201036F030E046FD40E056FFA0ED2
:102F1000066FCEECEEF0510E02018C6F050E8D6F38
:102F2000740E8E6FFF0E8F6F67ECF1F00201AD6FC4
:102F3000410EAD25906F916B000E9123A5ECF3F03F
:102F40000201AE6FAE51926F936BF2ECEEF09B0EFE
:102F50000201036F030E046F510E056F050E066F1D
:102F6000CEECEEF03BECE0F0020E9DD7000EE86FE9
:102F7000680E036F030E046FF10E056FFA0E066FF5
:102F8000CEECEEF0790E0201036F030E046F850E96
:102F9000056FFE0E066FCEECEEF08A0E0201036F97
:102FA000030E046F210E056FFB0E066FCEECEEF0E4
:102FB0009B0E0201036F030E046F8D0E056FFB0E57
:102FC000066FCEECEEF03BECE0F0030E6CD7000E9B
:102FD000E86F680E036F030E046F460E056FFC0E5C
:102FE000066FCEECEEF0790E0201036F030E046F54
:102FF000F80E056FFD0E066FCEECEEF08A0E0201A4
:10300000036F030E046F540E056FFC0E066FCEECBB
:10301000EEF09B0E0201036F030E046FE10E056FCD
:10302000FA0E066FCEECEEF03BECE0F0040E3BD770
:10303000000EE86F680E036F030E046F6F0E056FCE
:10304000FB0E066FCEECEEF0790E0201036F030E5D
:10305000046FBC0E056FFD0E066FCEECEEF08A0E0F
:103060000201036F030E046F8CECECF000C205F25A
:1030700001C206F2CEECEEF09B0E0201036F030ECE
:10308000046FBC0E056FFD0E066FCEECEEF03BEC50
:10309000E0F0040E0201E96F010EE26F1200000E73
:1030A000E86F680E036F030E046F000E056FFC0ED1
:1030B000066FCEECEEF0790E02018C6F030E8D6F71
:1030C000050E8E6FFD0E8F6FEDC090F2EEC091F287
:1030D000EFC092F2F0C093F2F2ECEEF08A0E020131
:1030E0008C6F030E8D6F0D0E8E6FFD0E8F6F00C3F4
:1030F00090F201C391F202C392F203C393F2F2EC95
:10310000EEF09B0E02018C6F030E8D6F000E8E6F22
:10311000FD0E8F6F04C390F205C391F206C392F2C5
:1031200007C393F2F2ECEEF03BECE0F0050EB2D701
:10313000000EE86F680E036F030E046F7E0E056FBE
:10314000FC0E066FCEECEEF0790E02018C6F030ED2
:103150008D6F050E8E6FFD0E8F6FE9C090F2EAC085
:1031600091F2EBC092F2ECC093F2F2ECEEF08A0E28
:1031700002018C6F030E8D6F0D0E8E6FFD0E8F6F23
:1031800008C390F209C391F20AC392F20BC393F2FF
:10319000F2ECEEF09B0E02018C6F030E8D6F000EB1
:1031A0008E6FFD0E8F6F0CC390F20DC391F20EC3A4
